:020000040800F2
:1000000000000220A56F0008256E00082D6E000874
:10001000356E00083D6E0008456E000800000000C7
:100020000000000000000000000000004D6E00080D
:100030005B6E000800000000696E0008796E000821
:10004000F56F0008F56F0008F56F0008F56F000800
:10005000F56F0008F56F0008A56E0008F56F000841
:10006000F56F0008F56F0008F56F0008F56F0008E0
:10007000F56F0008F56F0008F56F0008F56F0008D0
:10008000F56F0008F56F0008F56F0008F56F0008C0
:10009000F56F0008F56F0008F56F0008F56F0008B0
:1000A000F56F0008F56F0008F56F0008F56F0008A0
:1000B000F56F0008F56F0008C36E0008F56F0008C3
:1000C000F56F0008F56F0008F56F0008F56F000880
:1000D000F56F0008F56F0008F56F0008D16E000895
:1000E000F56F0008F56F0008F56F0008F56F000860
:1000F000F56F0008F56F0008F56F0008F56F000850
:10010000F56F0008F56F0008F56F0008F56F00083F
:10011000E56E0008F56F0008F56F0008F56F000840
:10012000F96E0008D99F0008F56F0008056F0008F8
:10013000199500080000000000000000F56F00089D
:10014000F56F0008F56F0008F56F0008F56F0008FF
:10015000DD940008F56F000819A00008F56F00088D
:10016000F56F0008F56F0008F56F0008F56F0008DF
:10017000F56F0008F56F00080000000000000000A7
:08018000F56F0008F56F00089F
:1001900010B5054C237833B9044B13B10448AFF3C1
:1001A00000800123237010BD8001002000000000AA
:1001B000F8E2000808B5034B1BB103490348AFF34D
:1001C000008008BD0000000084010020F8E2000863
:1001D00010F8012B11F8013B012A28BF9A42F7D0F1
:1001E000D01A7047034613F8012B002AFBD1181AC6
:1001F000013870470000000000000000000000000F
:1002000001F0FF01102A2BDB10F0070F08D010F8C7
:10021000013B013A8B422DD010F0070F42B3F6D1CB
:10022000F0B441EA012141EA014122F007047FF0E4
:1002300000070023F0E80256083C85EA010586EA3B
:10024000010685FA47F5A3FA87F586FA47F6A5FA77
:1002500087F68EB9EED1F0BC01F0FF0102F0070283
:1002600032B110F8013B013A83EA010313B1F8D12E
:100270000020704701387047002D06BF354603380F
:10028000073815F0010F07D1013015F4807F02BF48
:10029000013015F4C03F0130F0BC0138704700BF99
:1002A00081F0004102E000BF83F0004330B54FEA27
:1002B00041044FEA430594EA050F08BF90EA020F94
:1002C0001FBF54EA000C55EA020C7FEA645C7FEA27
:1002D000655C00F0E2804FEA5454D4EB5555B8BF4A
:1002E0006D420CDD2C4480EA020281EA030382EABB
:1002F000000083EA010180EA020281EA0303362D4D
:1003000088BF30BD11F0004F4FEA01314FF4801C1F
:100310004CEA113102D0404261EB410113F0004F31
:100320004FEA03334CEA133302D0524263EB4303E8
:1003300094EA050F00F0A780A4F10104D5F1200E86
:100340000DDB02FA0EFC22FA05F2801841F10001E1
:1003500003FA0EF2801843FA05F359410EE0A5F1B5
:1003600020050EF1200E012A03FA0EFC28BF4CF0E6
:10037000020C43FA05F3C01851EBE37101F000459C
:1003800007D54FF0000EDCF1000C7EEB00006EEBA9
:100390000101B1F5801F1BD3B1F5001F0CD3490833
:1003A0005FEA30004FEA3C0C04F101044FEA44528A
:1003B00012F5800F80F09A80BCF1004F08BF5FEA11
:1003C000500C50F1000041EB045141EA050130BDF1
:1003D0005FEA4C0C404141EB0101013C28BFB1F503
:1003E000801FE9D291F0000F04BF01460020B1FA4E
:1003F00081F308BF2033A3F10B03B3F120020CDA21
:100400000C3208DD02F1140CC2F10C0201FA0CF0FE
:1004100021FA02F10CE002F11402D8BFC2F1200C63
:1004200001FA02F120FA0CFCDCBF41EA0C01904019
:10043000E41AA2BF01EB0451294330BD6FEA040462
:100440001F3C1CDA0C340EDC04F11404C4F120024D
:1004500020FA04F001FA02F340EA030021FA04F35F
:1004600045EA030130BDC4F10C04C4F1200220FAB6
:1004700002F001FA04F340EA0300294630BD21FAF4
:1004800004F0294630BD94F0000F83F4801306BFBA
:1004900081F480110134013D4EE77FEA645C18BFAE
:1004A0007FEA655C29D094EA050F08BF90EA020F45
:1004B00005D054EA000C04BF1946104630BD91EA3D
:1004C000030F1EBF0021002030BD5FEA545C05D140
:1004D0004000494128BF41F0004130BD14F580047F
:1004E0003CBF01F5801130BD01F0004545F0FE41F3
:1004F00041F470014FF0000030BD7FEA645C1ABF28
:10050000194610467FEA655C1CBF0B46024650EA5E
:10051000013406BF52EA033591EA030F41F400218A
:1005200030BD00BF90F0000F04BF0021704730B510
:100530004FF4806404F132044FF000054FF00001E5
:1005400050E700BF90F0000F04BF0021704730B5A6
:100550004FF4806404F1320410F0004548BF40427B
:100560004FF000013EE700BF42004FEAE2014FEAD0
:1005700031014FEA02701FBF12F07F4393F07F4FAB
:1005800081F06051704732F07F4208BF704793F0AE
:100590007F4F04BF41F40021704730B54FF46074C1
:1005A00001F0004521F000411CE700BF50EA0102C4
:1005B00008BF704730B54FF000050AE050EA01026D
:1005C00008BF704730B511F0004502D5404261EBDD
:1005D00041014FF4806404F132045FEA915C3FF41E
:1005E000D8AE4FF003025FEADC0C18BF03325FEABB
:1005F000DC0C18BF033202EBDC02C2F1200300FA6C
:1006000003FC20FA02F001FA03FE40EA0E0021FA90
:1006100002F11444BDE600BF70B54FF0FF0C4CF47E
:10062000E06C1CEA11541DBF1CEA135594EA0C0F30
:1006300095EA0C0F00F0DEF82C4481EA030621EA6B
:100640004C5123EA4C5350EA013518BF52EA0335A6
:1006500041F4801143F4801338D0A0FB02CE4FF058
:100660000005E1FB02E506F00042E0FB03E54FF088
:100670000006E1FB03569CF0000F18BF4EF0010E80
:10068000A4F1FF04B6F5007F64F5407404D25FEA7C
:100690004E0E6D4146EB060642EAC62141EA55512F
:1006A0004FEAC52040EA5E504FEACE2EB4F1FD0C71
:1006B00088BFBCF5E06F1ED8BEF1004F08BF5FEAEF
:1006C000500E50F1000041EB045170BD06F00046A1
:1006D00046EA010140EA020081EA0301B4EB5C044E
:1006E000C2BFD4EB0C0541EA045170BD41F4801146
:1006F0004FF0000E013C00F3AB8014F1360FDEBF6B
:10070000002001F0004170BDC4F10004203C35DA46
:100710000C341BDC04F11404C4F1200500FA05F3C9
:1007200020FA04F001FA05F240EA020001F000426A
:1007300021F0004110EBD37021FA04F642EB0601E0
:100740005EEA430E08BF20EAD37070BDC4F10C040A
:10075000C4F1200500FA04F320FA05F001FA04F2CE
:1007600040EA020001F0004110EBD37041F10001BA
:100770005EEA430E08BF20EAD37070BDC4F12005C5
:1007800000FA05F24EEA020E20FA04F301FA05F22D
:1007900043EA020321FA04F001F0004121FA04F2D5
:1007A00020EA020000EBD3705EEA430E08BF20EAA5
:1007B000D37070BD94F0000F0FD101F000464000DF
:1007C00041EB010111F4801F08BF013CF7D041EA61
:1007D000060195F0000F18BF704703F00046520065
:1007E00043EB030313F4801F08BF013DF7D043EA36
:1007F0000603704794EA0C0F0CEA135518BF95EAEC
:100800000C0F0CD050EA410618BF52EA4306D1D172
:1008100081EA030101F000414FF0000070BD50EA91
:10082000410606BF1046194652EA430619D094EA1B
:100830000C0F02D150EA013613D195EA0C0F05D105
:1008400052EA03361CBF104619460AD181EA030159
:1008500001F0004141F0FE4141F470014FF0000011
:1008600070BD41F0FE4141F4780170BD70B54FF0AC
:10087000FF0C4CF4E06C1CEA11541DBF1CEA13552C
:1008800094EA0C0F95EA0C0F00F0A7F8A4EB05040E
:1008900081EA030E52EA03354FEA013100F0888005
:1008A0004FEA03334FF0805545EA131343EA1263CE
:1008B0004FEA022245EA111545EA10654FEA002683
:1008C0000EF000419D4208BF964244F1FD0404F53C
:1008D000407402D25B084FEA3202B61A65EB030598
:1008E0005B084FEA32024FF480104FF4002CB6EB55
:1008F000020E75EB030E22BFB61A754640EA0C00D5
:100900005B084FEA3202B6EB020E75EB030E22BF14
:10091000B61A754640EA5C005B084FEA3202B6EB55
:10092000020E75EB030E22BFB61A754640EA9C0014
:100930005B084FEA3202B6EB020E75EB030E22BFE4
:10094000B61A754640EADC0055EA060E18D04FEAA2
:10095000051545EA16754FEA06164FEAC30343EA42
:1009600052734FEAC2025FEA1C1CC0D111F4801F0F
:100970000BD141EA00014FF000004FF0004CB6E708
:1009800011F4801F04BF01430020B4F1FD0C88BFA7
:10099000BCF5E06F3FF6AFAEB5EB030C04BFB6EBB2
:1009A000020C5FEA500C50F1000041EB045170BDA5
:1009B0000EF0004E4EEA113114EB5C04C2BFD4EBD2
:1009C0000C0541EA045170BD41F480114FF0000E56
:1009D000013C90E645EA060E8DE60CEA135594EAD2
:1009E0000C0F08BF95EA0C0F3FF43BAF94EA0C0FD5
:1009F0000AD150EA01347FF434AF95EA0C0F7FF44A
:100A000025AF104619462CE795EA0C0F06D152EA9D
:100A100003353FF4FDAE1046194622E750EA410681
:100A200018BF52EA43067FF4C5AE50EA41047FF492
:100A30000DAF52EA43057FF4EBAE12E74FF0FF3CF7
:100A400006E000BF4FF0010C02E000BF4FF0010CC8
:100A50004DF804CD4FEA410C7FEA6C5C4FEA430C41
:100A600018BF7FEA6C5C1BD001B050EA410C0CBF90
:100A700052EA430C91EA030F02BF90EA020F0020F2
:100A8000704710F1000F91EA030F58BF994208BF59
:100A900090422CBFD8176FEAE37040F00100704716
:100AA0004FEA410C7FEA6C5C02D150EA013C07D16D
:100AB0004FEA430C7FEA6C5CD6D152EA033CD3D0B8
:100AC0005DF8040B704700BF8446104662468C46B2
:100AD0001946634600E000BF01B5FFF7B7FF0028E5
:100AE00048BF10F1000F01BD4DF808EDFFF7F4FF0E
:100AF0000CBF012000205DF808FB00BF4DF808ED99
:100B0000FFF7EAFF34BF012000205DF808FB00BFBB
:100B10004DF808EDFFF7E0FF94BF012000205DF8DD
:100B200008FB00BF4DF808EDFFF7CEFF94BF012092
:100B300000205DF808FB00BF4DF808EDFFF7C4FF8B
:100B400034BF012000205DF808FB00BF4FEA4102DE
:100B500012F5001215D211D56FF47873B3EB62520F
:100B600012D94FEAC12343F0004343EA505311F036
:100B7000004F23FA02F018BF404270474FF00000C8
:100B8000704750EA013005D111F0004008BF6FF006
:100B9000004070474FF00000704700BF4A0011D27C
:100BA00012F5001211D20DD56FF47873B3EB6252C7
:100BB0000ED44FEAC12343F0004343EA505323FAD3
:100BC00002F070474FF00000704750EA013002D148
:100BD0004FF0FF3070474FF0000070474FEA41027E
:100BE000B2F1E04324BFB3F5001CDCF1FE5C0DD98B
:100BF00001F0004C4FEAC0024CEA5070B2F1004FD5
:100C000040EB830008BF20F00100704711F0804FD7
:100C100021D113F13872BCBF01F00040704741F49C
:100C200080114FEA5252C2F11802C2F1200C10FAA0
:100C30000CF320FA02F018BF40F001004FEAC12384
:100C40004FEAD32303FA0CFC40EA0C0023FA02F328
:100C50004FEA4303CCE77FEA625307D150EA0133FE
:100C60001EBF4FF0FE4040F44000704701F00040CE
:100C700040F0FE4040F40000704700BF53B94AB94D
:100C8000002908BF00281CBF4FF0FF314FF0FF3094
:100C900000F088B9ADF1080C6DE904CE00F006F85B
:100CA000DDF804E0DDE9022304B070472DE9F047E8
:100CB000089D8E4604468846002B4AD18A42174634
:100CC00062D9B2FA82F64EB1C6F1200301FA06F8F3
:100CD00020FA03F3B74043EA0808B4404FEA174E3E
:100CE0001FFA87FCB8FBFEF1230C0EFB118843EAC8
:100CF000084301FB0CF29A4209D9FB1801F1FF30BD
:100D000080F0EA809A4240F2E78002393B449A1A26
:100D1000A3B2B2FBFEF00EFB102243EA024300FB3B
:100D20000CFC9C4509D9FB1800F1FF3280F0D680FD
:100D30009C4540F2D3803B44023840EA0140A3EB9B
:100D40000C0300211DB1F3400022C5E90032BDE8CB
:100D5000F0878B4205D90DB1C5E900010021084695
:100D6000F5E7B3FA83F1002946D1734502D38242F5
:100D700000F20581841A6EEB030201209046002DDB
:100D8000E5D0C5E90048E2E7002A00F09080B2FA19
:100D900082F6002E40F0A4808A1A030C4FEA174E08
:100DA00080B2BCB20121B2FBFEFC0EFB1C2243EA66
:100DB000024304FB0CF29A4207D9FB180CF1FF38EE
:100DC00002D29A4200F2E080C4469B1AB3FBFEF2C4
:100DD0000EFB123340EA034302FB04F49C4207D9A2
:100DE000FB1802F1FF3002D29C4200F2CA80024698
:100DF0001B1B42EA0C40A5E7C1F120068B4022FAFA
:100E000006F71F430EFA01F420FA06F32EFA06FE47
:100E10004FEA1749234300FA01F81FFA87FCBEFB8B
:100E2000F9F01C0C09FB10EE44EA0E4400FB0CFE2A
:100E3000A64502FA01F209D93C1900F1FF3A80F007
:100E40009C80A64540F2998002383C44A4EB0E04F5
:100E50001FFA83FEB4FBF9F309FB13444EEA044482
:100E600003FB0CFCA44508D93C1903F1FF3E80F0BC
:100E70008280A4457FD9023B3C4443EA0040A4EB76
:100E80000C04A0FB02EC64457346E14662D35FD0DC
:100E90005DB1B8EB030264EB090404FA06F622FA2A
:100EA00001F31E43CC40C5E9006400214FE7B1FBCC
:100EB000F2FC010C41EA0E4180B240EA01423B469D
:100EC00038463C46B846BE462026B1FBF7F1A2EBB9
:100ED000080241EA0C4166E7014618E710462CE794
:100EE000C6F120022EFA02F3B740B14020FA02F216
:100EF0004FEA174E0A43B3FBFEF8BCB20EFB1833A1
:100F0000110C41EA034108FB04F9B04089454FEA5E
:100F1000104380B23ED9791808F1FF3C01D28945CF
:100F20001FD8A1EB0901B1FBFEF909FB04F80EFB88
:100F3000191192B242EA0142424529D2BA1809F186
:100F4000FF31C4D24245C2D2A9F102013A44BEE700
:100F5000F0459DD2BEEB02036CEB070C0138E14675
:100F600096E7A7EB09094944A8F1020CB1FBFEF989
:100F700009FB04F8DBE773467FE7504666E708465F
:100F8000FDE63B44023A33E7ACF1020C3B441CE77C
:100F900049469CE7A1EB0901C446B1FBFEF909FBF8
:100FA00004F8C4E7704700BF80B483B000AF786036
:100FB0007B681B6823F001027B681A6000BF0C3756
:100FC000BD465DF8047B7047B0B582B000AF08F055
:100FD00085F908F023FF124B00221A70114B0022F2
:100FE0001A70114B00221A700023FB710FE0FB797D
:100FF0000E4A5B0113440E4A1C4615460FCD0FC422
:1010000095E80F0084E80F00FB790133FB71FB7951
:10101000092BECD900BF00BF0837BD46B0BD00BFEB
:10102000DC020020DD020020DE0200209C01002006
:1010300000000020B0B588B002AF7860B14B1B78DB
:10104000032B00F2558101A252F823F05D10000835
:1010500079100008A9120008D5120008AA4B002236
:101060001A70AA4B1B78012B02D1A84B00221A70D0
:1010700001200BF005F840E1A34B1B78002B00F09A
:1010800039810023FB7508F0DBFE08F051F90023DD
:10109000FB75F9E0FB7D9E499E4A5B0113440C46BB
:1010A0001D460FCD0FC495E80F0084E80F00002304
:1010B0003B610023FB600123BB60954B1879944B87
:1010C0005979934B5B881A4613469B0013445B0087
:1010D000013B1A4608F0E9F802463B6913443B61BC
:1010E0008B4B18798A4B5979894B9B891A46134641
:1010F0009B0013445B00013B1C46854BDB891A4671
:1011000013469B0013445B00013B1A46804B1B7A3D
:101110000193012300931346224608F075F8024616
:101120003B6913443B617A4B1879794B5979784B79
:101130005B891A4613469B0013445B00013B1A4629
:1011400008F0B3F802463B6913443B61704B587991
:101150006F4B19796E4B1B8A1A4613469B0013443A
:101160005B00013B1C466A4B5B8A1A4613469B0098
:1011700013445B00013B1A46654B5B7A01930123E4
:1011800000931346224608F03FF802463B69134499
:101190003B613B69013B3B615D4B18795C4B597985
:1011A0005B4BDB881A4613469B0013445B00013BF4
:1011B0001A4608F07AF80246FB681344FB60544B69
:1011C0001879534B5979524B1B8B1A4613469B0087
:1011D00013445B00013B1C464D4B5B8B1A46134688
:1011E0009B0013445B00013B1A46494B1B7D019356
:1011F000012300931346224608F006F80246FB68D6
:101200001344FB60424B1879414B5979404BDB8AC0
:101210001A4613469B0013445B00013B1A4608F034
:1012200044F80246FB681344FB60394B5879384B4D
:101230001979374B9B8B1A4613469B0013445B006E
:10124000013B1C46324BDB8B1A4613469B00134472
:101250005B00013B1A462E4B5B7D019301230093FB
:101260001346224607F0D0FF0246FB681344FB609A
:10127000FB68013BFB60FB7DBA68F968386908F0E0
:1012800085FDFB7D0133FB751F4B1B78FA7D9A4270
:10129000FFF400AF08F06CFE08F0E8F800F0C8F9C1
:1012A000184B02221A7028E008F026F80346002B9B
:1012B00022D01948FFF778FE08F010F808F0AEFDCC
:1012C00000F0C6F9154916480BF016FE0D4B00222A
:1012D0001A7011E008F046F808F0CCFD07F0FEFFA8
:1012E00008F09CFD00F0B4F9064B00221A7004E0EF
:1012F00000BF02E000BF00E000BF00BF1837BD46DE
:10130000B0BD00BFDD020020DC020020DE020020B4
:10131000E00200209C0100200000014010E30008D2
:10132000D041002080B483B000AF78607B681B6838
:1013300003F02003202B0CBF01230023DBB218464F
:101340000C37BD465DF8047B704780B483B000AFB6
:1013500078607B6820229A6000BF0C37BD465DF83C
:10136000047B704780B483B000AF78607B681B68F3
:1013700043F001027B681A6000BF0C37BD465DF880
:10138000047B704780B483B000AF78607B681B68D3
:1013900023F001027B681A6000BF0C37BD465DF880
:1013A000047B704780B483B000AF786039607B689D
:1013B0001B6823F070023B681A437B681A6000BF09
:1013C0000C37BD465DF8047B704780B483B000AF36
:1013D000786039607B683A685A6200BF0C37BD4656
:1013E0005DF8047B704780B483B000AF78603960EB
:1013F0007B683A689A6200BF0C37BD465DF8047B93
:10140000704780B483B000AF786039607B683A6819
:10141000DA6200BF0C37BD465DF8047B704780B4CC
:1014200083B000AF78607B686FF001021A6100BF83
:101430000C37BD465DF8047B704780B483B000AFC5
:1014400078607B681B6903F00103012B01D1012344
:1014500000E0002318460C37BD465DF8047B70475A
:1014600080B483B000AF78607B68DB6843F0010232
:101470007B68DA6000BF0C37BD465DF8047B7047BF
:1014800080B483B000AF78607B68DB6823F0010232
:101490007B68DA6000BF0C37BD465DF8047B70479F
:1014A00080B500AF264807F080F94FF400420021D4
:1014B000234807F0ECF84FF430420121204807F0B0
:1014C000E6F848F201020B211D4807F0E0F89FED15
:1014D000101B9FED110B1A4807F07AF99FED101BB6
:1014E0009FED0D0B164807F0B3F99FED0F1B9FED15
:1014F0000A0B134807F008FA9FED0D0B104807F090
:101500005FFA9FED0D0B0E4807F08EFA00BF80BD0D
:1015100000000000000024400000004008AC8C3FA8
:10152000000000000000144000000000000014C093
:101530000000000000607340000000000000000098
:10154000380000200000000080B582B000AF87EDB9
:10155000010A0B4A7B6893637868FFF705F8024637
:101560000B4643EC112B9FED040B064807F070F976
:1015700000BF0837BD4680BD0000004008AC8C3F6E
:10158000884100203800002080B582B000AF0C48B0
:1015900007F07EFA53EC102B10461946FFF71EFB9E
:1015A00003467B60D7ED017A9FED067AC7EE876A26
:1015B000F0EE667AB0EE670A0837BD4680BD00BF20
:1015C000380000204260653C80B400AF034B93F8C4
:1015D0003D301846BD465DF8047B704788410020C9
:1015E00080B500AF044807F0CAFA044B002283F824
:1015F0003D2000BF80BD00BF380000208841002092
:1016000080B500AF47210948FFF7EDFE31210748BB
:10161000FFF7F7FE00210548FFF7C4FE0348FFF778
:10162000B1FE0248FFF72CFF00BF80BD000800405C
:1016300080B500AF00210548FFF7C7FE0348FFF75C
:101640000FFF0248FFF78EFE00BF80BD000800407C
:1016500080B500AF0548FFF795FE0448FFF710FF7F
:10166000034B00221A8000BF80BD00BF000800406D
:101670008041002080B483B000AF786000BF0C3799
:10168000BD465DF8047B704780B500AF0E48FFF79C
:10169000D4FE0346002B15D00B48FFF7C0FE0B4BC2
:1016A0001B78002B02D0012B06D00BE00322052172
:1016B000074807F071FA05E003220721044807F004
:1016C0006BFA00BF00BF80BD00080040C841002089
:1016D000380000200000000098B500AF2C48FFF74C
:1016E00021FE0346002B4DD02948FFF72EFE294846
:1016F00006F0BDFF284B1B78002B02D0012B1CD01D
:101700003CE0244807F08CFA51EC100B1EA3D3E9FF
:101710000023FEF781FF02460B46204909880C464C
:1017200010461946FFF75AFA02461D49A3000B441A
:101730001A60194B01221A7024E0164807F09CFA2F
:1017400051EC100B154B1B881C46FFF747FA02465D
:101750001449A3000B441A60104B1B8801339AB242
:101760000E4B1A800D4B1B88B3F5FA6F02D30B4B4F
:1017700000221A80084B00221A7003E0064B002258
:101780001A7000BF00BF98BDBBD6DEA7AAAA404012
:101790000064024038000020C84100208041002041
:1017A000402200200003002080B500AF064B03223A
:1017B0001A70064B012283F83D20054905480BF0BD
:1017C0009BFB00BF80BD00BFDD02002088410020E0
:1017D0002CE30008D041002080B500AF02F080FC6F
:1017E00003F0BCFC08F0FEF9FFF7EEFBFFF758FE34
:1017F000FFF706FF42F210700AF0A0FB0AF0C0FBF0
:10180000FCE780B483B000AF786000BF0C37BD4602
:101810005DF8047B7047000080B400AFBFF34F8FCA
:1018200000BF064BDB6803F4E0620449044B13433A
:10183000CB60BFF34F8F00BF00BFFDE700ED00E0BE
:101840000400FA0580B586B000AFF860B9607A6030
:10185000B86808F001FF0346FB75FB7D012B04D837
:101860002D49F86808F0F4FD52E0FB7D022B04D905
:101870002A49F86808F0ECFD4AE00121B86808F050
:10188000B5FE034618460BF0F0FB03469BB23B82C5
:101890000221B86808F0AAFE034618460BF0E5FBE3
:1018A00003469BB27B823B8AB3F5967F04D91C49E1
:1018B000F86808F0CDFD2BE07B8A322B04D918495B
:1018C000F86808F0C5FD23E0164B1B6800221A706B
:1018D0003B8A1B0A9AB2134B1B68D2B25A703A8ADF
:1018E000104B1B68D2B29A707B8A1B0A9AB20D4BBE
:1018F0001B68D2B2DA707A8A0A4B1B68D2B21A71AC
:10190000052002F08FFB0849F86808F0A1FD00BF30
:101910001837BD4680BD00BFE0EF0008F8EF0008B3
:1019200010F00008E800002028F0000880B586B01C
:1019300000AFF860B9607A60B86808F08DFE0346C1
:10194000FB75FB7D002B04D11D49F86808F080FD74
:1019500032E0FB7D012B04D91A49F86808F078FDC4
:101960002AE00121B86808F041FE034618460BF052
:101970007CFB0346BB82BB8AB3F5967F04D9124930
:10198000F86808F065FD17E0104B1B6801221A701B
:10199000BB8A1B0A9AB20D4B1B68D2B25A700B4B12
:1019A0001B68BA8AD2B29A70032002F03BFB084946
:1019B000F86808F04DFD00BF1837BD4680BD00BF78
:1019C000E0EF0008F8EF000810F00008E800002041
:1019D00028F0000880B586B000AFF860B9607A6082
:1019E000B86808F039FE0346FB75FB7D002B04D177
:1019F0001C49F86808F02CFD31E0FB7D012B04D96F
:101A00001949F86808F024FD29E00121B86808F0B8
:101A1000EDFD034618460BF028FB0346BB82BB8A4C
:101A2000322B04D91149F86808F012FD17E0104B69
:101A30001B6802221A70BB8A1B0A9AB20C4B1B68E5
:101A4000D2B25A700A4B1B68BA8AD2B29A7003207B
:101A500002F0E8FA0749F86808F0FAFC00BF183706
:101A6000BD4680BDE0EF0008F8EF000810F0000868
:101A7000E800002028F0000880B586B000AFF860CC
:101A8000B9607A60B86808F0E7FD0346FB75FB7D36
:101A9000012B04D82449F86808F0DAFC41E0FB7D0A
:101AA000022B04D92149F86808F0D2FC39E0012161
:101AB000B86808F09BFD034618460BF0D6FA0346BB
:101AC000DBB23B750221B86808F090FD034618466A
:101AD0000BF0CBFA0346DBB27B753B7D012B04D9BF
:101AE0001349F86808F0B4FC1BE07B7D012B04D996
:101AF0000F49F86808F0ACFC13E00E4B1B6803229A
:101B00001A700C4B1B683A7D5A700A4B1B687A7D21
:101B10009A70032002F086FA0749F86808F098FCEA
:101B200000BF1837BD4680BDE0EF0008F8EF0008A1
:101B300010F00008E800002028F0000880B586B00A
:101B400000AFF860B9607A60B86808F085FD0346B8
:101B5000FB75FB7D012B04D82449F86808F078FC5C
:101B600041E0FB7D022B04D92149F86808F070FCA4
:101B700039E00121B86808F039FD034618460BF03A
:101B800074FA0346DBB23B750221B86808F02EFDFB
:101B9000034618460BF069FA0346DBB27B753B7DC2
:101BA000012B04D91349F86808F052FC1BE07B7D37
:101BB000012B04D90F49F86808F04AFC13E00E4BDA
:101BC0001B6804221A700C4B1B683A7D5A700A4B32
:101BD0001B687A7D9A70032002F024FA0749F8689E
:101BE00008F036FC00BF1837BD4680BDE0EF0008A6
:101BF000F8EF000810F00008E800002028F00008C6
:101C000080B586B000AFF860B9607A60B86808F057
:101C100023FD0346FB75FB7D002B04D00D49F868BE
:101C200008F016FC13E00C4B1B6805221A700A4BD7
:101C30001B6800225A70084B1B6801229A7003200F
:101C400002F0F0F90549F86808F002FC00BF183707
:101C5000BD4680BDF8EF0008E800002028F000082D
:101C600080B586B000AFF860B9607A60B86808F0F7
:101C7000F3FC0346FB75FB7D002B04D00D49F8688F
:101C800008F0E6FB13E00C4B1B6805221A700A4BA8
:101C90001B6801225A70084B1B6800229A700320AF
:101CA00002F0C0F90549F86808F0D2FB00BF183708
:101CB000BD4680BDF8EF0008E800002028F00008CD
:101CC00080B586B000AFF860B9607A60B86808F097
:101CD000C3FC03467B617B69002B04D00949F8688B
:101CE00008F0B6FB0BE0084B1B6807221A700120B6
:101CF00002F098F90549F86808F0AAFB00BF183708
:101D0000BD4680BDF8EF0008E800002028F000087C
:101D100080B586B000AFF860B9607A60B86808F046
:101D20009BFC03467B617B69002B04D00949F86862
:101D300008F08EFB0BE0084B1B6809221A7001208B
:101D400002F070F90549F86808F082FB00BF183707
:101D5000BD4680BDF8EF0008E800002028F000082C
:101D600080B586B000AFF860B9607A60B86808F0F6
:101D700073FC03467B617B69002B04D00949F8683A
:101D800008F066FB0BE0084B1B6808221A70012064
:101D900002F048F90549F86808F05AFB00BF183707
:101DA000BD4680BDF8EF0008E800002028F00008DC
:101DB00080B586B000AFF860B9607A60B86808F0A6
:101DC0004BFC03467B617B69002B04D00949F86812
:101DD00008F03EFB0BE0084B1B680A221A7001203A
:101DE00002F020F90549F86808F032FB00BF183707
:101DF000BD4680BDF8EF0008E800002028F000088C
:101E000080B586B000AFF860B9607A60B86808F055
:101E100023FC03467B617B69002B04D00949F868E9
:101E200008F016FB0BE0084B1B6806221A70012015
:101E300002F0F8F80549F86808F00AFB00BF183707
:101E4000BD4680BDF8EF0008E800002028F000083B
:101E500080B586B000AFF860B9607A60B86808F005
:101E6000FBFB03467B617B69002B04D00949F868C2
:101E700008F0EEFA0BE0084B1B680B221A700120E9
:101E800002F0D0F80549F86808F0E2FA00BF183708
:101E9000BD4680BDF8EF0008E800002028F00008EB
:101EA00080B586B000AFF860B9607A60B86808F0B5
:101EB000D3FB03467B617B69002B04D00949F8689A
:101EC00008F0C6FA0BE0084B1B6810221A700120BC
:101ED00002F0A8F80549F86808F0BAFA00BF183708
:101EE000BD4680BDF8EF0008E800002028F000089B
:101EF00080B596B000AFF860B9607A60334B1B785C
:101F0000002B04D03249F86808F0A2FA5BE0B86808
:101F100008F0A2FB034687F8573097F85730012B9B
:101F200004D82C49F86808F093FA4CE097F8573039
:101F3000022B04D92849F86808F08AFA43E0012105
:101F4000B86808F053FB034618460BF08EF80346BA
:101F5000DBB287F850300221B86808F047FB03462F
:101F600018460BF082F80346DBB287F8513097F839
:101F70005030013B194AD35C87F8563097F85130FE
:101F8000013B164AD35C87F8553097F8552097F8EF
:101F900056301146184603F07FF90346A7F8523031
:101FA000B7F8522007F110030D4918460BF01CF941
:101FB00007F110031946F86808F04AFA0949F86869
:101FC00008F046FA00BF5837BD4680BDDD0200204C
:101FD00038F00008E0EF0008F8EF0008DC0000200F
:101FE0005CF0000828F0000880B588B000AFF86009
:101FF000B9607A60B86808F02FFB0346FB77FB7F77
:10200000012B04D83349F86808F022FA5EE0FB7F20
:10201000022B04D93049F86808F01AFA56E0012179
:10202000B86808F0E3FA034618460BF01EF80346BA
:10203000DBB23B750221B86808F0D8FA03461846AF
:102040000BF013F80346DBB27B753B7D0B2B04D9F9
:102050002249F86808F0FCF938E07B7D092B04D9A7
:102060001E49F86808F0F4F930E03B7D0B2B07D1EE
:102070007B7D072B04D91949F86808F0E9F925E0B8
:102080003B7D002B07D17B7D002B04D11349F868E1
:1020900008F0DEF91AE03B7D07EE903AB8EE677A79
:1020A0007B7D07EE903AF8EE677ADFED0D6A67EE1A
:1020B000A67A77EE277AC7ED067A97ED060AFFF73C
:1020C00043FA0849F86808F0C3F900BF2037BD4655
:1020D00080BD00BFE0EF0008F8EF000810F0000836
:1020E000CDCCCC3D28F0000880B596B000AFF860AC
:1020F000B9607A60B86808F0AFFA034687F85730DD
:1021000097F85730002B04D01449F86808F0A0F96C
:1021100020E0FFF739FAF0EE407A9FED117A67EE92
:10212000877AC7ED147AD7ED147AFDEEE77A07F1D6
:10213000100317EE902A0B4918460BF055F807F1DB
:1021400010031946F86808F083F90749F86808F0A1
:102150007FF900BF5837BD4680BD00BFF8EF0008CB
:1021600000007A4474F0000828F0000880B586B0BA
:1021700000AFF860B9607A60B86808F06DFA03469D
:10218000FB75FB7D002B04D00E49F86808F060F960
:1021900014E0FFF719FA0346BB75BB7D002B04D092
:1021A0000949F86808F054F903E00849F86808F0AC
:1021B0004FF90749F86808F04BF900BF1837BD46DA
:1021C00080BD00BFF8EF00089CF00008C0F00008D8
:1021D00028F0000880B586B000AFF860B9607A607A
:1021E000B86808F039FA0346FB75FB7D002B04D074
:1021F0000749F86808F02CF906E0FFF7F1F90549FE
:10220000F86808F025F900BF1837BD4680BD00BF4B
:10221000F8EF000828F0000880B5A6B000AFF8601D
:10222000B9607A60B86808F017FA0346C7F89430C6
:10223000D7F89430002B04DC3349F86808F008F92B
:102240005FE0D7F89430012B04DD3049F86808F0DE
:10225000FFF856E00121B86808F0C8F903461846AF
:102260000AF003FF034687F8933097F89330002B6A
:1022700003D097F893300A2B04D92549F86808F061
:10228000E7F83EE097F89320224B1B7802339A42FE
:102290001FDD214B1B785A1C97F8933007F1100073
:1022A0001E490AF0A1FF07F1100319461C480AF065
:1022B00023FE194B1B781A4607F1100319491846DB
:1022C0000AF092FF07F11003194615480AF014FEB0
:1022D00017E097F89330013BDAB20E4B1A700D4BB2
:1022E0001B78114A5B01134401221A70094B1B78B9
:1022F0000133DAB2084B1A700C49F86808F0A8F8F4
:1023000000BF9837BD4680BDE0EF0008F8EF000839
:1023100010F00008C9410020DC020020E4F00008B1
:10232000D041002018F100089C01002028F000088E
:1023300080B586B000AFF860B9607A60B86808F020
:102340008BF903467B617B69002B03D00D49F8684C
:1023500008F07EF80C4B1B780C4A5B0113440022FA
:102360001A70094B1B785A1ED1B2074A1170084ADD
:1023700013700849F86808F06BF800BF1837BD46BD
:1023800080BD00BF10F00008C94100209C01002062
:10239000DC02002028F0000880B586B000AFF860AD
:1023A000B9607A60B86808F057F903467B617B69C9
:1023B000002B04D00D49F86808F04AF813E00C4BE4
:1023C0001B780C4A5B01134400221A70084B1B78DF
:1023D000084A5B011344013301221A700649F86868
:1023E00008F036F800BF1837BD4680BD10F0000871
:1023F000C94100209C01002028F0000880B586B06B
:1024000000AFF860B9607A60B86808F025F9034653
:102410007B617B69002B04DC1A49F86808F018F826
:102420002CE07B69012B04DD1749F86808F010F8EF
:1024300024E0164B1B78164A5B0113441B7883F08B
:102440000103DBB2002B18D10121B86808F0CEF8E7
:10245000034618460AF009FE0346FB740B4B1B7833
:10246000FA7C91B20A4A5B01134402330A461A808D
:102470000849F86807F0ECFF00E000BF1837BD46D8
:1024800080BD00BFE0EF0008F8EF0008C941002060
:102490009C01002028F0000880B586B000AFF860ED
:1024A000B9607A60B86808F0D7F803467B617B6949
:1024B000012B04DC2849F86807F0CAFF48E07B6973
:1024C000022B04DD2549F86807F0C2FF40E0012136
:1024D000B86808F08BF8034618460AF0C6FD0346B4
:1024E000DBB23B740221B86808F080F80346184656
:1024F0000AF0BBFD0346DBB27B74194B1B78194A0B
:102500005B0113441B7883F00103DBB2002B1ED167
:102510003B7C013B124A12781046134AD15C114AA7
:102520004301134404330A461A707B7C013B0C4A76
:10253000127810460C4AD15C0A4A43011344053311
:102540000A461A700949F86807F082FF00E000BFE8
:102550001837BD4680BD00BFE0EF0008F8EF000867
:10256000C94100209C010020DC00002028F0000868
:1025700080B58AB000AFF860B9607A60B86808F0DA
:102580006BF803467B627B6A032B04DC4049F868E6
:1025900007F05EFF79E07B6A042B04DD3D49F868B3
:1025A00007F056FF71E03C4B1B783C4A5B0113443B
:1025B0001B7883F00103DBB2002B65D10121B868E1
:1025C00008F014F8034618460AF04FFD03467B61F5
:1025D0000221B86808F00AF8034618460AF045FDDB
:1025E0000346BB610321B86808F000F803461846AB
:1025F0000AF03BFD0346FB610421B86807F0F6FFD3
:10260000034618460AF031FD03463B627B69142BF2
:1026100008DCBB69142B05DCFB69142B02DC3B6A6C
:10262000142B04DD1E49F86807F012FF2DE07A69CB
:10263000194B1B78D1B2194A5B01134408330A467F
:102640001A70BA69144B1B78D1B2144A5B01134457
:1026500009330A461A70FA690F4B1B78D1B20F4A38
:102660005B01134414330A461A703A6A0A4B1B780A
:10267000D1B20A4A5B01134415330A461A7009495C
:10268000F86807F0E5FE00E000BF2837BD4680BDD2
:10269000E0EF0008F8EF0008C94100209C0100208D
:1026A00010F0000828F0000880B588B000AFF8608E
:1026B000B9607A60B86807F0CFFF0346FB61FB6939
:1026C000022B04DC2E49F86807F0C2FE54E0FB69D7
:1026D000032B04DD2B49F86807F0BAFE4CE02A4BC7
:1026E0001B782A4A5B0113441B7883F00103DBB299
:1026F000002B40D10121B86807F078FF0346184647
:102700000AF0B3FC03463B610221B86807F06EFF94
:10271000034618460AF0A9FC03467B610321B8680A
:1027200007F064FF034618460AF09FFC0346BB61AE
:102730003A69154B1B7891B2144A5B0113440A3372
:102740000A461A807A69104B1B7891B20F4A5B01D6
:10275000134416330A461A80BA690B4B1B7891B2A0
:102760000A4A5B01134406330A461A800849F8688E
:1027700007F06EFE00E000BF2037BD4680BD00BF01
:10278000E0EF0008F8EF0008C94100209C0100209C
:1027900028F0000880B588B000AFF860B9607A60B2
:1027A000B86807F059FF0346FB61FB69012B04DCA5
:1027B0003049F86807F04CFE58E0FB69022B04DD55
:1027C0002D49F86807F044FE50E02C4B1B782C4A4A
:1027D0005B0113441B7883F00103DBB2002B44D16F
:1027E0000121B86807F002FF034618460AF03DFCD5
:1027F00003467B610221B86807F0F8FE03461846DD
:102800000AF033FC0346BB617B69B3F57A7F02DCD7
:102810007B69002B04DC1B49F86807F019FE25E0F2
:10282000BB69B3F57A7F02DCBB69002B04DC154978
:10283000F86807F00DFE19E07A69104B1B7891B229
:102840000F4A5B0113440C330A461A80BA690B4BDA
:102850001B7891B20A4A5B0113440E330A461A8070
:102860000949F86807F0F4FD00E000BF2037BD46D5
:1028700080BD00BFE0EF0008F8EF0008C94100206C
:102880009C01002010F0000828F0000880B588B0F6
:1028900000AFF860B9607A60B86807F0DDFE034603
:1028A000FB61FB69012B04DC3049F86807F0D0FDBF
:1028B00058E0FB69022B04DD2D49F86807F0C8FDDC
:1028C00050E00121B86807F091FE034618460AF06F
:1028D000CCFB03467B610221B86807F087FE034604
:1028E00018460AF0C2FB0346BB617B69B3F57A7FE9
:1028F00002DC7B69002B04DC1E49F86807F0A8FDA8
:1029000030E0BB69B3F57A7F02DCBB69002B04DCE5
:102910001849F86807F09CFD24E0174B1B78174A0C
:102920005B0113441B7883F00103DBB2002B18D149
:102930007A69114B1B7891B2104A5B011344103332
:102940000A461A80BA690C4B1B7891B20B4A5B019C
:10295000134412330A461A800949F86807F078FDD3
:1029600000E000BF2037BD4680BD00BFE0EF00089B
:10297000F8EF000810F00008C94100209C01002079
:1029800028F0000880B588B000AFF860B9607A60C0
:10299000B86807F061FE0346FB61FB69012B04DCAC
:1029A0003049F86807F054FD58E0FB69022B04DD5C
:1029B0002D49F86807F04CFD50E00121B86807F098
:1029C00015FE034618460AF050FB03467B610221C0
:1029D000B86807F00BFE034618460AF046FB0346AC
:1029E000BB617B69B3F57A7F02DC7B69002B04DC79
:1029F0001E49F86807F02CFD30E0BB69B3F57A7F1B
:102A000002DCBB69002B04DC1849F86807F020FDE4
:102A100024E0174B1B78174A5B0113441B7883F0A3
:102A20000103DBB2002B18D17A69114B1B7891B2EC
:102A3000104A5B01134418330A461A80BA690C4BDA
:102A40001B7891B20B4A5B0113441A330A461A8071
:102A50000949F86807F0FCFC00E000BF2037BD46DC
:102A600080BD00BFE0EF0008F8EF000810F000089C
:102A7000C94100209C01002028F0000880B588B0E2
:102A800000AFF860B9607A60B86807F0E5FD03460A
:102A9000FB61FB69012B04DC3049F86807F0D8FCC6
:102AA00058E0FB69022B04DD2D49F86807F0D0FCE3
:102AB00050E00121B86807F099FD034618460AF076
:102AC000D4FA03467B610221B86807F08FFD034604
:102AD00018460AF0CAFA0346BB617B69B3F57A7FF0
:102AE00002DC7B69002B04DC1E49F86807F0B0FCAF
:102AF00030E0BB69B3F57A7F02DCBB69002B04DCF4
:102B00001849F86807F0A4FC24E0174B1B78174A13
:102B10005B0113441B7883F00103DBB2002B18D157
:102B20007A69114B1B7891B2104A5B0113441C3334
:102B30000A461A80BA690C4B1B7891B20B4A5B01AA
:102B400013441E330A461A800949F86807F080FCCE
:102B500000E000BF2037BD4680BD00BFE0EF0008A9
:102B6000F8EF000810F00008C94100209C01002087
:102B700028F0000880B586B000AFF860B9607A60D0
:102B8000FEF722FD0346002B04D02649F86807F023
:102B90005FFC44E0244B1B78012B04D12349F868E7
:102BA00007F056FC3BE0B86807F056FD0346FB759E
:102BB000FB7D002B04D11E49F86807F049FC2EE08C
:102BC000FB7D012B04D91B49F86807F041FC26E086
:102BD000194B1B78194A5B01134401331B7883F0AE
:102BE0000103DBB2002B04D01549F86807F030FC74
:102BF00015E00121B86807F0F9FC034618460AF011
:102C000034FA0346BB75BB7D012B07D10D4B012266
:102C10001A700121012009F0EDF900E000BF18371A
:102C2000BD4680BD38F10008DE02002070F10008CA
:102C3000E0EF0008F8EF0008C94100209C010020E7
:102C4000A0F10008DD02002080B586B000AFF8607A
:102C5000B9607A60B86807F0FFFC0346FB74FB7C40
:102C6000012B04D84849F86807F0F2FB88E0FB7CA8
:102C7000022B04D94549F86807F0EAFB80E00121FE
:102C8000B86807F0B3FC034618460AF0EEF978611D
:102C90000221B86807F0AAFC03463D491846FDF733
:102CA00097FA0346002B06D17B694FF47A7202FB38
:102CB00003F37B6110E00221B86807F097FC03463C
:102CC00034491846FDF784FA0346002B04D03249F4
:102CD000F86807F0BDFB53E0304B1B88B3F5C87FA5
:102CE0000BD17B692E4A934202DC7B69002B04DA0C
:102CF0002949F86807F0ACFB42E0284B1B88C82B39
:102D00000BD17B69274A934202DC7B69002B04DAF2
:102D10002149F86807F09CFB32E0204B1B88642BAC
:102D20000BD17B69204A934202DC7B69002B04DAD9
:102D30001949F86807F08CFB22E01C4B1B680C2239
:102D40001A701A4B1B687A69D2B25A737B691A12CD
:102D5000164B1B68D2B29A737B691A14134B1B680B
:102D6000D2B2DA737B691A16104B1B68D2B21A748E
:102D7000112001F057F90E49F86807F069FB00BF10
:102D80001837BD4680BD00BFE0EF0008F8EF00082F
:102D9000C4F10008C8F1000810F00008E4000020A9
:102DA000801A0600400D0300A0860100E800002004
:102DB00028F0000880B586B000AFF860B9607A608E
:102DC000B86807F049FC0346FB75FB7D002B04D077
:102DD0000949F86807F03CFB0BE0084B1B680D2223
:102DE0001A70012001F01EF90549F86807F030FB60
:102DF00000BF1837BD4680BD10F00008E800002075
:102E000028F0000880B586B000AFF860B9607A603D
:102E1000B86807F021FC0346FB75FB7D002B04D14D
:102E20002149F86807F014FB3AE0FB7D012B04D937
:102E30001E49F86807F00CFB32E00121B86807F082
:102E4000D5FB034618460AF010F90346002B14BFC1
:102E500001230023BB75BB7D002B0ED0144B1B68D8
:102E60000E221A70124B1B6801225A70022001F0C8
:102E7000D9F8104B01221A700DE00D4B1B680E2281
:102E80001A700B4B1B6800225A70022001F0CAF81E
:102E9000084B00221A700849F86807F0D9FA00BFF9
:102EA0001837BD4680BD00BFE0EF0008F8EF00080E
:102EB000E8000020DE02002028F0000880B586B07F
:102EC00000AFF860B9607A60B86807F0C5FB0346E8
:102ED000FB75FB7D002B04D00E49F86807F0B8FAAB
:102EE00015E00D4B1B78012B04D10C49F86807F055
:102EF000AFFA07E0084B1B78002B03D10849F868AC
:102F000007F0A6FA0749F86807F0A2FA00BF1837D9
:102F1000BD4680BD10F00008DE020020CCF10008A4
:102F2000F0F1000828F0000880B5A6B000AFF86006
:102F3000B9607A60B86807F08FFB0346C7F8903035
:102F4000D7F89030002B04D09349F86807F080FA46
:102F50001EE1002387F89730002387F8973010E1AF
:102F60008E49F86807F074FA97F897305A1C07F101
:102F700010038B4918460AF037F907F11003194678
:102F8000F86807F065FA97F89730864A5B011344B2
:102F900004331B785A1C97F8973082495B010B4425
:102FA00005331B78013307F110007F490AF01CF943
:102FB00007F110031946F86807F04AFA97F89730B6
:102FC000784A5B01134408331B78194697F8973009
:102FD000744A5B01134409331B7807F110000A4659
:102FE00072490AF001F907F110031946F86807F071
:102FF0002FFA97F897306B4A5B01134414331B7810
:10300000194697F89730674A5B01134414331B78CD
:1030100007F110000A4666490AF0E6F807F11003C6
:103020001946F86807F014FA97F897305D4A5B0183
:1030300013440A331B881A4607F110035D491846EA
:103040000AF0D2F807F110031946F86807F000FA01
:1030500097F89730534A5B01134416331B881A467E
:1030600007F11003544918460AF0BEF807F110039F
:103070001946F86807F0ECF997F89730494A5B0170
:10308000134406331B881A4607F110034B491846B0
:103090000AF0AAF807F110031946F86807F0D8F902
:1030A00097F897303F4A5B0113440C331B8819464D
:1030B00097F897303B4A5B0113440E331B8807F1A6
:1030C00010000A463E490AF08FF807F1100319462E
:1030D000F86807F0BDF997F89730324A5B0113445E
:1030E00010331B88194697F897302E4A5B0113441A
:1030F00012331B8807F110000A4632490AF074F8AF
:1031000007F110031946F86807F0A2F997F897300D
:10311000244A5B01134418331B88194697F89730EB
:10312000204A5B0113441A331B8807F110000A463A
:1031300025490AF059F807F110031946F86807F015
:1031400087F997F89730174A5B0113441C331B88A3
:10315000194697F89730134A5B0113441E331B88B6
:1031600007F110000A4619490AF03EF807F110036A
:103170001946F86807F06CF997F89730013387F82B
:103180009730134B1B7897F897209A427FF6E8AE5A
:103190009837BD4680BD00BF10F0000810F200084F
:1031A00050F200089C01002070F200089CF2000818
:1031B000D0F2000804F3000830F300085CF30008C4
:1031C00088F30008C4F3000800F400083CF4000889
:1031D000C941002080B596B000AFF860B9607A6050
:1031E000B86807F039FA03467B657B6D002B04D085
:1031F0000D49F86807F02CF913E00C4B1B785A1CAA
:1032000007F114030A49184609F0EEFF07F1140309
:103210001946F86807F01CF90649F86807F018F92C
:1032200000BF5837BD4680BD10F00008C9410020DE
:1032300050F2000828F0000880B485B000AFF860B4
:10324000B9607A6000BF1437BD465DF8047B7047F3
:1032500080B485B000AFF860B9607A6000BF143701
:10326000BD465DF8047B704780B596B000AFF8604E
:10327000B9607A60B86807F0EFF903467B657B6D4B
:10328000002B04D01049F86807F0E2F818E00F4B63
:103290001B780F4A5B01134402331B881A4607F15F
:1032A00014030C49184609F09FFF07F1140319464F
:1032B000F86807F0CDF80849F86807F0C9F800BFCA
:1032C0005837BD4680BD00BF10F00008C94100203E
:1032D0009C01002078F4000828F0000880B596B022
:1032E00000AFF860B9607A60B86807F0B5F90346D6
:1032F0007B657B6D002B04D01349F86807F0A8F8B4
:103300001FE0124B1B78124A5B01134404331B78F5
:103310005A1C0E4B1B780E495B010B4405331B787E
:10332000013307F114000B4909F05EFF07F11403A4
:103330001946F86807F08CF80749F86807F088F82C
:1033400000BF5837BD4680BD10F00008C9410020BD
:103350009C01002070F2000828F0000880B596B0AB
:1033600000AFF860B9607A60B86807F075F9034695
:103370007B657B6D002B04D02149F86807F068F865
:103380003AE0204B1B78204A5B01134408331B783A
:1033900019461C4B1B781C4A5B01134409331B78EC
:1033A00007F114000A46194909F01EFF07F114033A
:1033B0001946F86807F04CF8124B1B78124A5B016B
:1033C000134414331B7819460E4B1B780E4A5B01CD
:1033D000134414331B7807F114000A460C4909F012
:1033E00003FF07F114031946F86807F031F809499B
:1033F000F86807F02DF800BF5837BD4680BD00BF04
:1034000010F00008C94100209C0100209CF2000837
:10341000D0F2000828F0000880B596B000AFF86040
:10342000B9607A60B86807F017F903467B657B6D71
:10343000002B04D02449F86807F00AF840E0234B39
:103440001B78234A5B0113440A331B881A4607F191
:1034500014032049184609F0C7FE07F11403194662
:10346000F86806F0F5FF194B1B78194A5B01134405
:1034700016331B881A4607F114031749184609F03A
:10348000B3FE07F114031946F86806F0E1FF0F4B8D
:103490001B780F4A5B01134406331B881A4607F159
:1034A00014030E49184609F09FFE07F1140319464C
:1034B000F86806F0CDFF0A49F86806F0C9FF00BFBA
:1034C0005837BD4680BD00BF10F00008C94100203C
:1034D0009C01002004F3000830F300085CF30008AE
:1034E00028F0000880B596B000AFF860B9607A6047
:1034F000B86807F0B1F803467B657B6D002B04D0FC
:103500002149F86806F0A4FF3AE0204B1B78204AD6
:103510005B0113440C331B8819461C4B1B781C4A57
:103520005B0113440E331B8807F114000A46194946
:1035300009F05AFE07F114031946F86806F088FFEF
:10354000124B1B78124A5B01134410331B88194637
:103550000E4B1B780E4A5B01134412331B8807F194
:1035600014000A460C4909F03FFE07F114031946FE
:10357000F86806F06DFF0949F86806F069FF00BFBA
:103580005837BD4680BD00BF10F00008C94100207B
:103590009C01002088F30008C4F3000828F000080C
:1035A00080B596B000AFF860B9607A60B86807F08F
:1035B00053F803467B657B6D002B04D01349F868F4
:1035C00006F046FF1FE0124B1B78124A5B011344C2
:1035D0000C331B8819460E4B1B780E4A5B011344B3
:1035E0000E331B8807F114000A460B4909F0FCFD55
:1035F00007F114031946F86806F02AFF0749F8682E
:1036000006F026FF00BF5837BD4680BD10F0000809
:10361000C94100209C01002088F3000828F0000820
:1036200080B596B000AFF860B9607A60B86807F00E
:1036300013F803467B657B6D002B04D01349F868B3
:1036400006F006FF1FE0124B1B78124A5B01134481
:1036500010331B8819460E4B1B780E4A5B0113442E
:1036600012331B8807F114000A460B4909F0BCFD10
:1036700007F114031946F86806F0EAFE0749F868EE
:1036800006F0E6FE00BF5837BD4680BD10F00008CA
:10369000C94100209C010020C4F3000828F0000864
:1036A00080B596B000AFF860B9607A60B86806F08F
:1036B000D3FF03467B657B6D002B04D02149F8685E
:1036C00006F0C6FE3AE0204B1B78204A5B0113440B
:1036D00018331B8819461C4B1B781C4A5B0113448A
:1036E0001A331B8807F114000A46194909F07CFDBA
:1036F00007F114031946F86806F0AAFE124B1B786E
:10370000124A5B0113441C331B8819460E4B1B786D
:103710000E4A5B0113441E331B8807F114000A464E
:103720000C4909F061FD07F114031946F86806F029
:103730008FFE0949F86806F08BFE00BF5837BD467A
:1037400080BD00BF10F00008C94100209C0100208E
:1037500000F400083CF4000828F0000880B596B09A
:1037600000AFF860B9607A60B86806F075FF03468C
:103770007B657B6D002B04D01349F86806F068FE6A
:103780001FE0124B1B78124A5B01134418331B884D
:1037900019460E4B1B780E4A5B0113441A331B88E3
:1037A00007F114000A460B4909F01EFD07F1140346
:1037B0001946094809F0A0FB0849F86806F048FED8
:1037C00000BF5837BD4680BD10F00008C941002039
:1037D0009C01002000F40008D041002028F00008DF
:1037E00080B596B000AFF860B9607A60B86806F04E
:1037F00033FF03467B657B6D002B04D01349F868CB
:1038000006F026FE1FE0124B1B78124A5B011344A0
:103810001C331B8819460E4B1B780E4A5B01134460
:103820001E331B8807F114000A460B4909F0DCFC23
:1038300007F114031946F86806F00AFE0749F8680C
:1038400006F006FE00BF5837BD4680BD10F00008E8
:10385000C94100209C0100203CF4000828F0000829
:1038600080B586B000AFF860B9607A60B86806F0DD
:10387000F3FE03467B617B69002B04D00E49F86898
:1038800006F0E6FD15E00D4B1B78002B04D00C492B
:10389000F86806F0DDFD07E0084B1B78002B03D12C
:1038A0000849F86806F0D4FD0749F86806F0D0FD2D
:1038B00000BF1837BD4680BD10F00008DD020020B3
:1038C00098F40008B0F4000828F0000880B5A6B00D
:1038D00000AFF860B9607A60B86806F0BDFE0346D4
:1038E000C7F89430D7F89430002B04D09249F86888
:1038F00006F0AEFD1DE19149F86806F0A9FD904B78
:103900001B785A1C07F114038E49184609F06CFC09
:1039100007F114031946F86806F09AFD884B1B78E6
:10392000894A5B01134404331B785A1C844B1B786F
:1039300085495B010B4405331B78013307F1140003
:10394000824909F051FC07F114031946F86806F0A2
:103950007FFD7B4B1B787C4A5B01134408331B784B
:103960001946774B1B78784A5B01134409331B785F
:1039700007F114000A46764909F036FC07F11403F2
:103980001946F86806F064FD6D4B1B786E4A5B01C2
:10399000134414331B781946694B1B786A4A5B0140
:1039A000134414331B7807F114000A46694909F0DF
:1039B0001BFC07F114031946F86806F049FD604B3B
:1039C0001B78614A5B0113440A331B881A4607F1CE
:1039D00014036149184609F007FC07F1140319465E
:1039E000F86806F035FD564B1B78574A5B011344C7
:1039F00016331B881A4607F114035849184609F074
:103A0000F3FB07F114031946F86806F021FD4C4B4F
:103A10001B784D4A5B01134406331B881A4607F195
:103A200014034F49184609F0DFFB07F11403194648
:103A3000F86806F00DFD424B1B78434A5B011344C6
:103A40000C331B8819463E4B1B783F4A5B011344DD
:103A50000E331B8807F114000A46424909F0C4FBE3
:103A600007F114031946F86806F0F2FC344B1B7892
:103A7000354A5B01134410331B881946304B1B78C1
:103A8000314A5B01134412331B8807F114000A46C4
:103A9000354909F0A9FB07F114031946F86806F047
:103AA000D7FC274B1B78284A5B01134418331B882B
:103AB0001946234B1B78244A5B0113441A331B8895
:103AC00007F114000A46294909F08EFB07F1140397
:103AD0001946F86806F0BCFC194B1B781A4A5B01C2
:103AE00013441C331B881946154B1B78164A5B017F
:103AF00013441E331B8807F114000A461C4909F0C1
:103B000073FB07F114031946F86806F0A1FC194B82
:103B10001B78002B04D01849F86806F099FC07E0E0
:103B2000144B1B78002B03D11449F86806F090FC65
:103B300000BF9837BD4680BD10F0000810F20008A5
:103B4000C941002050F200089C01002070F20008DA
:103B50009CF20008D0F2000804F3000830F30008DB
:103B60005CF3000888F30008C4F3000800F40008C0
:103B70003CF40008DD02002098F40008B0F40008CE
:103B800080B586B000AFF860B9607A60B86806F0BA
:103B900063FD0346FB75FB7D002B04D00949F868E3
:103BA00006F056FC0BE0084B1B6811221A7001202E
:103BB00000F038FA0549F86806F04AFC00BF1837EB
:103BC000BD4680BD10F00008E800002028F0000885
:103BD00080B586B000AFF860B9607A60B86806F06A
:103BE0003BFD0346FB75FB7D002B04D00949F868BB
:103BF00006F02EFC0BE0084B1B6812221A70012005
:103C000000F010FA0549F86806F022FC00BF1837EA
:103C1000BD4680BD10F00008E800002028F0000834
:103C200080B586B000AFF860B9607A60B86806F019
:103C300013FD0346FB75FB7D002B04D00949F86892
:103C400006F006FC0BE0084B1B6813221A700120DB
:103C500000F0E8F90549F86806F0FAFB00BF1837EC
:103C6000BD4680BD10F00008E800002028F00008E4
:103C700080B586B000AFF860B9607A60B86806F0C9
:103C8000EBFC0346FB75FB7D002B04D00949F8686B
:103C900006F0DEFB0BE0084B1B6814221A700120B3
:103CA00000F0C0F90549F86806F0D2FB00BF1837EC
:103CB000BD4680BD10F00008E800002028F0000894
:103CC00080B586B000AFF860B9607A60B86806F079
:103CD000C3FC0346FB75FB7D002B04D00949F86843
:103CE00006F0B6FB0BE0084B1B6815221A7001208A
:103CF00000F098F90549F86806F0AAFB00BF1837EC
:103D0000BD4680BD10F00008E800002028F0000843
:103D100080B586B000AFF860B9607A60B86806F028
:103D20009BFC0346FB75FB7D002B04D00949F8681A
:103D300006F08EFB0BE0084B1B6816221A70012060
:103D400000F070F90549F86806F082FB00BF1837EB
:103D5000BD4680BD10F00008E800002028F00008F3
:103D600080B586B000AFF860B9607A60B86806F0D8
:103D700073FC0346FB75FB7D002B04D00949F868F2
:103D800006F066FB0BE0084B1B6817221A70012037
:103D900000F048F90549F86806F05AFB00BF1837EB
:103DA000BD4680BD10F00008E800002028F00008A3
:103DB00080B586B000AFF860B9607A60B86806F088
:103DC0004BFC0346FB75FB7D002B04D00949F868CA
:103DD00006F03EFB0BE0084B1B6818221A7001200E
:103DE00000F020F90549F86806F032FB00BF1837EB
:103DF000BD4680BD10F00008E800002028F0000853
:103E000080B586B000AFF860B9607A60B86806F037
:103E100023FC0346FB75FB7D002B04D12149F86888
:103E200006F016FB3AE0FB7D012B04D91E49F86829
:103E300006F00EFB32E00121B86806F0D7FB03461E
:103E4000184609F012F938613B69642B0BD03B69C5
:103E5000C82B08D03B69B3F5C87F04D01349F86874
:103E600006F0F6FA1AE0124B1B6819221A703B6929
:103E7000104A82FB03125211DB17D21A0C4B1B683B
:103E8000D2B25A70022000F0CDF83B699AB20A4BC8
:103E90001A800A49F86806F0DBFA00BF1837BD46F9
:103EA00080BD00BFE0EF0008F8EF000810F0000848
:103EB000E80000201F85EB51E400002028F00008F6
:103EC00080B586B000AFF860B9607A60B86806F077
:103ED000C3FB0346FB75FB7D002B04D00949F86842
:103EE00006F0B6FA0BE0084B1B681A221A70012084
:103EF00000F098F80549F86806F0AAFA00BF1837EC
:103F0000BD4680BD10F00008E800002028F0000841
:103F100080B586B000AFF860B9607A60B86806F026
:103F20009BFB0346FB75FB7D002B04D00949F86819
:103F300006F08EFA0BE0084B1B681B221A7001205A
:103F400000F070F80549F86806F082FA00BF1837EB
:103F5000BD4680BD10F00008E800002028F00008F1
:103F600080B586B000AFF860B9607A60B86806F0D6
:103F700073FB0346FB75FB7D002B04D00949F868F1
:103F800006F066FA0BE0084B1B681C221A70012031
:103F900000F048F80549F86806F05AFA00BF1837EB
:103FA000BD4680BD10F00008E800002028F00008A1
:103FB00080B588B000AFF860B9607A6007F114038B
:103FC000074A0A21184609F0D9F807F114031946DF
:103FD000F86806F03DFA00BF2037BD4680BD00BF3F
:103FE000CCF4000880B584B000AFF860B9607A60A6
:103FF000FDF712FC80B485B000AFF860B9607A605C
:1040000000BF1437BD465DF8047B704780B485B0AF
:1040100000AFF860B9607A6000BF1437BD465DF844
:10402000047B704780B58AB000AF0346FB711F4B1D
:10403000CA221A701E4B1A781C4B5A701B4B012255
:104040009A701A4AFB79D370184B07221A71174BD2
:10405000EF2283F80021154BDB780433DBB21A46DC
:104060001449002007F07EFC03461A460F4BA3F8C4
:10407000FE2007F10C0300221A605A609A60DA6091
:104080001A615A611A7607F10B0207F10C031946FF
:10409000064807F0B3FCFA7A07F10C031946064804
:1040A00008F042FF00BF2837BD4680BDAC4F00205E
:1040B00024BB0020AD4F0020404E002080B400AF54
:1040C000024B1846BD465DF8047B704788FA00082D
:1040D00080B400AF44231846BD465DF8047B7047AA
:1040E00080B584B004AF4FF4007303934FF40073B2
:1040F00002930E4B01930E4B009327230D4A0E495A
:104100000E4808F080FE4FF400620D490B4805F0A0
:10411000B5FF03460B4A13600B49084808F0ECFE54
:104120000A4B064A1A6000BFBD4680BD3C440020D1
:104130003C42002000480040D4F40008D041002058
:104140003C4600203C4E0020E0F40008CC4100201A
:1041500080B584B000AF78600BE00D4808F098FEA1
:104160000346FB730B4B1B68FA7B1146184606F09F
:10417000BBF8074808F0F6FE0346002BEDD1054BCF
:104180001B68184606F0D3F800BF1037BD4680BD47
:10419000D04100203C4E002080B5ADF5347D02AF0B
:1041A000A44B1B681B781C2B00F2FA8601A252F864
:1041B00023F000BFA54F0008A54F0008A54F000839
:1041C000A54F0008A54F0008A14F0008294200088C
:1041D000D14200087B43000827430008CF43000872
:1041E00065450008A14F00084D4F0008A14F000889
:1041F000914F000801450008E14500083D470008CF
:10420000694800089B4A0008074B0008914B0008CA
:10421000FD4B0008174D0008A14F0008314E000863
:104220009D4E0008F54E0008824B1B685B78012B01
:1042300004D18149814808F05FFE1CE07D4B1B687A
:104240009B78012B04D17E497C4808F055FE12E092
:10425000784B1B68DB78012B04D17A49774808F04A
:104260004BFE08E0734B1B681B79012B03D1764989
:10427000724808F041FE6F4B1B685B79012B05D13A
:1042800072496E4808F038FE00F08EBE694B1B681C
:104290009B79012B05D16E49684808F02DFE00F08E
:1042A00083BE644B1B68DB79012B05D169496348E8
:1042B00008F022FE00F078BE5E4B1B681B7A012BD3
:1042C00040F0728664495D4808F016FE00F06CBE4E
:1042D000584B1B685B781BB21B021AB2554B1B680C
:1042E0009B781BB213431BB2A7F80032514B1B68DB
:1042F000DB781BB21B021AB24E4B1B681B791BB238
:1043000013431BB2A7F8FE31B7F80022B7F8FE310D
:104310003846524908F068FF3B461946474808F0BE
:10432000EBFD00F04CBE434B1B685B78012B04D1C6
:104330004349424808F0E0FD08E03E4B1B685B78CB
:10434000002B03D146493D4808F0D6FD394B1B6888
:104350009B78012B05D13E49384808F0CDFD00F08F
:1043600025BE344B1B689B78002B40F01F863D49CF
:10437000324808F0C1FD00F019BE2E4B1B685B7877
:10438000012B04D12F492D4808F0B6FD08E0294B38
:104390001B685B78002B03D13349284808F0ACFD3B
:1043A000244B1B689B78012B05D12A49234808F030
:1043B000A3FD00F0FDBD1F4B1B689B78002B40F058
:1043C000F7852A491D4808F097FD00F0F1BD194B0B
:1043D0001B685B781BB21B021AB2164B1B689B78DA
:1043E0001BB213431BB2A7F80432124B1B68DB78D5
:1043F0001BB21B021AB20F4B1B681B791BB2134373
:104400001BB2A7F80232B7F80422B7F802323846D6
:10441000174908F0E9FE3B461946084808F06CFDCC
:10442000044B1B685B79012B24D10549034808F034
:1044300063FD28E0EC000020F8F40008D0410020E3
:104440000CF5000824F5000840F500085CF50008AC
:1044500070F5000888F50008A4F50008C0F500080C
:10446000F4F5000810F600082CF600084CF60008D9
:104470006CF60008A14B1B685B79002B03D1A049A7
:10448000A04808F039FD9D4B1B689B79012B04D196
:104490009D499C4808F030FD08E0984B1B689B79CB
:1044A000002B03D19949974808F026FD934B1B68D0
:1044B000DB79012B04D19649924808F01DFD08E0F4
:1044C0008E4B1B68DB79002B03D192498D4808F095
:1044D00013FD8A4B1B681B7A012B05D18E49894835
:1044E00008F00AFD00F066BD844B1B681B7A002BA8
:1044F00040F060858949834808F0FEFC00F05ABD11
:104500007E4B1B685B781A467C4B1B689B781B02B2
:104510001A437A4B1B68DB781B041A43774B1B68E2
:104520001B791B061343C7F81032744B1B685B7969
:104530001AB2724B1B689B791BB21B021BB213434E
:104540001BB2A7F80E32B7F80E323846D7F8102251
:10455000734908F049FE3B4619466A4808F0CCFC0E
:1045600000F02DBD654B1B685B78002B14BF012349
:10457000002387F80732614B1B689B78002B14BF20
:104580000123002387F8063297F80732002B04D066
:1045900064495C4808F0B0FC0AE097F8073283F001
:1045A0000103DBB2002B03D05F49564808F0A4FC9E
:1045B00097F80632002B05D05C49524808F09CFC65
:1045C00000F0FABC97F8063283F00103DBB2002B4F
:1045D00000F0F28456494B4808F08EFC00F0ECBC29
:1045E000464B1B685B781A46444B1B689B781B0242
:1045F0001A43424B1B68DB781B041A433F4B1B6872
:104600001B791B061343C7F828323C4B1B685B79A8
:104610001A463A4B1B689B791B021A43374B1B689F
:10462000DB791B041A43354B1B681B7A1B061343AB
:10463000C7F82432314B1B685B7A1A462F4B1B6834
:104640009B7A1B021A432D4B1B68DB7A1B041A430F
:104650002A4B1B681B7B1B061343C7F82032D7F875
:10466000283207EE903AB8EEE77ADFED326AC7EE0D
:10467000267AC7ED877AD7F8243207EE903AB8EE5B
:10468000E77ADFED2C6AC7EE267AC7ED867AD7F88F
:10469000203207EE903AB8EEE77ADFED266AC7EEF1
:1046A000267AC7ED857A07F5F6730221184697ED4D
:1046B000870A00F097FC07F5EE730221184697ED84
:1046C000860A00F08FFC07F5E6730221184697ED85
:1046D000850A00F087FC07F5EE7107F5F67238469B
:1046E00007F5E67300930B46134908F07DFD3B4642
:1046F0001946044808F000FC00F061BCEC00002002
:10470000F4F50008D041002070F5000810F600080C
:1047100024F500082CF6000888F500084CF600087F
:10472000A0F60008C0F60008ECF600081CF7000828
:1047300048F7000800007A4478F70008464B1B68E9
:104740005B7B1A46444B1B689B7B1B021A43424B04
:104750001B68DB7B1B041A433F4B1B681B7C1B063F
:104760001343C7F840323C4B1B685B7C1A463A4BFC
:104770001B689B7C1B021A43374B1B68DB7C1B04AA
:104780001A43354B1B681B7D1B061343C7F83C328D
:10479000314B1B685B7D1A462F4B1B689B7D1B02B0
:1047A0001A432D4B1B68DB7D1B041A432A4B1B68E5
:1047B0001B7E1B061343C7F83832D7F8403207EE8A
:1047C000903AB8EEE77ADFED256AC7EE267AC7EDB4
:1047D0008D7AD7F83C3207EE903AB8EEE77ADFED03
:1047E0001F6AC7EE267AC7ED8C7AD7F8383207EE03
:1047F000903AB8EEE77ADFED196AC7EE267AC7ED90
:104800008B7A07F5DE730221184697ED8D0A00F0CA
:10481000E9FB07F5D6730221184697ED8C0A00F0E4
:10482000E1FB07F5CE730221184697ED8B0A00F0E5
:10483000D9FB07F5D67107F5DE72384607F5CE735A
:1048400000930B46064908F0CFFC3B461946054845
:1048500008F052FBB3E300BFEC00002000007A44F4
:10486000ACF70008D0410020C24B1B685B781A46A9
:10487000C04B1B689B781B021A43BE4B1B68DB783E
:104880001B041A43BB4B1B681B791B061343C7F859
:104890007032B84B1B685B791A46B64B1B689B7924
:1048A0001B021A43B34B1B68DB791B041A43B14B41
:1048B0001B681B7A1B061343C7F86C32AD4B1B6891
:1048C0005B7A1A46AB4B1B689B7A1B021A43A94BB7
:1048D0001B68DB7A1B041A43A64B1B681B7B1B0659
:1048E0001343C7F86832A34B1B685B7B1A46A14B86
:1048F0001B689B7B1B021A439E4B1B68DB7B1B04C4
:104900001A439C4B1B681B7C1B061343C7F864327D
:10491000984B1B685B7C1A46964B1B689B7C1B0262
:104920001A43944B1B68DB7C1B041A43914B1B6896
:104930001B7D1B061343C7F860328E4B1B685B7DE3
:104940001A468C4B1B689B7D1B021A43894B1B68C4
:10495000DB7D1B041A43874B1B681B7E1B0613431E
:10496000C7F85C32D7F8703207EE903AB8EEE77AC3
:10497000DFED816AC7EE267AC7ED967AD7F86C32FA
:1049800007EE903AB8EEE77ADFED7B6AC7EE267A5B
:10499000C7ED957AD7F8683207EE903AB8EEE77A25
:1049A000DFED756AC7EE267AC7ED947AD7F86432E0
:1049B00007EE903AB8EEE77ADFED6F6AC7EE267A37
:1049C000C7ED937AD7F8603207EE903AB8EEE77AFF
:1049D000DFED696AC7EE267AC7ED927AD7F85C32C6
:1049E00007EE903AB8EEE77ADFED636AC7EE267A13
:1049F000C7ED917A07F5C6730221184697ED960A1E
:104A000000F0F0FA07F5BE730221184697ED950AFB
:104A100000F0E8FA07F5B6730221184697ED940AFC
:104A200000F0E0FA07F5BE7107F5C672384607F5E3
:104A3000B67300930B46514908F0D6FB3B46194626
:104A40004F4808F059FA07F5AE730221184697ED62
:104A5000930A00F0C7FA07F5A6730221184697EDEE
:104A6000920A00F0BFFA07F59E730221184697EDEF
:104A7000910A00F0B7FA07F5A67107F5AE7238464D
:104A800007F59E7300930B463E4908F0ADFB3B468D
:104A900019463B4808F030FA91E2364B1B685B78C8
:104AA0001A46344B1B689B781B021A43314B1B6818
:104AB000DB781B041A432F4B1B681B791B0613431F
:104AC000C7F87832D7F8783207EE903AB8EEE77A3E
:104AD000DFED296AC7EE267AC7ED9D7A07F5967352
:104AE0000221184697ED9D0A00F07CFA07F59672B0
:104AF0003B462549184608F077FB3B4619462048B7
:104B000008F0FAF95BE21B4B1B685B791A46194BFC
:104B10001B689B791B021A43164B1B68DB791B042D
:104B20001A43144B1B681B7A1B061343C7F88032C9
:104B3000D7F8803207EE903AB8EEE77ADFED0E6AEA
:104B4000C7EE267AC7ED9F7A07F58E7302211846C5
:104B500097ED9F0A00F046FA07F58E723B460B4927
:104B6000184608F041FB3B461946054808F0C4F9D1
:104B700025E200BFEC00002000007A4478F700082E
:104B8000D0410020ACF70008E0F70008F8F7000873
:104B9000B84B1B685B7A1A46B64B1B689B7A1B02A4
:104BA0001A43B44B1B68DB7A1B041A43B14B1B68D6
:104BB0001B7B1B061343C7F88832D7F8883207EEF1
:104BC000903AB8EEE77ADFEDAC6AC7EE267AC7ED29
:104BD000A17A07F586730221184697EDA10A00F025
:104BE00001FA07F586723B46A449184608F0FCFA1C
:104BF0003B461946A24808F07FF9E0E19D4B1B684F
:104C00005B781A469B4B1B689B781B021A43994B97
:104C10001B68DB781B041A43964B1B681B791B0629
:104C20001343C7F8A032934B1B685B791A46914B2C
:104C30001B689B791B021A438E4B1B68DB791B0494
:104C40001A438C4B1B681B7A1B061343C7F89C3214
:104C5000884B1B685B7A1A46864B1B689B7A1B0243
:104C60001A43844B1B68DB7A1B041A43814B1B6875
:104C70001B7B1B061343C7F89832D7F8A03207EE08
:104C8000903AB8EEE77ADFED7C6AC7EE267AC7ED98
:104C9000A57AD7F89C3207EE903AB8EEE77ADFEDC6
:104CA000766AC7EE267AC7EDA47AD7F8983207EE6F
:104CB000903AB8EEE77ADFED706AC7EE267AC7ED74
:104CC000A37A07F1FC030221184697EDA50A00F02C
:104CD00089F907F1EC030221184697EDA40A00F0C8
:104CE00081F907F1DC030221184697EDA30A00F0D1
:104CF00079F907F1EC0107F1FC02384607F1DC0312
:104D000000930B465F4908F06FFA3B4619465C4832
:104D100008F0F2F853E1574B1B685B781A46554B85
:104D20001B689B781B021A43524B1B68DB781B04E1
:104D30001A43504B1B681B791B061343C7F8B83244
:104D40004C4B1B685B791A464A4B1B689B791B02CC
:104D50001A43484B1B68DB791B041A43454B1B68FD
:104D60001B7A1B061343C7F8B432424B1B685B7AAD
:104D70001A46404B1B689B7A1B021A433D4B1B682B
:104D8000DB7A1B041A433B4B1B681B7B1B0613433C
:104D9000C7F8B032D7F8B83207EE903AB8EEE77AF3
:104DA000DFED396AC7EE267AC7EDAB7AD7F8B432B1
:104DB00007EE903AB8EEE77ADFED336AC7EE267A6F
:104DC000C7EDAA7AD7F8B03207EE903AB8EEE77A94
:104DD000DFED2D6AC7EE267AC7EDA97A07F1CC037D
:104DE0000221184697EDAB0A00F0FCF807F1BC036E
:104DF0000221184697EDAA0A00F0F4F807F1AC0377
:104E00000221184697EDA90A00F0ECF807F1BC0161
:104E100007F1CC02384607F1AC0300930B461B495F
:104E200008F0E2F93B461946154808F065F8C6E077
:104E3000104B1B685B7887F8BF3297F8BF32012BA5
:104E400004D113490E4808F057F8B7E097F8BF327D
:104E5000022B04D10F490A4808F04EF8AEE097F84B
:104E6000BF32042B40F0AA800B49054808F044F8F3
:104E7000A4E000BFEC00002000007A4410F8000815
:104E8000D041002024F800080024744960F800088C
:104E90008CF80008ACF80008CCF800084A4B1B68F6
:104EA0005B781BB21B021AB2474B1B689B781BB284
:104EB00013431BB29BB207EE903AB8EEE77ADFEDF0
:104EC000436AC7EE267AC7EDB07A07F19C03022148
:104ED000184697EDB00A00F085F807F19C023B46B2
:104EE0003B49184608F080F93B461946394808F016
:104EF00003F864E0344B1B685B781BB21B021AB2E8
:104F0000314B1B689B781BB213431BB29BB207EE5D
:104F1000903AB8EEE77ADFED2D6AC7EE267AC7ED54
:104F2000B17A07F18C030221184697EDB10A00F01F
:104F300059F807F18C023B462749184608F054F906
:104F40003B461946234807F0D7FF38E01E4B1B6845
:104F50005B7B1A461C4B1B689B7B1B021A431A4B3C
:104F60001B68DB7B1B041A43174B1B681B7C1B064F
:104F70001343C7F808323B46D7F8082217491846AA
:104F800008F032F93B461946124807F0B5FF16E023
:104F9000134B01221A700121012007F02BF80EE0BB
:104FA00000230CE000BF0AE000BF08E000BF06E0FD
:104FB00000BF04E000BF02E000BF00E000BF1846F1
:104FC00007F53277BD4680BDEC0000200000C842E6
:104FD000ECF80008D041002008F9000824F9000886
:104FE000DD02002080B58EB000AF87ED030AB86007
:104FF0000B46FB71D7ED037AF5EEC07AF1EE10FAAD
:105000000AD5BB685A1CBA602D221A70D7ED037AF4
:10501000F1EE677AC7ED037AFB7907EE903AF8EE86
:10502000677AF0EE670AB2EE040A08F09DFDB0EE72
:10503000407AF6EE006AC6EE877A97ED037A77EE4D
:10504000277AC7ED037AD7ED037AFCEEE77A17EEFD
:10505000903A7B637B6B07EE903AF8EE677A97EDB8
:10506000037A77EE677AC7ED0C7A0023FB627B6BDD
:10507000002B22D1FB6A5A1CFA6238333B4430229F
:1050800003F8242C1CE0796B334BA3FB0123DA08D3
:1050900013469B0013445B00CA1AD2B2FB6A591C28
:1050A000F9623032D2B238333B4403F8242C7B6BA4
:1050B000294AA2FB0323DB087B637B6B002BE2D135
:1050C000FB6A013BBB620BE0BB685A1CBA6007F18C
:1050D0001401BA6A0A4412781A70BB6A013BBB62B7
:1050E000BB6A002BF0DAFB79002B2DD0BB685A1C71
:1050F000BA602E221A7024E0D7ED0C7AB2EE047A50
:1051000067EE877AC7ED0C7AD7ED0C7AFCEEE77A7A
:1051100017EE903A7B627B6ADAB2BB68591CB960C1
:105120003032D2B21A707B6A07EE903AF8EE677AA4
:1051300097ED0C7A77EE677AC7ED0C7AFB79013B35
:10514000FB71FB79002BD7D1BB6800221A7000BF1E
:105150003837BD4680BD00BFCDCCCCCC80B584B047
:1051600004AF8023039380230293124B0193124BCD
:1051700000933423114A1249124807F044FE124B9F
:10518000124A5A60104B80221A800F4B00221A815B
:105190000D4B1B88002B06D00B4B5B6804220021B3
:1051A000184608F05DF8022006F018FC00BFBD4666
:1051B00080BD00BF2C4F0020AC4E0020004C0040B2
:1051C00040F90008404E0020B4510020C05100209A
:1051D00080B584B000AF78600023FB733223FB738B
:1051E00047E02A4807F054FE0346DAB2284B9A7289
:1051F000274B9B7ADBB2CA2B03D1254B00221A81A5
:1052000034E0234B9B7ADBB2EF2B14D1204B5B684D
:105210001F4A128992B2D1B21E4A184606F024FDE6
:105220000346BB73BB7B012B01D1FEF7B5FF184BC7
:1052300000221A811AE0164B5B68154A128992B255
:105240001344134A927AD2B21A70114B1B899BB243
:1052500001339AB20E4B1A810D4B1B899AB20C4B3B
:105260001B889A4202D90A4B00221A81FB7B013B20
:10527000FB73064807F076FE0346002B02D0FB7B4B
:10528000002BAED100BF1037BD4680BD404E002080
:10529000B4510020B050002080B584B000AF034668
:1052A0000A46FB711346BB71BA79FB791146184661
:1052B00003F0CCFE04F0A0FD322003F075F900F0FD
:1052C0004BF90346FB8104F009F804F0A7FDFB89C4
:1052D00018461037BD4680BD80B596B000AF7860E7
:1052E0008E4B1B78042B00F2138101A252F823F09D
:1052F000055300083554000821530008975300084F
:105300005154000803F0EAFF04F088FD844B0022AA
:105310001A70844B00221A80042006F0B1FEF8E0D7
:10532000814B1B6801221A707D4B1B781A467F4BFC
:1053300033F812301B0A9AB27B4B1B68D2B25A70F8
:10534000774B1B781A46794B33F81220764B1B6843
:10535000D2B29A70032000F09FF9734B1B680322AE
:105360001A70714B1B6801225A706F4B1B68002228
:105370009A70032000F090F96D4B42F210721A609F
:10538000664B03221A70684B1B6810221A700120AA
:1053900000F082F9BDE0664B1B68002B40F0BA803C
:1053A000634B4FF47A721A605D4B1B781A465F4B61
:1053B00033F8123007EE903AF8EEE77A9FED5D7A17
:1053C00067EE877AC7ED147A554B1B781A46574B10
:1053D00033F8123007EE903AF8EEE77A9FED567AFE
:1053E00067EE877AC7ED137A544B1B8807EE903A25
:1053F000F8EEE77A97ED147AB4EEE77AF1EE10FA68
:105400000CDC4E4B1B8807EE903AF8EEE77A97EDEE
:10541000137AB4EEE77AF1EE10FA07D5424B1B6827
:1054200010221A70012000F037F972E03B4B012284
:105430001A706EE0424B1B78414A5278114618466A
:1054400003F004FE04F0D8FC344B04221A7060E030
:1054500000F082F80346A7F85630324B1B881A46F4
:10546000384B33F81230B7F856209A4213D92C4BE8
:105470001B78032B0FD82A4B1B780133DAB2284B49
:105480001A70284B1B8801339AB2264B1A80234B83
:1054900002221A703FE0224B1B78032B0ED9294BB6
:1054A0001B89B7F856209A4208D9B7F8562007F159
:1054B0000C032549184607F097FE07E0B7F8562079
:1054C00007F10C032149184607F08EFE07F10C0383
:1054D00019461F4807F010FD134B1B6804221A7071
:1054E000114B1B6801225A700F4B1B6800229A70E7
:1054F000032000F0D1F8094B00221A70154B00224E
:105500001A70074B00221A70064B00221A8002E024
:1055100000BF00E000BF5837BD4680BD41520020AB
:105520004652002048520020E8000020F4000020ED
:10553000F00000206666663FCDCC8C3F42520020D2
:1055400044520020000100204CF9000878F90008BE
:10555000D04100204052002090B597B000AF07F135
:10556000280328220021184607F07AFE3B4628220D
:105570000021184607F074FE4FF000037B650023FE
:10558000A7F85030002387F8533042E0404803F03A
:10559000CFFA53EC102B97F8534010461946FBF7FF
:1055A0001DFB0246A30058333B44303B1A60384889
:1055B00003F096FA51EC100B33A3D3E90023FBF769
:1055C0002BF802460B4697F8534010461946FBF756
:1055D00005FB0246A30058333B44583B1A6097F83A
:1055E00053309B0058333B44303BD3ED007AF5EE0B
:1055F000C07AF1EE10FA07D897F853309B00583371
:105600003B44303B234A1A6097F85330013387F804
:10561000533097F85330092BB8D9002387F852300C
:105620001CE097F852309B0058333B44583BD3ED75
:10563000006A97F852309B0058333B44303B93ED5F
:10564000007AC6EE877A97ED157A77EE277AC7ED5E
:10565000157A97F85230013387F8523097F8523064
:10566000092BDED997ED157AF2EE046AC7EE267A99
:10567000FCEEE77A17EE903AA7F85030B7F85030C2
:1056800018465C37BD4690BD2682A3AAAAAA404010
:10569000380000206F12833A80B58AB000AF03460D
:1056A000FB711F4BCA221A701E4B1A781C4B5A7082
:1056B0001B4B01229A701A4AFB79D370184B0722B0
:1056C0001A71174BEF2283F80021154BDB78043356
:1056D000DBB21A461449002006F044F903461A4684
:1056E0000F4BA3F8FE2007F10C0300221A605A604A
:1056F0009A60DA601A615A611A7607F10B0207F1B3
:105700000C031946064806F079F9FA7A07F10C03FA
:105710001946064807F008FC00BF2837BD4680BD83
:10572000AC4F002024BB0020AD4F0020404E002095
:1057300080B485B000AF78607B6803F00703FB603E
:105740000C4BDB68BB60BA684FF6FF031340BB60CD
:10575000FB681A02BB68134343F0BF6343F4003392
:10576000BB60044ABB68D36000BF1437BD465DF818
:10577000047B704700ED00E080B400AF044BDB68B1
:105780001B0A03F007031846BD465DF8047B70470B
:1057900000ED00E080B483B000AF0346FB7197F9E1
:1057A0000730002B0BDBFB7903F01F02074997F949
:1057B00007305B09012000FA02F241F8232000BF04
:1057C0000C37BD465DF8047B704700BF00E100E088
:1057D00080B483B000AF03463960FB7197F907309E
:1057E000002B0ADB3B68DAB20C4997F9073012014B
:1057F000D2B20B4483F800230AE03B68DAB20849CE
:10580000FB7903F00F03043B1201D2B20B441A766A
:1058100000BF0C37BD465DF8047B704700E100E037
:1058200000ED00E080B489B000AFF860B9607A6044
:10583000FB6803F00703FB61FB69C3F10703042B5B
:1058400028BF0423BB61FB690433062B02D9FB6923
:10585000033B00E000237B614FF0FF32BB6902FA9B
:1058600003F3DA43BB681A407B699A404FF0FF317B
:105870007B6901FA03F3D9437B680B401343184655
:105880002437BD465DF8047B7047000080B485B0C6
:1058900000AFF860B9607A600D4ABB6813441B78AA
:1058A0001A46FB6813441B6823F0C0020849BB6812
:1058B0000B441B781946FB680B4419467B6813435D
:1058C0000B6000BF1437BD465DF8047B704700BF16
:1058D000E800010880B485B000AFF860B9607A6074
:1058E0000D4ABB6813441B781A46FB6813441B68B7
:1058F00023F490720849BB680B441B781946FB6877
:105900000B4419467B6813430B6000BF1437BD4638
:105910005DF8047B704700BFE800010880B485B0E3
:1059200000AFF860B9607A600D4ABB6813441B7819
:105930001A46FB6813441B6823F400720849BB68CD
:105940000B441B781946FB680B4419467B681343CC
:105950000B6000BF1437BD465DF8047B704700BF85
:10596000E800010880B485B000AFF860B9607A60E3
:105970000D4ABB6813441B781A46FB6813441B6826
:1059800023F480620849BB680B441B781946FB6806
:105990000B4419467B6813430B6000BF1437BD46A8
:1059A0005DF8047B704700BFE800010880B485B053
:1059B00000AFF860B9607A600D4ABB6813441B7889
:1059C0001A46FB6813441B6823F4C0520849BB689D
:1059D0000B441B781946FB680B4419467B6813433C
:1059E0000B6000BF1437BD465DF8047B704700BFF5
:1059F000E800010880B485B000AFF860B9607A6053
:105A00000D4ABB6813441B781A46FB6813441B6895
:105A100023F4C0420849BB680B441B781946FB6855
:105A20000B4419467B6813430B6000BF1437BD4617
:105A30005DF8047B704700BFE800010880B485B0C2
:105A400000AFF860B9607A600D4ABB6813441B78F8
:105A50001A46FB6813441B6823F440320849BB68AC
:105A60000B441B781946FB680B4419467B681343AB
:105A70000B6000BF1437BD465DF8047B704700BF64
:105A8000E800010880B485B000AFF860B9607A60C2
:105A90000D4ABB6813441B781A46FB6813441B6805
:105AA00023F060620849BB680B441B781946FB6809
:105AB0000B4419467B6813430B6000BF1437BD4687
:105AC0005DF8047B704700BFE800010880B485B032
:105AD00000AFF860B9607A600D4ABB6813441B7868
