:020000040800F2
:1000000000000220552D00083D2C0008452C00085A
:100010004D2C0008552C00085D2C00080000000045
:10002000000000000000000000000000652C000837
:10003000732C000800000000812C00088F2C0008A1
:10004000A52D0008A52D0008A52D0008A52D000848
:10005000A52D0008A52D0008A52D0008A52D000838
:10006000A52D0008A52D0008A52D0008A52D000828
:10007000A52D0008A52D0008A52D0008A52D000818
:10008000A52D0008A52D0008A52D0008A52D000808
:10009000A52D0008A52D0008A52D0008A52D0008F8
:1000A000A52D0008A52D0008A52D0008A52D0008E8
:1000B000A52D0008A52D0008A52D0008A52D0008D8
:1000C000A52D0008A52D0008A52D0008A52D0008C8
:1000D000A52D00089D2C0008A52D0008A52D0008C1
:1000E000A52D0008A52D0008A52D0008A52D0008A8
:1000F000A52D0008A52D0008A52D0008A52D000898
:10010000A52D0008A52D0008A52D0008A52D000887
:10011000B12C0008A52D0008A52D0008A52D00086C
:10012000A52D000895510008A52D0008A52D000853
:10013000454700080000000000000000A52D000851
:10014000A52D0008A52D0008A52D0008A52D000847
:1001500009470008A52D0008D5510008A52D000865
:10016000A52D0008A52D0008A52D0008A52D000827
:10017000A52D0008A52D00080000000000000000CB
:08018000A52D0008A52D0008C3
:1001900010B5054C237833B9044B13B10448AFF3C1
:1001A00000800123237010BDF80000200000000033
:1001B0005884000808B5034B1BB103490348AFF34B
:1001C000008008BD00000000FC00002058840008EA
:1001D00010F8012B11F8013B012A28BF9A42F7D0F1
:1001E000D01A7047034613F8012B002AFBD1181AC6
:1001F000013870470000000000000000000000000F
:1002000001F0FF01102A2BDB10F0070F08D010F8C7
:10021000013B013A8B422DD010F0070F42B3F6D1CB
:10022000F0B441EA012141EA014122F007047FF0E4
:1002300000070023F0E80256083C85EA010586EA3B
:10024000010685FA47F5A3FA87F586FA47F6A5FA77
:1002500087F68EB9EED1F0BC01F0FF0102F0070283
:1002600032B110F8013B013A83EA010313B1F8D12E
:100270000020704701387047002D06BF354603380F
:10028000073815F0010F07D1013015F4807F02BF48
:10029000013015F4C03F0130F0BC0138704700BF99
:1002A00053B94AB9002908BF00281CBF4FF0FF31DD
:1002B0004FF0FF3000F088B9ADF1080C6DE904CEC5
:1002C00000F006F8DDF804E0DDE9022304B0704731
:1002D0002DE9F047089D8E4604468846002B4AD1FA
:1002E0008A42174662D9B2FA82F64EB1C6F12003AD
:1002F00001FA06F820FA03F3B74043EA0808B440CD
:100300004FEA174E1FFA87FCB8FBFEF1230C0EFBD9
:10031000118843EA084301FB0CF29A4209D9FB1801
:1003200001F1FF3080F0EA809A4240F2E780023922
:100330003B449A1AA3B2B2FBFEF00EFB102243EA32
:10034000024300FB0CFC9C4509D9FB1800F1FF326D
:1003500080F0D6809C4540F2D3803B44023840EA8E
:100360000140A3EB0C0300211DB1F3400022C5E9BD
:100370000032BDE8F0878B4205D90DB1C5E9000117
:1003800000210846F5E7B3FA83F1002946D1734509
:1003900002D3824200F20581841A6EEB030201202F
:1003A0009046002DE5D0C5E90048E2E7002A00F0BC
:1003B0009080B2FA82F6002E40F0A4808A1A030CD4
:1003C0004FEA174E80B2BCB20121B2FBFEFC0EFB1D
:1003D0001C2243EA024304FB0CF29A4207D9FB18A1
:1003E0000CF1FF3802D29A4200F2E080C4469B1A18
:1003F000B3FBFEF20EFB123340EA034302FB04F4AC
:100400009C4207D9FB1802F1FF3002D29C4200F255
:10041000CA8002461B1B42EA0C40A5E7C1F1200638
:100420008B4022FA06F71F430EFA01F420FA06F376
:100430002EFA06FE4FEA1749234300FA01F81FFA85
:1004400087FCBEFBF9F01C0C09FB10EE44EA0E44DD
:1004500000FB0CFEA64502FA01F209D93C1900F195
:10046000FF3A80F09C80A64540F2998002383C44D7
:10047000A4EB0E041FFA83FEB4FBF9F309FB13444B
:100480004EEA044403FB0CFCA44508D93C1903F1D3
:10049000FF3E80F08280A4457FD9023B3C4443EA82
:1004A0000040A4EB0C04A0FB02EC64457346E1465B
:1004B00062D35FD05DB1B8EB030264EB090404FAC8
:1004C00006F622FA01F31E43CC40C5E90064002180
:1004D0004FE7B1FBF2FC010C41EA0E4180B240EA69
:1004E00001423B4638463C46B846BE462026B1FB54
:1004F000F7F1A2EB080241EA0C4166E7014618E772
:1005000010462CE7C6F120022EFA02F3B740B140A4
:1005100020FA02F24FEA174E0A43B3FBFEF8BCB2D0
:100520000EFB1833110C41EA034108FB04F9B040FB
:1005300089454FEA104380B23ED9791808F1FF3C53
:1005400001D289451FD8A1EB0901B1FBFEF909FBD6
:1005500004F80EFB191192B242EA0142424529D237
:10056000BA1809F1FF31C4D24245C2D2A9F1020141
:100570003A44BEE7F0459DD2BEEB02036CEB070C9C
:100580000138E14696E7A7EB09094944A8F1020CB6
:10059000B1FBFEF909FB04F8DBE773467FE7504641
:1005A00066E70846FDE63B44023A33E7ACF1020C4D
:1005B0003B441CE749469CE7A1EB0901C446B1FB5B
:1005C000FEF909FB04F8C4E7704700BF80B483B0AC
:1005D00000AF78607B681B6823F001027B681A60BB
:1005E00000BF0C37BD465DF8047B7047B0B582B0E4
:1005F00000AF114B00221A7004F00CFD0F4B0122CA
:100600001A700023FB710FE0FB790D4A5B01134464
:100610000C4A1C4615460FCD0FC495E80F0084E820
:100620000F00FB790133FB71FB79092BECD900BF7B
:1006300000BF0837BD46B0BD14010020590200209C
:100640001801002000000020B0B588B002AF78602B
:10065000A94B1B7883F00103DBB2002B09D0A74B19
:1006600001221A70A64B00221A70012006F0E6FD46
:100670003EE1A24B1B78012B03D0022B00F01F811F
:1006800035E1A04B1B78002B00F02F819C4B002202
:100690001A7004F031FD03F0E5FF994B00221A7047
:1006A000FEE0974B1B789849984A5B0113440C462F
:1006B0001D460FCD0FC495E80F0084E80F000023FE
:1006C0007B6100233B610123FB608F4B18798E4BCC
:1006D00059798D4B5B881A4613469B0013445B0087
:1006E000013B1A4603F01BFF02467B6913447B6102
:1006F000854B1879844B5979834B9B891A4613464D
:100700009B0013445B00013B1C467F4BDB891A4670
:1007100013469B0013445B00013B1A467A4B1B7A3D
:100720000193012300931346224603F0A7FE0246DD
:100730007B6913447B61744B1879734B5979724B05
:100740005B891A4613469B0013445B00013B1A4623
:1007500003F0E5FE02467B6913447B616A4B5879DE
:10076000694B1979684B1B8A1A4613469B00134440
:100770005B00013B1C46644B5B8A1A4613469B0098
:1007800013445B00013B1A465F4B5B7A01930123E4
:1007900000931346224603F071FE02467B69134420
:1007A0007B617B69013B7B61574B1879564B5979CB
:1007B000554BDB881A4613469B0013445B00013BF4
:1007C0001A4603F0ACFE02463B6913443B614E4BB4
:1007D00018794D4B59794C4B1B8B1A4613469B008D
:1007E00013445B00013B1C46474B5B8B1A46134688
:1007F0009B0013445B00013B1A46434B1B7D019356
:10080000012300931346224603F038FE02463B695B
:1008100013443B613C4B18793B4B59793A4BDB8A8B
:100820001A4613469B0013445B00013B1A4603F033
:1008300076FE02463B6913443B61334B5879324B99
:100840001979314B9B8B1A4613469B0013445B006E
:10085000013B1C462C4BDB8B1A4613469B00134472
:100860005B00013B1A46284B5B7D019301230093FB
:100870001346224603F002FE02463B6913443B61E5
:100880003B69013B3B611E4B1B78FA68396978690B
:1008900004F08AFB1A4B1B780133DAB2184B1A703A
:1008A000174B1A78174B1B789A42FFF4FAAE04F0F4
:1008B0003DFC03F0F1FE114B02221A7018E003F028
:1008C000B5FE0346002B12D01148FFF77FFE03F060
:1008D0003FFE04F09FFB094B01221A70094B0022D6
:1008E0001A70054B00221A7002E000BF00E000BF42
:1008F0001837BD46B0BD00BF1401002059020020CA
:100900005A020020580200205C020020180100203A
:100910000000014080B500AF00F0DCFF04F06AFA8F
:10092000FFF764FE01F06AF842F2107006F0E4FB93
:10093000044B1B680133034A136006F0FFFB00BF42
:10094000F6E700BF7C02002080B483B000AF78607F
:1009500000BF0C37BD465DF8047B704780B400AF24
:10096000BFF34F8F00BF064BDB6803F4E06204491E
:10097000044B1343CB60BFF34F8F00BF00BFFDE7B5
:1009800000ED00E00400FA0580B586B000AFF86025
:10099000B9607A60B86804F03DFF0346FB75FB7DE3
:1009A000012B04D82D49F86804F030FE52E0FB7D9D
:1009B000022B04D92A49F86804F028FE4AE00121F4
:1009C000B86804F0F1FE0346184606F0C6FF034679
:1009D0009BB23B820221B86804F0E6FE034618464B
:1009E00006F0BBFF03469BB27B823B8AB3F5967F42
:1009F00004D91C49F86804F009FE2BE07B8A322BED
:100A000004D91849F86804F001FE23E0164B1B686E
:100A100000221A703B8A1B0A9AB2134B1B68D2B28F
:100A20005A703A8A104B1B68D2B29A707B8A1B0AA2
:100A30009AB20D4B1B68D2B2DA707A8A0A4B1B68E5
:100A4000D2B21A71052000F0D7FE0849F86804F008
:100A5000DDFD00BF1837BD4680BD00BFE08800083F
:100A6000FC880008188900087C00002030890008F4
:100A700080B586B000AFF860B9607A60B86804F0FD
:100A8000C9FE0346FB75FB7D002B04D11D49F868A8
:100A900004F0BCFD32E0FB7D012B04D91A49F86853
:100AA00004F0B4FD2AE00121B86804F07DFE03469D
:100AB000184606F052FF0346BB82BB8AB3F5967F09
:100AC00004D91249F86804F0A1FD17E0104B1B6827
:100AD00001221A70BB8A1B0A9AB20D4B1B68D2B254
:100AE0005A700B4B1B68BA8AD2B29A70032000F07E
:100AF00083FE0849F86804F089FD00BF1837BD4639
:100B000080BD00BFE08800084089000818890008FF
:100B10007C0000203089000880B586B000AFF86006
:100B2000B9607A60B86804F075FE0346FB75FB7D1A
:100B3000002B04D11C49F86804F068FD31E0FB7D0E
:100B4000012B04D91949F86804F060FD29E001215E
:100B5000B86804F029FE0346184606F0FEFE034678
:100B6000BB82BB8A322B04D91149F86804F04EFDD0
:100B700017E0104B1B6802221A70BB8A1B0A9AB23C
:100B80000C4B1B68D2B25A700A4B1B68BA8AD2B29D
:100B90009A70032000F030FE0749F86804F036FD33
:100BA00000BF1837BD4680BDE088000840890008B6
:100BB000188900087C0000203089000880B586B0C4
:100BC00000AFF860B9607A60B86804F023FE0346AD
:100BD000FB75FB7D012B04D82449F86804F016FD51
:100BE00041E0FB7D022B04D92149F86804F00EFD99
:100BF00039E00121B86804F0D7FD0346184606F035
:100C0000ACFE0346DBB23B750221B86804F0CCFDB4
:100C10000346184606F0A1FE0346DBB27B753B7D1A
:100C2000012B04D91349F86804F0F0FC1BE07B7D2C
:100C3000012B04D90F49F86804F0E8FC13E00E4BCF
:100C40001B6803221A700C4B1B683A7D5A700A4BC2
:100C50001B687A7D9A70032000F0CEFD0749F86882
:100C600004F0D4FC00BF1837BD4680BDE088000802
:100C700040890008188900087C000020308900089D
:100C800080B586B000AFF860B9607A60B86804F0EB
:100C9000C1FD0346FB75FB7D012B04D82449F86890
:100CA00004F0B4FC41E0FB7D022B04D92149F86833
:100CB00004F0ACFC39E00121B86804F075FD03468E
:100CC000184606F04AFE0346DBB23B750221B868BF
:100CD00004F06AFD0346184606F03FFE0346DBB209
:100CE0007B753B7D012B04D91349F86804F08EFC19
:100CF0001BE07B7D012B04D90F49F86804F086FCCA
:100D000013E00E4B1B6804221A700C4B1B683A7DD3
:100D10005A700A4B1B687A7D9A70032000F06CFDB4
:100D20000749F86804F072FC00BF1837BD4680BD63
:100D3000E088000840890008188900087C0000202D
:100D40005C89000880B586B000AFF860B9607A6051
:100D5000B86804F05FFD03467B617B69002B04D01B
:100D60000949F86804F052FC0BE0084B1B680522A7
:100D70001A70012000F040FD0549F86804F046FCB7
:100D800000BF1837BD4680BD408900087C000020A8
:100D90005C89000880B586B000AFF860B9607A6001
:100DA000B86804F037FD03467B617B69002B04D0F3
:100DB0000949F86804F02AFC0BE0084B1B6807227D
:100DC0001A70012000F018FD0549F86804F01EFCB7
:100DD00000BF1837BD4680BD408900087C00002058
:100DE0005C89000880B586B000AFF860B9607A60B1
:100DF000B86804F00FFD03467B617B69002B04D0CB
:100E00000949F86804F002FC0BE0084B1B68062255
:100E10001A70012000F0F0FC0549F86804F0F6FBB8
:100E200000BF1837BD4680BD408900087C00002007
:100E30005C89000880B586B000AFF860B9607A6060
:100E4000B86804F0E7FC03467B617B69002B04D0A3
:100E50000949F86804F0DAFB0BE0084B1B6808222C
:100E60001A70012000F0C8FC0549F86804F0CEFBB8
:100E700000BF1837BD4680BD408900087C000020B7
:100E80005C89000880B596B000AFF860B9607A6000
:100E9000B86804F0BFFC03467B657B6D002B04DC67
:100EA0001F49F86804F0B2FB36E07B6D012B04DDCE
:100EB0001C49F86804F0AAFB2EE00121B86804F090
:100EC00073FC0346184606F048FD034687F8533086
:100ED00097F85330002B1FD097F853300A2B1BD8AC
:100EE00097F85320104B1B7802339A4213DC97F883
:100EF0005330013BDAB20C4B1A700B4B1B780B4A88
:100F00005B01134401221A70074B1B780133DAB2DC
:100F1000074B1A7000E000BF5837BD4680BD00BFC8
:100F2000E0880008FC8800088002002018010020EA
:100F30005802002080B586B000AFF860B9607A60D2
:100F4000B86804F067FC03467B617B69002B03D023
:100F50000B49F86804F05AFB0A4B1B780A4A5B01FC
:100F6000134400221A70074B1B785A1ED1B2054A4F
:100F70001170064A137000BF1837BD4680BD00BF10
:100F80001889000880020020180100205802002063
:100F900080B586B000AFF860B9607A60B86804F0D8
:100FA00039FC03467B617B69002B04D00B49F86850
:100FB00004F02CFB0EE00A4B1B780A4A5B01134439
:100FC00000221A70064B1B78064A5B01134401335A
:100FD00001221A701837BD4680BD00BF188900086D
:100FE000800200201801002080B586B000AFF860B4
:100FF000B9607A60B86804F00DFC03467B617B69D8
:10100000002B04DC1649F86804F000FB24E07B693F
:10101000012B04DD1349F86804F0F8FA1CE0124BC8
:101020001B78124A5B0113441B78002B13D001215B
:10103000B86804F0B9FB0346184606F08EFC034678
:10104000FB74094B1B78FA7C91B2084A5B0113448C
:1010500002330A461A8000BF1837BD4680BD00BF64
:10106000E0880008FC8800088002002018010020A9
:1010700080B586B000AFF860B9607A60B86804F0F7
:10108000C9FB03467B617B69012B04DC2649F868B8
:1010900004F0BCFA44E07B69022B04DD2349F868C4
:1010A00004F0B4FA3CE00121B86804F07DFB03468B
:1010B000184606F052FC0346DBB23B740221B868C6
:1010C00004F072FB0346184606F047FC0346DBB209
:1010D0007B74174B1B78174A5B0113441B7883F012
:1010E0000103DBB2002B1AD13B7C013B104A127882
:1010F0001046114AD15C0F4A4301134404330A4697
:101100001A707B7C013B0A4A127810460A4AD15C6D
:10111000084A4301134405330A461A7000E000BF31
:101120001837BD4680BD00BFE0880008FC88000875
:1011300080020020180100207400002080B58AB0D1
:1011400000AFF860B9607A60B86804F063FB0346EA
:101150007B627B6A032B04DC3E49F86804F056FA94
:1011600075E07B6A042B04DD3B49F86804F04EFA15
:101170006DE00121B86804F017FB0346184606F03D
:10118000ECFB03467B610221B86804F00DFB0346CB
:10119000184606F0E2FB0346BB610321B86804F081
:1011A00003FB0346184606F0D8FB0346FB61042107
:1011B000B86804F0F9FA0346184606F0CEFB034679
:1011C0003B627B69142B08DCBB69142B05DCFB69D3
:1011D000142B02DC3B6A142B04DD2049F86804F070
:1011E00015FA34E01E4B1B781E4A5B0113441B7832
:1011F00083F00103DBB2002B28D17A69184B1B78EE
:10120000D1B2184A5B01134408330A461A70BA690E
:10121000134B1B78D1B2134A5B01134409330A46BE
:101220001A70FA690E4B1B78D1B20E4A5B01134457
:1012300014330A461A703A6A094B1B78D1B2094A2C
:101240005B01134415330A461A7000E000BF2837CB
:10125000BD4680BDE0880008FC88000818890008A9
:10126000800200201801002080B588B000AFF8602F
:10127000B9607A60B86804F0CDFA0346FB61FB6997
:10128000022B04DC2E49F86804F0C0F954E0FB6935
:10129000032B04DD2B49F86804F0B8F94CE0012178
:1012A000B86804F081FA0346184606F056FB034678
:1012B0003B610221B86804F077FA0346184606F04D
:1012C0004CFB03467B610321B86804F06DFA0346CA
:1012D000184606F042FB0346BB611B4B1B781B4ABA
:1012E0005B0113441B7883F00103DBB2002B22D196
:1012F0003A69154B1B7891B2144A5B0113440A33C7
:101300000A461A807A69104B1B7891B20F4A5B012A
:10131000134416330A461A80BA690B4B1B7891B2F4
:101320000A4A5B01134406330A461A800849F868E2
:1013300004F06CF900E000BF2037BD4680BD00BF5F
:10134000E0880008FC8800088002002018010020C6
:101350003089000880B588B000AFF860B9607A6065
:10136000B86804F057FA0346FB61FB69012B04DC03
:101370003049F86804F04AF958E0FB69022B04DDB3
:101380002D49F86804F042F950E00121B86804F0F2
:101390000BFA0346184606F0E0FA03467B61022189
:1013A000B86804F001FA0346184606F0D6FA034678
:1013B000BB617B69B3F57A7F02DC7B69002B04DCBF
:1013C0001E49F86804F022F930E0BB69B3F57A7F72
:1013D00002DCBB69002B04DC1849F86804F016F93C
:1013E00024E0174B1B78174A5B0113441B7883F0EA
:1013F0000103DBB2002B18D17A69114B1B7891B233
:10140000104A5B0113440C330A461A80BA690C4B2C
:101410001B7891B20B4A5B0113440E330A461A80C3
:101420000949F86804F0F2F800E000BF2037BD4633
:1014300080BD00BFE0880008FC880008188900080B
:1014400080020020180100203089000880B588B093
:1014500000AFF860B9607A60B86804F0DBF9034661
:10146000FB61FB69012B04DC3049F86804F0CEF81D
:1014700058E0FB69022B04DD2D49F86804F0C6F83A
:1014800050E00121B86804F08FF90346184606F0D1
:1014900064FA03467B610221B86804F085F90346CB
:1014A000184606F05AFA0346BB617B69B3F57A7FAA
:1014B00002DC7B69002B04DC1E49F86804F0A6F806
:1014C00030E0BB69B3F57A7F02DCBB69002B04DC3A
:1014D0001849F86804F09AF824E0174B1B78174A6B
:1014E0005B0113441B7883F00103DBB2002B18D19E
:1014F0007A69114B1B7891B2104A5B011344103387
:101500000A461A80BA690C4B1B7891B20B4A5B01F0
:10151000134412330A461A800949F86804F076F831
:1015200000E000BF2037BD4680BD00BFE088000856
:10153000FC8800081889000880020020180100209B
:101540003089000880B588B000AFF860B9607A6073
:10155000B86804F05FF90346FB61FB69012B04DC0A
:101560003049F86804F052F858E0FB69022B04DDBA
:101570002D49F86804F04AF850E00121B86804F0F9
:1015800013F90346184606F0E8F903467B61022189
:10159000B86804F009F90346184606F0DEF9034678
:1015A000BB617B69B3F57A7F02DC7B69002B04DCCD
:1015B0001E49F86804F02AF830E0BB69B3F57A7F79
:1015C00002DCBB69002B04DC1849F86804F01EF843
:1015D00024E0174B1B78174A5B0113441B7883F0F8
:1015E0000103DBB2002B18D17A69114B1B7891B241
:1015F000104A5B01134418330A461A80BA690C4B2F
:101600001B7891B20B4A5B0113441A330A461A80C5
:101610000949F86803F0FAFF00E000BF2037BD4633
:1016200080BD00BFE0880008FC8800081889000819
:1016300080020020180100203089000880B588B0A1
:1016400000AFF860B9607A60B86804F0E3F8034668
:10165000FB61FB69012B04DC3049F86803F0D6FF1D
:1016600058E0FB69022B04DD2D49F86803F0CEFF3A
:1016700050E00121B86804F097F80346184606F0D8
:101680006CF903467B610221B86804F08DF80346CB
:10169000184606F062F90346BB617B69B3F57A7FB1
:1016A00002DC7B69002B04DC1E49F86803F0AEFF06
:1016B00030E0BB69B3F57A7F02DCBB69002B04DC48
:1016C0001849F86803F0A2FF24E0174B1B78174A6B
:1016D0005B0113441B7883F00103DBB2002B18D1AC
:1016E0007A69114B1B7891B2104A5B0113441C3389
:1016F0000A461A80BA690C4B1B7891B20B4A5B01FF
:1017000013441E330A461A800949F86803F07EFF25
:1017100000E000BF2037BD4680BD00BFE088000864
:10172000FC880008188900088002002018010020A9
:101730003089000880B586B000AFF860B9607A6083
:10174000B86804F067F803467B617B69002B04DC12
:101750001549F86803F05AFF22E07B69012B04DD8C
:101760001249F86803F052FF1AE00121B86804F04A
:101770001BF80346184606F0F0F80346FB74FB7CA2
:10178000012B0CD1FB7C002B14BF01230023DAB208
:10179000074B1A700121012005F00AFD00E000BF8F
:1017A0001837BD4680BD00BFE0880008FC880008EF
:1017B0001401002080B588B000AFF860B9607A608D
:1017C00007F11403074A0A21184606F04FF907F1FA
:1017D00014031946F86803F019FF00BF2037BD460F
:1017E00080BD00BF6C89000880B584B000AFF86090
:1017F000B9607A60FFF7B2F880B58AB000AF0346EF
:10180000FB711F4BCA221A701E4B1A781C4B5A7060
:101810001B4B01229A701A4AFB79D370184B07228E
:101820001A71174BEF2283F80021154BDB78043334
:101830001A461549002005F073F903469AB2104B79
:10184000A3F8FE2007F10C0300221A605A609A6088
:10185000DA601A615A611A7607F10B0207F10C037C
:101860001946074805F0A8F9FA7A07F10C0319465A
:10187000064805F0D1FF00BF2837BD4680BD00BF38
:1018800064100020407A002065100020F80E00202F
:1018900080B400AF024B1846BD465DF8047B70472C
:1018A000A08A000880B400AF18231846BD465DF832
:1018B000047B704780B483B000AF78600B46FB7048
:1018C000FA787B685A6000BF0C37BD465DF8047B30
:1018D0007047000080B584B004AF4FF400730393E9
:1018E0004FF400730293114B0193114B0093252386
:1018F000104A1149114805F0FEFE4FF400621049EC
:101900000E4803F099FC03460E4A13600E4BDBB2FF
:1019100019460848FFF7CEFF0C49084805F064FF58
:101920000B4B064A1A6000BFBD4680BDF404002080
:10193000F402002000100140748900088802002091
:10194000F4060020F40E0020808900088489000835
:101950008402002080B584B000AF78600BE00D48B1
:1019600005F00EFF0346FB730B4B1B68FA7B114619
:10197000184603F097FD074805F06CFF0346002B5F
:10198000EDD1054B1B68184603F0AFFD00BF1037C3
:10199000BD4680BD88020020F40E002080B400AF58
:1019A000154B1B681B780D2B1ED801A252F823F093
:1019B000ED190008ED190008ED190008ED190008EF
:1019C000ED190008ED190008ED190008ED190008DF
:1019D000ED190008ED190008ED190008ED190008CF
:1019E000E9190008ED190008002300E000BF1846BF
:1019F000BD465DF8047B70478000002080B584B050
:101A000004AF8023039380230293124B0193124B64
:101A100000933423114A1249124805F06CFE124B10
:101A2000124A5A60104B80221A800F4B00221A81F2
:101A30000D4B1B88002B06D00B4B5B68042200214A
:101A4000184606F085F8022005F0A6F800BFBD464E
:101A500080BD00BFE40F0020640F0020004C004058
:101A60009C890008F80E00206C12002078120020DB
:101A700080B584B000AF78600023FB733223FB7322
:101A800047E02A4805F07CFE0346DAB2284B9A72FA
:101A9000274B9B7ADBB2CA2B03D1254B00221A813C
:101AA00034E0234B9B7ADBB2EF2B14D1204B5B68E5
:101AB0001F4A128992B2D1B21E4A184605F0B2F9F5
:101AC0000346BB73BB7B012B01D1FFF767FF184BAC
:101AD00000221A811AE0164B5B68154A128992B2ED
:101AE0001344134A927AD2B21A70114B1B899BB2DB
:101AF00001339AB20E4B1A810D4B1B899AB20C4BD3
:101B00001B889A4202D90A4B00221A81FB7B013BB7
:101B1000FB73064805F09EFE0346002B02D0FB7BBC
:101B2000002BAED100BF1037BD4680BDF80E00209F
:101B30006C1200206811002080B485B000AF78607E
:101B40007B6803F00703FB600C4BDB68BB60BA6883
:101B50004FF6FF031340BB60FB681A02BB681343D8
:101B600043F0BF6343F40033BB60044ABB68D360F7
:101B700000BF1437BD465DF8047B704700ED00E000
:101B800080B400AF044BDB681B0A03F00703184660
:101B9000BD465DF8047B704700ED00E080B483B083
:101BA00000AF0346FB7197F90730002B0BDBFB7985
:101BB00003F01F02074997F907305B09012000FA7B
:101BC00002F241F8232000BF0C37BD465DF8047BCC
:101BD000704700BF00E100E080B483B000AF03466F
:101BE0003960FB7197F90730002B0ADB3B68DAB2EA
:101BF0000C4997F907301201D2B20B4483F8002345
:101C00000AE03B68DAB20849FB7903F00F03043BB2
:101C10001201D2B20B441A7600BF0C37BD465DF8F4
:101C2000047B704700E100E000ED00E080B489B083
:101C300000AFF860B9607A60FB6803F00703FB61EE
:101C4000FB69C3F10703042B28BF0423BB61FB69B5
:101C50000433062B02D9FB69033B00E000237B61C0
:101C60004FF0FF32BB6902FA03F3DA43BB681A4054
:101C70007B699A404FF0FF317B6901FA03F3D94346
:101C80007B680B40134318462437BD465DF8047B40
:101C90007047000080B400AF054B1B68044A43F452
:101CA0008033136000BFBD465DF8047B704700BF02
:101CB0000038024080B400AF074B1B6803F40033C8
:101CC000B3F5003F0CBF01230023DBB21846BD462D
:101CD0005DF8047B704700BF0038024080B483B0D9
:101CE00000AF7860064B9B6823F0030204497B68D1
:101CF00013438B6000BF0C37BD465DF8047B704713
:101D00000038024080B400AF044B9B6803F00C0322
:101D10001846BD465DF8047B704700BF003802409E
:101D200080B483B000AF7860064B9B6823F0F0026C
:101D300004497B6813438B6000BF0C37BD465DF8D8
:101D4000047B70470038024080B483B000AF7860F5
:101D5000064B9B6823F4E05204497B6813438B6075
:101D600000BF0C37BD465DF8047B70470038024069
:101D700080B483B000AF7860064B9B6823F4604268
:101D800004497B6813438B6000BF0C37BD465DF888
:101D9000047B70470038024080B400AF054B1B68DD
:101DA000044A43F08073136000BFBD465DF8047BB6
:101DB000704700BF0038024080B400AF074B1B687B
:101DC00003F00073B3F1007F0CBF01230023DBB2EB
:101DD0001846BD465DF8047B704700BF00380240DE
:101DE00080B485B000AFF860B9607A603B600D4B9D
:101DF0005A680D4B1340F968BA6811437A6892012A
:101E00000A43084913434B60064B5B6823F4403296
:101E100004493B6813434B6000BF1437BD465DF86F
:101E2000047B7047003802400080BFFF80B485B05B
:101E300000AF7860084B1A6B07497B6813430B634C
:101E4000054B1A6B7B681340FB60FB6800BF1437BF
:101E5000BD465DF8047B70470038024080B485B011
:101E600000AF7860084B1A6C07497B6813430B641A
:101E7000054B1A6C7B681340FB60FB6800BF14378E
:101E8000BD465DF8047B70470038024080B485B0E1
:101E900000AF7860084B5A6C07497B6813434B646A
:101EA000054B5A6C7B681340FB60FB6800BF14371E
:101EB000BD465DF8047B70470038024080B483B0B3
:101EC00000AF7860064B1B6823F0070204497B686B
:101ED00013430B6000BF0C37BD465DF8047B7047B1
:101EE000003C024080B400AF044B1B6803F00703C2
:101EF0001846BD465DF8047B704700BF003C0240B9
:101F000080B483B000AF7860064B1B6823F4804236
:101F100004497B6813430B6000BF0C37BD465DF876
:101F2000047B70470070004080B400AF074B5B68D3
:101F300003F48043B3F5804F0CBF01230023DBB2D1
:101F40001846BD465DF8047B704700BF0070004036
:101F500080B485B000AFF860B9607A600D4ABB68A4
:101F600013441B781A46FB6813441B6823F0C00215
:101F70000849BB680B441B781946FB680B4419469B
:101F80007B6813430B6000BF1437BD465DF8047BCC
:101F9000704700BFE08C000880B485B000AFF860E7
:101FA000B9607A600D4ABB6813441B781A46FB6817
:101FB00013441B6823F490720849BB680B441B78D8
:101FC0001946FB680B4419467B6813430B6000BF3E
:101FD0001437BD465DF8047B704700BFE08C0008F5
:101FE00080B485B000AFF860B9607A600D4ABB6814
:101FF00013441B781A46FB6813441B6823F40072D1
:102000000849BB680B441B781946FB680B4419460A
:102010007B6813430B6000BF1437BD465DF8047B3B
:10202000704700BFE08C000880B485B000AFF86056
:10203000B9607A600D4ABB6813441B781A46FB6886
:1020400013441B6823F480620849BB680B441B7867
:102050001946FB680B4419467B6813430B6000BFAD
:102060001437BD465DF8047B704700BFE08C000864
:1020700080B485B000AFF860B9607A600D4ABB6883
:1020800013441B781A46FB6813441B6823F4C052A0
:102090000849BB680B441B781946FB680B4419467A
:1020A0007B6813430B6000BF1437BD465DF8047BAB
:1020B000704700BFE08C000880B485B000AFF860C6
:1020C000B9607A600D4ABB6813441B781A46FB68F6
:1020D00013441B6823F4C0420849BB680B441B78B7
:1020E0001946FB680B4419467B6813430B6000BF1D
:1020F0001437BD465DF8047B704700BFE08C0008D4
:1021000080B485B000AFF860B9607A600D4ABB68F2
:1021100013441B781A46FB6813441B6823F44032AF
:102120000849BB680B441B781946FB680B441946E9
:102130007B6813430B6000BF1437BD465DF8047B1A
:10214000704700BFE08C000880B485B000AFF86035
:10215000B9607A600D4ABB6813441B781A46FB6865
:1021600013441B6823F060620849BB680B441B786A
:102170001946FB680B4419467B6813430B6000BF8C
:102180001437BD465DF8047B704700BFE08C000843
:1021900080B483B000AF786039600C4A3B68134468
:1021A0001B781A467B6813445B6908493A680A44FD
:1021B000127811467A680A4423F00403536100BF81
:1021C0000C37BD465DF8047B704700BFE08C00080B
:1021D00080B483B000AF786039600C4A3B68134428
:1021E0001B781A467B6813441B6808493A680A44FE
:1021F000127811467A680A4443F01003136000BF56
:102200000C37BD465DF8047B704700BFE08C0008CA
:1022100080B483B000AF78607B681B6843F08002B5
:102220007B681A6000BF0C37BD465DF8047B7047C1
:1022300080B483B000AF78607B681B6823F08002B5
:102240007B681A6000BF0C37BD465DF8047B7047A1
:1022500080B485B000AF786039603B68012B1CD03A
:102260003B68042B17D03B68102B12D03B68402BE7
:102270000DD03B68B3F5807F07D03B68B3F5806F26
:1022800001D105230AE0062308E0042306E0032326
:1022900004E0022302E0012300E00023FB737B68DB
:1022A00018331946FB7B0B4AD35C0B44BB60BB68FD
:1022B0001A68FB7B0849CB5C194604238B40DB433F
:1022C0001A40BB681A6000BF1437BD465DF8047B36
:1022D000704700BFE88C0008F08C000880B485B01F
:1022E00000AF786039603B68012B1CD03B68042B41
:1022F00017D03B68102B12D03B68402B0DD03B68A9
:10230000B3F5807F07D03B68B3F5806F01D105231B
:102310000AE0062308E0042306E0032304E0022386
:1023200002E0012300E00023FB737B6818331946A9
:10233000FB7B0A4AD35C0B44BB60BB681A68FB7B1F
:102340000749CB5C194608238B401A43BB681A60C7
:1023500000BF1437BD465DF8047B7047E88C000869
:10236000F08C000880B483B000AF786039607B687F
:102370009B6823F4804323F007033A681A437B6881
:102380009A6000BF0C37BD465DF8047B704780B48F
:1023900083B000AF786039607B685B6823F07002BF
:1023A0003B681A437B685A6000BF0C37BD465DF836
:1023B000047B704780B483B000AF78607B689B6813
:1023C00023F080027B689A6000BF0C37BD465DF841
:1023D000047B704780B483B000AF78607B68DB68B3
:1023E00043F400527B68DA6000BF0C37BD465DF8ED
:1023F000047B704780B483B000AF78607B681B6952
:1024000023F490427B681A617B685B6923F02A029F
:102410007B685A6100BF0C37BD465DF8047B70478E
:1024200080B483B000AF786039603B681A047B6881
:102430009A6100BF0C37BD465DF8047B704780B5DC
:1024400000AF4FF48040FFF721FD4FF08050FFF7C1
:1024500005FD0320FFF770FBFFF792FB0346002208
:102460000F211846FFF7E2FB034619464FF0FF30F5
:10247000FFF7B2FB00F010F800F094F900F032F929
:1024800000F054F800F0CEF800F0D4F900F0D4FADF
:10249000FEF740FA00BFFDE780B500AF0220FFF76E
:1024A0000DFD00BFFFF71EFD0346022BFAD14FF4CE
:1024B0008040FFF725FDFFF7EDFB00BFFFF7FAFBBC
:1024C0000346012BFAD10023482204214FF4800057
:1024D000FFF786FCFFF760FC00BFFFF76DFC0346CB
:1024E000012BFAD100BFFFF71FFD0346002BFAD0E6
:1024F0000020FFF715FC4FF48050FFF725FC00206B
:10250000FFF736FC0220FFF7E9FB00BFFFF7FAFBFD
:102510000346082BFAD1044801F082FD024801F07D
:102520008DFD00BF80BD00BF00A24A0480B594B0FD
:1025300000AF07F13C0300221A605A609A60DA602B
:102540001A6107F11C0320220021184605F000FB48
:102550003B1D00221A605A609A60DA601A615A6163
:102560000220FFF77BFC40F22B13BB8700233B6468
:102570004FF6FF737B640023BB6407F13C031946ED
:10258000264800F089FF2548FFF752FE0121234825
:10259000FFF7A4FE6023FB6100233B6200237B6204
:1025A0000023BB620023FB6207F11C031A460121D2
:1025B0001A4801F00BF801211848FFF749FE1021D5
:1025C0001648FFF78BFE07F11C031A46102113482B
:1025D00000F0FCFF10211148FFF73AFE00210F48E0
:1025E000FFF7D5FE0D48FFF7E5FE0220FFF71EFCC2
:1025F00030237B600223BB600023FB6000233B6130
:1026000000237B610223BB613B1D1946044800F097
:1026100015FD00BF5037BD4680BD00BF000400401F
:102620000004024080B58EB000AF07F11C03002209
:102630001A605A609A60DA601A615A619A613B1DA9
:1026400000221A605A609A60DA601A615A614FF487
:102650000020FFF703FC0120FFF7E8FB03237B606A
:102660000223BB600323FB6000233B6100237B61EB
:102670000823BB613B1D1946184800F0DFFCFFF73B
:102680007FFA0346002200211846FFF7CFFA0346DF
:1026900019463420FFF7A0FA3420FFF77FFA4FF4F1
:1026A000E133FB6100233B6200237B620023BB62BA
:1026B0000C23FB6200233B6300237B6307F11C03B5
:1026C0001946074801F012FC0548FFF793FE04483D
:1026D000FFF780FE00BF3837BD4680BD00000240D6
:1026E000004C004080B58EB000AF07F11C03002203
:1026F0001A605A609A60DA601A615A619A613B1DE9
:1027000000221A605A609A60DA601A615A611020D9
:10271000FFF7BCFB0120FFF789FB4FF4C0637B6030
:102720000223BB600323FB6000233B6100237B612A
:102730000723BB613B1D1946184800F07FFCFFF7DB
:102740001FFA0346002200211846FFF76FFA0346DE
:1027500019462520FFF740FA2520FFF71FFA4FF40E
:10276000E133FB6100233B6200237B620023BB62F9
:102770000C23FB6200233B6300237B6307F11C03F4
:102780001946074801F0B2FB0548FFF733FE04483D
:10279000FFF720FE00BF3837BD4680BD0000024075
:1027A0000010014080B586B000AF3B4600221A60A1
:1027B0005A609A60DA601A615A610420FFF736FBAA
:1027C0008020FFF733FB0120FFF730FB0220FFF7EB
:1027D0002DFB4FF6FF711548FFF722FEC821144864
:1027E000FFF71EFE4FF6FF733B6001237B60002363
:1027F000BB600023FB6000233B613B4619460B484E
:1028000000F01CFCC8233B6001237B600023BB60FD
:102810000023FB6000233B613B461946044800F05F
:102820000DFC00BF1837BD4680BD00BF0008024048
:102830000004024080B594B000AF4FF48000FFF771
:10284000F5FAFFF79DF90346002200211846FFF72D
:10285000EDF9034619463C20FFF7BEF93C20FFF78F
:102860009DF9FFF78DF90346002200211846FFF776
:10287000DDF9034619464420FFF7AEF94420FFF77F
:102880008DF907F13C0300221A605A609A60DA6001
:102890001A6107F11C0320220021184605F058F99F
:1028A0003B1D00221A605A609A60DA601A615A6110
:1028B0000120FFF7EBFA4FF0406205215C48FFF77B
:1028C00043FC402205215A48FFF742FB4FF44032B7
:1028D00005215748FFF714FC002205215448FFF753
:1028E0005BFB002205215248FFF77AFB4FF4806220
:1028F00005214F48FFF798FB4FF4805205214C48C3
:10290000FFF7B6FB4FF4804205214948FFF7D4FB9F
:1029100005214748FFF73CFC4FF040620421444842
:10292000FFF712FC402204214148FFF711FB00226F
:1029300004213F48FFF7E4FB002204213C48FFF755
:102940002BFB002204213A48FFF74AFB4FF4806238
:1029500004213748FFF768FB4FF4805204213448C4
:10296000FFF786FB4FF4804204213148FFF7A4FBB8
:1029700004212F48FFF70CFC41F61F43BB870023BF
:102980003B644FF6FF737B640023BB640023FB644E
:1029900007F13C031946274800F07EFD2548FFF764
:1029A00037FC00212348FFF7DDFC0023FB610023F7
:1029B0003B6200237B620023BB620023FB62002397
:1029C0007B630023BB6307F11C031A464FF480515D
:1029D000184800F0FBFD4FF480511648FFF738FC13
:1029E00020211448FFF7D3FC1248FFF7E3FC002333
:1029F0007B600023BB600023FB6000233B7400234B
:102A00007B824FF400537B610023BB613B1D194661
:102A1000084800F01CFE04210548FFF7D9FB0521FA
:102A20000348FFF7D5FB00BF5037BD4680BD00BF50
:102A3000006402400000014080B594B000AF4FF444
:102A40008000FFF7F3F9FFF79BF80346002200210F
:102A50001846FFF7EBF8034619464620FFF7BCF887
:102A60004620FFF79BF8FFF78BF803460022002172
:102A70001846FFF7DBF8034619463920FFF7ACF894
:102A80003920FFF78BF807F13C0300221A605A60E7
:102A90009A60DA601A6107F11C03202200211846AF
:102AA00005F056F83B1D00221A605A609A60DA6001
:102AB0001A615A610220FFF7E9F94FF060620121C3
:102AC0005C48FFF741FB402201215A48FFF740FADA
:102AD0004FF4403201215748FFF712FB0022012139
:102AE0005448FFF759FA002201215248FFF778FABB
:102AF0004FF4806201214F48FFF796FA4FF480525D
:102B000001214C48FFF7B4FA4FF4804201214948B3
:102B1000FFF7D2FA01214748FFF73AFB4FF0606216
:102B200007214448FFF710FB402207214148FFF7E7
:102B30000FFA002207213F48FFF7E2FA002207219F
:102B40003C48FFF729FA002207213A48FFF748FAE4
:102B50004FF4806207213748FFF766FA4FF480523E
:102B600007213448FFF784FA4FF4804207213148A7
:102B7000FFF7A2FA07212F48FFF70AFB41F61F4390
:102B8000BB8700233B644FF6FF737B640023BB6469
:102B90000023FB6407F13C031946274800F07CFC46
:102BA0002548FFF735FB00212348FFF7DBFB002317
:102BB000FB6100233B6200237B620023BB62002396
:102BC000FB6200237B630023BB6307F11C031A46EF
:102BD0004FF48051184800F0F9FC4FF4805116482A
:102BE000FFF736FB20211448FFF7D1FB1248FFF70F
:102BF000E1FB00237B600023BB600023FB6000231C
:102C00003B7400237B824FF400537B610023BB6144
:102C10003B1D1946084800F01AFD01210548FFF741
:102C2000D7FA07210348FFF7D3FA00BF5037BD4654
:102C300080BD00BF006402400004014080B400AFCA
:102C400000BFFDE780B400AF00BFFDE780B400AF78
:102C500000BFFDE780B400AF00BFFDE780B400AF68
:102C600000BFFDE780B400AF00BFBD465DF8047B48
:102C7000704780B400AF00BFBD465DF8047B70476D
:102C800080B400AF00BFBD465DF8047B704780B5DF
:102C900000AF04F023FA00BF80BD000080B500AF94
:102CA000024804F0E5FD00BF80BD00BF880200209F
:102CB00080B500AF024804F0DBFD00BF80BD00BF5F
:102CC000F80E002080B586B000AF7860144A154B2E
:102CD000D31A7B617B693B61134B1B68002B02D1CC
:102CE000114B124A1A60104B1A687B6813443A69F8
:102CF0009A4207D204F054FF03460C221A604FF0A8
:102D0000FF3309E0084B1B68FB60074B1A687B68C0
:102D10001344054A1360FB6818461837BD4680BD4A
:102D20000000022000040000F8120020907B002028
:102D300080B400AF064BD3F88830054A43F47003E3
:102D4000C2F8883000BFBD465DF8047B704700BF05
:102D500000ED00E0DFF834D0FFF7EAFF0C480D4942
:102D60000D4A002302E0D458C4500433C4188C42E6
:102D7000F9D30A4A0A4C002301E013600432A2424C
:102D8000FBD304F013FFFFF75AFB7047000002204B
:102D900000000020F8000020DC8E0008F800002071
:102DA000907B0020FEE780B48BB000AFF860B96084
:102DB0007A60FB681A68BB687B617B6993FAA3F34E
:102DC0003B613B69BB61BB69002B01D1202303E060
:102DD000BB69B3FA83F3DBB25B00032101FA03F3AF
:102DE000DB431A40BB683B623B6A93FAA3F3FB6187
:102DF000FB697B627B6A002B01D1202303E07B6AA5
:102E0000B3FA83F3DBB25B00796801FA03F31A4388
:102E1000FB681A6000BF2C37BD465DF8047B704725
:102E200080B485B000AFF860B9607A60FB685A681A
:102E3000BB68DB431A40BB68796801FB03F31A43A4
:102E4000FB685A6000BF1437BD465DF8047B7047CD
:102E500080B48BB000AFF860B9607A60FB689A68A4
:102E6000BB687B617B6993FAA3F33B613B69BB6100
:102E7000BB69002B01D1202303E0BB69B3FA83F3C4
:102E8000DBB25B00032101FA03F3DB431A40BB68AA
:102E90003B623B6A93FAA3F3FB61FB697B627B6A4B
:102EA000002B01D1202303E07B6AB3FA83F3DBB26A
:102EB0005B00796801FA03F31A43FB689A6000BF6C
:102EC0002C37BD465DF8047B704780B48BB000AFF3
:102ED000F860B9607A60FB68DA68BB687B617B691F
:102EE00093FAA3F33B613B69BB61BB69002B01D142
:102EF000202303E0BB69B3FA83F3DBB25B00032159
:102F000001FA03F3DB431A40BB683B623B6A93FA66
:102F1000A3F3FB61FB697B627B6A002B01D1202359
:102F200003E07B6AB3FA83F3DBB25B00796801FAF2
:102F300003F31A43FB68DA6000BF2C37BD465DF827
:102F4000047B704780B48BB000AFF860B9607A60E2
:102F5000FB681A6ABB687B617B6993FAA3F33B61E8
:102F60003B69BB61BB69002B01D1202303E0BB6936
:102F7000B3FA83F3DBB29B000F2101FA03F3DB43C7
:102F80001A40BB683B623B6A93FAA3F3FB61FB699F
:102F90007B627B6A002B01D1202303E07B6AB3FABA
:102FA00083F3DBB29B00796801FA03F31A43FB68F1
:102FB0001A6200BF2C37BD465DF8047B704780B4B1
:102FC0008BB000AFF860B9607A60FB685A6ABB6882
:102FD0001B0A7B617B6993FAA3F33B613B69BB618D
:102FE000BB69002B01D1202303E0BB69B3FA83F353
:102FF000DBB29B000F2101FA03F3DB431A40BB68ED
:103000001B0A3B623B6A93FAA3F3FB61FB697B6299
:103010007B6A002B01D1202303E07B6AB3FA83F3A0
:10302000DBB29B00796801FA03F31A43FB685A622A
:1030300000BF2C37BD465DF8047B704780B58AB071
:1030400000AF7860396000237B6200233B623B68FD
:103050001B68BB61BB6993FAA3F37B617B69FB616E
:10306000FB69002B01D1202303E0FB69B3FA83F352
:10307000DBB27B6257E03B681A6801217B6A01FA88
:1030800003F313403B623B6A002B49D03B685B680B
:10309000012B03D03B685B68022B0DD13B689B681A
:1030A0001A46396A7868FFF7D3FE3B68DB681A4630
:1030B000396A7868FFF7B4FE3B681B691A46396ABB
:1030C0007868FFF702FF3B685B68022B21D13B6AFF
:1030D000FB60FB6893FAA3F3BB60BB683B613B6991
:1030E000002B01D1202303E03B69B3FA83F3DBB269
:1030F000072B07D83B685B691A46396A7868FFF77F
:1031000021FF06E03B685B691A46396A7868FFF779
:1031100056FF3B685B681A46396A7868FFF743FEDA
:103120007B6A01337B623B681A687B6A22FA03F38D
:10313000002BA0D1002318462837BD4680BD0000D3
:1031400080B400AF044B9B6803F00C031846BD46E7
:103150005DF8047B704700BF0038024080B400AFC8
:10316000044B9B6803F0F0031846BD465DF8047BF2
:10317000704700BF0038024080B400AF044B9B682A
:1031800003F4E0531846BD465DF8047B704700BF6A
:103190000038024080B400AF044B9B6803F46043E6
:1031A0001846BD465DF8047B704700BF00380240FA
:1031B00080B400AF044B5B6803F480031846BD463F
:1031C0005DF8047B704700BF0038024080B400AF58
:1031D000044B5B689B09C3F308031846BD465DF8C2
:1031E000047B70470038024080B400AF044B5B683A
:1031F00003F440331846BD465DF8047B704700BFBA
:103200000038024080B400AF044B5B6803F03F031A
:103210001846BD465DF8047B704700BF0038024089
:1032200080B582B000AF786000F020F802467B687D
:103230001A607B681B68184600F040F802467B68FD
:103240005A607B685B68184600F04EF802467B685F
:103250009A607B685B68184600F05AF802467B6803
:10326000DA6000BF0837BD4680BD000080B582B07F
:1032700000AF00237B60FFF763FF0346082B0CD0F1
:10328000082B0FD8002B02D0042B03D00AE0094BE7
:103290007B600AE0084B7B6007E0082000F04CF8F8
:1032A000786002E0034B7B6000BF7B6818460837FC
:1032B000BD4680BD0024F40000127A0080B582B0C3
:1032C00000AF7860FFF74AFF03461B0903F00F03C6
:1032D000044AD35C1A467B68D34018460837BD467B
:1032E00080BD00BFF88C000880B582B000AF786068
:1032F000FFF742FF03469B0A044AD35C1A467B68E9
:10330000D34018460837BD4680BD00BF088D000871
:1033100080B582B000AF7860FFF73CFF03465B0BDF
:10332000044AD35C1A467B68D34018460837BD462A
:1033300080BD00BF088D000890B587B000AF7860F1
:1033400000237B610023FB6000233B61FFF730FF1C
:10335000F860FB68002B04D0FB68B3F5800F03D046
:1033600005E0124B7B6105E0114B7B6102E00F4BE6
:103370007B6100BF7B68082B13D1FFF743FF024638
:103380007B69B3FBF2F4FFF721FF034603FB04F470
:10339000FFF72AFF03461B0C01335B00B4FBF3F37A
:1033A0003B613B6918461C37BD4690BD0024F400C4
:1033B00000127A0080B483B000AF786039607B6817
:1033C0003A689A6200BF0C37BD465DF8047B7047CF
:1033D00080B483B000AF786039607B683A68DA62A5
:1033E00000BF0C37BD465DF8047B704780B483B0E6
:1033F00000AF786039607B683A681A6300BF0C37A9
:10340000BD465DF8047B704780B483B000AF786040
:1034100039607B683A685A6300BF0C37BD465DF877
:10342000047B704780B483B000AF786039607B68FC
:103430003A689A6300BF0C37BD465DF8047B70475D
:1034400080B483B000AF786039607B683A68DA6333
:1034500000BF0C37BD465DF8047B704780B483B075
:1034600000AF786039607B683A681A6400BF0C3737
:10347000BD465DF8047B704780B483B000AF7860D0
:103480007B685B6943F001027B685A6100BF0C37BF
:10349000BD465DF8047B704780B584B000AF7860AE
:1034A00039607B681B68FB607B683D4A934213D0A0
:1034B0007B68B3F1804F0FD07B683A4A93420BD0C0
:1034C0007B68394A934207D07B68384A934203D0DD
:1034D0007B68374A934206D1FB6823F070023B6851
:1034E0005B681343FB607B682D4A93422BD07B685B
:1034F000B3F1804F27D07B682A4A934223D07B6860
:10350000294A93421FD07B68284A93421BD07B688C
:10351000274A934217D07B68264A934213D07B6890
:10352000254A93420FD07B68244A93420BD07B6894
:10353000234A934207D07B68224A934203D07B6898
:10354000214A934206D1FB6823F440723B68DB6852
:103550001343FB607B68FA681A603B689B681946F6
:103560007868FFF735FF3B681B8819467868FFF7D6
:1035700021FF7B680A4A934203D07B680C4A93423E
:1035800005D13B681B6919467868FFF72FFF7868FB
:10359000FFF772FF002318461037BD4680BD00BFFD
:1035A000000001400004004000080040000C004002
:1035B0000004014000400140004401400048014037
:1035C00000180040001C00400020004080B586B07C
:1035D00000AFF860B9607A600123FB75BB68B3F592
:1035E000805F27D0BB68B3F5805F2AD8BB68B3F58E
:1035F000807F18D0BB68B3F5807F22D8BB68012BD1
:1036000003D0BB68102B07D01BE07968F86800F086
:1036100061F80346FB7515E07968F86800F0C6F8B4
:103620000346FB750EE07968F86800F02FF9034651
:10363000FB7507E07968F86800F098F90346FB75B8
:1036400000E000BFFB7D18461837BD4680BD80B442
:1036500085B000AF786039600023FB60FB6823F021
:10366000FF033A68127B1343FB60FB6823F440724C
:103670003B689B681343FB60FB6823F480623B68F4
:103680005B681343FB60FB6823F400623B681B68C4
:103690001343FB60FB6823F480533A68D2891343D9
:1036A000FB60FB6823F400523B681B691343FB601B
:1036B000FB6823F480423B685B691343FB607B68D3
:1036C000FA685A64002318461437BD465DF8047B37
:1036D0007047000080B586B000AF786039607B68C5
:1036E0001B6A23F001027B681A627B681B6A7B619C
:1036F0007B685B683B617B689B69FB60FB6823F0D0
:103700000303FB60FB6823F070023B681B681343F4
:10371000FB607B6923F002023B681B6913437B61FA
:103720007B6923F001023B685B6813437B617B6824
:103730001C4A934203D07B681B4A93421ED17B698B
:1037400023F008023B685B699B0013437B617B6944
:1037500023F004023B689B689B0013437B613B6939
:1037600023F480723B689B6913433B613B6923F4FC
:1037700000723B68DB695B0013433B617B683A691D
:103780005A607B68FA689A613B68DB68194678681A
:10379000FFF73AFE7B687A691A62002318461837E9
:1037A000BD4680BD000001400004014080B586B0E8
:1037B00000AF786039607B681B6A23F010027B6879
:1037C0001A627B681B6A7B617B685B683B617B6814
:1037D0009B69FB60FB6823F44073FB60FB6823F488
:1037E000E0423B681B681B021343FB607B6923F0CC
:1037F00020023B681B691B0113437B617B6923F03B
:1038000010023B685B681B0113437B617B681D4AA8
:10381000934203D07B681C4A93421FD17B6923F0FB
:1038200080023B685B699B0113437B617B6923F0EA
:1038300040023B689B689B0113437B613B6923F417
:1038400080623B689B699B0013433B613B6923F4A7
:1038500000623B68DB69DB0013433B617B683A69CC
:103860005A607B68FA689A613B68DB681946786839
:10387000FFF7D8FD7B687A691A620023184618376B
:10388000BD4680BD000001400004014080B586B007
:1038900000AF786039607B681B6A23F480727B68B4
:1038A0001A627B681B6A7B617B685B683B617B6833
:1038B000DB69FB60FB6823F00303FB60FB6823F01C
:1038C00070023B681B681343FB607B6923F4007242
:1038D0003B681B691B0213437B617B6923F4807285
:1038E0003B685B681B0213437B617B681D4A934204
:1038F00003D07B681C4A93421FD17B6923F400628A
:103900003B685B699B0213437B617B6923F48062A4
:103910003B689B689B0213437B613B6923F48052A5
:103920003B689B691B0113433B613B6923F40052D5
:103930003B68DB695B0113433B617B683A695A6012
:103940007B68FA68DA613B68DB6819467868FFF7DC
:1039500077FD7B687A691A62002318461837BD46DE
:1039600080BD00BF000001400004014080B586B06A
:1039700000AF786039607B681B6A23F480527B68F3
:103980001A627B681B6A3B617B685B687B617B6852
:10399000DB69FB60FB6823F44073FB60FB6823F486
:1039A000E0423B681B681B021343FB603B6923F446
:1039B00000523B681B691B0313433B613B6923F4C3
:1039C00080523B685B681B0313433B617B68114A71
:1039D000934203D07B68104A934207D17B6923F45A
:1039E00080423B689B699B0113437B617B687A69DA
:1039F0005A607B68FA68DA613B68DB681946786868
:103A0000FFF72CFD7B683A691A62002318461837C5
:103A1000BD4680BD000001400004014080B483B079
:103A200000AF78607B68DB6803F40053B3F5005F98
:103A30000CBF01230023DBB218460C37BD465DF8EE
:103A4000047B704780B483B000AF786039607B68D6
:103A50001B6923F440523B681A437B681A6100BF1C
:103A60000C37BD465DF8047B704780B483B000AF6F
:103A7000786039607B685B6923F440723B681A4365
:103A80007B685A6100BF0C37BD465DF8047B704708
:103A90002DE9B04FC0B000AFC7F8FC00C7F8F81070
:103AA000C7F8F420C7F8F030D7F8F430B3F5004F7A
:103AB00040F00C81D7F8F8300022C7F8E830C7F89A
:103AC000EC20D7E93A4522462B46911839665B41EE
:103AD0007B66D7E91823214612EB0108294643EB00
:103AE00001094FF000024FF000034FEAC90343EA17
:103AF00058734FEAC80290469946234618EB0303D1
:103B0000C7F8E0302B4649EB0303C7F8E430D7F899
:103B1000F03000229A4693461AEB0A03BB654BEB42
:103B20000B03FB65D7E91623D7E93801FCF7B8FB8F
:103B300002460B46644BA3FB02235B099BB21B01AD
:103B40009CB2D7F8F8300022C7F8D830C7F8DC208C
:103B5000D7E9368942464B46911839655B417B650A
:103B6000D7E9142341465118B96449464B41FB64D7
:103B70004FF000024FF00003D7E912AB5946CB00DB
:103B8000514643EA51735146CA001046194603464E
:103B900042469B18C7F8D0304B460A4642EB030317
:103BA000C7F8D430D7F8F0300022C7F8C830C7F8CB
:103BB000CC20D7E932120B46DB183B64134642EBAC
:103BC00003037B64D7E91023D7E93401FCF768FBD2
:103BD00002460B4611463C4BA3FB01235B096422C2
:103BE00002FB03F3CB1ADB0003F13202364BA3FBDB
:103BF00002235B099BB25B009BB203F4F8739BB298
:103C000023449CB2D7F8F8300022C7F8C030C7F878
:103C1000C420D7E9308942464B469118B9635B41CD
:103C2000FB63D7E90E2341465118396349464B419E
:103C30007B634FF000024FF00003D7E90CAB59460D
:103C4000CB00514643EA51735146CA00104619460B
:103C5000034642469B18C7F8B8304B460A4642EB2B
:103C60000303C7F8BC30D7F8F0300022C7F8B030F3
:103C7000C7F8B420D7E92C120B46DB18BB621346F9
:103C800042EB0303FB62D7E90A23D7E92E01FCF7D5
:103C900007FB02460B460C4BA3FB02135B09642196
:103CA00001FB03F3D31ADB003233074AA2FB0323E1
:103CB0005B099BB203F007039BB223449BB21A46F5
:103CC000D7F8FC309A6008E11F85EB51D7F8F8303F
:103CD0000022C7F8A830C7F8AC20D7E92A894246A5
:103CE0004B46911839625B417B62D7E90823414614
:103CF0005418494643EB01054FF000024FF0000312
:103D0000EB0043EA5473E20014461D464346E318B1
:103D1000C7F8A0304B4645EB0303C7F8A430D7F8EB
:103D2000F0300022C7F89830C7F89C204FF000020E
:103D30004FF00003D7E9264529468B00214643EA88
:103D4000917321468A00D7E92801FCF7A9FA0246B7
:103D50000B46654BA3FB02235B099BB21B019CB284
:103D6000D7F8F8300022C7F89030C7F89420D7E988
:103D7000248942464B469118B9615B41FB61D7E902
:103D8000062341465118396149464B417B614FF04A
:103D900000024FF00003D7E904AB5946CB0051466F
:103DA00043EA51735146CA0010461946034642463B
:103DB0009B18C7F888304B460A4642EB0303C7F806
:103DC0008C30D7F8F0300022C7F88030C7F8842054
:103DD0004FF000024FF00003D7E9208949468B00DD
:103DE000414643EA917341468A00D7E92201FCF734
:103DF00057FA02460B4611463B4BA3FB01235B09D6
:103E0000642202FB03F3CB1A1B013233364AA2FBB6
:103E100003235B099BB203F0F0039BB223449CB2E3
:103E2000D7F8F8300022BB67FA67D7E91E89424607
:103E30004B469118B9605B41FB60D7E902234146CC
:103E40005118396049464B417B604FF000024FF0FA
:103E50000003D7E900AB5946CB00514643EA517302
:103E60005146CA0010461946034642469B183B6716
:103E70004B460A4642EB03037B67D7F8F03000223B
:103E8000BB66FA664FF000024FF00003D7E91A89CB
:103E900049468B00414643EA917341468A00D7E97F
:103EA0001C01FCF7FDF902460B460F4BA3FB021366
:103EB0005B09642101FB03F3D31A1B0132330A4A65
:103EC000A2FB03235B099BB203F00F039BB22344C5
:103ED0009BB21A46D7F8FC309A6000BF07F580778E
:103EE000BD46BDE8B08F00BF1F85EB5180B588B0DF
:103EF00000AF786039600123FB770023BB617868ED
:103F0000FFF78CFD0346002B5ED17B68DB6823F452
:103F1000164323F00C033A6851683A68D26811439B
:103F20003A68126911433A6892690A431A437B68F6
:103F3000DA603B689B6819467868FFF783FD3B6849
:103F40005B6919467868FFF790FD07F1080318468A
:103F5000FFF766F97B681F4A934202D17B69BB6118
:103F600021E07B681C4A934202D13B69BB611AE0A5
:103F70007B681A4A934202D13B69BB6113E07B68BC
:103F8000174A934202D17B69BB610CE07B68154AFA
:103F9000934202D13B69BB6105E07B68124A9342C0
:103FA00001D13B69BB61BB69002B0DD03B681B682D
:103FB000002B09D00023FB773B689A693B681B689C
:103FC000B9697868FFF764FDFB7F18462037BD4666
:103FD00080BD00BF00100140004400400048004088
:103FE00000140140004C00400050004080B483B0F9
:103FF00000AF786039607A683B68B2FBF3F3074A38
:10400000013B5360054B00229A60044B05221A6065
:1040100000BF0C37BD465DF8047B704710E000E040
:1040200080B582B000AF78604FF47A717868FFF79E
:10403000DDFF00BF0837BD4680BD000080B483B0FF
:1040400000AF7860044A7B68136000BF0C37BD4640
:104050005DF8047B704700BF8400002080B483B00B
:1040600000AF786039600C4A3B6813441B781A46ED
:104070007B6813441B6808493A680A441278114661
:104080007A680A4443F00103136000BF0C37BD4651
:104090005DF8047B704700BF108D000880B483B0CA
:1040A00000AF786039600C4A3B6813441B781A46AD
:1040B0007B6813441B6808493A680A441278114621
:1040C0007A680A4423F00103136000BF0C37BD4631
:1040D0005DF8047B704700BF108D000880B483B08A
:1040E00000AF786039600A4A3B6813441B781A466F
:1040F0007B6813441B6803F00103012B0CBF0123F1
:104100000023DBB218460C37BD465DF8047B7047D0
:10411000108D000880B485B000AFF860B9607A6097
:104120000D4ABB6813441B781A46FB6813445B684E
:104130001B0C1B040849BA680A4412781146FA6835
:104140000A4411467A6813434B6000BF1437BD46DA
:104150005DF8047B704700BF108D000880B485B007
:1041600000AFF860B9607A60074ABB6813441B78F7
:104170001A46FB6813441A467B68D36000BF1437A5
:10418000BD465DF8047B7047108D000880B485B093
:1041900000AFF860B9607A60074ABB6813441B78C7
:1041A0001A46FB6813441A467B68936000BF1437B5
:1041B000BD465DF8047B7047108D000880B483B065
:1041C00000AF78607B685B6803F02003202B0CBF96
:1041D00001230023DBB218460C37BD465DF8047B93
:1041E000704780B483B000AF78607B685B6803F48D
:1041F0000063B3F5006F0CBF01230023DBB2184648
:104200000C37BD465DF8047B704780B483B000AFC7
:1042100078607B682022DA6000BF0C37BD465DF80D
:10422000047B704780B483B000AF78607B684FF444
:104230000062DA6000BF0C37BD465DF8047B704752
:1042400080B483B000AF786039600C4A3B68134497
:104250001B781A467B6813441B6808493A680A446D
:10426000127811467A680A4443F01003136000BFC5
:104270000C37BD465DF8047B704700BF108D000809
:1042800080B483B000AF78607B681B6843F00102A4
:104290007B681A6000BF0C37BD465DF8047B704731
:1042A00080B483B000AF78607B681B6843F0800205
:1042B0007B681A6000BF0C37BD465DF8047B704711
:1042C00080B483B000AF78607B681B6823F0800205
:1042D0007B681A6000BF0C37BD465DF8047B7047F1
:1042E00080B483B000AF786039607B683A685A6206
:1042F00000BF0C37BD465DF8047B704780B483B0C7
:1043000000AF78607B68DB6843F480727B68DA60BA
:1043100000BF0C37BD465DF8047B704780B483B0A6
:1043200000AF78607B68DB6823F480727B68DA60BA
:1043300000BF0C37BD465DF8047B704780B483B086
:1043400000AF78607B68DB6843F480527B68DA609A
:1043500000BF0C37BD465DF8047B704780B483B066
:1043600000AF78607B68DB6823F480527B68DA609A
:1043700000BF0C37BD465DF8047B704780B487B042
:1043800000AF0346FB710B46BB7113467B71FA7994
:10439000254913465B0013449B000B4404331B6800
:1043A0007B61FA79204913465B0013449B000B4460
:1043B00008331B683B61BA791B4913465B00134401
:1043C0009B000B4404331B68FB60BA791649134603
:1043D0005B0013449B000B4408331B68BB607B7974
:1043E000012B02D0022B09D011E03A69FB6813437C
:1043F0001A04BB681A437B6913430EE07A69FB68B1
:1044000013431A04BB681A433B69134305E07A69F6
:10441000FB681A433B6913431B0418461C37BD460F
:104420005DF8047B704700BF188D000880B483B02E
:1044300000AF786039600E4B1B889BB219460D4A5D
:104440007B6842F821300A4B1B889BB219460A4A06
:104450003B6842F82130064B1B889BB201339AB26D
:10446000034B1A8000BF0C37BD465DF8047B7047D4
:10447000FE760020FC440020FC12002080B586B0AF
:1044800000AFBA607B600346FB730B46BB7300232F
:104490007B610023FB7438E0B97BFB7B002218466C
:1044A000FFF76CFF0346396A1846FFF7BFFFB97B79
:1044B000FB7B01221846FFF761FF0346B9681846E7
:1044C000FFF7B4FFB97BFB7B00221846FFF756FFCE
:1044D0000346396A1846FFF7A9FFB97BFB7B022226
:1044E0001846FFF74BFF034679681846FFF79EFF13
:1044F000BA687B681A443B6A5B001A447B691344C0
:1045000002337B61FB7C0133FB74FA7C97F8243027
:104510009A42C1D37B6918461837BD4680BD80B525
:1045200082B000AF03463A60FB710B46BB71B979AC
:10453000FB7902221846FFF721FF03463968184627
:10454000FFF774FF3B6818460837BD4680BD000082
:1045500080B400AF034B044A9A6100BFBD465DF8CA
:10456000047B7047000802400000FFFF80B582B066
:1045700000AF786005211348FFF790FD00BF0521CB
:104580001048FFF7ABFD0346002BF8D10E4A05217A
:104590000C48FFF7FBFD0D4B1A4605210948FFF7B4
:1045A000DDFD7A6805210748FFF7B4FD05210548C0
:1045B000FFF754FD05210348FFF742FE00BF08370F
:1045C000BD4680BD0064024018080240FC44002043
:1045D00080B582B000AF786004211148FFF75EFD1E
:1045E00000BF04210E48FFF779FD0346002BF8D1E8
:1045F0000C4A04210A48FFF7C9FD0B4B1A46042157
:104600000748FFF7ABFD7A6804210548FFF782FDF4
:1046100004210348FFF722FD00BF0837BD4680BDD7
:10462000006402402C000140FC12002080B400AF66
:104630000A4B1B78DBB2002B06D0094B1B78DBB290
:10464000002B01D0012300E0002303F00103DBB2C3
:104650001846BD465DF8047B704700BFFC7600201D
:10466000FD76002080B500AF084B00221A804FF481
:1046700048520021064803F06BFA4FF448520021DB
:10468000044803F065FA00BF80BD00BFFE7600203D
:10469000FC120020FC44002080B500AF164B002225
:1046A0001A70164B00221A70154B1B889BB21846C5
:1046B000FFF75CFF124B1B889BB21846FFF788FF81
:1046C00000211048FFF70CFE0E48FFF7F9FD0D4BD7
:1046D00040F2F312DA620B4B01221A640948FFF729
:1046E000DFFD0848FFF70AFE0648FFF727FE0548EA
:1046F000FFF7C6FD00BF80BDFC760020FD760020E0
:10470000FE7600200000014080B500AF0A48FFF7A8
:1047100068FD0346002B0CD00748FFF783FD0748D0
:10472000FFF7FCFD05210448FFF7B8FC044B01220C
:104730001A7000BF80BD00BF00640240000001404D
:10474000FD76002080B500AF0A48FFF737FD03462D
:10475000002B0CD00748FFF758FD0748FFF7FEFD78
:1047600004210448FFF79AFC044B01221A7000BF91
:1047700080BD00BF0064024000000140FC760020C4
:1047800080B483B000AF786039603B681A047B68FE
:104790009A6100BF0C37BD465DF8047B704700008E
:1047A00080B483B000AF786039600C4A3B68134432
:1047B0001B781A467B6813441B6808493A680A4408
:1047C000127811467A680A4443F00103136000BF6F
:1047D0000C37BD465DF8047B704700BF788D00083C
:1047E00080B483B000AF786039600C4A3B681344F2
:1047F0001B781A467B6813441B6808493A680A44C8
:10480000127811467A680A4423F00103136000BF4E
:104810000C37BD465DF8047B704700BF788D0008FB
:1048200080B483B000AF786039600A4A3B681344B3
:104830001B781A467B6813441B6803F00103012BA5
:104840000CBF01230023DBB218460C37BD465DF8D0
:10485000047B7047788D000880B485B000AFF860A5
:10486000B9607A600D4ABB6813441B781A46FB682E
:1048700013445B681B0C1B040849BA680A4412788D
:104880001146FA680A4411467A6813434B6000BF28
:104890001437BD465DF8047B704700BF788D000873
:1048A00080B485B000AFF860B9607A60074ABB6831
:1048B00013441B781A46FB6813441A467B68D3607E
:1048C00000BF1437BD465DF8047B7047788D000843
:1048D00080B485B000AFF860B9607A60074ABB6801
:1048E00013441B781A46FB6813441A467B6893608E
:1048F00000BF1437BD465DF8047B7047788D000813
:1049000080B483B000AF78607B681B6803F40063F9
:10491000B3F5006F0CBF01230023DBB218460C3740
:10492000BD465DF8047B704780B483B000AF78600B
:104930007B685B6803F00063B3F1006F0CBF012379
:104940000023DBB218460C37BD465DF8047B704788
:1049500080B483B000AF78607B684FF400629A60E7
:1049600000BF0C37BD465DF8047B704780B483B050
:1049700000AF78607B684FF00062DA6000BF0C37F0
:10498000BD465DF8047B704780B483B000AF7860AB
:1049900039600C4A3B6813441B781A467B68134401
:1049A0001B6808493A680A44127811467A680A4432
:1049B00043F01003136000BF0C37BD465DF8047B65
:1049C000704700BF788D000880B483B000AF786076
:1049D0007B681B6843F001027B681A6000BF0C37DC
:1049E000BD465DF8047B704780B483B000AF78604B
:1049F0007B681B6823F001027B681A6000BF0C37DC
:104A0000BD465DF8047B704780B483B000AF78602A
:104A100039607B681B6823F004023B681A437B689B
:104A20001A6000BF0C37BD465DF8047B704780B448
:104A300083B000AF78607B681B6843F080027B68BE
:104A40001A6000BF0C37BD465DF8047B704780B428
:104A500083B000AF78607B681B6823F080027B68BE
:104A60001A6000BF0C37BD465DF8047B704780B408
:104A700083B000AF786039607B683A685A6200BFE3
:104A80000C37BD465DF8047B704780B483B000AF3F
:104A9000786039607B683A689A6200BF0C37BD461F
:104AA0005DF8047B704780B483B000AF78603960F4
:104AB0007B683A68DA6200BF0C37BD465DF8047B5C
:104AC000704780B483B000AF786039607B681A6A41
:104AD0003B681A437B681A6200BF0C37BD465DF81D
:104AE000047B704780B487B000AFF860B9607A602B
:104AF000BB68012B1CD0BB68042B17D0BB68102BE4
:104B000012D0BB68402B0DD0BB68B3F5807F07D0B7
:104B1000BB68B3F5806F01D105230AE0062308E0E6
:104B2000042306E0032304E0022302E0012300E063
:104B30000023FB75FB6818331946FB7D0E4AD35CD6
:104B40000B443B613B691A68FB7D0C49CB5C194601
:104B500073238B40DB431A40FB7D0849CB5C19462D
:104B60007B688B401A433B691A6000BF1C37BD4607
:104B70005DF8047B704700BF808D0008888D0008B9
:104B800080B487B000AFF860B9607A60BB68012B71
:104B90001CD0BB68042B17D0BB68102B12D0BB688D
:104BA000402B0DD0BB68B3F5807F07D0BB68B3F551
:104BB000806F01D105230AE0062308E0042306E004
:104BC000032304E0022302E0012300E00023FB753D
:104BD000FB681A6AFB7D0B49CB5C194602238B40AC
:104BE000DB431A40FB7D0749CB5C19467B688B4051
:104BF0001A43FB681A6200BF1C37BD465DF8047B90
:104C0000704700BF908D000880B485B000AF786019
:104C100039603B68012B1CD03B68042B17D03B68E4
:104C2000102B12D03B68402B0DD03B68B3F5807F32
:104C300007D03B68B3F5806F01D105230AE0062356
:104C400008E0042306E0032304E0022302E001233A
:104C500000E00023FB737B6818331946FB7B0A4A8C
:104C6000D35C0B44BB60BB681A68FB7B0749CB5C19
:104C7000194608238B401A43BB681A6000BF1437DB
:104C8000BD465DF8047B7047808D0008888D000864
:104C900080B483B000AF786039607B683A685A634B
:104CA00000BF0C37BD465DF8047B704780B483B00D
:104CB00000AF786039607B683A689A6300BF0C3750
:104CC000BD465DF8047B704780B485B000AFF860E6
:104CD000B9607A60FB685B6C23F44062B9687B68FA
:104CE0000B431A43FB685A6400BF1437BD465DF896
:104CF000047B704780B483B000AF78607B685B6CE6
:104D000023F480427B685A6400BF0C37BD465DF8CF
:104D1000047B704780B483B000AF78607B685B6CC5
:104D200043F400427B685A6400BF0C37BD465DF80F
:104D3000047B704780B483B000AF78607B68DB6829
:104D400023F001027B68DA6000BF0C37BD465DF8D6
:104D5000047B704780B483B000AF78607B68DB6809
:104D600043F480727B68DA6000BF0C37BD465DF8A3
:104D7000047B704780B483B000AF78607B68DB68E9
:104D800023F480727B68DA6000BF0C37BD465DF8A3
:104D9000047B704780B483B000AF78607B68DB68C9
:104DA00043F480527B68DA6000BF0C37BD465DF883
:104DB000047B704780B483B000AF78607B68DB68A9
:104DC00023F480527B68DA6000BF0C37BD465DF883
:104DD000047B704780B483B000AF78607B685B6908
:104DE00043F001027B685A6100BF0C37BD465DF895
:104DF000047B704780B582B000AF2F237B607B6857
:104E000001335B083B60602210213F48FFF76AFED8
:104E1000002210213C48FFF7B3FE10213A48FFF76B
:104E2000F3FE79683848FFF73EFE39683648FFF7E9
:104E30003DFF10213448FFF744FE60220121324833
:104E4000FFF750FE002201212F48FFF799FE0121B4
:104E50002D48FFF7D9FE79682B48FFF724FE396803
:104E60002948FFF715FF01212748FFF72AFE4FF4D5
:104E700000624FF480612448FFF726FF4FF4006280
:104E80004FF480612048FFF71FFF1F48FFF732FFF4
:104E90001D48FFF72FFF40F22B111B48FFF7F5FDD0
:104EA00040F22B111848FFF7F0FD1748FFF7BFFD40
:104EB0001548FFF7BCFD80211448FFF761FC12483C
:104EC000FFF738FF1048FFF735FF00210E48FFF7C6
:104ED0009BFD00210C48FFF797FD0B48FFF77AFF79
:104EE0000948FFF777FF0848FFF714FF0648FFF768
:104EF00011FF0548FFF768FD0348FFF765FD00BF98
:104F00000837BD4680BD00BF0004004000040240D9
:104F100080B485B000AF0346FB714023FB600823DB
:104F2000BB60FB79012B02D0022B05D009E0BB68E6
:104F30001A04FB68134308E0FB681A04BB681343B8
:104F400003E0FA68BB6813431B0418461437BD46D8
:104F50005DF8047B7047000080B483B000AF7860D8
:104F600039600E4B1B889BB219460D4A7B6842F88C
:104F700021300A4B1B889BB219460A4A3B6842F80B
:104F80002130064B1B889BB201339AB2034B1A8027
:104F900000BF0C37BD465DF8047B7047227A0020C5
:104FA000907800200077002080B584B000AFF860D2
:104FB000B9607A60FB70FB78002B07D10120FFF706
:104FC000A7FF03460A211846FFF7C6FF0120FFF797
:104FD0009FFF0346F9681846FFF7BEFF0020FFF762
:104FE00097FF034679681846FFF7B6FF0220FFF7E0
:104FF0008FFF0346B9681846FFF7AEFF0020FFF7A2
:1050000087FF034679681846FFF7A6FF00BF1037F1
:10501000BD4680BD80B500AF064B40221146184604
:10502000FFF7AEFB034B082211461846FFF7A8FB1B
:1050300000BF80BD0004024080B582B000AF786040
:1050400001211348FFF7CCFB00BF01211048FFF7F7
:10505000E7FB0346002BF8D10E4A01210C48FFF76D
:1050600037FC0D4B1A4601210948FFF719FC7A68F5
:1050700001210748FFF7F0FB01210548FFF790FBEE
:1050800001210348FFF780FC00BF0837BD4680BD03
:1050900000640240180402409078002080B582B07D
:1050A00000AF786007211148FFF79AFB00BF072186
:1050B0000E48FFF7B5FB0346002BF8D10C4A072139
:1050C0000A48FFF705FC0B4B1A4607210748FFF774
:1050D000E7FB7A6807210548FFF7BEFB0721034875
:1050E000FFF75EFB00BF0837BD4680BD006402408D
:1050F0002C0401400077002080B500AF084B00224F
:105100001A804FF4C8720021064802F021FD4FF4C6
:10511000C8720021044802F01BFD00BF80BD00BF23
:10512000227A0020007700209078002080B500AF20
:10513000154B00221A70154B1B889BB21846FFF7BF
:105140007BFF124B1B889BB21846FFF7A7FF00217D
:105150000F48FFF78CFC0E48FFF779FC0C4B40F230
:10516000E912DA620A4B01221A640948FFF75FFC70
:105170000748FFF7EFFD0648FFF70CFE0448FFF76E
:1051800023FC00BF80BD00BF207A0020227A0020CF
:105190000004014080B500AF0B48FFF7B1FB0346A8
:1051A000002B0FD00848FFF7D3FB0848FFF71CFC83
:1051B0000648FFF7DFFD01210348FFF711FB044B11
:1051C00001221A7000BF80BD00640240000401404B
:1051D000207A002080B500AF0B48FFF7A5FB0346FF
:1051E000002B0FD00848FFF7C1FB0848FFF7FCFB76
:1051F0000648FFF7DFFD07210348FFF7F1FA044BEC
:1052000001221A7000BF80BD00640240000401400A
:10521000207A002080B584B000AF78600B46FB7028
:105220007B689B68FB60FB781946F86802F0BFFA60
:1052300000BF1037BD4680BD80B586B000AFF860B6
:10524000B9601346FB80FB68002B02D0BB68002BC3
:1052500001D1002333E000F03BF878617B69BA6844
:10526000DA607B69FA881A827B6910229A807B69EE
:105270004022DA807B6980221A817B6946225A812A
:105280007B6901229A747B690F4A1A60FCF700FB64
:1052900002467B695A61FCF705FB03461A467B69A7
:1052A0001A83786900F06FF838613B69002B05D0EC
:1052B0003B69FA689A603B69044A1A603B69184680
:1052C0001837BD4680BD00BFA889000815520008E8
:1052D00080B400AF114B40229A80104B4022DA80FC
:1052E0000E4B80221A810D4B0022DA600B4B0022FC
:1052F0001A820A4B08225A81084B01229A74074BE2
:10530000074A1A60054B00221A83044B00225A6197
:10531000024B1846BD465DF8047B7047247A002096
:10532000C889000880B485B000AF78607B685B698D
:10533000002B02D17B685B8900E00023FB817B6846
:105340009B8803339A087B68DB8803339B081A44E5
:105350007B681B8903339B08D118FA8913465B00CD
:105360001344DB0003339B08CA18FB8903339B08F3
:10537000134412339BB29B009BB218461437BD46B0
:105380005DF8047B704780B588B000AF786000237B
:10539000FB617868FFF7C6FF0346BB610023FB751E
:1053A0007B68DB68002B05D07B681B8A1A46BB69CB
:1053B000934201D9002371E07B68DB683B61BA69E5
:1053C0000021386902F0C4FB3B69FB613B69103383
:1053D0003B61FB693A69DA603B6938333B61FB69E1
:1053E000DB68FB60FB683A691A617B689B88033362
:1053F00023F003033A6913443B61FB683A69DA61BD
:105400007B68DB88033323F003033A6913443B6171
:105410007B685A69FB685A627B681A8BFB689A85BD
:105420007B681A8BFB68DA85FB683A695A607B688F
:105430001A89FB681A81FB7D002B08D0FB6893F862
:10544000333043F00403DAB2FB6883F833207B681F
:105450009B7C002B08D0FB6893F8333043F020038B
:10546000DAB2FB6883F833207B689A88FB681A837A
:10547000FB6800229A82FB680022DA827B68DA8865
:10548000FB685A84FB68002283F832207B681A6824
:10549000FB681A60FB6800229A86FB691846203771
:1054A000BD4680BD80B584B000AF78600B46FB7010
:1054B0007B68DB68FB60FB681033FA78114618469E
:1054C00000F096FF034683F00103DBB2002B08D007
:1054D000FB6893F8333043F00103DAB2FB6883F8DA
:1054E000332000BF1037BD4680BD80B584B000AF0B
:1054F00078607B681B68002B00F083807B68DB682A
:10550000FB60FB6893F8333003F00203002B55D1A6
:10551000FB6893F8333043F00203DAB2FB6883F898
:105520003320FB681B681946786800F08AFE45E066
:10553000FB681033184600F033FF0346FB72FB682C
:1055400093F8333003F00803002B05D0FB7A19469B
:10555000786800F001FA2AE0FB6893F832301B2BE0
:105560000CD1FB7A5B2B09D1FB6893F8333043F005
:105570000803DAB2FB6883F8332018E0FB7A184698
:1055800000F0B6FE0346002B05D0FB7A194678687A
:1055900000F092FA0BE0FB7A184600F0C9FE0346D1
:1055A000002B04D0FB7A1946786800F033FA78684B
:1055B00000F01EFDFB68FA7A83F83220FB68103396
:1055C000184600F0CCFE0346002BB1D1FB6893F8DF
:1055D000333003F00103002B14D0FB6800221A843F
:1055E000FB68DB69FA68128C134400221A70FB68AE
:1055F00093F8333023F00103DAB2FB6883F83320E9
:1056000000E000BF1037BD4680BD000080B584B00B
:1056100000AF786039607B681B68002B3ED07B68E8
:10562000DB68FB60FB689B8E7B81FB6893F8333003
:1056300003F01003002B02D1786800F0CDFDFB6869
:105640007A899A863968786800F0FBFD154B1B68EB
:105650001946786800F0F5FDFB6893F8333003F0E5
:105660001003002B1BD1FB681B681946786800F0FB
:10567000E8FDFB68DB691946786800F0E2FDFB682D
:105680001A8CFB681A86FB689B8E00221946786884
:1056900000F0F8FD786800F0ABFC00E000BF1037C8
:1056A000BD4680BD8800002080B588B000AF78601E
:1056B0007B68002B71D03B4BFB600023FB77002302
:1056C000BB770023BB6100237B6152E07B69013320
:1056D0007B61BB7F002B0DD00023BB77FB7C6E2B47
:1056E00002D0722B03D02FE00A23FB742CE00D2391
:1056F000FB7429E0FB7C5C2B02D10123BB7738E0F3
:10570000FB7C222B10D1FB7F002B14BF0123002335
:10571000DBB283F00103DBB2FB77FB7F03F0010315
:10572000FB770023FB740FE0FB7F83F00103DBB208
:10573000002B09D0FB7C1946F86802F011FA0346E9
:10574000002B01D00023FB74FB7C002B09D1BB692B
:10575000002B0EDDBB69013B7A6813441B78002BDC
:1057600007D0BB697A681344FA7C1A70BB690133AD
:10577000BB617B697A6813441B78FB74FB7C002B4C
:10578000A4D1BB697A68134400221A70BB69013343
:105790007A68134400221A7000E000BF2037BD462B
:1057A00080BD00BFCC89000880B584B000AF7860B0
:1057B0000B467B807B881946786800F020FF034603
:1057C000FB81FB894FF6FF72934203D0FB897A6815
:1057D000134400E0002318461037BD4680BD80B555
:1057E00084B000AF78600B467B807B881946786870
:1057F00000F005FF0346FB81FB894FF6FF729342E1
:1058000003D0FB897A68134400E000231846103760
:10581000BD4680BD80B485B000AF78607B68002B4A
:1058200003D07B681B78002B01D1002319E00023F3
:10583000FB6001237B81FB687A6813441B78002B93
:1058400009D1FB6801337A6813441B78002B06D01A
:105850007B8901337B81FB680133FB60EBE700BF91
:105860007B8918461437BD465DF8047B70470000FD
:1058700080B586B000AF78600B46FB707B68DB6854
:105880003B613B699B89002B5FD0FB78002B05D0E7
:105890003B695A893B699B899A4256D0FB7883F0D1
:1058A0000103DBB2002B03D03B695B89002B4CD09A
:1058B000786800F091FC3B691B681946786800F035
:1058C000C0FCFB78002B06D03B695B8901339AB2A0
:1058D0003B695A8105E03B695B89013B9AB23B69B0
:1058E0005A813B691A1D3B695B891946104600F0D5
:1058F0000DFE78617B69002B01D1164B7B617869C5
:10590000FAF770FC0346FB813B69DB69FA89796928
:10591000184602F071F93B69DA69FB8913440022E9
:105920001A703B69FA891A843B69DB691946786801
:1059300000F087FC3B691A8C3B691A863B690022A0
:105940009A86786800F054FB00E000BF1837BD4627
:1059500080BD00BFD089000890B585B000AF7860E9
:105960000B46FB707B68DB68FB60FB783F2B48D9FC
:10597000FB787E2B45D8FB6893F8333023F008037F
:10598000DAB2FB6883F83320FB78412B02D0FB7836
:10599000422B09D1FB78412B0CBF01230023DBB242
:1059A00019467868FFF764FFFB78432B0FD1FB683B
:1059B0009B8E002B0BD0FB689B8E013B9AB2FB6841
:1059C0009A86124B1B681946786800F03AFCFB78FF
:1059D000442B16D1FB689B8E1C46FB68DB6918467E
:1059E000FAF700FC03469C420BD2FB689B8E013306
:1059F0009AB2FB689A86064B1B681946786800F0D5
:105A000020FC00BF1437BD4690BD00BF8C000020B5
:105A10009000002080B584B000AF78600B46FB702A
:105A20007B68DB68FB60FB681B8C0233FA68528C76
:105A300093423BDAFB68DB691846FAF7D3FB024670
:105A4000FB689B8ED31ABB60FB68DA69BB680133C5
:105A5000D018FB68DA69BB68D118FB689B8E0133EC
:105A60001A4602F05BF8FB681B8C01339AB2FB68A4
:105A70001A84FB681B8E01339AB2FB681A86FB6896
:105A8000DA69BB681344FA781A70FB689B8E002BA6
:105A900005D0084B1B681946786800F0D2FB7B687C
:105AA0001B68FA7811467868984700E000BF103705
:105AB000BD4680BD9C00002080B584B000AF7860FA
:105AC0000B46FB707B68DB68FB60FB6893F8323049
:105AD0000D2B02D1FB780A2B78D0FB6893F832307B
