:020000040800F2
:10000000000002200D7200088D7000089570000835
:100010009D700008A5700008AD7000080000000089
:10002000000000000000000000000000B5700008A3
:10003000C370000800000000D1700008E1700008E3
:100040005D7200085D7200085D7200085D72000854
:100050005D7200085D7200080D7100085D72000895
:100060005D7200085D7200085D7200085D72000834
:100070005D7200085D7200085D7200085D72000824
:100080005D7200085D7200085D7200085D72000814
:100090005D7200085D7200085D7200085D72000804
:1000A0005D7200085D7200085D7200085D720008F4
:1000B0005D7200085D7200082B7100085D72000817
:1000C0005D7200085D7200085D7200085D720008D4
:1000D0005D7200085D7200085D72000839710008E9
:1000E0005D7200085D7200085D7200085D720008B4
:1000F0005D7200085D7200085D7200085D720008A4
:100100005D7200085D7200085D7200085D72000893
:100110004D7100085D7200085D7200085D72000894
:100120006171000841A200085D7200086D7100084D
:100130008197000800000000000000005D720008C8
:100140005D7200085D7200085D7200085D72000853
:10015000459700085D72000881A200085D720008E2
:100160005D7200085D7200085D7200085D72000833
:100170005D7200085D7200080000000000000000D1
:080180005D7200085D720008C9
:1001900010B5054C237833B9044B13B10448AFF3C1
:1001A00000800123237010BD8001002000000000AA
:1001B00060E5000808B5034B1BB103490348AFF3E2
:1001C000008008BD000000008401002060E50008F8
:1001D00010F8012B11F8013B012A28BF9A42F7D0F1
:1001E000D01A7047034613F8012B002AFBD1181AC6
:1001F000013870470000000000000000000000000F
:1002000001F0FF01102A2BDB10F0070F08D010F8C7
:10021000013B013A8B422DD010F0070F42B3F6D1CB
:10022000F0B441EA012141EA014122F007047FF0E4
:1002300000070023F0E80256083C85EA010586EA3B
:10024000010685FA47F5A3FA87F586FA47F6A5FA77
:1002500087F68EB9EED1F0BC01F0FF0102F0070283
:1002600032B110F8013B013A83EA010313B1F8D12E
:100270000020704701387047002D06BF354603380F
:10028000073815F0010F07D1013015F4807F02BF48
:10029000013015F4C03F0130F0BC0138704700BF99
:1002A00081F0004102E000BF83F0004330B54FEA27
:1002B00041044FEA430594EA050F08BF90EA020F94
:1002C0001FBF54EA000C55EA020C7FEA645C7FEA27
:1002D000655C00F0E2804FEA5454D4EB5555B8BF4A
:1002E0006D420CDD2C4480EA020281EA030382EABB
:1002F000000083EA010180EA020281EA0303362D4D
:1003000088BF30BD11F0004F4FEA01314FF4801C1F
:100310004CEA113102D0404261EB410113F0004F31
:100320004FEA03334CEA133302D0524263EB4303E8
:1003300094EA050F00F0A780A4F10104D5F1200E86
:100340000DDB02FA0EFC22FA05F2801841F10001E1
:1003500003FA0EF2801843FA05F359410EE0A5F1B5
:1003600020050EF1200E012A03FA0EFC28BF4CF0E6
:10037000020C43FA05F3C01851EBE37101F000459C
:1003800007D54FF0000EDCF1000C7EEB00006EEBA9
:100390000101B1F5801F1BD3B1F5001F0CD3490833
:1003A0005FEA30004FEA3C0C04F101044FEA44528A
:1003B00012F5800F80F09A80BCF1004F08BF5FEA11
:1003C000500C50F1000041EB045141EA050130BDF1
:1003D0005FEA4C0C404141EB0101013C28BFB1F503
:1003E000801FE9D291F0000F04BF01460020B1FA4E
:1003F00081F308BF2033A3F10B03B3F120020CDA21
:100400000C3208DD02F1140CC2F10C0201FA0CF0FE
:1004100021FA02F10CE002F11402D8BFC2F1200C63
:1004200001FA02F120FA0CFCDCBF41EA0C01904019
:10043000E41AA2BF01EB0451294330BD6FEA040462
:100440001F3C1CDA0C340EDC04F11404C4F120024D
:1004500020FA04F001FA02F340EA030021FA04F35F
:1004600045EA030130BDC4F10C04C4F1200220FAB6
:1004700002F001FA04F340EA0300294630BD21FAF4
:1004800004F0294630BD94F0000F83F4801306BFBA
:1004900081F480110134013D4EE77FEA645C18BFAE
:1004A0007FEA655C29D094EA050F08BF90EA020F45
:1004B00005D054EA000C04BF1946104630BD91EA3D
:1004C000030F1EBF0021002030BD5FEA545C05D140
:1004D0004000494128BF41F0004130BD14F580047F
:1004E0003CBF01F5801130BD01F0004545F0FE41F3
:1004F00041F470014FF0000030BD7FEA645C1ABF28
:10050000194610467FEA655C1CBF0B46024650EA5E
:10051000013406BF52EA033591EA030F41F400218A
:1005200030BD00BF90F0000F04BF0021704730B510
:100530004FF4806404F132044FF000054FF00001E5
:1005400050E700BF90F0000F04BF0021704730B5A6
:100550004FF4806404F1320410F0004548BF40427B
:100560004FF000013EE700BF42004FEAE2014FEAD0
:1005700031014FEA02701FBF12F07F4393F07F4FAB
:1005800081F06051704732F07F4208BF704793F0AE
:100590007F4F04BF41F40021704730B54FF46074C1
:1005A00001F0004521F000411CE700BF50EA0102C4
:1005B00008BF704730B54FF000050AE050EA01026D
:1005C00008BF704730B511F0004502D5404261EBDD
:1005D00041014FF4806404F132045FEA915C3FF41E
:1005E000D8AE4FF003025FEADC0C18BF03325FEABB
:1005F000DC0C18BF033202EBDC02C2F1200300FA6C
:1006000003FC20FA02F001FA03FE40EA0E0021FA90
:1006100002F11444BDE600BF70B54FF0FF0C4CF47E
:10062000E06C1CEA11541DBF1CEA135594EA0C0F30
:1006300095EA0C0F00F0DEF82C4481EA030621EA6B
:100640004C5123EA4C5350EA013518BF52EA0335A6
:1006500041F4801143F4801338D0A0FB02CE4FF058
:100660000005E1FB02E506F00042E0FB03E54FF088
:100670000006E1FB03569CF0000F18BF4EF0010E80
:10068000A4F1FF04B6F5007F64F5407404D25FEA7C
:100690004E0E6D4146EB060642EAC62141EA55512F
:1006A0004FEAC52040EA5E504FEACE2EB4F1FD0C71
:1006B00088BFBCF5E06F1ED8BEF1004F08BF5FEAEF
:1006C000500E50F1000041EB045170BD06F00046A1
:1006D00046EA010140EA020081EA0301B4EB5C044E
:1006E000C2BFD4EB0C0541EA045170BD41F4801146
:1006F0004FF0000E013C00F3AB8014F1360FDEBF6B
:10070000002001F0004170BDC4F10004203C35DA46
:100710000C341BDC04F11404C4F1200500FA05F3C9
:1007200020FA04F001FA05F240EA020001F000426A
:1007300021F0004110EBD37021FA04F642EB0601E0
:100740005EEA430E08BF20EAD37070BDC4F10C040A
:10075000C4F1200500FA04F320FA05F001FA04F2CE
:1007600040EA020001F0004110EBD37041F10001BA
:100770005EEA430E08BF20EAD37070BDC4F12005C5
:1007800000FA05F24EEA020E20FA04F301FA05F22D
:1007900043EA020321FA04F001F0004121FA04F2D5
:1007A00020EA020000EBD3705EEA430E08BF20EAA5
:1007B000D37070BD94F0000F0FD101F000464000DF
:1007C00041EB010111F4801F08BF013CF7D041EA61
:1007D000060195F0000F18BF704703F00046520065
:1007E00043EB030313F4801F08BF013DF7D043EA36
:1007F0000603704794EA0C0F0CEA135518BF95EAEC
:100800000C0F0CD050EA410618BF52EA4306D1D172
:1008100081EA030101F000414FF0000070BD50EA91
:10082000410606BF1046194652EA430619D094EA1B
:100830000C0F02D150EA013613D195EA0C0F05D105
:1008400052EA03361CBF104619460AD181EA030159
:1008500001F0004141F0FE4141F470014FF0000011
:1008600070BD41F0FE4141F4780170BD70B54FF0AC
:10087000FF0C4CF4E06C1CEA11541DBF1CEA13552C
:1008800094EA0C0F95EA0C0F00F0A7F8A4EB05040E
:1008900081EA030E52EA03354FEA013100F0888005
:1008A0004FEA03334FF0805545EA131343EA1263CE
:1008B0004FEA022245EA111545EA10654FEA002683
:1008C0000EF000419D4208BF964244F1FD0404F53C
:1008D000407402D25B084FEA3202B61A65EB030598
:1008E0005B084FEA32024FF480104FF4002CB6EB55
:1008F000020E75EB030E22BFB61A754640EA0C00D5
:100900005B084FEA3202B6EB020E75EB030E22BF14
:10091000B61A754640EA5C005B084FEA3202B6EB55
:10092000020E75EB030E22BFB61A754640EA9C0014
:100930005B084FEA3202B6EB020E75EB030E22BFE4
:10094000B61A754640EADC0055EA060E18D04FEAA2
:10095000051545EA16754FEA06164FEAC30343EA42
:1009600052734FEAC2025FEA1C1CC0D111F4801F0F
:100970000BD141EA00014FF000004FF0004CB6E708
:1009800011F4801F04BF01430020B4F1FD0C88BFA7
:10099000BCF5E06F3FF6AFAEB5EB030C04BFB6EBB2
:1009A000020C5FEA500C50F1000041EB045170BDA5
:1009B0000EF0004E4EEA113114EB5C04C2BFD4EBD2
:1009C0000C0541EA045170BD41F480114FF0000E56
:1009D000013C90E645EA060E8DE60CEA135594EAD2
:1009E0000C0F08BF95EA0C0F3FF43BAF94EA0C0FD5
:1009F0000AD150EA01347FF434AF95EA0C0F7FF44A
:100A000025AF104619462CE795EA0C0F06D152EA9D
:100A100003353FF4FDAE1046194622E750EA410681
:100A200018BF52EA43067FF4C5AE50EA41047FF492
:100A30000DAF52EA43057FF4EBAE12E74FF0FF3CF7
:100A400006E000BF4FF0010C02E000BF4FF0010CC8
:100A50004DF804CD4FEA410C7FEA6C5C4FEA430C41
:100A600018BF7FEA6C5C1BD001B050EA410C0CBF90
:100A700052EA430C91EA030F02BF90EA020F0020F2
:100A8000704710F1000F91EA030F58BF994208BF59
:100A900090422CBFD8176FEAE37040F00100704716
:100AA0004FEA410C7FEA6C5C02D150EA013C07D16D
:100AB0004FEA430C7FEA6C5CD6D152EA033CD3D0B8
:100AC0005DF8040B704700BF8446104662468C46B2
:100AD0001946634600E000BF01B5FFF7B7FF0028E5
:100AE00048BF10F1000F01BD4DF808EDFFF7F4FF0E
:100AF0000CBF012000205DF808FB00BF4DF808ED99
:100B0000FFF7EAFF34BF012000205DF808FB00BFBB
:100B10004DF808EDFFF7E0FF94BF012000205DF8DD
:100B200008FB00BF4DF808EDFFF7CEFF94BF012092
:100B300000205DF808FB00BF4DF808EDFFF7C4FF8B
:100B400034BF012000205DF808FB00BF4FEA4102DE
:100B500012F5001215D211D56FF47873B3EB62520F
:100B600012D94FEAC12343F0004343EA505311F036
:100B7000004F23FA02F018BF404270474FF00000C8
:100B8000704750EA013005D111F0004008BF6FF006
:100B9000004070474FF00000704700BF4A0011D27C
:100BA00012F5001211D20DD56FF47873B3EB6252C7
:100BB0000ED44FEAC12343F0004343EA505323FAD3
:100BC00002F070474FF00000704750EA013002D148
:100BD0004FF0FF3070474FF0000070474FEA41027E
:100BE000B2F1E04324BFB3F5001CDCF1FE5C0DD98B
:100BF00001F0004C4FEAC0024CEA5070B2F1004FD5
:100C000040EB830008BF20F00100704711F0804FD7
:100C100021D113F13872BCBF01F00040704741F49C
:100C200080114FEA5252C2F11802C2F1200C10FAA0
:100C30000CF320FA02F018BF40F001004FEAC12384
:100C40004FEAD32303FA0CFC40EA0C0023FA02F328
:100C50004FEA4303CCE77FEA625307D150EA0133FE
:100C60001EBF4FF0FE4040F44000704701F00040CE
:100C700040F0FE4040F40000704700BF53B94AB94D
:100C8000002908BF00281CBF4FF0FF314FF0FF3094
:100C900000F088B9ADF1080C6DE904CE00F006F85B
:100CA000DDF804E0DDE9022304B070472DE9F047E8
:100CB000089D8E4604468846002B4AD18A42174634
:100CC00062D9B2FA82F64EB1C6F1200301FA06F8F3
:100CD00020FA03F3B74043EA0808B4404FEA174E3E
:100CE0001FFA87FCB8FBFEF1230C0EFB118843EAC8
:100CF000084301FB0CF29A4209D9FB1801F1FF30BD
:100D000080F0EA809A4240F2E78002393B449A1A26
:100D1000A3B2B2FBFEF00EFB102243EA024300FB3B
:100D20000CFC9C4509D9FB1800F1FF3280F0D680FD
:100D30009C4540F2D3803B44023840EA0140A3EB9B
:100D40000C0300211DB1F3400022C5E90032BDE8CB
:100D5000F0878B4205D90DB1C5E900010021084695
:100D6000F5E7B3FA83F1002946D1734502D38242F5
:100D700000F20581841A6EEB030201209046002DDB
:100D8000E5D0C5E90048E2E7002A00F09080B2FA19
:100D900082F6002E40F0A4808A1A030C4FEA174E08
:100DA00080B2BCB20121B2FBFEFC0EFB1C2243EA66
:100DB000024304FB0CF29A4207D9FB180CF1FF38EE
:100DC00002D29A4200F2E080C4469B1AB3FBFEF2C4
:100DD0000EFB123340EA034302FB04F49C4207D9A2
:100DE000FB1802F1FF3002D29C4200F2CA80024698
:100DF0001B1B42EA0C40A5E7C1F120068B4022FAFA
:100E000006F71F430EFA01F420FA06F32EFA06FE47
:100E10004FEA1749234300FA01F81FFA87FCBEFB8B
:100E2000F9F01C0C09FB10EE44EA0E4400FB0CFE2A
:100E3000A64502FA01F209D93C1900F1FF3A80F007
:100E40009C80A64540F2998002383C44A4EB0E04F5
:100E50001FFA83FEB4FBF9F309FB13444EEA044482
:100E600003FB0CFCA44508D93C1903F1FF3E80F0BC
:100E70008280A4457FD9023B3C4443EA0040A4EB76
:100E80000C04A0FB02EC64457346E14662D35FD0DC
:100E90005DB1B8EB030264EB090404FA06F622FA2A
:100EA00001F31E43CC40C5E9006400214FE7B1FBCC
:100EB000F2FC010C41EA0E4180B240EA01423B469D
:100EC00038463C46B846BE462026B1FBF7F1A2EBB9
:100ED000080241EA0C4166E7014618E710462CE794
:100EE000C6F120022EFA02F3B740B14020FA02F216
:100EF0004FEA174E0A43B3FBFEF8BCB20EFB1833A1
:100F0000110C41EA034108FB04F9B04089454FEA5E
:100F1000104380B23ED9791808F1FF3C01D28945CF
:100F20001FD8A1EB0901B1FBFEF909FB04F80EFB88
:100F3000191192B242EA0142424529D2BA1809F186
:100F4000FF31C4D24245C2D2A9F102013A44BEE700
:100F5000F0459DD2BEEB02036CEB070C0138E14675
:100F600096E7A7EB09094944A8F1020CB1FBFEF989
:100F700009FB04F8DBE773467FE7504666E708465F
:100F8000FDE63B44023A33E7ACF1020C3B441CE77C
:100F900049469CE7A1EB0901C446B1FBFEF909FBF8
:100FA00004F8C4E7704700BF80B483B000AF786036
:100FB0007B681B6823F001027B681A6000BF0C3756
:100FC000BD465DF8047B7047B0B582B000AF08F055
:100FD000B9FA09F057F8124B00221A70114B00228F
:100FE0001A70114B00221A700023FB710FE0FB797D
:100FF0000E4A5B0113440E4A1C4615460FCD0FC422
:1010000095E80F0084E80F00FB790133FB71FB7951
:10101000092BECD900BF00BF0837BD46B0BD00BFEB
:10102000DC020020DD020020DE0200209C01002006
:1010300000000020B0B588B002AF7860B14B1B78DB
:10104000032B00F27F8101A252F823F05D1000080B
:1010500099100008D712000829130008AA4B002293
:101060001A70AA4B1B78012B02D1A84B00221A70D0
:101070000023FB7509E0FB7DA54A5B0113440133A6
:1010800000221A70FB7D0133FB75FB7D0A2BF2D920
:1010900001200BF029F958E19B4B1B78002B07D15D
:1010A0009C499D480CF05CF8964B00221A704CE16C
:1010B0000023BB7508F0F8FF08F06EFA0023BB753B
:1010C000F9E0BB7D9549924A5B0113440C461D46ED
:1010D0000FCD0FC495E80F0084E80F0000233B619B
:1010E0000023FB600123BB608C4B18798B4B597933
:1010F0008A4B5B881A4613469B0013445B00013BF6
:101100001A4608F006FA02463B6913443B61834BDA
:101110001879824B5979814B9B891A4613469B005B
:1011200013445B00013B1C467C4BDB891A4613468B
:101130009B0013445B00013B1A46784B1B7A0193DA
:10114000012300931346224608F092F902463B69B8
:1011500013443B61714B1879704B59796F4B5B8924
:101160001A4613469B0013445B00013B1A4608F0E5
:10117000D0F902463B6913443B61684B5879674B91
:101180001979664B1B8A1A4613469B0013445B0071
:10119000013B1C46614B5B8A1A4613469B00134475
:1011A0005B00013B1A465D4B5B7A01930123009380
:1011B0001346224608F05CF902463B6913443B6142
:1011C0003B69013B3B61554B1879544B5979534B63
:1011D000DB881A4613469B0013445B00013B1A460A
:1011E00008F097F90246FB681344FB604B4B1879F3
:1011F0004A4B5979494B1B8B1A4613469B001344A3
:101200005B00013B1C46454B5B8B1A4613469B001B
:1012100013445B00013B1A46404B1B7D01930123A5
:1012200000931346224608F023F90246FB68134454
:10123000FB603A4B1879394B5979384BDB8A1A469F
:1012400013469B0013445B00013B1A4608F061F90A
:101250000246FB681344FB60304B58792F4B1979D9
:101260002E4B9B8B1A4613469B0013445B00013B9D
:101270001C462A4BDB8B1A4613469B0013445B002B
:10128000013B1A46254B5B7D0193012300931346D6
:10129000224608F0EDF80246FB681344FB60FB6849
:1012A000013BFB60BB7DBA68F968386908F0A2FEB3
:1012B000BB7D0133BB75144B1B78BA7D9A42FFF49A
:1012C00000AF08F089FF08F005FA00F0CDF90D4BEA
:1012D00002221A7039E008F043F90346002B33D09C
:1012E0000F48FFF761FE08F02DF908F0CBFE00F083
:1012F000CBF90C4908480BF033FF024B00221A705F
:1013000022E000BFDD020020DC020020DE0200201F
:101310009C01002078E50008D0410020E002002078
:101320000000014094E5000808F050F908F0D6FEEE
:1013300008F008F908F0A6FE00F0A6F9054B002217
:101340001A7002E000BF00E000BF00BF1837BD46C2
:10135000B0BD00BFDD02002080B483B000AF786074
:101360007B681B6803F02003202B0CBF01230023A4
:10137000DBB218460C37BD465DF8047B704780B47D
:1013800083B000AF78607B6820229A6000BF0C3782
:10139000BD465DF8047B704780B483B000AF7860D1
:1013A0007B681B6843F001027B681A6000BF0C3742
:1013B000BD465DF8047B704780B483B000AF7860B1
:1013C0007B681B6823F001027B681A6000BF0C3742
:1013D000BD465DF8047B704780B483B000AF786091
:1013E00039607B681B6823F070023B681A437B6896
:1013F0001A6000BF0C37BD465DF8047B704780B4AF
:1014000083B000AF786039607B683A685A6200BF89
:101410000C37BD465DF8047B704780B483B000AFE5
:10142000786039607B683A689A6200BF0C37BD46C5
:101430005DF8047B704780B483B000AF786039609A
:101440007B683A68DA6200BF0C37BD465DF8047B02
:10145000704780B483B000AF78607B686FF00102A2
:101460001A6100BF0C37BD465DF8047B704780B43D
:1014700083B000AF78607B681B6903F00103012B28
:1014800001D1012300E0002318460C37BD465DF86A
:10149000047B704780B483B000AF78607B68DB6802
:1014A00043F001027B68DA6000BF0C37BD465DF88F
:1014B000047B704780B483B000AF78607B68DB68E2
:1014C00023F001027B68DA6000BF0C37BD465DF88F
:1014D000047B70470000000080B500AF264807F08D
:1014E00098FA4FF400420021234807F004FA4FF421
:1014F00030420121204807F0FEF948F201020B2199
:101500001D4807F0F8F99FED101B9FED110B1A48CD
:1015100007F092FA9FED101B9FED0D0B164807F098
:10152000CBFA9FED0F1B9FED0A0B134807F020FB32
:101530009FED0D0B104807F077FB9FED0D0B0E484C
:1015400007F0A6FB00BF80BD0000000000002440A3
:101550000000004008AC8C3F000000000000144078
:1015600000000000000014C0000000000060734094
:101570000000000000000000380000200000000013
:1015800080B582B000AF87ED010A0B4A7B68936398
:101590007868FEF7E9FF02460B4643EC112B9FEDFE
:1015A000040B064807F088FA00BF0837BD4680BD27
:1015B0000000004008AC8C3F88410020380000202B
:1015C00080B582B000AF0C4807F096FB53EC102BAF
:1015D00010461946FFF702FB03467B60D7ED017A00
:1015E0009FED067AC7EE876AF0EE667AB0EE670A7C
:1015F0000837BD4680BD00BF380000204260653C12
:1016000080B400AF034B93F83D301846BD465DF8FB
:10161000047B70478841002080B500AF044807F084
:10162000E2FB044B002283F83D2000BF80BD00BFD9
:10163000380000208841002080B500AF47210948CC
:10164000FFF7EBFE31210748FFF7F5FE00210548C3
:10165000FFF7C2FE0348FFF7AFFE0248FFF72AFF7D
:1016600000BF80BD0008004080B500AF00210548E4
:10167000FFF7C5FE0348FFF70DFF0248FFF78CFE9A
:1016800000BF80BD0008004080B500AF0548FFF7EF
:1016900093FE0448FFF70EFF034B00221A8000BFA1
:1016A00080BD00BF000800408041002080B483B0AE
:1016B00000AF786000BF0C37BD465DF8047B704713
:1016C00080B500AF0E48FFF7D2FE0346002B15D0C1
:1016D0000B48FFF7BEFE0B4B1B78002B02D0012BF3
:1016E00006D00BE003220521074807F089FB05E03F
:1016F00003220721044807F083FB00BF00BF80BD21
:1017000000080040C8410020380000200000000010
:1017100098B500AF2C48FFF71FFE0346002B4DD0B5
:101720002948FFF72CFE294807F0D5F8284B1B78ED
:10173000002B02D0012B1CD03CE0244807F0A4FB76
:1017400051EC100B1EA3D3E90023FEF765FF024600
:101750000B46204909880C4610461946FFF73EFA09
:1017600002461D49A3000B441A60194B01221A704E
:1017700024E0164807F0B4FB51EC100B154B1B8806
:101780001C46FFF72BFA02461449A3000B441A60CB
:10179000104B1B8801339AB20E4B1A800D4B1B88DD
:1017A000B3F5FA6F02D30B4B00221A80084B0022CC
:1017B0001A7003E0064B00221A7000BF00BF98BDEC
:1017C000BBD6DEA7AAAA4040006402403800002031
:1017D000C84100208041002040220020000300205A
:1017E00080B500AF084B03221A70084B012283F822
:1017F0003D20012101200AF031FD054905480BF08B
:10180000AFFC00BF80BD00BFDD020020884100208A
:10181000B0E50008D041002080B500AF02F090FC98
:1018200003F0D0FD08F012FBFFF7CEFBFFF754FEEC
:10183000FFF702FF42F210700AF0B4FC0AF0D4FC89
:10184000FCE780B483B000AF786000BF0C37BD46C2
:101850005DF8047B7047000080B400AFBFF34F8F8A
:1018600000BF064BDB6803F4E0620449044B1343FA
:10187000CB60BFF34F8F00BF00BFFDE700ED00E07E
:101880000400FA0580B586B000AFF860B9607A60F0
:10189000B86809F015F80346FB75FB7D012B04D8E9
:1018A0002D49F86808F008FF52E0FB7D022B04D9AF
:1018B0002A49F86808F000FF4AE00121B86808F0FA
:1018C000C9FF034618460BF004FD03469BB23B825A
:1018D0000221B86808F0BEFF034618460BF0F9FC79
:1018E00003469BB27B823B8AB3F5967F04D91C49A1
:1018F000F86808F0E1FE2BE07B8A322B04D9184906
:10190000F86808F0D9FE23E0164B1B6800221A7015
:101910003B8A1B0A9AB2134B1B68D2B25A703A8A9E
:10192000104B1B68D2B29A707B8A1B0A9AB20D4B7D
:101930001B68D2B2DA707A8A0A4B1B68D2B21A716B
:10194000052002F09FFB0849F86808F0B5FE00BFCB
:101950001837BD4680BD00BFA0F20008B8F20008ED
:10196000D0F20008E8000020E8F2000880B586B058
:1019700000AFF860B9607A60B86808F0A1FF03466C
:10198000FB75FB7D002B04D11D49F86808F094FE1F
:1019900032E0FB7D012B04D91A49F86808F08CFE6F
:1019A0002AE00121B86808F055FF034618460BF0FD
:1019B00090FC0346BB82BB8AB3F5967F04D91249DB
:1019C000F86808F079FE17E0104B1B6801221A70C6
:1019D000BB8A1B0A9AB20D4B1B68D2B25A700B4BD2
:1019E0001B68BA8AD2B29A70032002F04BFB0849F6
:1019F000F86808F061FE00BF1837BD4680BD00BF23
:101A0000A0F20008B8F20008D0F20008E8000020B8
:101A1000E8F2000880B586B000AFF860B9607A607F
:101A2000B86808F04DFF0346FB75FB7D002B04D121
:101A30001C49F86808F040FE31E0FB7D012B04D919
:101A40001949F86808F038FE29E00121B86808F063
:101A500001FF034618460BF03CFC0346BB82BB8AE1
:101A6000322B04D91149F86808F026FE17E0104B14
:101A70001B6802221A70BB8A1B0A9AB20C4B1B68A5
:101A8000D2B25A700A4B1B68BA8AD2B29A7003203B
:101A900002F0F8FA0749F86808F00EFE00BF1837A0
:101AA000BD4680BDA0F20008B8F20008D0F20008E0
:101AB000E8000020E8F2000880B586B000AFF860CA
:101AC000B9607A60B86808F0FBFE0346FB75FB7DE1
:101AD000012B04D82449F86808F0EEFD41E0FB7DB5
:101AE000022B04D92149F86808F0E6FD39E001210C
:101AF000B86808F0AFFE034618460BF0EAFB034651
:101B0000DBB23B750221B86808F0A4FE0346184614
:101B10000BF0DFFB0346DBB27B753B7D012B04D969
:101B20001349F86808F0C8FD1BE07B7D012B04D940
:101B30000F49F86808F0C0FD13E00E4B1B68032244
:101B40001A700C4B1B683A7D5A700A4B1B687A7DE1
:101B50009A70032002F096FA0749F86808F0ACFD85
:101B600000BF1837BD4680BDA0F20008B8F20008DB
:101B7000D0F20008E8000020E8F2000880B586B046
:101B800000AFF860B9607A60B86808F099FE034663
:101B9000FB75FB7D012B04D82449F86808F08CFD07
:101BA00041E0FB7D022B04D92149F86808F084FD4F
:101BB00039E00121B86808F04DFE034618460BF0E5
:101BC00088FB0346DBB23B750221B86808F042FE91
:101BD000034618460BF07DFB0346DBB27B753B7D6D
:101BE000012B04D91349F86808F066FD1BE07B7DE2
:101BF000012B04D90F49F86808F05EFD13E00E4B85
:101C00001B6804221A700C4B1B683A7D5A700A4BF1
:101C10001B687A7D9A70032002F034FA0749F8684D
:101C200008F04AFD00BF1837BD4680BDA0F200088D
:101C3000B8F20008D0F20008E8000020E8F200083E
:101C400080B586B000AFF860B9607A60B86808F017
:101C500037FE0346FB75FB7D002B04D00D49F86869
:101C600008F02AFD13E00C4B1B6805221A700A4B82
:101C70001B6800225A70084B1B6801229A700320CF
:101C800002F000FA0549F86808F016FD00BF1837A1
:101C9000BD4680BDB8F20008E8000020E8F2000868
:101CA00080B586B000AFF860B9607A60B86808F0B7
:101CB00007FE0346FB75FB7D002B04D00D49F86839
:101CC00008F0FAFC13E00C4B1B6805221A700A4B53
:101CD0001B6801225A70084B1B6800229A7003206F
:101CE00002F0D0F90549F86808F0E6FC00BF1837A3
:101CF000BD4680BDB8F20008E8000020E8F2000808
:101D000080B586B000AFF860B9607A60B86808F056
:101D1000D7FD03467B617B69002B04D00949F86835
:101D200008F0CAFC0BE0084B1B6807221A70012060
:101D300002F0A8F90549F86808F0BEFC00BF1837A2
:101D4000BD4680BDB8F20008E8000020E8F20008B7
:101D500080B586B000AFF860B9607A60B86808F006
:101D6000AFFD03467B617B69002B04D00949F8680D
:101D700008F0A2FC0BE0084B1B6809221A70012036
:101D800002F080F90549F86808F096FC00BF1837A2
:101D9000BD4680BDB8F20008E8000020E8F2000867
:101DA00080B586B000AFF860B9607A60B86808F0B6
:101DB00087FD03467B617B69002B04D00949F868E5
:101DC00008F07AFC0BE0084B1B6808221A7001200F
:101DD00002F058F90549F86808F06EFC00BF1837A2
:101DE000BD4680BDB8F20008E8000020E8F2000817
:101DF00080B586B000AFF860B9607A60B86808F066
:101E00005FFD03467B617B69002B04D00949F868BC
:101E100008F052FC0BE0084B1B680A221A700120E4
:101E200002F030F90549F86808F046FC00BF1837A1
:101E3000BD4680BDB8F20008E8000020E8F20008C6
:101E400080B586B000AFF860B9607A60B86808F015
:101E500037FD03467B617B69002B04D00949F86894
:101E600008F02AFC0BE0084B1B6806221A700120C0
:101E700002F008F90549F86808F01EFC00BF1837A1
:101E8000BD4680BDB8F20008E8000020E8F2000876
:101E900080B586B000AFF860B9607A60B86808F0C5
:101EA0000FFD03467B617B69002B04D00949F8686C
:101EB00008F002FC0BE0084B1B680B221A70012093
:101EC00002F0E0F80549F86808F0F6FB00BF1837A3
:101ED000BD4680BDB8F20008E8000020E8F2000826
:101EE00080B586B000AFF860B9607A60B86808F075
:101EF000E7FC03467B617B69002B04D00949F86845
:101F000008F0DAFB0BE0084B1B6810221A70012066
:101F100002F0B8F80549F86808F0CEFB00BF1837A2
:101F2000BD4680BDB8F20008E8000020E8F20008D5
:101F300080B596B000AFF860B9607A60334B1B781B
:101F4000002B04D03249F86808F0B6FB5BE0B868B3
:101F500008F0B6FC034687F8573097F85730012B46
:101F600004D82C49F86808F0A7FB4CE097F85730E4
:101F7000022B04D92849F86808F09EFB43E00121B0
:101F8000B86808F067FC034618460BF0A2F9034650
:101F9000DBB287F850300221B86808F05BFC0346DA
:101FA00018460BF096F90346DBB287F8513097F8E4
:101FB0005030013B194AD35C87F8563097F85130BE
:101FC000013B164AD35C87F8553097F8552097F8AF
:101FD00056301146184603F093FA0346A7F85230DC
:101FE000B7F8522007F110030D4918460BF030FAEC
:101FF00007F110031946F86808F05EFB0949F86814
:1020000008F05AFB00BF5837BD4680BDDD020020F6
:10201000F8F20008A0F20008B8F20008DC00002086
:102020001CF30008E8F2000880B588B000AFF86043
:10203000B9607A60B86808F043FC0346FB77FB7F21
:10204000012B04D83349F86808F036FB5EE0FB7FCB
:10205000022B04D93049F86808F02EFB56E0012124
:10206000B86808F0F7FB034618460BF032F9034650
:10207000DBB23B750221B86808F0ECFB034618465A
:102080000BF027F90346DBB27B753B7D0B2B04D9A4
:102090002249F86808F010FB38E07B7D092B04D951
:1020A0001E49F86808F008FB30E03B7D0B2B07D198
:1020B0007B7D072B04D91949F86808F0FDFA25E063
:1020C0003B7D002B07D17B7D002B04D11349F868A1
:1020D00008F0F2FA1AE03B7D07EE903AB8EE677A24
:1020E0007B7D07EE903AF8EE677ADFED0D6A67EEDA
:1020F000A67A77EE277AC7ED067A97ED060AFFF7FC
:102100003FFA0849F86808F0D7FA00BF2037BD4603
:1021100080BD00BFA0F20008B8F20008D0F20008AD
:10212000CDCCCC3DE8F2000880B596B000AFF860A9
:10213000B9607A60B86808F0C3FB034687F8573087
:1021400097F85730002B04D01449F86808F0B4FA17
:1021500020E0FFF735FAF0EE407A9FED117A67EE56
:10216000877AC7ED147AD7ED147AFDEEE77A07F196
:10217000100317EE902A0B4918460BF069F907F186
:1021800010031946F86808F097FA0749F86808F04C
:1021900093FA00BF5837BD4680BD00BFB8F20008B3
:1021A00000007A4434F30008E8F2000880B586B0F5
:1021B00000AFF860B9607A60B86808F081FB034648
:1021C000FB75FB7D002B04D00E49F86808F074FA0B
:1021D00014E0FFF715FA0346BB75BB7D002B04D056
:1021E0000949F86808F068FA03E00849F86808F057
:1021F00063FA0749F86808F05FFA00BF1837BD4670
:1022000080BD00BFB8F200085CF3000880F300084E
:10221000E8F2000880B586B000AFF860B9607A6077
:10222000B86808F04DFB0346FB75FB7D002B04D01E
:102230000749F86808F040FA06E0FFF7EDF90549AC
:10224000F86808F039FA00BF1837BD4680BD00BFF6
:10225000B8F20008E8F2000880B5A6B000AFF86058
:10226000B9607A60B86808F02BFB0346C7F8943071
:10227000D7F89430002B04DC3349F86808F01CFAD6
:102280005FE0D7F89430012B04DD3049F86808F09E
:1022900013FA56E00121B86808F0DCFA0346184644
:1022A0000BF017F8034687F8933097F89330002B1C
:1022B00003D097F893300A2B04D92549F86808F021
:1022C000FBF93EE097F89320224B1B7802339A42A9
:1022D0001FDD214B1B785A1C97F8933007F1100033
:1022E0001E490BF0B5F807F110031946F86808F01D
:1022F000E3F9194B1B781A4607F1100318491846E1
:102300000BF0A6F807F110031946F86808F0D4F9A5
:1023100017E097F89330013BDAB20E4B1A700D4B71
:102320001B78104A5B01134401221A70094B1B7879
:102330000133DAB2084B1A700B49F86808F0BCF99F
:1023400000BF9837BD4680BDA0F20008B8F2000873
:10235000D0F20008C9410020DC020020A4F30008EC
:10236000D4F300089C010020E8F2000880B586B094
:1023700000AFF860B9607A60B86808F0A1FA034667
:102380007B617B69002B03D00D49F86808F094F954
:102390000C4B1B780C4A5B01134400221A70094B4A
:1023A0001B785A1ED1B2074A1170084A13700849A7
:1023B000F86808F081F900BF1837BD4680BD00BF3E
:1023C000D0F20008C94100209C010020DC0200205E
:1023D000E8F2000880B586B000AFF860B9607A60B6
:1023E000B86808F06DFA03467B617B69002B04D066
:1023F0000D49F86808F060F913E00C4B1B780C4AA3
:102400005B01134400221A70084B1B78084A5B01D9
:102410001344013301221A700649F86808F04CF998
:1024200000BF1837BD4680BDD0F20008C94100206A
:102430009C010020E8F2000880B586B000AFF8608B
:10244000B9607A60B86808F03BFA03467B617B6943
:10245000002B04DC1A49F86808F02EF92CE07B699F
:10246000012B04DD1749F86808F026F924E0164B23
:102470001B78164A5B0113441B7883F00103DBB21F
:10248000002B18D10121B86808F0E4F9034618467A
:102490000AF01FFF0346FB740B4B1B78FA7C91B2CA
:1024A0000A4A5B01134402330A461A800849F86855
:1024B00008F002F900E000BF1837BD4680BD00BF3C
:1024C000A0F20008B8F20008C94100209C010020D9
:1024D000E8F2000880B586B000AFF860B9607A60B5
:1024E000B86808F0EDF903467B617B69012B04DCD9
:1024F0002849F86808F0E0F848E07B69022B04DD21
:102500002549F86808F0D8F840E00121B86808F0DB
:10251000A1F9034618460AF0DCFE0346DBB23B7421
:102520000221B86808F096F9034618460AF0D1FE71
:102530000346DBB27B74194B1B78194A5B011344C9
:102540001B7883F00103DBB2002B1ED13B7C013BE7
:10255000124A12781046134AD15C114A43011344BF
:1025600004330A461A707B7C013B0C4A12781046F1
:102570000C4AD15C0A4A4301134405330A461A70D7
:102580000949F86808F098F800E000BF1837BD4620
:1025900080BD00BFA0F20008B8F20008C9410020C9
:1025A0009C010020DC000020E8F2000880B58AB021
:1025B00000AFF860B9607A60B86808F081F9034646
:1025C0007B627B6A032B04DC4049F86808F074F8EE
:1025D00079E07B6A042B04DD3D49F86808F06CF86B
:1025E00071E03C4B1B783C4A5B0113441B7883F041
:1025F0000103DBB2002B65D10121B86808F02AF98C
:10260000034618460AF065FE03467B610221B8685E
:1026100008F020F9034618460AF05BFE0346BB614A
:102620000321B86808F016F9034618460AF051FE6F
:102630000346FB610421B86808F00CF9034618460C
:102640000AF047FE03463B627B69142B08DCBB693A
:10265000142B05DCFB69142B02DC3B6A142B04DD14
:102660001E49F86808F028F82DE07A69194B1B78A4
:10267000D1B2194A5B01134408330A461A70BA6989
:10268000144B1B78D1B2144A5B01134409330A4638
:102690001A70FA690F4B1B78D1B20F4A5B011344D1
:1026A00014330A461A703A6A0A4B1B78D1B20A4AA6
:1026B0005B01134415330A461A700949F86807F09C
:1026C000FBFF00E000BF2837BD4680BDA0F2000838
:1026D000B8F20008C94100209C010020D0F2000897
:1026E000E8F2000880B588B000AFF860B9607A60A1
:1026F000B86808F0E5F80346FB61FB69022B04DCCF
:102700002E49F86807F0D8FF54E0FB69032B04DD7D
:102710002B49F86807F0D0FF4CE02A4B1B782A4A77
:102720005B0113441B7883F00103DBB2002B40D123
:102730000121B86808F08EF8034618460AF0C9FD72
:1027400003463B610221B86808F084F80346184646
:102750000AF0BFFD03467B610321B86808F07AF8F0
:10276000034618460AF0B5FD0346BB613A69154BAE
:102770001B7891B2144A5B0113440A330A461A804B
:102780007A69104B1B7891B20F4A5B0113441633E0
:102790000A461A80BA690B4B1B7891B20A4A5B0150
:1027A000134406330A461A800849F86807F084FF84
:1027B00000E000BF2037BD4680BD00BFA0F200088A
:1027C000B8F20008C94100209C010020E8F200088E
:1027D00080B588B000AFF860B9607A60B86808F07A
:1027E0006FF80346FB61FB69012B04DC3049F86894
:1027F00007F062FF58E0FB69022B04DD2D49F86801
:1028000007F05AFF50E02C4B1B782C4A5B01134415
:102810001B7883F00103DBB2002B44D10121B8689F
:1028200008F018F8034618460AF053FD03467B618A
:102830000221B86808F00EF8034618460AF049FD70
:102840000346BB617B69B3F57A7F02DC7B69002BB1
:1028500004DC1B49F86807F02FFF25E0BB69B3F5DE
:102860007A7F02DCBB69002B04DC1549F86807F0AD
:1028700023FF19E07A69104B1B7891B20F4A5B0174
:1028800013440C330A461A80BA690B4B1B7891B279
:102890000A4A5B0113440E330A461A800949F86854
:1028A00007F00AFF00E000BF2037BD4680BD00BF33
:1028B000A0F20008B8F20008C94100209C010020E5
:1028C000D0F20008E8F2000880B588B000AFF860E8
:1028D000B9607A60B86807F0F3FF0346FB61FB69F3
:1028E000012B04DC3049F86807F0E6FE58E0FB698C
:1028F000022B04DD2D49F86807F0DEFE50E00121CF
:10290000B86807F0A7FF034618460AF0E2FC034642
:102910007B610221B86807F09DFF034618460AF064
:10292000D8FC0346BB617B69B3F57A7F02DC7B6927
:10293000002B04DC1E49F86807F0BEFE30E0BB69DE
:10294000B3F57A7F02DCBB69002B04DC1849F86818
:1029500007F0B2FE24E0174B1B78174A5B011344C3
:102960001B7883F00103DBB2002B18D17A69114B7D
:102970001B7891B2104A5B01134410330A461A8047
:10298000BA690C4B1B7891B20B4A5B0113441233AA
:102990000A461A800949F86807F08EFE00E000BF79
:1029A0002037BD4680BD00BFA0F20008B8F2000885
:1029B000D0F20008C94100209C010020E8F2000884
:1029C00080B588B000AFF860B9607A60B86807F089
:1029D00077FF0346FB61FB69012B04DC3049F86893
:1029E00007F06AFE58E0FB69022B04DD2D49F86808
:1029F00007F062FE50E00121B86807F02BFF0346A4
:102A000018460AF066FC03467B610221B86807F0AD
:102A100021FF034618460AF05CFC0346BB617B6954
:102A2000B3F57A7F02DC7B69002B04DC1E49F86871
:102A300007F042FE30E0BB69B3F57A7F02DCBB6988
:102A4000002B04DC1849F86807F036FE24E0174B29
:102A50001B78174A5B0113441B7883F00103DBB238
:102A6000002B18D17A69114B1B7891B2104A5B0187
:102A7000134418330A461A80BA690C4B1B7891B27A
:102A80000B4A5B0113441A330A461A800949F86855
:102A900007F012FE00E000BF2037BD4680BD00BF3A
:102AA000A0F20008B8F20008D0F20008C9410020E6
:102AB0009C010020E8F2000880B588B000AFF86003
:102AC000B9607A60B86807F0FBFE0346FB61FB69FA
:102AD000012B04DC3049F86807F0EEFD58E0FB6993
:102AE000022B04DD2D49F86807F0E6FD50E00121D6
:102AF000B86807F0AFFE034618460AF0EAFB034643
:102B00007B610221B86807F0A5FE034618460AF06B
:102B1000E0FB0346BB617B69B3F57A7F02DC7B692E
:102B2000002B04DC1E49F86807F0C6FD30E0BB69E5
:102B3000B3F57A7F02DCBB69002B04DC1849F86826
:102B400007F0BAFD24E0174B1B78174A5B011344CA
:102B50001B7883F00103DBB2002B18D17A69114B8B
:102B60001B7891B2104A5B0113441C330A461A8049
:102B7000BA690C4B1B7891B20B4A5B0113441E33AC
:102B80000A461A800949F86807F096FD00E000BF80
:102B90002037BD4680BD00BFA0F20008B8F2000893
:102BA000D0F20008C94100209C010020E8F2000892
:102BB00080B586B000AFF860B9607A60FEF720FD9E
:102BC0000346002B04D01E49F86807F075FD33E07A
:102BD0001C4B1B78012B04D11B49F86807F06CFDD6
:102BE0002AE0B86807F06CFE0346FB75FB7D002BFE
:102BF00004D11649F86807F05FFD1DE0FB7D012B4D
:102C000004D91349F86807F057FD15E00121B868A9
:102C100007F020FE034618460AF05BFB0346BB752F
:102C2000BB7D012B07D10B4B01221A700121012022
:102C300009F014FB00E000BF1837BD4680BD00BF9F
:102C4000F4F30008DE0200202CF40008A0F20008D3
:102C5000B8F20008DD02002080B586B000AFF86051
:102C6000B9607A60B86807F02BFE0346FB74FB7C02
:102C7000012B04D84849F86807F01EFD88E0FB7C6A
:102C8000022B04D94549F86807F016FD80E00121C0
:102C9000B86807F0DFFD034618460AF01AFB7861B2
:102CA0000221B86807F0D6FD03463D491846FDF7F6
:102CB0008FFA0346002B06D17B694FF47A7202FB30
:102CC00003F37B6110E00221B86807F0C3FD0346FF
:102CD00034491846FDF77CFA0346002B04D03249EC
:102CE000F86807F0E9FC53E0304B1B88B3F5C87F68
:102CF0000BD17B692E4A934202DC7B69002B04DAFC
:102D00002949F86807F0D8FC42E0284B1B88C82BFB
:102D10000BD17B69274A934202DC7B69002B04DAE2
:102D20002149F86807F0C8FC32E0204B1B88642B6F
:102D30000BD17B69204A934202DC7B69002B04DAC9
:102D40001949F86807F0B8FC22E01C4B1B680C22FC
:102D50001A701A4B1B687A69D2B25A737B691A12BD
:102D6000164B1B68D2B29A737B691A14134B1B68FB
:102D7000D2B2DA737B691A16104B1B68D2B21A747E
:102D8000112001F07FF90E49F86807F095FC00BFAB
:102D90001837BD4680BD00BFA0F20008B8F2000899
:102DA0005CF4000860F40008D0F20008E4000020A1
:102DB000801A0600400D0300A0860100E8000020F4
:102DC000E8F2000880B586B000AFF860B9607A60BC
:102DD000B86807F075FD0346FB75FB7D002B04D03A
:102DE0000949F86807F068FC0BE0084B1B680D22E6
:102DF0001A70012001F046F90549F86807F05CFCFB
:102E000000BF1837BD4680BDD0F20008E8000020A2
:102E1000E8F2000880B586B000AFF860B9607A606B
:102E2000B86807F04DFD0346FB75FB7D002B04D110
:102E30002149F86807F040FC3AE0FB7D012B04D9FA
:102E40001E49F86807F038FC32E00121B86807F045
:102E500001FD034618460AF03CFA0346002B14BF56
:102E600001230023BB75BB7D002B0ED0144B1B68C8
:102E70000E221A70124B1B6801225A70022001F0B8
:102E800001F9104B01221A700DE00D4B1B680E2248
:102E90001A700B4B1B6800225A70022001F0F2F8E6
:102EA000084B00221A700849F86807F005FC00BFBB
:102EB0001837BD4680BD00BFA0F20008B8F2000878
:102EC000E8000020DE020020E8F2000880B586B0AD
:102ED00000AFF860B9607A60B86807F0F1FC0346AB
:102EE000FB75FB7D002B04D00E49F86807F0E4FB6E
:102EF00015E00D4B1B78012B04D10C49F86807F045
:102F0000DBFB07E0084B1B78002B03D10849F8686E
:102F100007F0D2FB0749F86807F0CEFB00BF18376F
:102F2000BD4680BDD0F20008DE02002064F4000837
:102F300088F40008E8F2000880B5A6B000AFF86099
:102F4000B9607A60B86807F0BBFC0346C7F89030F8
:102F5000D7F89030002B04D09349F86807F0ACFB09
:102F60001EE1002387F89730002387F8973010E19F
:102F70008E49F86807F0A0FB97F897305A1C07F1C4
:102F800010038B4918460AF063FA07F1100319463B
:102F9000F86807F091FB97F89730864A5B01134475
:102FA00004331B785A1C97F8973082495B010B4415
:102FB00005331B78013307F110007F490AF048FA06
:102FC00007F110031946F86807F076FB97F8973079
:102FD000784A5B01134408331B78194697F89730F9
:102FE000744A5B01134409331B7807F110000A4649
:102FF00072490AF02DFA07F110031946F86807F034
:103000005BFB97F897306B4A5B01134414331B78D2
:10301000194697F89730674A5B01134414331B78BD
:1030200007F110000A4666490AF012FA07F1100388
:103030001946F86807F040FB97F897305D4A5B0146
:1030400013440A331B881A4607F110035D491846DA
:103050000AF0FEF907F110031946F86807F02CFB97
:1030600097F89730534A5B01134416331B881A466E
:1030700007F11003544918460AF0EAF907F1100362
:103080001946F86807F018FB97F89730494A5B0132
:10309000134406331B881A4607F110034B491846A0
:1030A0000AF0D6F907F110031946F86807F004FB97
:1030B00097F897303F4A5B0113440C331B8819463D
:1030C00097F897303B4A5B0113440E331B8807F196
:1030D00010000A463E490AF0BBF907F110031946F1
:1030E000F86807F0E9FA97F89730324A5B01134421
:1030F00010331B88194697F897302E4A5B0113440A
:1031000012331B8807F110000A4632490AF0A0F971
:1031100007F110031946F86807F0CEFA97F89730D0
:10312000244A5B01134418331B88194697F89730DB
:10313000204A5B0113441A331B8807F110000A462A
:1031400025490AF085F907F110031946F86807F0D8
:10315000B3FA97F89730174A5B0113441C331B8866
:10316000194697F89730134A5B0113441E331B88A6
:1031700007F110000A4619490AF06AF907F110032D
:103180001946F86807F098FA97F89730013387F8EE
:103190009730134B1B7897F897209A427FF6E8AE4A
:1031A0009837BD4680BD00BFD0F20008A8F40008E3
:1031B000D4F300089C010020E8F4000814F500088E
:1031C00048F500087CF50008A8F50008D4F50008CB
:1031D00000F600083CF6000878F60008B4F600088F
:1031E000C941002080B596B000AFF860B9607A6040
:1031F000B86807F065FB03467B657B6D002B04D048
:103200000D49F86807F058FA13E00C4B1B785A1C6C
:1032100007F114030A4918460AF01AF907F11403D2
:103220001946F86807F048FA0649F86807F044FAC2
:1032300000BF5837BD4680BDD0F20008C94100200C
:10324000D4F30008E8F2000880B485B000AFF8605D
:10325000B9607A6000BF1437BD465DF8047B7047E3
:1032600080B485B000AFF860B9607A6000BF1437F1
:10327000BD465DF8047B704780B596B000AFF8603E
:10328000B9607A60B86807F01BFB03467B657B6D0D
:10329000002B04D01049F86807F00EFA18E00F4B25
:1032A0001B780F4A5B01134402331B881A4607F14F
:1032B00014030C4918460AF0CBF807F11403194619
:1032C000F86807F0F9F90849F86807F0F5F900BF60
:1032D0005837BD4680BD00BFD0F20008C94100206C
:1032E0009C010020F0F60008E8F2000880B596B0D6
:1032F00000AFF860B9607A60B86807F0E1FA034699
:103300007B657B6D002B04D01349F86807F0D4F976
:103310001FE0124B1B78124A5B01134404331B78E5
:103320005A1C0E4B1B780E495B010B4405331B786E
:10333000013307F114000B490AF08AF807F114036E
:103340001946F86807F0B8F90749F86807F0B4F9C2
:1033500000BF5837BD4680BDD0F20008C9410020EB
:103360009C010020E8F40008E8F2000880B596B05F
:1033700000AFF860B9607A60B86807F0A1FA034658
:103380007B657B6D002B04D02149F86807F094F928
:103390003AE0204B1B78204A5B01134408331B782A
:1033A00019461C4B1B781C4A5B01134409331B78DC
:1033B00007F114000A4619490AF04AF807F1140304
:1033C0001946F86807F078F9124B1B78124A5B012E
:1033D000134414331B7819460E4B1B780E4A5B01BD
:1033E000134414331B7807F114000A460C490AF001
:1033F0002FF807F114031946F86807F05DF9094939
:10340000F86807F059F900BF5837BD4680BD00BFC6
:10341000D0F20008C94100209C01002014F50008EA
:1034200048F50008E8F2000880B596B000AFF860F3
:10343000B9607A60B86807F043FA03467B657B6D34
:10344000002B04D02449F86807F036F940E0234BFC
:103450001B78234A5B0113440A331B881A4607F181
:1034600014032049184609F0F3FF07F11403194625
:10347000F86807F021F9194B1B78194A5B011344CE
:1034800016331B881A4607F114031749184609F02A
:10349000DFFF07F114031946F86807F00DF90F4B29
:1034A0001B780F4A5B01134406331B881A4607F149
:1034B00014030E49184609F0CBFF07F1140319460F
:1034C000F86807F0F9F80A49F86807F0F5F800BF5E
:1034D0005837BD4680BD00BFD0F20008C94100206A
:1034E0009C0100207CF50008A8F50008D4F5000830
:1034F000E8F2000880B596B000AFF860B9607A6075
:10350000B86807F0DDF903467B657B6D002B04D0BE
:103510002149F86807F0D0F83AE0204B1B78204AA0
:103520005B0113440C331B8819461C4B1B781C4A47
:103530005B0113440E331B8807F114000A46194936
:1035400009F086FF07F114031946F86807F0B4F88C
:10355000124B1B78124A5B01134410331B88194627
:103560000E4B1B780E4A5B01134412331B8807F184
:1035700014000A460C4909F06BFF07F114031946C1
:10358000F86807F099F80949F86807F095F800BF5E
:103590005837BD4680BD00BFD0F20008C9410020A9
:1035A0009C01002000F600083CF60008E8F2000844
:1035B00080B596B000AFF860B9607A60B86807F07F
:1035C0007FF903467B657B6D002B04D01349F868B7
:1035D00007F072F81FE0124B1B78124A5B0113448C
:1035E0000C331B8819460E4B1B780E4A5B011344A3
:1035F0000E331B8807F114000A460B4909F028FF17
:1036000007F114031946F86807F056F80749F868F7
:1036100007F052F800BF5837BD4680BDD0F2000811
:10362000C94100209C01002000F60008E8F20008D3
:1036300080B596B000AFF860B9607A60B86807F0FE
:103640003FF903467B657B6D002B04D01349F86876
:1036500007F032F81FE0124B1B78124A5B0113444B
:1036600010331B8819460E4B1B780E4A5B0113441E
:1036700012331B8807F114000A460B4909F0E8FED3
:1036800007F114031946F86807F016F80749F868B7
:1036900007F012F800BF5837BD4680BDD0F20008D1
:1036A000C94100209C0100203CF60008E8F2000817
:1036B00080B596B000AFF860B9607A60B86807F07E
:1036C000FFF803467B657B6D002B04D02149F86829
:1036D00006F0F2FF3AE0204B1B78204A5B011344CE
:1036E00018331B8819461C4B1B781C4A5B0113447A
:1036F0001A331B8807F114000A46194909F0A8FE7D
:1037000007F114031946F86806F0D6FF124B1B7830
:10371000124A5B0113441C331B8819460E4B1B785D
:103720000E4A5B0113441E331B8807F114000A463E
:103730000C4909F08DFE07F114031946F86806F0EC
:10374000BBFF0949F86806F0B7FF00BF5837BD4610
:1037500080BD00BFD0F20008C94100209C010020BC
:1037600078F60008B4F60008E8F2000880B596B0D4
:1037700000AFF860B9607A60B86807F0A1F8034656
:103780007B657B6D002B04D01349F86806F094FF2D
:103790001FE0124B1B78124A5B01134418331B883D
:1037A00019460E4B1B780E4A5B0113441A331B88D3
:1037B00007F114000A460B4909F04AFE07F1140309
:1037C0001946094809F0CCFC0849F86806F074FF6E
:1037D00000BF5837BD4680BDD0F20008C941002067
:1037E0009C01002078F60008D0410020E8F2000893
:1037F00080B596B000AFF860B9607A60B86807F03D
:103800005FF803467B657B6D002B04D01349F86895
:1038100006F052FF1FE0124B1B78124A5B01134463
:103820001C331B8819460E4B1B780E4A5B01134450
:103830001E331B8807F114000A460B4909F008FEE5
:1038400007F114031946F86806F036FF0749F868CF
:1038500006F032FF00BF5837BD4680BDD0F20008E9
:10386000C94100209C010020B4F60008E8F20008DD
:1038700080B586B000AFF860B9607A60B86807F0CC
:103880001FF803467B617B69002B04D00E49F86862
:1038900006F012FF15E00D4B1B78002B04D00C49ED
:1038A000F86806F009FF07E0084B1B78002B03D1EE
:1038B0000849F86806F000FF0749F86806F0FCFEC2
:1038C00000BF1837BD4680BDD0F20008DD020020E1
:1038D00010F7000828F70008E8F2000880B5A6B045
:1038E00000AFF860B9607A60B86806F0E9FF034697
:1038F000C7F89430D7F89430002B04D09249F86878
:1039000006F0DAFE1DE19149F86806F0D5FE904B0D
:103910001B785A1C07F114038E49184609F098FDCC
:1039200007F114031946F86806F0C6FE884B1B78A9
:10393000894A5B01134404331B785A1C844B1B785F
:1039400085495B010B4405331B78013307F11400F3
:10395000824909F07DFD07F114031946F86806F065
:10396000ABFE7B4B1B787C4A5B01134408331B780E
:103970001946774B1B78784A5B01134409331B784F
:1039800007F114000A46764909F062FD07F11403B5
:103990001946F86806F090FE6D4B1B786E4A5B0185
:1039A000134414331B781946694B1B786A4A5B0130
:1039B000134414331B7807F114000A46694909F0CF
:1039C00047FD07F114031946F86806F075FE604BD1
:1039D0001B78614A5B0113440A331B881A4607F1BE
:1039E00014036149184609F033FD07F11403194621
:1039F000F86806F061FE564B1B78574A5B0113448A
:103A000016331B881A4607F114035849184609F063
:103A10001FFD07F114031946F86806F04DFE4C4BE4
:103A20001B784D4A5B01134406331B881A4607F185
:103A300014034F49184609F00BFD07F1140319460A
:103A4000F86806F039FE424B1B78434A5B01134489
:103A50000C331B8819463E4B1B783F4A5B011344CD
:103A60000E331B8807F114000A46424909F0F0FCA6
:103A700007F114031946F86806F01EFE344B1B7854
:103A8000354A5B01134410331B881946304B1B78B1
:103A9000314A5B01134412331B8807F114000A46B4
:103AA000354909F0D5FC07F114031946F86806F00A
:103AB00003FE274B1B78284A5B01134418331B88ED
:103AC0001946234B1B78244A5B0113441A331B8885
:103AD00007F114000A46294909F0BAFC07F114035A
:103AE0001946F86806F0E8FD194B1B781A4A5B0185
:103AF00013441C331B881946154B1B78164A5B016F
:103B000013441E331B8807F114000A461C4909F0B0
:103B10009FFC07F114031946F86806F0CDFD194B18
:103B20001B78002B04D01849F86806F0C5FD07E0A3
:103B3000144B1B78002B03D11449F86806F0BCFD28
:103B400000BF9837BD4680BDD0F20008A8F4000839
:103B5000C9410020D4F300089C010020E8F40008CB
:103B600014F5000848F500087CF50008A8F50008E1
:103B7000D4F5000800F600083CF6000878F60008C6
:103B8000B4F60008DD02002010F7000828F700084E
:103B900080B586B000AFF860B9607A60B86806F0AA
:103BA0008FFE0346FB75FB7D002B04D00949F868A6
:103BB00006F082FD0BE0084B1B6811221A700120F1
:103BC00000F060FA0549F86806F076FD00BF183786
:103BD000BD4680BDD0F20008E8000020E8F20008F1
:103BE00080B586B000AFF860B9607A60B86806F05A
:103BF00067FE0346FB75FB7D002B04D00949F8687E
:103C000006F05AFD0BE0084B1B6812221A700120C7
:103C100000F038FA0549F86806F04EFD00BF183785
:103C2000BD4680BDD0F20008E8000020E8F20008A0
:103C300080B586B000AFF860B9607A60B86806F009
:103C40003FFE0346FB75FB7D002B04D00949F86855
:103C500006F032FD0BE0084B1B6813221A7001209E
:103C600000F010FA0549F86806F026FD00BF183785
:103C7000BD4680BDD0F20008E8000020E8F2000850
:103C800080B586B000AFF860B9607A60B86806F0B9
:103C900017FE0346FB75FB7D002B04D00949F8682D
:103CA00006F00AFD0BE0084B1B6814221A70012075
:103CB00000F0E8F90549F86806F0FEFC00BF183787
:103CC000BD4680BDD0F20008E8000020E8F2000800
:103CD00080B586B000AFF860B9607A60B86806F069
:103CE000EFFD0346FB75FB7D002B04D00949F86806
:103CF00006F0E2FC0BE0084B1B6815221A7001204D
:103D000000F0C0F90549F86806F0D6FC00BF183786
:103D1000BD4680BDD0F20008E8000020E8F20008AF
:103D200080B586B000AFF860B9607A60B86806F018
:103D3000C7FD0346FB75FB7D002B04D00949F868DD
:103D400006F0BAFC0BE0084B1B6816221A70012023
:103D500000F098F90549F86806F0AEFC00BF183786
:103D6000BD4680BDD0F20008E8000020E8F200085F
:103D700080B586B000AFF860B9607A60B86806F0C8
:103D80009FFD0346FB75FB7D002B04D00949F868B5
:103D900006F092FC0BE0084B1B6817221A700120FA
:103DA00000F070F90549F86806F086FC00BF183786
:103DB000BD4680BDD0F20008E8000020E8F200080F
:103DC00080B586B000AFF860B9607A60B86806F078
:103DD00077FD0346FB75FB7D002B04D00949F8688D
:103DE00006F06AFC0BE0084B1B6818221A700120D1
:103DF00000F048F90549F86806F05EFC00BF183786
:103E0000BD4680BDD0F20008E8000020E8F20008BE
:103E100080B586B000AFF860B9607A60B86806F027
:103E20004FFD0346FB75FB7D002B04D00949F86864
:103E300006F042FC0BE0084B1B6819221A700120A7
:103E400000F020F90549F86806F036FC00BF183785
:103E5000BD4680BDD0F20008E8000020E8F200086E
:103E600080B586B000AFF860B9607A60B86806F0D7
:103E700027FD0346FB75FB7D002B04D12149F86823
:103E800006F01AFC3AE0FB7D012B04D91E49F868C4
:103E900006F012FC32E00121B86806F0DBFC0346B4
:103EA000184609F016FA38613B69642B0BD03B6960
:103EB000C82B08D03B69B3F5C87F04D01349F86814
:103EC00006F0FAFB1AE0124B1B681A221A703B69C3
:103ED000104A82FB03125211DB17D21A0C4B1B68DB
:103EE000D2B25A70022000F0CDF83B699AB20A4B68
:103EF0001A800A49F86806F0DFFB00BF1837BD4694
:103F000080BD00BFA0F20008B8F20008D0F200089F
:103F1000E80000201F85EB51E4000020E8F20008D3
:103F200080B586B000AFF860B9607A60B86806F016
:103F3000C7FC0346FB75FB7D002B04D00949F868DC
:103F400006F0BAFB0BE0084B1B681B221A7001201D
:103F500000F098F80549F86806F0AEFB00BF183786
:103F6000BD4680BDD0F20008E8000020E8F200085D
:103F700080B586B000AFF860B9607A60B86806F0C6
:103F80009FFC0346FB75FB7D002B04D00949F868B4
:103F900006F092FB0BE0084B1B681C221A700120F4
:103FA00000F070F80549F86806F086FB00BF183786
:103FB000BD4680BDD0F20008E8000020E8F200080D
:103FC00080B586B000AFF860B9607A60B86806F076
:103FD00077FC0346FB75FB7D002B04D00949F8688C
:103FE00006F06AFB0BE0084B1B681D221A700120CB
:103FF00000F048F80549F86806F05EFB00BF183786
:10400000BD4680BDD0F20008E8000020E8F20008BC
:1040100080B588B000AFF860B9607A6007F114032A
:10402000074A0A21184609F0DDF907F11403194679
:10403000F86806F041FB00BF2037BD4680BD00BFD9
:1040400044F7000880B584B000AFF860B9607A60CA
:10405000FDF702FC80B485B000AFF860B9607A600B
:1040600000BF1437BD465DF8047B704780B485B04F
:1040700000AFF860B9607A6000BF1437BD465DF8E4
:10408000047B704780B58AB000AF0346FB711F4BBD
:10409000CA221A701E4B1A781C4B5A701B4B0122F5
:1040A0009A701A4AFB79D370184B07221A71174B72
:1040B000EF2283F80021154BDB780433DBB21A467C
:1040C0001449002007F082FD03461A460F4BA3F85F
:1040D000FE2007F10C0300221A605A609A60DA6031
:1040E0001A615A611A7607F10B0207F10C0319469F
:1040F000064807F0B7FDFA7A07F10C03194606489F
:1041000009F046F800BF2837BD4680BDAC4F0020FF
:1041100024BB0020AD4F0020404E002080B400AFF3
:10412000024B1846BD465DF8047B70470CFF000843
:1041300080B400AF45231846BD465DF8047B704748
:1041400080B584B004AF4FF4007303934FF4007351
:1041500002930E4B01930E4B009327230D4A0E49F9
:104160000E4808F084FF4FF400620D490B4806F03A
:10417000B9F803460B4A13600B49084808F0F0FFF2
:104180000A4B064A1A6000BFBD4680BD3C44002071
:104190003C420020004800404CF70008D04100207D
:1041A0003C4600203C4E002058F70008CC4100203F
:1041B00080B584B000AF78600BE00D4808F09CFF3C
:1041C0000346FB730B4B1B68FA7B1146184606F03F
:1041D000BFF9074808F0FAFF0346002BEDD1054B65
:1041E0001B68184606F0D7F900BF1037BD4680BDE2
:1041F000D04100203C4E002080B5ADF5367D02AFA9
:10420000A54B1B681B781D2B00F2D48701A252F826
:1042100023F000BFB5510008B5510008B5510008A2
:10422000B5510008B5510008B55100088D4200088D
:1042300035430008DF4300088B430008334400087F
:10424000C94500080750000837500008975000087B
:10425000C750000865450008D750000845460008CB
:10426000A1470008CD480008FF4A00086B4B000832
:10427000F54B0008614C00087B4D0008954E000886
:10428000C54E0008574F0008AF4F0008824B1B680F
:104290005B78012B04D18149814808F061FF1CE063
:1042A0007D4B1B689B78012B04D17E497C4808F02C
:1042B00057FF12E0784B1B68DB78012B04D17A4959
:1042C000774808F04DFF08E0734B1B681B79012B02
:1042D00003D17649724808F043FF6F4B1B685B7946
:1042E000012B05D172496E4808F03AFF00F064BF17
:1042F000694B1B689B79012B05D16E49684808F012
:104300002FFF00F059BF644B1B68DB79012B05D1EF
:104310006949634808F024FF00F04EBF5E4B1B68FC
:104320001B7A012B40F0488764495D4808F018FF6C
:1043300000F042BF584B1B685B781BB21B021AB2DD
:10434000554B1B689B781BB213431BB2A7F8FE3179
:10435000514B1B68DB781BB21B021AB24E4B1B6819
:104360001B791BB213431BB2A7F8FC31B7F8FE212F
:10437000B7F8FC313846524909F06AF83B4619460D
:10438000474808F0EDFE00F05ABF434B1B685B78CE
:10439000012B04D14349424808F0E2FE08E03E4BBD
:1043A0001B685B78002B03D146493D4808F0D8FED6
:1043B000394B1B689B78012B05D13E49384808F0E2
:1043C000CFFE00F0FBBE344B1B689B78002B40F007
:1043D000F5863D49324808F0C3FE00F0EFBE2E4B93
:1043E0001B685B78012B04D12F492D4808F0B8FEDB
:1043F00008E0294B1B685B78002B03D13349284820
:1044000008F0AEFE244B1B689B78012B05D12A498E
:10441000234808F0A5FE00F0D3BE1F4B1B689B7815
:10442000002B40F0CD862A491D4808F099FE00F087
:10443000C7BE194B1B685B781BB21B021AB2164B26
:104440001B689B781BB213431BB2A7F80232124BB6
:104450001B68DB781BB21B021AB20F4B1B681B795F
:104460001BB213431BB2A7F80032B7F80222B7F809
:1044700000323846174908F0EBFF3B46194608481A
:1044800008F06EFE044B1B685B79012B24D10549B3
:10449000034808F065FE28E0EC00002070F70008F3
:1044A000D041002084F700089CF70008B8F7000806
:1044B000D4F70008E8F7000800F800081CF8000826
:1044C00038F800086CF8000888F80008A4F800081C
:1044D000C4F80008E4F80008A14B1B685B79002BC6
:1044E00003D1A049A04808F03BFE9D4B1B689B7977
:1044F000012B04D19D499C4808F032FE08E0984BFE
:104500001B689B79002B03D19949974808F028FE36
:10451000934B1B68DB79012B04D19649924808F034
:104520001FFE08E08E4B1B68DB79002B03D19249FC
:104530008D4808F015FE8A4B1B681B7A012B05D1AC
:104540008E49894808F00CFE00F03CBE844B1B6885
:104550001B7A002B40F036868949834808F000FE1C
:1045600000F030BE7E4B1B685B781A467C4B1B68A4
:104570009B781B021A437A4B1B68DB781B041A4397
:10458000774B1B681B791B061343C7F81032744B1B
:104590001B685B791AB2724B1B689B791BB21B02BA
:1045A0001BB213431BB2A7F80E32B7F80E323846CF
:1045B000D7F81022734908F04BFF3B4619466A486A
:1045C00008F0CEFD00F03BBE654B1B685B78002B0E
:1045D00014BF0123002387F80632614B1B689B78C8
:1045E000002B14BF0123002387F8053297F8063209
:1045F000002B04D064495C4808F0B2FD0AE097F84B
:10460000063283F00103DBB2002B03D05F4956482A
:1046100008F0A6FD97F80532002B05D05C495248FA
:1046200008F09EFD00F0D0BD97F8053283F001033D
:10463000DBB2002B00F0C88556494B4808F090FDCE
:1046400000F0C2BD464B1B685B781A46444B1B68A2
:104650009B781B021A43424B1B68DB781B041A43EE
:104660003F4B1B681B791B061343C7F830323C4B8A
:104670001B685B791A463A4B1B689B791B021A43ED
:10468000374B1B68DB791B041A43354B1B681B7ABD
:104690001B061343C7F82C32314B1B685B7A1A4652
:1046A0002F4B1B689B7A1B021A432D4B1B68DB7A2E
:1046B0001B041A432A4B1B681B7B1B061343C7F8BA
:1046C0002832D7F8303207EE903AB8EEE77ADFEDCD
:1046D000326AC7EE267AC7ED897AD7F82C3207EE10
:1046E000903AB8EEE77ADFED2C6AC7EE267AC7ED8E
:1046F000887AD7F8283207EE903AB8EEE77ADFEDFD
:10470000266AC7EE267AC7ED877A07F5F673022187
:10471000184697ED890A00F099FD07F5EE7302211E
:10472000184697ED880A00F091FD07F5E67302211F
:10473000184697ED870A00F089FD07F5EE7107F539
:10474000F672384607F5E67300930B46134908F0F6
:104750007FFE3B461946044808F002FD00F06FBD9D
:10476000EC0000206CF80008D0410020E8F70008B9
:1047700088F800089CF70008A4F8000800F8000872
:10478000C4F8000818F9000838F9000864F90008AE
:1047900094F90008C0F9000800007A44F0F9000814
:1047A000464B1B685B7B1A46444B1B689B7B1B027A
:1047B0001A43424B1B68DB7B1B041A433F4B1B68AD
:1047C0001B7C1B061343C7F848323C4B1B685B7CC1
:1047D0001A463A4B1B689B7C1B021A43374B1B68DB
:1047E000DB7C1B041A43354B1B681B7D1B061343E4
:1047F000C7F84432314B1B685B7D1A462F4B1B6850
:104800009B7D1B021A432D4B1B68DB7D1B041A4347
:104810002A4B1B681B7E1B061343C7F84032D7F890
:10482000483207EE903AB8EEE77ADFED256AC7EE38
:10483000267AC7ED8F7AD7F8443207EE903AB8EE71
:10484000E77ADFED1F6AC7EE267AC7ED8E7AD7F8D2
:10485000403207EE903AB8EEE77ADFED196AC7EE1C
:10486000267AC7ED8D7A07F5DE730221184697ED9B
:104870008F0A00F0EBFC07F5D6730221184697ED7E
:104880008E0A00F0E3FC07F5CE730221184697ED7F
:104890008D0A00F0DBFC07F5D67107F5DE723846AD
:1048A00007F5CE7300930B46064908F0D1FD3B4651
:1048B0001946054808F054FC00F0C1BCEC0000208B
:1048C00000007A4424FA0008D0410020C24B1B6843
:1048D0005B781A46C04B1B689B781B021A43BE4B81
:1048E0001B68DB781B041A43BB4B1B681B791B0638
:1048F0001343C7F87832B84B1B685B791A46B64B3E
:104900001B689B791B021A43B34B1B68DB791B04A2
:104910001A43B14B1B681B7A1B061343C7F874324A
:10492000AD4B1B685B7A1A46AB4B1B689B7A1B022C
:104930001A43A94B1B68DB7A1B041A43A64B1B685E
:104940001B7B1B061343C7F87032A34B1B685B7BB2
:104950001A46A14B1B689B7B1B021A439E4B1B688C
:10496000DB7B1B041A439C4B1B681B7C1B061343FD
:10497000C7F86C32984B1B685B7C1A46964B1B68D9
:104980009B7C1B021A43944B1B68DB7C1B041A4361
:10499000914B1B681B7D1B061343C7F868328E4B77
:1049A0001B685B7D1A468C4B1B689B7D1B021A4360
:1049B000894B1B68DB7D1B041A43874B1B681B7EDE
:1049C0001B061343C7F86432D7F8783207EE903AE3
:1049D000B8EEE77ADFED816AC7EE267AC7ED987AFE
:1049E000D7F8743207EE903AB8EEE77ADFED7B6ADB
:1049F000C7EE267AC7ED977AD7F8703207EE903A6D
:104A0000B8EEE77ADFED756AC7EE267AC7ED967ADB
:104A1000D7F86C3207EE903AB8EEE77ADFED6F6ABE
:104A2000C7EE267AC7ED957AD7F8683207EE903A46
:104A3000B8EEE77ADFED696AC7EE267AC7ED947AB9
:104A4000D7F8643207EE903AB8EEE77ADFED636AA2
:104A5000C7EE267AC7ED937A07F5C673022118468A
:104A600097ED980A00F0F2FB07F5BE730221184695
:104A700097ED970A00F0EAFB07F5B6730221184696
:104A800097ED960A00F0E2FB07F5BE7107F5C672D6
:104A9000384607F5B67300930B46514908F0D8FC29
:104AA0003B4619464F4808F05BFB07F5AE73022101
:104AB000184697ED950A00F0C9FB07F5A673022189
:104AC000184697ED940A00F0C1FB07F59E7302218A
:104AD000184697ED930A00F0B9FB07F5A67107F5A4
:104AE000AE72384607F59E7300930B463E4908F0B8
:104AF000AFFC3B4619463B4808F032FB9FE3364B80
:104B00001B685B781A46344B1B689B781B021A4360
:104B1000314B1B68DB781B041A432F4B1B681B7936
:104B20001B061343C7F88032D7F8803207EE903A5D
:104B3000B8EEE77ADFED296AC7EE267AC7ED9F7AED
:104B400007F596730221184697ED9F0A00F07EFB49
:104B500007F596723B462549184608F079FC3B4616
:104B60001946204808F0FCFA69E31B4B1B685B7987
:104B70001A46194B1B689B791B021A43164B1B687C
:104B8000DB791B041A43144B1B681B7A1B06134367
:104B9000C7F88832D7F8883207EE903AB8EEE77A4D
:104BA000DFED0E6AC7EE267AC7EDA17A07F58E73A0
:104BB0000221184697EDA10A00F048FB07F58E7216
:104BC0003B460B49184608F043FC3B46194605484E
:104BD00008F0C6FA33E300BFEC00002000007A447E
:104BE000F0F90008D041002024FA000858FA000823
:104BF00070FA0008BF4B1B685B7A1A46BD4B1B68F6
:104C00009B7A1B021A43BB4B1B68DB7A1B041A43BB
:104C1000B84B1B681B7B1B061343C7F89032D7F8B1
:104C2000903207EE903AB8EEE77ADFEDB36AC7EE5E
:104C3000267AC7EDA37A07F586730221184697ED09
:104C4000A30A00F003FB07F586723B46AB49184602
:104C500008F0FEFB3B461946A94808F081FAEEE24F
:104C6000A44B1B685B781A46A24B1B689B781B02FF
:104C70001A43A04B1B68DB781B041A439D4B1B682F
:104C80001B791B061343C7F8A8329A4B1B685B7944
:104C90001A46984B1B689B791B021A43954B1B685D
:104CA000DB791B041A43934B1B681B7A1B061343C7
:104CB000C7F8A4328F4B1B685B7A1A468D4B1B6872
:104CC0009B7A1B021A438B4B1B68DB7A1B041A432B
:104CD000884B1B681B7B1B061343C7F8A032D7F811
:104CE000A83207EE903AB8EEE77ADFED836AC7EEB6
:104CF000267AC7EDA77AD7F8A43207EE903AB8EE35
:104D0000E77ADFED7D6AC7EE267AC7EDA67AD7F897
:104D1000A03207EE903AB8EEE77ADFED776AC7EE99
:104D2000267AC7EDA57A07F1FC030221184697ED14
:104D3000A70A00F08BFA07F1EC030221184697ED61
:104D4000A60A00F083FA07F1DC030221184697ED6A
:104D5000A50A00F07BFA07F1EC0107F1FC023846E6
:104D600007F1DC0300930B46664908F071FB3B46F4
:104D70001946634808F0F4F961E25E4B1B685B7802
:104D80001A465C4B1B689B781B021A43594B1B68E5
:104D9000DB781B041A43574B1B681B791B06134314
:104DA000C7F8C032534B1B685B791A46514B1B68DE
:104DB0009B791B021A434F4B1B68DB791B041A4378
:104DC0004C4B1B681B7A1B061343C7F8BC32494B7C
:104DD0001B685B7A1A46474B1B689B7A1B021A4377
:104DE000444B1B68DB7A1B041A43424B1B681B7B3A
:104DF0001B061343C7F8B832D7F8C03207EE903A13
:104E0000B8EEE77ADFED406AC7EE267AC7EDAD7AF5
:104E1000D7F8BC3207EE903AB8EEE77ADFED3A6A9F
:104E2000C7EE267AC7EDAC7AD7F8B83207EE903ADB
:104E3000B8EEE77ADFED346AC7EE267AC7EDAB7AD3
:104E400007F1CC030221184697EDAD0A00F0FEF9F8
:104E500007F1BC030221184697EDAC0A00F0F6F901
:104E600007F1AC030221184697EDAB0A00F0EEF90A
:104E700007F1BC0107F1CC02384607F1AC030093FF
:104E80000B46224908F0E4FA3B4619461C4808F054
:104E900067F9D4E1174B1B689B7887F8C53297F800
:104EA000C532002B04D11A49154808F059F98DE193
:104EB00097F8C532012B40F089811649104808F057
:104EC0004FF983E10B4B1B689B7887F8C73297F843
:104ED000C732012B35D1074B1B685B7887F8C63288
:104EE00097F8C632012B19D10B49054808F038F95B
:104EF0006EE100BFEC00002000007A4488FA000850
:104F0000D04100209CFA000800247449D8FA000817
:104F100004FB000828FB000854FB000897F8C63281
:104F2000022B04D1AC49AD4808F01AF950E197F8CA
:104F3000C632042B40F04C81A949A84808F010F96A
:104F400046E197F8C732002B40F04281A549A348BB
:104F500008F006F93CE1A44B1B685B781BB21B020E
:104F60001AB2A14B1B689B781BB213431BB29BB2B6
:104F700007EE903AB8EEE77ADFED9C6AC7EE267A44
:104F8000C7EDB27A07F19C030221184697EDB20AE9
:104F900000F05CF907F19C023B469549184608F081
:104FA00057FA3B4619468D4808F0DAF847E18E4B30
:104FB0001B685B781BB21B021AB28B4B1B689B7879
:104FC0001BB213431BB29BB207EE903AB8EEE77ADE
:104FD000DFED866AC7EE267AC7EDB37A07F18C0358
:104FE0000221184697EDB30A00F030F907F18C0260
:104FF0003B468049184608F02BFA3B46194677484D
:1050000008F0AEF81BE1784B1B685B7C87F8073231
:1050100097F80732002B04D17749704808F0A0F8C0
:10502000D8E097F80732012B40F0D48073496B48E1
:1050300008F096F8CEE06C4B1B685B7887F80C3272
:1050400097F80C32012B21D1674B1B689B7B1A46CA
:10505000654B1B68DB7B1B021A43634B1B681B7C85
:105060001B041A43604B1B685B7C1B061343C7F889
:1050700008323B46D7F808226149184608F0E8F99B
:105080003B461946554808F06BF8D8E05D4953484F
:1050900008F066F8D3E0544B1B689B7887F80D3214
:1050A00097F80D32002B04D157494C4808F058F8B6
:1050B000C4E097F80D32012B40F0C08053494748B7
:1050C00008F04EF8BAE0524B01221A70012101207B
:1050D00007F0C4F8B3E0444B1B685B78002B14BFA7
:1050E0000123002387F81B323F4B1B689B78002B62
:1050F00014BF0123002387F81A323B4B1B68DB786F
:10510000002B14BF0123002387F81932364B1B688C
:105110001B79002B14BF0123002387F81832324B70
:105120001B685B79002B14BF0123002387F817321B
:1051300097F81B32002B04D03649284808F010F8A5
:1051400003E03549254808F00BF897F81A32002B90
:1051500004D03249214808F003F803E030491F48E1
:1051600007F0FEFF97F81932002B04D02D491B4899
:1051700007F0F6FF03E02C49184807F0F1FF97F815
:105180001832002B04D02949144807F0E9FF03E046
:105190002749124807F0E4FF97F81732002B04D094
:1051A00024490E4807F0DCFF49E023490B4807F08B
:1051B000D7FF44E000BF42E000BF40E000BF3EE058
:1051C00000BF3CE000BF3AE000BF38E000BF36E07F
:1051D00000BF34E000BF32E074FB0008D041002083
:1051E00094FB0008B4FB0008EC0000200000C8425B
:1051F000D8FB0008F4FB000810FC000828FC00089D
:1052000048FC000864FC00087CFC00089CFC0008CA
:10521000DD020020C0FC0008D8FC0008F0FC0008FB
:1052200008FD000824FD000840FD00085CFD0008A2
:1052300074FD000890FD0008A8FD000800BF00BF35
:1052400000BF184607F53477BD4680BD80B58EB0E7
:1052500000AF87ED030AB8600B46FB71D7ED037A08
:10526000F5EEC07AF1EE10FA0AD5BB685A1CBA60A6
:105270002D221A70D7ED037AF1EE677AC7ED037A23
:10528000FB7907EE903AF8EE677AF0EE670AB2EE35
:10529000040A08F09DFDB0EE407AF6EE006AC6EE14
:1052A000877A97ED037A77EE277AC7ED037AD7ED01
:1052B000037AFCEEE77A17EE903A7B637B6B07EE9E
:1052C000903AF8EE677A97ED037A77EE677AC7ED52
:1052D0000C7A0023FB627B6B002B22D1FB6A5A1CE9
:1052E000FA6238333B44302203F8242C1CE0796BFB
:1052F000334BA3FB0123DA0813469B0013445B00E6
:10530000CA1AD2B2FB6A591CF9623032D2B23833AF
:105310003B4403F8242C7B6B294AA2FB0323DB08C4
:105320007B637B6B002BE2D1FB6A013BBB620BE032
:10533000BB685A1CBA6007F11401BA6A0A441278B1
:105340001A70BB6A013BBB62BB6A002BF0DAFB79C7
:10535000002B2DD0BB685A1CBA602E221A7024E094
:10536000D7ED0C7AB2EE047A67EE877AC7ED0C7A45
:10537000D7ED0C7AFCEEE77A17EE903A7B627B6A07
:10538000DAB2BB68591CB9603032D2B21A707B6A8B
:1053900007EE903AF8EE677A97ED0C7A77EE677A37
:1053A000C7ED0C7AFB79013BFB71FB79002BD7D160
:1053B000BB6800221A7000BF3837BD4680BD00BFF1
:1053C000CDCCCCCC80B584B004AF802303938023B4
:1053D0000293124B0193124B00933423114A12494A
:1053E000124807F044FE124B124A5A60104B8022BA
:1053F0001A800F4B00221A810D4B1B88002B06D000
:105400000B4B5B6804220021184608F05DF802206F
:1054100006F018FC00BFBD4680BD00BF2C4F002029
:10542000AC4E0020004C0040C4FD0008404E00205F
:10543000B4510020C051002080B584B000AF786026
:105440000023FB733223FB7347E02A4807F054FE26
:105450000346DAB2284B9A72274B9B7ADBB2CA2BEF
:1054600003D1254B00221A8134E0234B9B7ADBB217
:10547000EF2B14D1204B5B681F4A128992B2D1B234
:105480001E4A184606F024FD0346BB73BB7B012B66
:1054900001D1FEF7B1FE184B00221A811AE0164B1B
:1054A0005B68154A128992B21344134A927AD2B2B7
:1054B0001A70114B1B899BB201339AB20E4B1A81A1
:1054C0000D4B1B899AB20C4B1B889A4202D90A4B8E
:1054D00000221A81FB7B013BFB73064807F076FE36
:1054E0000346002B02D0FB7B002BAED100BF103750
:1054F000BD4680BD404E0020B4510020B050002079
:1055000080B584B000AF03460A46FB711346BB71F9
:10551000BA79FB791146184603F0CCFE04F0A0FDE1
:10552000322003F075F900F04BF90346FB8104F0DB
:1055300009F804F0A7FDFB8918461037BD4680BD69
:1055400080B596B000AF78608E4B1B78042B00F2CC
:10555000138101A252F823F06D5500089D560008F2
:1055600089550008FF550008B956000803F0EAFF06
:1055700004F088FD844B00221A70844B00221A80AC
:10558000042006F0B1FEF8E0814B1B6801221A707E
:105590007D4B1B781A467F4B33F812301B0A9AB2A8
:1055A0007B4B1B68D2B25A70774B1B781A46794BEB
:1055B00033F81220764B1B68D2B29A70032000F0A9
:1055C0009FF9734B1B6803221A70714B1B680122F1
:1055D0005A706F4B1B6800229A70032000F090F9FC
:1055E0006D4B42F210721A60664B03221A70684BC0
:1055F0001B6810221A70012000F082F9BDE0664B92
:105600001B68002B40F0BA80634B4FF47A721A602B
:105610005D4B1B781A465F4B33F8123007EE903A19
:10562000F8EEE77A9FED5D7A67EE877AC7ED147A38
:10563000554B1B781A46574B33F8123007EE903A09
:10564000F8EEE77A9FED567A67EE877AC7ED137A20
:10565000544B1B8807EE903AF8EEE77A97ED147AF0
:10566000B4EEE77AF1EE10FA0CDC4E4B1B8807EE35
:10567000903AF8EEE77A97ED137AB4EEE77AF1EE26
:1056800010FA07D5424B1B6810221A70012000F057
:1056900037F972E03B4B01221A706EE0424B1B78E7
:1056A000414A52781146184603F004FE04F0D8FC33
:1056B000344B04221A7060E000F082F80346A7F829
:1056C0005630324B1B881A46384B33F81230B7F835
:1056D00056209A4213D92C4B1B78032B0FD82A4BF8
:1056E0001B780133DAB2284B1A70284B1B88013320
:1056F0009AB2264B1A80234B02221A703FE0224BAB
:105700001B78032B0ED9294B1B89B7F856209A42D8
:1057100008D9B7F8562007F10C032549184607F0B9
:1057200097FE07E0B7F8562007F10C032149184609
:1057300007F08EFE07F10C0319461F4807F010FD15
:10574000134B1B6804221A70114B1B6801225A70FC
:105750000F4B1B6800229A70032000F0D1F8094B10
:1057600000221A70154B00221A70074B00221A7083
:10577000064B00221A8002E000BF00E000BF58374D
:10578000BD4680BD415200204652002048520020B4
:10579000E8000020F4000020F00000206666663F6C
:1057A000CDCC8C3F4252002044520020000100200A
:1057B000D0FD0008FCFD0008D04100204052002030
:1057C00090B597B000AF07F12803282200211846B2
:1057D00007F07AFE3B4628220021184607F074FEA7
:1057E0004FF000037B650023A7F85030002387F8B3
:1057F000533042E0404803F0CFFA53EC102B97F8B7
:10580000534010461946FBF7E9F90246A300583306
:105810003B44303B1A60384803F096FA51EC100BC9
:1058200033A3D3E90023FAF7F7FE02460B4697F8B5
:10583000534010461946FBF7D1F90246A3005833EE
:105840003B44583B1A6097F853309B0058333B4415
:10585000303BD3ED007AF5EEC07AF1EE10FA07D8BE
:1058600097F853309B0058333B44303B234A1A602F
:1058700097F85330013387F8533097F85330092B9A
:10588000B8D9002387F852301CE097F852309B00BB
:1058900058333B44583BD3ED006A97F852309B0095
:1058A00058333B44303B93ED007AC6EE877A97ED50
:1058B000157A77EE277AC7ED157A97F852300133CB
:1058C00087F8523097F85230092BDED997ED157AC8
:1058D000F2EE046AC7EE267AFCEEE77A17EE903A0B
:1058E000A7F85030B7F8503018465C37BD4690BD29
:1058F0002682A3AAAAAA4040380000206F12833A49
:1059000080B58AB000AF0346FB711F4BCA221A70E4
:105910001E4B1A781C4B5A701B4B01229A701A4A64
:10592000FB79D370184B07221A71174BEF2283F8BB
:105930000021154BDB780433DBB21A4614490020F2
:1059400006F044F903461A460F4BA3F8FE2007F170
:105950000C0300221A605A609A60DA601A615A6178
:105960001A7607F10B0207F10C031946064806F0F8
:1059700079F9FA7A07F10C031946064807F008FC92
:1059800000BF2837BD4680BDAC4F002024BB00209F
:10599000AD4F0020404E002080B485B000AF78604D
:1059A0007B6803F00703FB600C4BDB68BB60BA68E5
:1059B0004FF6FF031340BB60FB681A02BB6813433A
:1059C00043F0BF6343F40033BB60044ABB68D36059
:1059D00000BF1437BD465DF8047B704700ED00E062
:1059E00080B400AF044BDB681B0A03F007031846C2
:1059F000BD465DF8047B704700ED00E080B483B0E5
:105A000000AF0346FB7197F90730002B0BDBFB79E6
:105A100003F01F02074997F907305B09012000FADC
:105A200002F241F8232000BF0C37BD465DF8047B2D
:105A3000704700BF00E100E080B483B000AF0346D0
:105A40003960FB7197F90730002B0ADB3B68DAB24B
:105A50000C4997F907301201D2B20B4483F80023A6
:105A60000AE03B68DAB20849FB7903F00F03043B14
:105A70001201D2B20B441A7600BF0C37BD465DF856
:105A8000047B704700E100E000ED00E080B489B0E5
:105A900000AFF860B9607A60FB6803F00703FB6150
:105AA000FB69C3F10703042B28BF0423BB61FB6917
:105AB0000433062B02D9FB69033B00E000237B6122
:105AC0004FF0FF32BB6902FA03F3DA43BB681A40B6
:105AD0007B699A404FF0FF317B6901FA03F3D943A8
