:020000040800F2
:100000000000022051720008B5700008BD700008A1
:10001000C5700008CD700008D57000080000000011
:10002000000000000000000000000000DD7000087B
:10003000EB70000800000000F9700008097100086A
:10004000A1720008A1720008A1720008A172000844
:10005000A1720008A172000835710008A1720008A1
:10006000A1720008A1720008A1720008A172000824
:10007000A1720008A17200085371000861710008A4
:10008000A1720008A1720008A1720008A172000804
:10009000A1720008A1720008A1720008A1720008F4
:1000A000A1720008A1720008A1720008A1720008E4
:1000B000A1720008A17200086F710008A172000807
:1000C000A1720008A1720008A1720008A1720008C4
:1000D000A1720008A1720008A17200087D710008D9
:1000E000A1720008A1720008A1720008A1720008A4
:1000F000A1720008A1720008A1720008A172000894
:10010000A1720008A1720008A1720008A172000883
:1001100091710008A1720008A1720008A172000884
:10012000A5710008F1A30008A1720008B1710008D0
:10013000319900080000000000000000A1720008D2
:10014000A1720008A1720008A1720008A172000843
:10015000F5980008A172000831A40008A1720008F7
:10016000A1720008A1720008A1720008A172000823
:10017000A1720008A1720008000000000000000049
:08018000A1720008A172000841
:1001900010B5054C237833B9044B13B10448AFF3C1
:1001A00000800123237010BDB80100200000000072
:1001B00010E8000808B5034B1BB103490348AFF32F
:1001C000008008BD00000000BC01002010E800080D
:1001D00010F8012B11F8013B012A28BF9A42F7D0F1
:1001E000D01A7047034613F8012B002AFBD1181AC6
:1001F000013870470000000000000000000000000F
:1002000001F0FF01102A2BDB10F0070F08D010F8C7
:10021000013B013A8B422DD010F0070F42B3F6D1CB
:10022000F0B441EA012141EA014122F007047FF0E4
:1002300000070023F0E80256083C85EA010586EA3B
:10024000010685FA47F5A3FA87F586FA47F6A5FA77
:1002500087F68EB9EED1F0BC01F0FF0102F0070283
:1002600032B110F8013B013A83EA010313B1F8D12E
:100270000020704701387047002D06BF354603380F
:10028000073815F0010F07D1013015F4807F02BF48
:10029000013015F4C03F0130F0BC0138704700BF99
:1002A00081F0004102E000BF83F0004330B54FEA27
:1002B00041044FEA430594EA050F08BF90EA020F94
:1002C0001FBF54EA000C55EA020C7FEA645C7FEA27
:1002D000655C00F0E2804FEA5454D4EB5555B8BF4A
:1002E0006D420CDD2C4480EA020281EA030382EABB
:1002F000000083EA010180EA020281EA0303362D4D
:1003000088BF30BD11F0004F4FEA01314FF4801C1F
:100310004CEA113102D0404261EB410113F0004F31
:100320004FEA03334CEA133302D0524263EB4303E8
:1003300094EA050F00F0A780A4F10104D5F1200E86
:100340000DDB02FA0EFC22FA05F2801841F10001E1
:1003500003FA0EF2801843FA05F359410EE0A5F1B5
:1003600020050EF1200E012A03FA0EFC28BF4CF0E6
:10037000020C43FA05F3C01851EBE37101F000459C
:1003800007D54FF0000EDCF1000C7EEB00006EEBA9
:100390000101B1F5801F1BD3B1F5001F0CD3490833
:1003A0005FEA30004FEA3C0C04F101044FEA44528A
:1003B00012F5800F80F09A80BCF1004F08BF5FEA11
:1003C000500C50F1000041EB045141EA050130BDF1
:1003D0005FEA4C0C404141EB0101013C28BFB1F503
:1003E000801FE9D291F0000F04BF01460020B1FA4E
:1003F00081F308BF2033A3F10B03B3F120020CDA21
:100400000C3208DD02F1140CC2F10C0201FA0CF0FE
:1004100021FA02F10CE002F11402D8BFC2F1200C63
:1004200001FA02F120FA0CFCDCBF41EA0C01904019
:10043000E41AA2BF01EB0451294330BD6FEA040462
:100440001F3C1CDA0C340EDC04F11404C4F120024D
:1004500020FA04F001FA02F340EA030021FA04F35F
:1004600045EA030130BDC4F10C04C4F1200220FAB6
:1004700002F001FA04F340EA0300294630BD21FAF4
:1004800004F0294630BD94F0000F83F4801306BFBA
:1004900081F480110134013D4EE77FEA645C18BFAE
:1004A0007FEA655C29D094EA050F08BF90EA020F45
:1004B00005D054EA000C04BF1946104630BD91EA3D
:1004C000030F1EBF0021002030BD5FEA545C05D140
:1004D0004000494128BF41F0004130BD14F580047F
:1004E0003CBF01F5801130BD01F0004545F0FE41F3
:1004F00041F470014FF0000030BD7FEA645C1ABF28
:10050000194610467FEA655C1CBF0B46024650EA5E
:10051000013406BF52EA033591EA030F41F400218A
:1005200030BD00BF90F0000F04BF0021704730B510
:100530004FF4806404F132044FF000054FF00001E5
:1005400050E700BF90F0000F04BF0021704730B5A6
:100550004FF4806404F1320410F0004548BF40427B
:100560004FF000013EE700BF42004FEAE2014FEAD0
:1005700031014FEA02701FBF12F07F4393F07F4FAB
:1005800081F06051704732F07F4208BF704793F0AE
:100590007F4F04BF41F40021704730B54FF46074C1
:1005A00001F0004521F000411CE700BF50EA0102C4
:1005B00008BF704730B54FF000050AE050EA01026D
:1005C00008BF704730B511F0004502D5404261EBDD
:1005D00041014FF4806404F132045FEA915C3FF41E
:1005E000D8AE4FF003025FEADC0C18BF03325FEABB
:1005F000DC0C18BF033202EBDC02C2F1200300FA6C
:1006000003FC20FA02F001FA03FE40EA0E0021FA90
:1006100002F11444BDE600BF70B54FF0FF0C4CF47E
:10062000E06C1CEA11541DBF1CEA135594EA0C0F30
:1006300095EA0C0F00F0DEF82C4481EA030621EA6B
:100640004C5123EA4C5350EA013518BF52EA0335A6
:1006500041F4801143F4801338D0A0FB02CE4FF058
:100660000005E1FB02E506F00042E0FB03E54FF088
:100670000006E1FB03569CF0000F18BF4EF0010E80
:10068000A4F1FF04B6F5007F64F5407404D25FEA7C
:100690004E0E6D4146EB060642EAC62141EA55512F
:1006A0004FEAC52040EA5E504FEACE2EB4F1FD0C71
:1006B00088BFBCF5E06F1ED8BEF1004F08BF5FEAEF
:1006C000500E50F1000041EB045170BD06F00046A1
:1006D00046EA010140EA020081EA0301B4EB5C044E
:1006E000C2BFD4EB0C0541EA045170BD41F4801146
:1006F0004FF0000E013C00F3AB8014F1360FDEBF6B
:10070000002001F0004170BDC4F10004203C35DA46
:100710000C341BDC04F11404C4F1200500FA05F3C9
:1007200020FA04F001FA05F240EA020001F000426A
:1007300021F0004110EBD37021FA04F642EB0601E0
:100740005EEA430E08BF20EAD37070BDC4F10C040A
:10075000C4F1200500FA04F320FA05F001FA04F2CE
:1007600040EA020001F0004110EBD37041F10001BA
:100770005EEA430E08BF20EAD37070BDC4F12005C5
:1007800000FA05F24EEA020E20FA04F301FA05F22D
:1007900043EA020321FA04F001F0004121FA04F2D5
:1007A00020EA020000EBD3705EEA430E08BF20EAA5
:1007B000D37070BD94F0000F0FD101F000464000DF
:1007C00041EB010111F4801F08BF013CF7D041EA61
:1007D000060195F0000F18BF704703F00046520065
:1007E00043EB030313F4801F08BF013DF7D043EA36
:1007F0000603704794EA0C0F0CEA135518BF95EAEC
:100800000C0F0CD050EA410618BF52EA4306D1D172
:1008100081EA030101F000414FF0000070BD50EA91
:10082000410606BF1046194652EA430619D094EA1B
:100830000C0F02D150EA013613D195EA0C0F05D105
:1008400052EA03361CBF104619460AD181EA030159
:1008500001F0004141F0FE4141F470014FF0000011
:1008600070BD41F0FE4141F4780170BD70B54FF0AC
:10087000FF0C4CF4E06C1CEA11541DBF1CEA13552C
:1008800094EA0C0F95EA0C0F00F0A7F8A4EB05040E
:1008900081EA030E52EA03354FEA013100F0888005
:1008A0004FEA03334FF0805545EA131343EA1263CE
:1008B0004FEA022245EA111545EA10654FEA002683
:1008C0000EF000419D4208BF964244F1FD0404F53C
:1008D000407402D25B084FEA3202B61A65EB030598
:1008E0005B084FEA32024FF480104FF4002CB6EB55
:1008F000020E75EB030E22BFB61A754640EA0C00D5
:100900005B084FEA3202B6EB020E75EB030E22BF14
:10091000B61A754640EA5C005B084FEA3202B6EB55
:10092000020E75EB030E22BFB61A754640EA9C0014
:100930005B084FEA3202B6EB020E75EB030E22BFE4
:10094000B61A754640EADC0055EA060E18D04FEAA2
:10095000051545EA16754FEA06164FEAC30343EA42
:1009600052734FEAC2025FEA1C1CC0D111F4801F0F
:100970000BD141EA00014FF000004FF0004CB6E708
:1009800011F4801F04BF01430020B4F1FD0C88BFA7
:10099000BCF5E06F3FF6AFAEB5EB030C04BFB6EBB2
:1009A000020C5FEA500C50F1000041EB045170BDA5
:1009B0000EF0004E4EEA113114EB5C04C2BFD4EBD2
:1009C0000C0541EA045170BD41F480114FF0000E56
:1009D000013C90E645EA060E8DE60CEA135594EAD2
:1009E0000C0F08BF95EA0C0F3FF43BAF94EA0C0FD5
:1009F0000AD150EA01347FF434AF95EA0C0F7FF44A
:100A000025AF104619462CE795EA0C0F06D152EA9D
:100A100003353FF4FDAE1046194622E750EA410681
:100A200018BF52EA43067FF4C5AE50EA41047FF492
:100A30000DAF52EA43057FF4EBAE12E74FF0FF3CF7
:100A400006E000BF4FF0010C02E000BF4FF0010CC8
:100A50004DF804CD4FEA410C7FEA6C5C4FEA430C41
:100A600018BF7FEA6C5C1BD001B050EA410C0CBF90
:100A700052EA430C91EA030F02BF90EA020F0020F2
:100A8000704710F1000F91EA030F58BF994208BF59
:100A900090422CBFD8176FEAE37040F00100704716
:100AA0004FEA410C7FEA6C5C02D150EA013C07D16D
:100AB0004FEA430C7FEA6C5CD6D152EA033CD3D0B8
:100AC0005DF8040B704700BF8446104662468C46B2
:100AD0001946634600E000BF01B5FFF7B7FF0028E5
:100AE00048BF10F1000F01BD4DF808EDFFF7F4FF0E
:100AF0000CBF012000205DF808FB00BF4DF808ED99
:100B0000FFF7EAFF34BF012000205DF808FB00BFBB
:100B10004DF808EDFFF7E0FF94BF012000205DF8DD
:100B200008FB00BF4DF808EDFFF7CEFF94BF012092
:100B300000205DF808FB00BF4DF808EDFFF7C4FF8B
:100B400034BF012000205DF808FB00BF4FEA4102DE
:100B500012F5001215D211D56FF47873B3EB62520F
:100B600012D94FEAC12343F0004343EA505311F036
:100B7000004F23FA02F018BF404270474FF00000C8
:100B8000704750EA013005D111F0004008BF6FF006
:100B9000004070474FF00000704700BF4A0011D27C
:100BA00012F5001211D20DD56FF47873B3EB6252C7
:100BB0000ED44FEAC12343F0004343EA505323FAD3
:100BC00002F070474FF00000704750EA013002D148
:100BD0004FF0FF3070474FF0000070474FEA41027E
:100BE000B2F1E04324BFB3F5001CDCF1FE5C0DD98B
:100BF00001F0004C4FEAC0024CEA5070B2F1004FD5
:100C000040EB830008BF20F00100704711F0804FD7
:100C100021D113F13872BCBF01F00040704741F49C
:100C200080114FEA5252C2F11802C2F1200C10FAA0
:100C30000CF320FA02F018BF40F001004FEAC12384
:100C40004FEAD32303FA0CFC40EA0C0023FA02F328
:100C50004FEA4303CCE77FEA625307D150EA0133FE
:100C60001EBF4FF0FE4040F44000704701F00040CE
:100C700040F0FE4040F40000704700BF53B94AB94D
:100C8000002908BF00281CBF4FF0FF314FF0FF3094
:100C900000F088B9ADF1080C6DE904CE00F006F85B
:100CA000DDF804E0DDE9022304B070472DE9F047E8
:100CB000089D8E4604468846002B4AD18A42174634
:100CC00062D9B2FA82F64EB1C6F1200301FA06F8F3
:100CD00020FA03F3B74043EA0808B4404FEA174E3E
:100CE0001FFA87FCB8FBFEF1230C0EFB118843EAC8
:100CF000084301FB0CF29A4209D9FB1801F1FF30BD
:100D000080F0EA809A4240F2E78002393B449A1A26
:100D1000A3B2B2FBFEF00EFB102243EA024300FB3B
:100D20000CFC9C4509D9FB1800F1FF3280F0D680FD
:100D30009C4540F2D3803B44023840EA0140A3EB9B
:100D40000C0300211DB1F3400022C5E90032BDE8CB
:100D5000F0878B4205D90DB1C5E900010021084695
:100D6000F5E7B3FA83F1002946D1734502D38242F5
:100D700000F20581841A6EEB030201209046002DDB
:100D8000E5D0C5E90048E2E7002A00F09080B2FA19
:100D900082F6002E40F0A4808A1A030C4FEA174E08
:100DA00080B2BCB20121B2FBFEFC0EFB1C2243EA66
:100DB000024304FB0CF29A4207D9FB180CF1FF38EE
:100DC00002D29A4200F2E080C4469B1AB3FBFEF2C4
:100DD0000EFB123340EA034302FB04F49C4207D9A2
:100DE000FB1802F1FF3002D29C4200F2CA80024698
:100DF0001B1B42EA0C40A5E7C1F120068B4022FAFA
:100E000006F71F430EFA01F420FA06F32EFA06FE47
:100E10004FEA1749234300FA01F81FFA87FCBEFB8B
:100E2000F9F01C0C09FB10EE44EA0E4400FB0CFE2A
:100E3000A64502FA01F209D93C1900F1FF3A80F007
:100E40009C80A64540F2998002383C44A4EB0E04F5
:100E50001FFA83FEB4FBF9F309FB13444EEA044482
:100E600003FB0CFCA44508D93C1903F1FF3E80F0BC
:100E70008280A4457FD9023B3C4443EA0040A4EB76
:100E80000C04A0FB02EC64457346E14662D35FD0DC
:100E90005DB1B8EB030264EB090404FA06F622FA2A
:100EA00001F31E43CC40C5E9006400214FE7B1FBCC
:100EB000F2FC010C41EA0E4180B240EA01423B469D
:100EC00038463C46B846BE462026B1FBF7F1A2EBB9
:100ED000080241EA0C4166E7014618E710462CE794
:100EE000C6F120022EFA02F3B740B14020FA02F216
:100EF0004FEA174E0A43B3FBFEF8BCB20EFB1833A1
:100F0000110C41EA034108FB04F9B04089454FEA5E
:100F1000104380B23ED9791808F1FF3C01D28945CF
:100F20001FD8A1EB0901B1FBFEF909FB04F80EFB88
:100F3000191192B242EA0142424529D2BA1809F186
:100F4000FF31C4D24245C2D2A9F102013A44BEE700
:100F5000F0459DD2BEEB02036CEB070C0138E14675
:100F600096E7A7EB09094944A8F1020CB1FBFEF989
:100F700009FB04F8DBE773467FE7504666E708465F
:100F8000FDE63B44023A33E7ACF1020C3B441CE77C
:100F900049469CE7A1EB0901C446B1FBFEF909FBF8
:100FA00004F8C4E7704700BF80B483B000AF786036
:100FB0007B681B6823F001027B681A6000BF0C3756
:100FC000BD465DF8047B7047B0B582B000AF08F055
:100FD00091FB09F02FF9124B00221A70114B0022DD
:100FE0001A70114B00221A700023FB710FE0FB797D
:100FF0000E4A5B0113440E4A1C4615460FCD0FC422
:1010000095E80F0084E80F00FB790133FB71FB7951
:10101000092BECD900BF00BF0837BD46B0BD00BFEB
:10102000140300201503002016030020D401002023
:1010300000000020B0B588B002AF7860B34B1B78D9
:10104000032B00F2758101A252F823F05D10000815
:1010500079100008C5120008F1120008AC4B0022FC
:101060001A70AC4B1B78012B02D1AA4B00221A70CC
:1010700001200BF011FA5EE1A54B1B78002B0ED17D
:10108000A44B1B78012B02D1A24B00221A70A2495B
:10109000A2480CF0BDF99D4B00221A704BE10023D1
:1010A000FB7509F0D9F808F04FFB0023FB75F9E058
:1010B000FB7D9B499B4A5B0113440C461D460FCDAB
:1010C0000FC495E80F0084E80F0000233B61002364
:1010D000FB600123BB60924B1879914B5979904B7F
:1010E0005B881A4613469B0013445B00013B1A467B
:1010F00008F0E7FA02463B6913443B61884B1879D4
:10110000874B5979864B9B891A4613469B0013449B
:101110005B00013B1C46824BDB891A4613469B0051
:1011200013445B00013B1A467D4B1B7A019301235C
:1011300000931346224608F073FA02463B691344B3
:101140003B61774B1879764B5979754B5B891A4619
:1011500013469B0013445B00013B1A4608F0B1FAAA
:1011600002463B6913443B616D4B58796C4B1979CE
:101170006B4B1B8A1A4613469B0013445B00013BD2
:101180001C46674B5B8A1A4613469B0013445B0060
:10119000013B1A46624B5B7A01930123009313468D
:1011A000224608F03DFA02463B6913443B613B6925
:1011B000013B3B615A4B1879594B5979584BDB88A5
:1011C0001A4613469B0013445B00013B1A4608F085
:1011D00078FA0246FB681344FB60514B1879504B78
:1011E00059794F4B1B8B1A4613469B0013445B00E7
:1011F000013B1C464A4B5B8B1A4613469B0013442B
:101200005B00013B1A46464B1B7D01930123009373
:101210001346224608F004FA0246FB681344FB60BA
:101220003F4B18793E4B59793D4BDB8A1A461346A2
:101230009B0013445B00013B1A4608F042FA024649
:10124000FB681344FB60364B5879354B1979344BA6
:101250009B8B1A4613469B0013445B00013B1C46C4
:101260002F4BDB8B1A4613469B0013445B00013B5C
:101270001A462B4B5B7D01930123009313462246B4
:1012800008F0CEF90246FB681344FB60FB68013BA3
:10129000FB60FB7DBA68F968386908F083FFFB7D65
:1012A0000133FB751A4B1B78FA7D9A42FFF400AFAD
:1012B00009F06AF808F0E6FA00F0DEF9134B0222B2
:1012C0001A7038E008F024FA0346002B32D0164892
:1012D000FFF76AFE08F00EFA08F0ACFF00F0DCF948
:1012E00012490E480CF094F8084B00221A7021E0C5
:1012F00008F044FA08F0CAFF08F0FCF908F09AFF79
:1013000000F0CAF9014B00221A7014E01503002006
:10131000140300201603002028E80008880B002092
:1013200018030020D40100200000014044E8000818
:1013300000BF00E000BF00BF1837BD46B0BD00BF12
:1013400080B500AF054807F075FE0549034807F072
:1013500082FE044B044A9A6000BF80BD3800002022
:10136000440000204C0000203803002080B483B0EB
:1013700000AF78607B681B6803F02003202B0CBF54
:1013800001230023DBB218460C37BD465DF8047B11
:10139000704780B483B000AF78607B6820229A6089
:1013A00000BF0C37BD465DF8047B704780B483B046
:1013B00000AF78607B681B6843F001027B681A60AD
:1013C00000BF0C37BD465DF8047B704780B483B026
:1013D00000AF78607B681B6823F001027B681A60AD
:1013E00000BF0C37BD465DF8047B704780B483B006
:1013F00000AF786039607B681B6823F070023B683F
:101400001A437B681A6000BF0C37BD465DF8047B49
:10141000704780B483B000AF786039607B683A6809
:101420005A6200BF0C37BD465DF8047B704780B43C
:1014300083B000AF786039607B683A689A6200BF19
:101440000C37BD465DF8047B704780B483B000AFB5
:10145000786039607B683A68DA6200BF0C37BD4655
:101460005DF8047B704780B483B000AF78607B6820
:101470006FF001021A6100BF0C37BD465DF8047BB6
:10148000704780B483B000AF78607B681B6903F05D
:101490000103012B01D1012300E0002318460C3782
:1014A000BD465DF8047B704780B483B000AF7860C0
:1014B0007B68DB6843F001027B68DA6000BF0C37B1
:1014C000BD465DF8047B704780B483B000AF7860A0
:1014D0007B68DB6823F001027B68DA6000BF0C37B1
:1014E000BD465DF8047B704780B500AF264807F025
:1014F000B2FA4FF400420021234807F01EFA4FF4DD
:1015000030420121204807F018FA48F201020B216D
:101510001D4807F012FA9FED101B9FED110B1A48A2
:1015200007F0AAFA9FED101B9FED0D0B164807F070
:10153000E3FA9FED0F1B9FED0A0B134807F038FBF2
:101540009FED0D0B104807F08FFB9FED0D0B0E4824
:1015500007F0BEFB00BF80BD00000000000024407B
:101560000000004008AC8C3F000000000000144068
:1015700000000000000014C0000000000060734084
:1015800000000000000000007000002000000000CB
:1015900080B582B000AF87ED010A0B4A7B68936388
:1015A0007868FEF7E1FF02460B4643EC112B9FEDF6
:1015B000040B064807F0A0FA00BF0837BD4680BDFF
:1015C0000000004008AC8C3F400B00207000002061
:1015D00080B582B000AF0C4807F0AEFB53EC102B87
:1015E00010461946FFF7FAFA03467B60D7ED017AF9
:1015F0009FED067AC7EE876AF0EE667AB0EE670A6C
:101600000837BD4680BD00BF700000204260653CC9
:1016100080B400AF034B93F83D301846BD465DF8EB
:10162000047B7047400B002080B500AF044807F0F2
:10163000FAFB044B002283F83D2000BF80BD00BFB1
:1016400070000020400B002080B500AF4721094802
:10165000FFF7EDFE31210748FFF7F7FE00210548AF
:10166000FFF7C4FE0348FFF7B1FE0248FFF72CFF67
:1016700000BF80BD0008004080B500AF00210548D4
:10168000FFF7C7FE0348FFF70FFF0248FFF78EFE84
:1016900000BF80BD0008004080B500AF0548FFF7DF
:1016A00095FE0448FFF710FF034B00221A8000BF8D
:1016B00080BD00BF00080040380B002080B483B01C
:1016C00000AF786000BF0C37BD465DF8047B704703
:1016D00080B500AF0E48FFF7D4FE0346002B15D0AF
:1016E0000B48FFF7C0FE0B4B1B78002B02D0012BE1
:1016F00006D00BE003220521074807F0A1FB05E017
:1017000003220721044807F09BFB00BF00BF80BDF8
:1017100000080040800B0020700000200000000046
:10172000B0B582B000AF4248FFF720FE0346002B61
:1017300073D03F48FFF72DFE3E4807F0EEF83E4BD2
:101740001B78002B02D0012B1FD062E0394807F034
:10175000BBFB51EC100B34A3D3E90023FEF75CFF75
:1017600002460B4610461946344B9C68334B9B6827
:10177000DB881D46FFF712FA03469AB2AB1C24F829
:1017800023202D4B01221A7047E02A4807F0C8FB9E
:1017900051EC100B294B9C68284B9B68DB881D463D
:1017A000FFF7FCF903469AB2AB1C9B0023445A8016
:1017B000224B9B68DA88013292B2DA801F4B9B6819
:1017C000DB88FD2B21D91D4B59681C4B9A684FF4BF
:1017D00080631B4807F06EFC184B9B689B880133A5
:1017E000FB80164B9B68174A934203D1134B164A52
:1017F0009A6002E0114B134A9A60104B9B680022DA
:10180000DA800E4B9B68FA889A800B4B00221A7084
:1018100003E0094B00221A7000BF00BF0837BD4625
:10182000B0BD00BFAFF30080BBD6DEA7AAAA404080
:101830000064024070000020800B00204C0000205B
:1018400038000020380300203807002080B500AFA2
:10185000064B03221A70064B012283F83D200549EE
:1018600005480BF0D5FD00BF80BD00BF150300206B
:10187000400B002060E80008880B002080B500AF16
:1018800002F082FC03F0B8FC08F0B8FBFFF79CFB09
:10189000FFF72AFEFFF7D8FEFFF752FD42F2107065
:1018A0000AF058FD0AF078FDFCE780B483B000AF81
:1018B000786000BF0C37BD465DF8047B70470000C0
:1018C00080B400AFBFF34F8F00BF064BDB6803F45B
:1018D000E0620449044B1343CB60BFF34F8F00BF5A
:1018E00000BFFDE700ED00E00400FA0580B586B01A
:1018F00000AFF860B9607A60B86809F0B9F80346DB
:10190000FB75FB7D012B04D82D49F86808F0ACFF6E
:1019100052E0FB7D022B04D92A49F86808F0A4FFA5
:101920004AE00121B86809F06DF8034618460BF04B
:1019300028FE03469BB23B820221B86809F062F898
:10194000034618460BF01DFE03469BB27B823B8A82
:10195000B3F5967F04D91C49F86808F085FF2BE0A1
:101960007B8A322B04D91849F86808F07DFF23E000
:10197000164B1B6800221A703B8A1B0A9AB2134B43
:101980001B68D2B25A703A8A104B1B68D2B29A7056
:101990007B8A1B0A9AB20D4B1B68D2B2DA707A8A24
:1019A0000A4B1B68D2B21A71052002F08FFB08495E
:1019B000F86808F059FF00BF1837BD4680BD00BF6A
:1019C00014F500082CF5000844F50008200100205B
:1019D0005CF5000880B586B000AFF860B9607A6049
:1019E000B86809F045F80346FB75FB7D002B04D170
:1019F0001D49F86808F038FF32E0FB7D012B04D95F
:101A00001A49F86808F030FF2AE00121B86808F0A8
:101A1000F9FF034618460BF0B4FD0346BB82BB8AB0
:101A2000B3F5967F04D91249F86808F01DFF17E056
:101A3000104B1B6801221A70BB8A1B0A9AB20D4B0D
:101A40001B68D2B25A700B4B1B68BA8AD2B29A701A
:101A5000032002F03BFB0849F86808F005FF00BFCF
:101A60001837BD4680BD00BF14F500082CF50008EE
:101A700044F50008200100205CF5000880B586B020
:101A800000AFF860B9607A60B86808F0F1FF03460B
:101A9000FB75FB7D002B04D11C49F86808F0E4FEBF
:101AA00031E0FB7D012B04D91949F86808F0DCFE10
:101AB00029E00121B86808F0A5FF034618460BF09D
:101AC00060FD0346BB82BB8A322B04D91149F868FA
:101AD00008F0CAFE17E0104B1B6802221A70BB8A7E
:101AE0001B0A9AB20C4B1B68D2B25A700A4B1B6885
:101AF000BA8AD2B29A70032002F0E8FA0749F8686D
:101B000008F0B2FE00BF1837BD4680BD14F50008CE
:101B10002CF5000844F50008200100205CF50008C1
:101B200080B586B000AFF860B9607A60B86808F038
:101B30009FFF0346FB75FB7D012B04D82449F86801
:101B400008F092FE41E0FB7D022B04D92149F868A0
:101B500008F08AFE39E00121B86808F053FF034617
:101B600018460BF00EFD0346DBB23B750221B86848
:101B700008F048FF034618460BF003FD0346DBB2AE
:101B80007B753B7D012B04D91349F86808F06CFE86
:101B90001BE07B7D012B04D90F49F86808F064FE37
:101BA00013E00E4B1B6803221A700C4B1B683A7D26
:101BB0005A700A4B1B687A7D9A70032002F086FAED
:101BC0000749F86808F050FE00BF1837BD4680BDD1
:101BD00014F500082CF5000844F500082001002049
:101BE0005CF5000880B586B000AFF860B9607A6037
:101BF000B86808F03DFF0346FB75FB7D012B04D858
:101C00002449F86808F030FE41E0FB7D022B04D93E
:101C10002149F86808F028FE39E00121B86808F089
:101C2000F1FE034618460BF0ACFC0346DBB23B75F5
:101C30000221B86808F0E6FE034618460BF0A1FC46
:101C40000346DBB27B753B7D012B04D91349F86851
:101C500008F00AFE1BE07B7D012B04D90F49F868D0
:101C600008F002FE13E00E4B1B6804221A700C4BA6
:101C70001B683A7D5A700A4B1B687A7D9A70032064
:101C800002F024FA0749F86808F0EEFD00BF1837A3
:101C9000BD4680BD14F500082CF5000844F5000889
:101CA000200100205CF5000880B586B000AFF86028
:101CB000B9607A60B86808F0DBFE0346FB75FB7D0F
:101CC000002B04D00D49F86808F0CEFD13E00C4B52
:101CD0001B6805221A700A4B1B6800225A70084BB9
:101CE0001B6801229A70032002F0F0F90549F86898
:101CF00008F0BAFD00BF1837BD4680BD2CF50008BE
:101D0000200100205CF5000880B586B000AFF860C7
:101D1000B9607A60B86808F0ABFE0346FB75FB7DDE
:101D2000002B04D00D49F86808F09EFD13E00C4B21
:101D30001B6805221A700A4B1B6801225A70084B57
:101D40001B6800229A70032002F0C0F90549F86868
:101D500008F08AFD00BF1837BD4680BD2CF500088D
:101D6000200100205CF5000880B586B000AFF86067
:101D7000B9607A60B86808F07BFE03467B617B69D6
:101D8000002B04D00949F86808F06EFD0BE0084B01
:101D90001B6807221A70012002F098F90549F868BB
:101DA00008F062FD00BF1837BD4680BD2CF5000865
:101DB000200100205CF5000880B586B000AFF86017
:101DC000B9607A60B86808F053FE03467B617B69AE
:101DD000002B04D00949F86808F046FD0BE0084BD9
:101DE0001B6809221A70012002F070F90549F86891
:101DF00008F03AFD00BF1837BD4680BD2CF500083D
:101E0000200100205CF5000880B586B000AFF860C6
:101E1000B9607A60B86808F02BFE03467B617B6985
:101E2000002B04D00949F86808F01EFD0BE0084BB0
:101E30001B6808221A70012002F048F90549F86869
:101E400008F012FD00BF1837BD4680BD2CF5000814
:101E5000200100205CF5000880B586B000AFF86076
:101E6000B9607A60B86808F003FE03467B617B695D
:101E7000002B04D00949F86808F0F6FC0BE0084B89
:101E80001B680A221A70012002F020F90549F8683F
:101E900008F0EAFC00BF1837BD4680BD2CF50008ED
:101EA000200100205CF5000880B586B000AFF86026
:101EB000B9607A60B86808F0DBFD03467B617B6936
:101EC000002B04D00949F86808F0CEFC0BE0084B61
:101ED0001B6806221A70012002F0F8F80549F8681C
:101EE00008F0C2FC00BF1837BD4680BD2CF50008C5
:101EF000200100205CF5000880B586B000AFF860D6
:101F0000B9607A60B86808F0B3FD03467B617B690D
:101F1000002B04D00949F86808F0A6FC0BE0084B38
:101F20001B680B221A70012002F0D0F80549F868EE
:101F300008F09AFC00BF1837BD4680BD2CF500089C
:101F4000200100205CF5000880B586B000AFF86085
:101F5000B9607A60B86808F08BFD03467B617B69E5
:101F6000002B04D00949F86808F07EFC0BE0084B10
:101F70001B6810221A70012002F0A8F80549F868C1
:101F800008F072FC00BF1837BD4680BD2CF5000874
:101F9000200100205CF5000880B596B000AFF86025
:101FA000B9607A60334B1B78002B04D03249F86853
:101FB00008F05AFC5BE0B86808F05AFD034687F861
:101FC000573097F85730012B04D82C49F86808F09F
:101FD0004BFC4CE097F85730022B04D92849F8689D
:101FE00008F042FC43E00121B86808F00BFD03460D
:101FF00018460BF0C6FA0346DBB287F850300221D0
:10200000B86808F0FFFC034618460BF0BAFA03461E
:10201000DBB287F8513097F85030013B194AD35C56
:1020200087F8563097F85130013B164AD35C87F851
:10203000553097F8552097F856301146184603F05A
:1020400079F90346A7F85230B7F8522007F1100388
:102050000D4918460BF054FB07F110031946F868B8
:1020600008F002FC0949F86808F0FEFB00BF583789
:10207000BD4680BD150300206CF5000814F500086E
:102080002CF500081401002090F500085CF500080C
:1020900080B588B000AFF860B9607A60B86808F0C1
:1020A000E7FC0346FB77FB7F012B04D83349F86834
:1020B00008F0DAFB5EE0FB7F022B04D93049F868B8
:1020C00008F0D2FB56E00121B86808F09BFC0346FB
:1020D00018460BF056FA0346DBB23B750221B8688E
:1020E00008F090FC034618460BF04BFA0346DBB2AF
:1020F0007B753B7D0B2B04D92249F86808F0B4FBB3
:1021000038E07B7D092B04D91E49F86808F0ACFB48
:1021100030E03B7D0B2B07D17B7D072B04D9194980
:10212000F86808F0A1FB25E03B7D002B07D17B7D03
:10213000002B04D11349F86808F096FB1AE03B7DA8
:1021400007EE903AB8EE677A7B7D07EE903AF8EEAC
:10215000677ADFED0D6A67EEA67A77EE277AC7ED2C
:10216000067A97ED060AFFF713FA0849F86808F0AF
:102170007BFB00BF2037BD4680BD00BF14F50008C3
:102180002CF5000844F50008CDCCCC3D5CF50008EA
:1021900080B596B000AFF860B9607A60B86808F0B2
:1021A00067FC034687F8573097F85730002B04D068
:1021B0001449F86808F058FB20E0FFF709FAF0EE40
:1021C000407A9FED117A67EE877AC7ED147AD7EDE2
:1021D000147AFDEEE77A07F1100317EE902A0B4907
:1021E00018460BF08DFA07F110031946F86808F04D
:1021F0003BFB0749F86808F037FB00BF5837BD467E
:1022000080BD00BF2CF5000800007A44A8F5000846
:102210005CF5000880B586B000AFF860B9607A6000
:10222000B86808F025FC0346FB75FB7D002B04D045
:102230000E49F86808F018FB14E0FFF7E9F90346C7
:10224000BB75BB7D002B04D00949F86808F00CFB76
:1022500003E00849F86808F007FB0749F86808F048
:1022600003FB00BF1837BD4680BD00BF2CF500083A
:10227000D0F50008F4F500085CF5000880B586B0DC
:1022800000AFF860B9607A60B86808F0F1FB034607
:10229000FB75FB7D002B04D00749F86808F0E4FAD1
:1022A00006E0FFF7C1F90549F86808F0DDFA00BF5C
:1022B0001837BD4680BD00BF2CF500085CF500084E
:1022C00080B5A6B000AFF860B9607A60B86808F071
:1022D000CFFB0346C7F89430D7F89430002B04DCCA
:1022E0003349F86808F0C0FA5FE0D7F89430012B62
:1022F00004DD3049F86808F0B7FA56E00121B86803
:1023000008F080FB034618460BF03BF9034687F8BC
:10231000933097F89330002B03D097F893300A2B23
:1023200004D92549F86808F09FFA3EE097F8932011
:10233000224B1B7802339A421FDD214B1B785A1C1B
:1023400097F8933007F110001E490BF0D9F907F107
:10235000100319461C480BF05BF8194B1B781A4602
:1023600007F11003194918460BF0CAF907F11003D9
:10237000194615480BF04CF817E097F89330013BDD
:10238000DAB20E4B1A700D4B1B78114A5B011344E5
:1023900001221A70094B1B780133DAB2084B1A700C
:1023A0000C49F86808F060FA00BF9837BD4680BD58
:1023B00014F500082CF5000844F50008810B0020F6
:1023C0001403002018F60008880B00204CF60008C3
:1023D000D40100205CF5000880B586B000AFF8603D
:1023E000B9607A60B86808F043FB03467B617B699B
:1023F000002B03D00D49F86808F036FA0C4B1B7817
:102400000C4A5B01134400221A70094B1B785A1EB8
:10241000D1B2074A1170084A13700849F86808F0E9
:1024200023FA00BF1837BD4680BD00BF44F5000841
:10243000810B0020D4010020140300205CF500086B
:1024400080B586B000AFF860B9607A60B86808F00F
:102450000FFB03467B617B69002B04D00D49F868B4
:1024600008F002FA13E00C4B1B780C4A5B01134492
:1024700000221A70084B1B78084A5B011344013391
:1024800001221A700649F86808F0EEF900BF183703
:10249000BD4680BD44F50008810B0020D40100201A
:1024A0005CF5000880B586B000AFF860B9607A606E
:1024B000B86808F0DDFA03467B617B69002B04DC19
:1024C0001A49F86808F0D0F92CE07B69012B04DD8B
:1024D0001749F86808F0C8F924E0164B1B78164A2B
:1024E0005B0113441B7883F00103DBB2002B18D18E
:1024F0000121B86808F086FA034618460BF041F847
:102500000346FB740B4B1B78FA7C91B20A4A5B01C1
:10251000134402330A461A800849F86808F0A4F9FF
:1025200000E000BF1837BD4680BD00BF14F50008AD
:102530002CF50008810B0020D40100205CF5000878
:1025400080B586B000AFF860B9607A60B86808F00E
:102550008FFA03467B617B69012B04DC2849F8680C
:1025600008F082F948E07B69022B04DD2549F86810
:1025700008F07AF940E00121B86808F043FA034610
:1025800018460AF0FEFF0346DBB23B740221B8682E
:1025900008F038FA034618460AF0F3FF0346DBB2A8
:1025A0007B74194B1B78194A5B0113441B7883F029
:1025B0000103DBB2002B1ED13B7C013B124A127897
:1025C0001046134AD15C114A4301134404330A46AE
:1025D0001A707B7C013B0C4A127810460C4AD15C85
:1025E0000A4A4301134405330A461A700949F86838
:1025F00008F03AF900E000BF1837BD4680BD00BFC3
:1026000014F500082CF50008810B0020D4010020EF
:10261000140100205CF5000880B58AB000AFF860B6
:10262000B9607A60B86808F023FA03467B627B6A77
:10263000032B04DC4049F86808F016F979E07B6A5E
:10264000042B04DD3D49F86808F00EF971E03C4BBD
:102650001B783C4A5B0113441B7883F00103DBB217
:10266000002B65D10121B86808F0CCF90346184663
:102670000AF087FF03467B610221B86808F0C2F9BF
:10268000034618460AF07DFF0346BB610321B86884
:1026900008F0B8F9034618460AF073FF0346FB61D9
:1026A0000421B86808F0AEF9034618460AF069FF3D
:1026B00003463B627B69142B08DCBB69142B05DCE9
:1026C000FB69142B02DC3B6A142B04DD1E49F868FD
:1026D00008F0CAF82DE07A69194B1B78D1B2194A73
:1026E0005B01134408330A461A70BA69144B1B780D
:1026F000D1B2144A5B01134409330A461A70FA69CD
:102700000F4B1B78D1B20F4A5B01134414330A46B6
:102710001A703A6A0A4B1B78D1B20A4A5B01134419
:1027200015330A461A700949F86808F09DF800E068
:1027300000BF2837BD4680BD14F500082CF5000801
:10274000810B0020D401002044F500085CF500084E
:1027500080B588B000AFF860B9607A60B86808F0FA
:1027600087F90346FB61FB69022B04DC2E49F868FC
:1027700008F07AF854E0FB69032B04DD2B49F86874
:1027800008F072F84CE02A4B1B782A4A5B0113448C
:102790001B7883F00103DBB2002B40D10121B86824
:1027A00008F030F9034618460AF0EBFE03463B6199
:1027B0000221B86808F026F9034618460AF0E1FE3F
:1027C00003467B610321B86808F01CF903461846EC
:1027D0000AF0D7FE0346BB613A69154B1B7891B2EC
:1027E000144A5B0113440A330A461A807A69104B73
:1027F0001B7891B20F4A5B01134416330A461A80C4
:10280000BA690B4B1B7891B20A4A5B011344063339
:102810000A461A800849F86808F026F800E000BF68
:102820002037BD4680BD00BF14F500082CF5000818
:10283000810B0020D40100205CF5000880B588B031
:1028400000AFF860B9607A60B86808F011F9034623
:10285000FB61FB69012B04DC3049F86808F004F8DF
:1028600058E0FB69022B04DD2D49F86807F0FCFFF6
:1028700050E02C4B1B782C4A5B0113441B7883F0EF
:102880000103DBB2002B44D10121B86808F0BAF88B
:10289000034618460AF075FE03467B610221B868BC
:1028A00008F0B0F8034618460AF06BFE0346BB6119
:1028B0007B69B3F57A7F02DC7B69002B04DC1B4962
:1028C000F86807F0D1FF25E0BB69B3F57A7F02DC39
:1028D000BB69002B04DC1549F86807F0C5FF19E057
:1028E0007A69104B1B7891B20F4A5B0113440C3389
:1028F0000A461A80BA690B4B1B7891B20A4A5B01EF
:1029000013440E330A461A800949F86807F0ACFFF1
:1029100000E000BF2037BD4680BD00BF14F50008B1
:102920002CF50008810B0020D401002044F500089C
:102930005CF5000880B588B000AFF860B9607A60D7
:10294000B86808F095F80346FB61FB69012B04DCCD
:102950003049F86807F088FF58E0FB69022B04DD76
:102960002D49F86807F080FF50E00121B86808F0B1
:1029700049F8034618460AF004FE03467B6102212B
:10298000B86808F03FF8034618460AF0FAFD034617
:10299000BB617B69B3F57A7F02DC7B69002B04DCC9
:1029A0001E49F86807F060FF30E0BB69B3F57A7F35
:1029B00002DCBB69002B04DC1849F86807F054FFFF
:1029C00024E0174B1B78174A5B0113441B7883F0F4
:1029D0000103DBB2002B18D17A69114B1B7891B23D
:1029E000104A5B01134410330A461A80BA690C4B33
:1029F0001B7891B20B4A5B01134412330A461A80CA
:102A00000949F86807F030FF00E000BF2037BD46F5
:102A100080BD00BF14F500082CF5000844F500083F
:102A2000810B0020D40100205CF5000880B588B03F
:102A300000AFF860B9607A60B86808F019F803462A
:102A4000FB61FB69012B04DC3049F86807F00CFFDF
:102A500058E0FB69022B04DD2D49F86807F004FFFC
:102A600050E00121B86807F0CDFF034618460AF090
:102A700088FD03467B610221B86807F0C3FF034667
:102A800018460AF07EFD0346BB617B69B3F57A7F89
:102A900002DC7B69002B04DC1E49F86807F0E4FEC9
:102AA00030E0BB69B3F57A7F02DCBB69002B04DC44
:102AB0001849F86807F0D8FE24E0174B1B78174A2E
:102AC0005B0113441B7883F00103DBB2002B18D1A8
:102AD0007A69114B1B7891B2104A5B011344183389
:102AE0000A461A80BA690C4B1B7891B20B4A5B01FB
:102AF00013441A330A461A800949F86807F0B4FEED
:102B000000E000BF2037BD4680BD00BF14F50008BF
:102B10002CF5000844F50008810B0020D4010020AA
:102B20005CF5000880B588B000AFF860B9607A60E5
:102B3000B86807F09DFF0346FB61FB69012B04DCCD
:102B40003049F86807F090FE58E0FB69022B04DD7D
:102B50002D49F86807F088FE50E00121B86807F0B9
:102B600051FF034618460AF00CFD03467B61022123
:102B7000B86807F047FF034618460AF002FD03460F
:102B8000BB617B69B3F57A7F02DC7B69002B04DCD7
:102B90001E49F86807F068FE30E0BB69B3F57A7F3C
:102BA00002DCBB69002B04DC1849F86807F05CFE06
:102BB00024E0174B1B78174A5B0113441B7883F002
:102BC0000103DBB2002B18D17A69114B1B7891B24B
:102BD000104A5B0113441C330A461A80BA690C4B35
:102BE0001B7891B20B4A5B0113441E330A461A80CC
:102BF0000949F86807F038FE00E000BF2037BD46FD
:102C000080BD00BF14F500082CF5000844F500084D
:102C1000810B0020D40100205CF5000880B586B04F
:102C200000AFF860B9607A60FEF7F2FC0346002B53
:102C300004D02649F86807F017FE44E0244B1B78BF
:102C4000012B04D12349F86807F00EFE3BE0B86879
:102C500007F00EFF0346FB75FB7D002B04D11E49D8
:102C6000F86807F001FE2EE0FB7D012B04D91B491B
:102C7000F86807F0F9FD26E0194B1B78194A5B014B
:102C8000134401331B7883F00103DBB2002B04D023
:102C90001549F86807F0E8FD15E00121B86807F06C
:102CA000B1FE034618460AF06CFC0346BB75BB7DBB
:102CB000012B07D10D4B01221A700121012009F0CF
:102CC000A5FB00E000BF1837BD4680BD6CF60008CC
:102CD00016030020A4F6000814F500082CF50008DF
:102CE000810B0020D4010020D4F600081503002039
:102CF00080B586B000AFF860B9607A60B86807F058
:102D0000B7FE0346FB74FB7C012B04D84849F868E6
:102D100007F0AAFD88E0FB7C022B04D94549F8683E
:102D200007F0A2FD80E00121B86807F06BFE0346C2
:102D300018460AF026FC78610221B86807F062FEA6
:102D400003463D491846FDF743FA0346002B06D1DA
:102D50007B694FF47A7202FB03F37B6110E002217E
:102D6000B86807F04FFE034634491846FDF730FABD
:102D70000346002B04D03249F86807F075FD53E094
:102D8000304B1B88B3F5C87F0BD17B692E4A934229
:102D900002DC7B69002B04DA2949F86807F064FD3E
:102DA00042E0284B1B88C82B0BD17B69274A9342F2
:102DB00002DC7B69002B04DA2149F86807F054FD36
:102DC00032E0204B1B88642B0BD17B69204A934255
:102DD00002DC7B69002B04DA1949F86807F044FD2E
:102DE00022E01C4B1B680C221A701A4B1B687A6974
:102DF000D2B25A737B691A12164B1B68D2B29A73FD
:102E00007B691A14134B1B68D2B2DA737B691A16EA
:102E1000104B1B68D2B21A74112001F057F90E49F9
:102E2000F86807F021FD00BF1837BD4680BD00BF20
:102E300014F500082CF50008F8F60008FCF6000868
:102E400044F500081C010020801A0600400D030014
:102E5000A0860100200100205CF5000880B586B046
:102E600000AFF860B9607A60B86807F001FE034609
:102E7000FB75FB7D002B04D00949F86807F0F4FCD2
:102E80000BE0084B1B680D221A70012001F01EF99F
:102E90000549F86807F0E8FC00BF1837BD4680BD5B
:102EA00044F50008200100205CF5000880B586B0DC
:102EB00000AFF860B9607A60B86807F0D9FD0346E2
:102EC000FB75FB7D002B04D12149F86807F0CCFC91
:102ED0003AE0FB7D012B04D91E49F86807F0C4FCD9
:102EE00032E00121B86807F08DFD034618460AF06C
:102EF00048FB0346002B14BF01230023BB75BB7D99
:102F0000002B0ED0144B1B680E221A70124B1B683C
:102F100001225A70022001F0D9F8104B01221A70D8
:102F20000DE00D4B1B680E221A700B4B1B68002224
:102F30005A70022001F0CAF8084B00221A700849A2
:102F4000F86807F091FC00BF1837BD4680BD00BF90
:102F500014F500082CF500082001002016030020BD
:102F60005CF5000880B586B000AFF860B9607A60A3
:102F7000B86807F07DFD0346FB75FB7D002B04D090
:102F80000E49F86807F070FC15E00D4B1B78012B1B
:102F900004D10C49F86807F067FC07E0084B1B7880
:102FA000002B03D10849F86807F05EFC0749F86870
:102FB00007F05AFC00BF1837BD4680BD44F5000835
:102FC0001603002000F7000824F700085CF500084D
:102FD00080B5A6B000AFF860B9607A60B86807F055
:102FE00047FD0346C7F89030D7F89030002B04D047
:102FF0009349F86807F038FC1EE1002387F8973002
:10300000002387F8973010E18E49F86807F02CFC10
:1030100097F897305A1C07F110038B4918460AF0AD
:103020006FFB07F110031946F86807F01DFC97F8CD
:103030009730864A5B01134404331B785A1C97F877
:10304000973082495B010B4405331B78013307F14C
:1030500010007F490AF054FB07F110031946F86885
:1030600007F002FC97F89730784A5B011344083365
:103070001B78194697F89730744A5B01134409335B
:103080001B7807F110000A4672490AF039FB07F174
:1030900010031946F86807F0E7FB97F897306B4A7A
:1030A0005B01134414331B78194697F89730674A2D
:1030B0005B01134414331B7807F110000A4666497C
:1030C0000AF01EFB07F110031946F86807F0CCFB65
:1030D00097F897305D4A5B0113440A331B881A4600
:1030E00007F110035D4918460AF00AFB07F11003C7
:1030F0001946F86807F0B8FB97F89730534A5B0118
:10310000134416331B881A4607F110035449184616
:103110000AF0F6FA07F110031946F86807F0A4FB65
:1031200097F89730494A5B01134406331B881A46C7
:1031300007F110034B4918460AF0E2FA07F11003B1
:103140001946F86807F090FB97F897303F4A5B0103
:1031500013440C331B88194697F897303B4A5B01A0
:1031600013440E331B8807F110000A463E490AF04B
:10317000C7FA07F110031946F86807F075FB97F8CE
:103180009730324A5B01134410331B88194697F875
:1031900097302E4A5B01134412331B8807F110004D
:1031A0000A4632490AF0ACFA07F110031946F868EA
:1031B00007F05AFB97F89730244A5B011344183301
:1031C0001B88194697F89730204A5B0113441A333D
:1031D0001B8807F110000A4625490AF091FA07F109
:1031E00010031946F86807F03FFB97F89730174A25
:1031F0005B0113441C331B88194697F89730134A18
:103200005B0113441E331B8807F110000A4619495D
:103210000AF076FA07F110031946F86807F024FB64
:1032200097F89730013387F89730134B1B7897F84E
:1032300097209A427FF6E8AE9837BD4680BD00BF22
:1032400044F5000844F7000884F70008D401002082
:10325000A4F70008D0F7000804F8000838F80008C0
:1032600064F8000890F80008BCF80008F8F80008B6
:1032700034F9000870F90008810B002080B596B081
:1032800000AFF860B9607A60B86807F0F1FB0346F8
:103290007B657B6D002B04D00D49F86807F0E4FADC
:1032A00013E00C4B1B785A1C07F114030A4918460B
:1032B0000AF026FA07F114031946F86807F0D4FA61
:1032C0000649F86807F0D0FA00BF5837BD4680BD00
:1032D00044F50008810B002084F700085CF5000825
:1032E00080B485B000AFF860B9607A6000BF143771
:1032F000BD465DF8047B704780B485B000AFF860D0
:10330000B9607A6000BF1437BD465DF8047B704732
:1033100080B596B000AFF860B9607A60B86807F021
:10332000A7FB03467B657B6D002B04D01049F86832
:1033300007F09AFA18E00F4B1B780F4A5B01134411
:1033400002331B881A4607F114030C4918460AF089
:10335000D7F907F114031946F86807F085FA084908
:10336000F86807F081FA00BF5837BD4680BD00BF3E
:1033700044F50008810B0020D4010020ACF90008BE
:103380005CF5000880B596B000AFF860B9607A606F
:10339000B86807F06DFB03467B657B6D002B04D09E
:1033A0001349F86807F060FA1FE0124B1B78124AC5
:1033B0005B01134404331B785A1C0E4B1B780E49D7
:1033C0005B010B4405331B78013307F114000B49F3
:1033D0000AF096F907F114031946F86807F044FA61
:1033E0000749F86807F040FA00BF5837BD4680BD6E
:1033F00044F50008810B0020D4010020A4F7000848
:103400005CF5000880B596B000AFF860B9607A60EE
:10341000B86807F02DFB03467B657B6D002B04D05D
:103420002149F86807F020FA3AE0204B1B78204A3F
:103430005B01134408331B7819461C4B1B781C4A4C
:103440005B01134409331B7807F114000A4619493C
:103450000AF056F907F114031946F86807F004FA60
:10346000124B1B78124A5B01134414331B78194624
:103470000E4B1B780E4A5B01134414331B7807F183
:1034800014000A460C490AF03BF907F114031946E7
:10349000F86807F0E9F90949F86807F0E5F900BFAD
:1034A0005837BD4680BD00BF44F50008810B0020A1
:1034B000D4010020D0F7000804F800085CF50008EB
:1034C00080B596B000AFF860B9607A60B86807F070
:1034D000CFFA03467B657B6D002B04D02449F86846
:1034E00007F0C2F940E0234B1B78234A5B011344E9
:1034F0000A331B881A4607F11403204918460AF0BC
:10350000FFF807F114031946F86807F0ADF9194BF5
:103510001B78194A5B01134416331B881A4607F1BE
:103520001403174918460AF0EBF807F1140319467B
:10353000F86807F099F90F4B1B780F4A5B011344A9
:1035400006331B881A4607F114030E4918460AF081
:10355000D7F807F114031946F86807F085F90A4906
:10356000F86807F081F900BF5837BD4680BD00BF3D
:1035700044F50008810B0020D401002038F8000831
:1035800064F8000890F800085CF5000880B596B073
:1035900000AFF860B9607A60B86807F069FA03466E
:1035A0007B657B6D002B04D02149F86807F05CF93E
:1035B0003AE0204B1B78204A5B0113440C331B88F4
:1035C00019461C4B1B781C4A5B0113440E331B88A5
:1035D00007F114000A4619490AF092F807F114039A
:1035E0001946F86807F040F9124B1B78124A5B0144
:1035F000134410331B8819460E4B1B780E4A5B018F
:10360000134412331B8807F114000A460C490AF0D0
:1036100077F807F114031946F86807F025F9094906
:10362000F86807F021F900BF5837BD4680BD00BFDC
:1036300044F50008810B0020D4010020BCF80008EC
:10364000F8F800085CF5000880B596B000AFF860A7
:10365000B9607A60B86807F00BFA03467B657B6D4A
:10366000002B04D01349F86807F0FEF81FE0124B56
:103670001B78124A5B0113440C331B8819460E4B0E
:103680001B780E4A5B0113440E331B8807F11400AC
:103690000A460B490AF034F807F114031946F86892
:1036A00007F0E2F80749F86807F0DEF800BF58377E
:1036B000BD4680BD44F50008810B0020D4010020E8
:1036C000BCF800085CF5000880B596B000AFF86063
:1036D000B9607A60B86807F0CBF903467B657B6D0B
:1036E000002B04D01349F86807F0BEF81FE0124B16
:1036F0001B78124A5B01134410331B8819460E4B8A
:103700001B780E4A5B01134412331B8807F1140027
:103710000A460B4909F0F4FF07F114031946F8684B
:1037200007F0A2F80749F86807F09EF800BF58377D
:10373000BD4680BD44F50008810B0020D401002067
:10374000F8F800085CF5000880B596B000AFF860A6
:10375000B9607A60B86807F08BF903467B657B6DCA
:10376000002B04D02149F86807F07EF83AE0204B9E
:103770001B78204A5B01134418331B8819461C4BE5
:103780001B781C4A5B0113441A331B8807F1140091
:103790000A46194909F0B4FF07F114031946F868FD
:1037A00007F062F8124B1B78124A5B0113441C337A
:1037B0001B8819460E4B1B780E4A5B0113441E33BF
:1037C0001B8807F114000A460C4909F099FF07F11C
:1037D00014031946F86807F047F80949F86807F034
:1037E00043F800BF5837BD4680BD00BF44F5000810
:1037F000810B0020D401002034F9000870F9000882
:103800005CF5000880B596B000AFF860B9607A60EA
:10381000B86807F02DF903467B657B6D002B04D05B
:103820001349F86807F020F81FE0124B1B78124A82
:103830005B01134418331B8819460E4B1B780E4A44
:103840005B0113441A331B8807F114000A460B4925
:1038500009F056FF07F114031946094809F0D8FD8D
:103860000849F86807F000F800BF5837BD4680BD2A
:1038700044F50008810B0020D401002034F9000831
:10388000880B00205CF5000880B596B000AFF860AA
:10389000B9607A60B86807F0EBF803467B657B6D2A
:1038A000002B04D01349F86806F0DEFF1FE0124B2E
:1038B0001B78124A5B0113441C331B8819460E4BBC
:1038C0001B780E4A5B0113441E331B8807F114005A
:1038D0000A460B4909F014FF07F114031946F8686A
:1038E00006F0C2FF0749F86806F0BEFF00BF583770
:1038F000BD4680BD44F50008810B0020D4010020A6
:1039000070F900085CF5000880B586B000AFF8607B
:10391000B9607A60B86807F0ABF803467B617B69F1
:10392000002B04D00E49F86806F09EFF15E00D4B01
:103930001B78002B04D00C49F86806F095FF07E0CF
:10394000084B1B78002B03D10849F86806F08CFF60
:103950000749F86806F088FF00BF1837BD4680BDEC
:1039600044F5000815030020CCF90008E4F900082C
:103970005CF5000880B5A6B000AFF860B9607A6069
:10398000B86807F075F80346C7F89430D7F8943054
:10399000002B04D09249F86806F066FF1DE19149BA
:1039A000F86806F061FF904B1B785A1C07F114036E
:1039B0008E49184609F0A4FE07F114031946F86869
:1039C00006F052FF884B1B78894A5B01134404338D
:1039D0001B785A1C844B1B7885495B010B440533CB
:1039E0001B78013307F11400824909F089FE07F1C1
:1039F00014031946F86806F037FF7B4B1B787C4AA6
:103A00005B01134408331B781946774B1B78784ABF
:103A10005B01134409331B7807F114000A46764909
:103A200009F06EFE07F114031946F86806F01CFF52
:103A30006D4B1B786E4A5B01134414331B78194697
:103A4000694B1B786A4A5B01134414331B7807F1F6
:103A500014000A46694909F053FE07F11403194698
:103A6000F86806F001FF604B1B78614A5B01134464
:103A70000A331B881A4607F114036149184609F0F6
:103A80003FFE07F114031946F86806F0EDFE564BA9
:103A90001B78574A5B01134416331B881A4607F1FB
:103AA00014035849184609F02BFE07F11403194670
:103AB000F86806F0D9FE4C4B1B784D4A5B01134465
:103AC00006331B881A4607F114034F49184609F0BC
:103AD00017FE07F114031946F86806F0C5FE424BBD
:103AE0001B78434A5B0113440C331B8819463E4B39
:103AF0001B783F4A5B0113440E331B8807F1140007
:103B00000A46424909F0FCFD07F114031946F8681A
:103B100006F0AAFE344B1B78354A5B011344103380
:103B20001B881946304B1B78314A5B011344123312
:103B30001B8807F114000A46354909F0E1FD07F139
:103B400014031946F86806F08FFE274B1B78284AA5
:103B50005B01134418331B881946234B1B78244AF6
:103B60005B0113441A331B8807F114000A462949E4
:103B700009F0C6FD07F114031946F86806F074FE53
:103B8000194B1B781A4A5B0113441C331B881946D6
:103B9000154B1B78164A5B0113441E331B8807F133
:103BA00014000A461C4909F0ABFD07F1140319463D
:103BB000F86806F059FE194B1B78002B04D0184901
:103BC000F86806F051FE07E0144B1B78002B03D178
:103BD0001449F86806F048FE00BF9837BD4680BD1E
:103BE00044F5000844F70008810B002084F7000822
:103BF000D4010020A4F70008D0F7000804F800085A
:103C000038F8000864F8000890F80008BCF80008CC
:103C1000F8F8000834F9000870F9000815030020CE
:103C2000CCF90008E4F9000880B586B000AFF86070
:103C3000B9607A60B86806F01BFF0346FB75FB7D30
:103C4000002B04D00949F86806F00EFE0BE0084B83
:103C50001B6811221A70012000F038FA0549F86833
:103C600006F002FE00BF1837BD4680BD44F50008CF
:103C7000200100205CF5000880B586B000AFF86038
:103C8000B9607A60B86806F0F3FE0346FB75FB7D09
:103C9000002B04D00949F86806F0E6FD0BE0084B5C
:103CA0001B6812221A70012000F010FA0549F8680A
:103CB00006F0DAFD00BF1837BD4680BD44F50008A8
:103CC000200100205CF5000880B586B000AFF860E8
:103CD000B9607A60B86806F0CBFE0346FB75FB7DE1
:103CE000002B04D00949F86806F0BEFD0BE0084B34
:103CF0001B6813221A70012000F0E8F90549F868E2
:103D000006F0B2FD00BF1837BD4680BD44F500087F
:103D1000200100205CF5000880B586B000AFF86097
:103D2000B9607A60B86806F0A3FE0346FB75FB7DB8
:103D3000002B04D00949F86806F096FD0BE0084B0B
:103D40001B6814221A70012000F0C0F90549F868B8
:103D500006F08AFD00BF1837BD4680BD44F5000857
:103D6000200100205CF5000880B586B000AFF86047
:103D7000B9607A60B86806F07BFE0346FB75FB7D90
:103D8000002B04D00949F86806F06EFD0BE0084BE3
:103D90001B6815221A70012000F098F90549F8688F
:103DA00006F062FD00BF1837BD4680BD44F500082F
:103DB000200100205CF5000880B586B000AFF860F7
:103DC000B9607A60B86806F053FE0346FB75FB7D68
:103DD000002B04D00949F86806F046FD0BE0084BBB
:103DE0001B6816221A70012000F070F90549F86866
:103DF00006F03AFD00BF1837BD4680BD44F5000807
:103E0000200100205CF5000880B586B000AFF860A6
:103E1000B9607A60B86806F02BFE0346FB75FB7D3F
:103E2000002B04D00949F86806F01EFD0BE0084B92
:103E30001B6817221A70012000F048F90549F8683C
:103E400006F012FD00BF1837BD4680BD44F50008DE
:103E5000200100205CF5000880B586B000AFF86056
:103E6000B9607A60B86806F003FE0346FB75FB7D17
:103E7000002B04D00949F86806F0F6FC0BE0084B6B
:103E80001B6818221A70012000F020F90549F86813
:103E900006F0EAFC00BF1837BD4680BD44F50008B7
:103EA000200100205CF5000880B586B000AFF86006
:103EB000B9607A60B86806F0DBFD0346FB75FB7DF0
:103EC000002B04D12149F86806F0CEFC3AE0FB7DD6
:103ED000012B04D91E49F86806F0C6FC32E0012126
:103EE000B86806F08FFD0346184609F04AFB3861B2
:103EF0003B69642B0BD03B69C82B08D03B69B3F5F9
:103F0000C87F04D01349F86806F0AEFC1AE0124BE3
:103F10001B6819221A703B69104A82FB0312521166
:103F2000DB17D21A0C4B1B68D2B25A70022000F079
:103F3000CDF83B699AB20A4B1A800A49F86806F034
:103F400093FC00BF1837BD4680BD00BF14F50008C4
:103F50002CF5000844F50008200100201F85EB51D6
:103F60001C0100205CF5000880B586B000AFF86049
:103F7000B9607A60B86806F07BFD0346FB75FB7D8F
:103F8000002B04D00949F86806F06EFC0BE0084BE2
:103F90001B681A221A70012000F098F80549F86889
:103FA00006F062FC00BF1837BD4680BD44F500082E
:103FB000200100205CF5000880B586B000AFF860F5
:103FC000B9607A60B86806F053FD0346FB75FB7D67
:103FD000002B04D00949F86806F046FC0BE0084BBA
:103FE0001B681B221A70012000F070F80549F86860
:103FF00006F03AFC00BF1837BD4680BD44F5000806
:10400000200100205CF5000880B586B000AFF860A4
:10401000B9607A60B86806F02BFD0346FB75FB7D3E
:10402000002B04D00949F86806F01EFC0BE0084B91
:104030001B681C221A70012000F048F80549F86836
:1040400006F012FC00BF1837BD4680BD44F50008DD
:10405000200100205CF5000880B588B000AFF86052
:10406000B9607A6007F11403074A0A21184609F07B
:1040700011FB07F114031946F86806F0F5FB00BFC1
:104080002037BD4680BD00BF00FA000880B584B06F
:1040900000AFF860B9607A60FDF712FC80B485B0BB
:1040A00000AFF860B9607A6000BF1437BD465DF8B4
:1040B000047B704780B485B000AFF860B9607A6067
:1040C00000BF1437BD465DF8047B704780B58AB0E9
:1040D00000AF0346FB711F4BCA221A701E4B1A78A1
:1040E0001C4B5A701B4B01229A701A4AFB79D370F1
:1040F000184B07221A71174BEF2283F80021154B3A
:10410000DB780433DBB21A461449002007F036FE90
:1041100003461A460F4BA3F8FE2007F10C030022BA
:104120001A605A609A60DA601A615A611A7607F169
:104130000B0207F10C031946064807F06BFEFA7AEA
:1041400007F10C031946064809F07AF900BF283731
:10415000BD4680BD64190020DC8400206519002064
:10416000F817002080B400AF024B1846BD465DF83A
:10417000047B7047BCFF000880B400AF442318469E
:10418000BD465DF8047B704780B584B004AF4FF442
:10419000007303934FF4007302930E4B01930E4B85
:1041A000009327230D4A0E490E4809F0B8F84FF442
:1041B00000620D490B4806F06DF903460B4A136087
:1041C0000B49084809F024F90A4B064A1A6000BF57
:1041D000BD4680BDF40D0020F40B002000480040D7
:1041E00008FA0008880B0020F40F0020F4170020C4
:1041F00014FA0008840B002080B584B000AF78600A
:104200000BE00D4809F0D0F80346FB730B4B1B681D
:10421000FA7B1146184606F073FA074809F02EF9A2
:104220000346002BEDD1054B1B68184606F08BFAB0
:1042300000BF1037BD4680BD880B0020F41700205A
:1042400080B5ADF5347D02AFA44B1B681B781C2BE9
:1042500000F2F48601A252F823F000BF415000089A
:1042600041500008415000084150000841500008EA
:104270003D500008D142000879430008234400085B
:10428000CF43000877440008FF4500083D50000870
:10429000E94F00083D5000082D500008A9450008CE
:1042A0007B460008D947000805490008374B00083D
:1042B000A34B00082D4C0008994C0008B34D000892
:1042C0003D500008CD4E0008394F0008914F0008BE
:1042D000824B1B685B78012B04D18149814809F02E
:1042E00097F81CE07D4B1B689B78012B04D17E491D
:1042F0007C4809F08DF812E0784B1B68DB78012BC5
:1043000004D17A49774809F083F808E0734B1B68B9
:104310001B79012B03D17649724809F079F86F4B6C
:104320001B685B79012B05D172496E4809F070F862
:1043300000F088BE694B1B689B79012B05D16E4943
:10434000684809F065F800F07DBE644B1B68DB79B6
:10435000012B05D16949634809F05AF800F072BE93
:104360005E4B1B681B7A012B40F06C8664495D48EC
:1043700009F04EF800F066BE584B1B685B781BB224
:104380001B021AB2554B1B689B781BB213431BB21E
:10439000A7F80432514B1B68DB781BB21B021AB220
:1043A0004E4B1B681B791BB213431BB2A7F802329A
:1043B000B7F80422B7F80232381D524909F0A0F9C3
:1043C0003B1D1946474809F023F800F046BE434B11
:1043D0001B685B78012B04D14349424809F018F867
:1043E00008E03E4B1B685B78002B03D146493D48F3
:1043F00009F00EF8394B1B689B78012B05D13E491B
:10440000384809F005F800F01FBE344B1B689B7854
:10441000002B40F019863D49324808F0F9FF00F0C2
:1044200013BE2E4B1B685B78012B04D12F492D48FE
:1044300008F0EEFF08E0294B1B685B78002B03D1E6
:104440003349284808F0E4FF244B1B689B78012B74
:1044500005D12A49234808F0DBFF00F0F7BD1F4BC8
:104460001B689B78002B40F0F1852A491D4808F015
:10447000CFFF00F0EBBD194B1B685B781BB21B0232
:104480001AB2164B1B689B781BB213431BB2A7F8DA
:104490000832124B1B68DB781BB21B021AB20F4B9F
:1044A0001B681B791BB213431BB2A7F80632B7F87F
:1044B0000822B7F80632381D174909F021F93B1DCB
:1044C0001946084808F0A4FF044B1B685B79012BD0
:1044D00024D10549034808F09BFF28E0240100206F
:1044E0002CFA0008880B002040FA000858FA00084F
:1044F00074FA000890FA0008A4FA0008BCFA000850
:10450000D8FA0008F4FA000828FB000844FB000869
:1045100060FB000880FB0008A0FB00089E4B1B68A6
:104520005B79002B03D19D499D4808F071FF9A4BA0
:104530001B689B79012B04D19A49994808F068FFC0
:1045400008E0954B1B689B79002B03D19649944852
:1045500008F05EFF904B1B68DB79012B04D1934977
:104560008F4808F055FF08E08B4B1B68DB79002B68
:1045700003D18F498A4808F04BFF874B1B681B7A91
:10458000012B05D18B49864808F042FF00F060BD41
:10459000814B1B681B7A002B40F05A858649804866
:1045A00008F036FF00F054BD7B4B1B685B781BB2F4
:1045B0001B021AB2784B1B689B781BB213431BB2C9
:1045C000A7F81232744B1B68DB781BB21B021AB2BD
:1045D000714B1B681B791BB213431BB2A7F8103237
:1045E000B7F81222B7F81032381D744909F088F86C
:1045F0003B1D19466A4808F00BFF00F02EBD664BC4
:104600001B685B78002B14BF0123002387F80B3253
:10461000614B1B689B78002B14BF0123002387F894
:104620000A3297F80B32002B04D065495C4808F039
:10463000EFFE0AE097F80B3283F00103DBB2002BA8
:1046400003D06049564808F0E3FE97F80A32002B81
:1046500005D05D49524808F0DBFE00F0FBBC97F83E
:104660000A3283F00103DBB2002B00F0F3845749D8
:104670004B4808F0CDFE00F0EDBC474B1B685B7863
:104680001A46454B1B689B781B021A43424B1B681A
:10469000DB781B041A43404B1B681B791B06134332
:1046A000C7F828323C4B1B685B791A463A4B1B68AB
:1046B0009B791B021A43384B1B68DB791B041A4396
:1046C000354B1B681B7A1B061343C7F82432324B49
:1046D0001B685B7A1A46304B1B689B7A1B021A4395
:1046E0002D4B1B68DB7A1B041A432B4B1B681B7B6F
:1046F0001B061343C7F82032D7F8283207EE903A4A
:10470000B8EEE77ADFED326AC7EE267AC7ED877A30
:10471000D7F8243207EE903AB8EEE77ADFED2C6A4C
:10472000C7EE267AC7ED867AD7F8203207EE903AA0
:10473000B8EEE77ADFED266AC7EE267AC7ED857A0E
:1047400007F5F8730221184697ED870A00F098FCE8
:1047500007F5F0730221184697ED860A00F090FCE9
:1047600007F5E8730221184697ED850A00F088FCEA
:1047700007F5F07107F5F872381D07F5E873009337
:104780000B46144908F0BCFF3B1D1946044808F0CD
:104790003FFE00F062BC00BF2401002028FB00089F
:1047A000880B0020A4FA000844FB000858FA00080F
:1047B00060FB0008BCFA000880FB0008D4FB00087E
:1047C000F4FB000820FC000850FC00087CFC0008FA
:1047D00000007A44ACFC0008464B1B685B7B1A4621
:1047E000444B1B689B7B1B021A43424B1B68DB7BC1
:1047F0001B041A433F4B1B681B7C1B061343C7F863
:1048000040323C4B1B685B7C1A463A4B1B689B7CD6
:104810001B021A43374B1B68DB7C1B041A43354BC6
:104820001B681B7D1B061343C7F83C32314B1B68CA
:104830005B7D1A462F4B1B689B7D1B021A432D4B39
:104840001B68DB7D1B041A432A4B1B681B7E1B065F
:104850001343C7F83832D7F8403207EE903AB8EE33
:10486000E77ADFED256AC7EE267AC7ED8D7AD7F8AD
:104870003C3207EE903AB8EEE77ADFED1F6AC7EEFA
:10488000267AC7ED8C7AD7F8383207EE903AB8EE30
:10489000E77ADFED196AC7EE267AC7ED8B7A07F55E
:1048A000E0730221184697ED8D0A00F0E9FB07F549
:1048B000D8730221184697ED8C0A00F0E1FB07F54A
:1048C000D0730221184697ED8B0A00F0D9FB07F54B
:1048D000D87107F5E072381D07F5D07300930B46C9
:1048E000064908F00DFF3B1D1946054808F090FDEC
:1048F000B3E300BF2401002000007A44E0FC00087C
:10490000880B0020C24B1B685B781A46C04B1B68A3
:104910009B781B021A43BE4B1B68DB781B041A43AF
:10492000BB4B1B681B791B061343C7F87032B84B8F
:104930001B685B791A46B64B1B689B791B021A43AE
:10494000B34B1B68DB791B041A43B14B1B681B7A02
:104950001B061343C7F86C32AD4B1B685B7A1A46D3
:10496000AB4B1B689B7A1B021A43A94B1B68DB7A73
:104970001B041A43A64B1B681B7B1B061343C7F87B
:104980006832A34B1B685B7B1A46A14B1B689B7B61
:104990001B021A439E4B1B68DB7B1B041A439C4B78
:1049A0001B681B7C1B061343C7F86432984B1B68BB
:1049B0005B7C1A46964B1B689B7C1B021A43944BEC
:1049C0001B68DB7C1B041A43914B1B681B7D1B0679
:1049D0001343C7F860328E4B1B685B7D1A468C4BC5
:1049E0001B689B7D1B021A43894B1B68DB7D1B04E4
:1049F0001A43874B1B681B7E1B061343C7F85C32A8
:104A0000D7F8703207EE903AB8EEE77ADFED816AB8
:104A1000C7EE267AC7ED967AD7F86C3207EE903A51
:104A2000B8EEE77ADFED7B6AC7EE267AC7ED957AB6
:104A3000D7F8683207EE903AB8EEE77ADFED756A9C
:104A4000C7EE267AC7ED947AD7F8643207EE903A2B
:104A5000B8EEE77ADFED6F6AC7EE267AC7ED937A94
:104A6000D7F8603207EE903AB8EEE77ADFED696A80
:104A7000C7EE267AC7ED927AD7F85C3207EE903A05
:104A8000B8EEE77ADFED636AC7EE267AC7ED917A72
:104A900007F5C8730221184697ED960A00F0F0FA60
:104AA00007F5C0730221184697ED950A00F0E8FA61
:104AB00007F5B8730221184697ED940A00F0E0FA62
:104AC00007F5C07107F5C872381D07F5B873009374
:104AD0000B46514908F014FE3B1D19464F4808F09B
:104AE00097FC07F5B0730221184697ED930A00F082
:104AF000C7FA07F5A8730221184697ED920A00F04D
:104B0000BFFA07F5A0730221184697ED910A00F04D
:104B1000B7FA07F5A87107F5B072381D07F5A0734D
:104B200000930B463E4908F0EBFD3B1D19463B4800
:104B300008F06EFC91E2364B1B685B781A46344BEA
:104B40001B689B781B021A43314B1B68DB781B04E4
:104B50001A432F4B1B681B791B061343C7F8783287
:104B6000D7F8783207EE903AB8EEE77ADFED296AA7
:104B7000C7EE267AC7ED9D7A07F59873022118468D
:104B800097ED9D0A00F07CFA07F598723B1D2549C8
:104B9000184608F0B5FD3B1D1946204808F038FCC2
:104BA0005BE21B4B1B685B791A46194B1B689B79B0
:104BB0001B021A43164B1B68DB791B041A43144B68
:104BC0001B681B7A1B061343C7F88032D7F8803264
:104BD00007EE903AB8EEE77ADFED0E6AC7EE267A76
:104BE000C7ED9F7A07F590730221184697ED9F0A4B
:104BF00000F046FA07F590723B1D0B49184608F085
:104C00007FFD3B1D1946054808F002FC25E200BF68
:104C10002401002000007A44ACFC0008880B00202E
:104C2000E0FC000814FD00082CFD0008B84B1B68D0
:104C30005B7A1A46B64B1B689B7A1B021A43B44B2D
:104C40001B68DB7A1B041A43B14B1B681B7B1B06DA
:104C50001343C7F88832D7F8883207EE903AB8EE97
:104C6000E77ADFEDAC6AC7EE267AC7EDA17A07F5E1
:104C700088730221184697EDA10A00F001FA07F5A2
:104C800088723B1DA449184608F03AFD3B1D1946A1
:104C9000A24808F0BDFBE0E19D4B1B685B781A461B
:104CA0009B4B1B689B781B021A43994B1B68DB7854
:104CB0001B041A43964B1B681B791B061343C7F84A
:104CC000A032934B1B685B791A46914B1B689B790A
:104CD0001B021A438E4B1B68DB791B041A438C4B57
:104CE0001B681B7A1B061343C7F89C32884B1B6852
:104CF0005B7A1A46864B1B689B7A1B021A43844BCD
:104D00001B68DB7A1B041A43814B1B681B7B1B0649
:104D10001343C7F89832D7F8A03207EE903AB8EEAE
:104D2000E77ADFED7C6AC7EE267AC7EDA57AD7F879
:104D30009C3207EE903AB8EEE77ADFED766AC7EE7E
:104D4000267AC7EDA47AD7F8983207EE903AB8EEF3
:104D5000E77ADFED706AC7EE267AC7EDA37A07F52A
:104D600080730221184697EDA50A00F089F907F132
:104D7000F0030221184697EDA40A00F081F907F12B
:104D8000E0030221184697EDA30A00F079F907F134
:104D9000F00107F58072381D07F1E00300930B4620
:104DA0005F4908F0ADFC3B1D19465C4808F030FB3C
:104DB00053E1574B1B685B781A46554B1B689B7831
:104DC0001B021A43524B1B68DB781B041A43504BDF
:104DD0001B681B791B061343C7F8B8324C4B1B6882
:104DE0005B791A464A4B1B689B791B021A43484B56
:104DF0001B68DB791B041A43454B1B681B7A1B0697
:104E00001343C7F8B432424B1B685B7A1A46404BD7
:104E10001B689B7A1B021A433D4B1B68DB7A1B0401
:104E20001A433B4B1B681B7B1B061343C7F8B0326E
:104E3000D7F8B83207EE903AB8EEE77ADFED396A84
:104E4000C7EE267AC7EDAB7AD7F8B43207EE903AC0
:104E5000B8EEE77ADFED336AC7EE267AC7EDAA7AB5
:104E6000D7F8B03207EE903AB8EEE77ADFED2D6A68
:104E7000C7EE267AC7EDA97A07F1D00302211846BA
:104E800097EDAB0A00F0FCF807F1C00302211846C9
:104E900097EDAA0A00F0F4F807F1B00302211846D2
:104EA00097EDA90A00F0ECF807F1C00107F1D00274
:104EB000381D07F1B00300930B461B4908F020FC96
:104EC0003B1D1946154808F0A3FAC6E0104B1B68B5
:104ED0005B7887F8BF3297F8BF32012B04D11349B2
:104EE0000E4808F095FAB7E097F8BF32022B04D1CC
:104EF0000F490A4808F08CFAAEE097F8BF32042B4D
:104F000040F0AA800B49054808F082FAA4E000BFEF
:104F10002401002000007A4444FD0008880B002092
:104F200058FD00080024744994FD0008C0FD0008E5
:104F3000E0FD000800FE00084A4B1B685B781BB2CE
:104F40001B021AB2474B1B689B781BB213431BB260
:104F50009BB207EE903AB8EEE77ADFED436AC7EE10
:104F6000267AC7EDB07A07F1A0030221184697ED23
:104F7000B00A00F085F807F1A0023B1D3B49184636
:104F800008F0BEFB3B1D1946394808F041FA64E0C1
:104F9000344B1B685B781BB21B021AB2314B1B6887
:104FA0009B781BB213431BB29BB207EE903AB8EE4C
:104FB000E77ADFED2D6AC7EE267AC7EDB17A07F101
:104FC00090030221184697EDB10A00F059F807F155
:104FD00090023B1D2749184608F092FB3B1D1946DD
:104FE000234808F015FA38E01E4B1B685B7B1A4615
:104FF0001C4B1B689B7B1B021A431A4B1B68DB7BF9
:105000001B041A43174B1B681B7C1B061343C7F872
:105010000C323B1DD7F80C221749184608F070FBDC
:105020003B1D1946124808F0F3F916E0134B012214
:105030001A700121012007F0E9F90EE000230CE0CD
:1050400000BF0AE000BF08E000BF06E000BF04E0C8
:1050500000BF02E000BF00E000BF184607F532774E
:10506000BD4680BD240100200000C84220FE00088B
:10507000880B00203CFE000858FE000815030020A5
:1050800080B58EB000AF87ED030AB8600B46FB71A8
:10509000D7ED037AF5EEC07AF1EE10FA0AD5BB68C7
:1050A0005A1CBA602D221A70D7ED037AF1EE677A96
:1050B000C7ED037AFB7907EE903AF8EE677AF0EEE7
:1050C000670AB2EE040A08F0DBFFB0EE407AF6EEB3
:1050D000006AC6EE877A97ED037A77EE277AC7EDF6
:1050E000037AD7ED037AFCEEE77A17EE903A7B630A
:1050F0007B6B07EE903AF8EE677A97ED037A77EEDE
:10510000677AC7ED0C7A0023FB627B6B002B22D100
:10511000FB6A5A1CFA6238333B44302203F8242CD1
:105120001CE0796B334BA3FB0123DA0813469B0089
:1051300013445B00CA1AD2B2FB6A591CF9623032BE
:10514000D2B238333B4403F8242C7B6B294AA2FBB0
:105150000323DB087B637B6B002BE2D1FB6A013B03
:10516000BB620BE0BB685A1CBA6007F11401BA6A53
:105170000A4412781A70BB6A013BBB62BB6A002BFF
:10518000F0DAFB79002B2DD0BB685A1CBA602E22B6
:105190001A7024E0D7ED0C7AB2EE047A67EE877AC3
:1051A000C7ED0C7AD7ED0C7AFCEEE77A17EE903A61
:1051B0007B627B6ADAB2BB68591CB9603032D2B20A
:1051C0001A707B6A07EE903AF8EE677A97ED0C7AE0
:1051D00077EE677AC7ED0C7AFB79013BFB71FB79BF
:1051E000002BD7D1BB6800221A7000BF3837BD46EC
:1051F00080BD00BFCDCCCCCC80B584B004AF8023C3
:10520000039380230293124B0193124B0093342398
:10521000114A1249124808F082F8124B124A5A6099
:10522000104B80221A800F4B00221A810D4B1B88D5
:10523000002B06D00B4B5B6804220021184608F0B7
:105240009BFA022006F0D6FD00BFBD4680BD00BF20
:10525000E418002064180020004C004074FE000890
:10526000F81700206C1B0020781B002080B584B04C
:1052700000AF78600023FB733223FB7347E02A48BA
:1052800008F092F80346DAB2284B9A72274B9B7AC1
:10529000DBB2CA2B03D1254B00221A8134E0234B09
:1052A0009B7ADBB2EF2B14D1204B5B681F4A12892B
:1052B00092B2D1B21E4A184606F0E2FE0346BB7314
:1052C000BB7B012B01D1FEF7BBFF184B00221A81DB
:1052D0001AE0164B5B68154A128992B21344134ABE
:1052E000927AD2B21A70114B1B899BB201339AB2D7
:1052F0000E4B1A810D4B1B899AB20C4B1B889A429C
:1053000002D90A4B00221A81FB7B013BFB73064842
:1053100008F0B4F80346002B02D0FB7B002BAED183
:1053200000BF1037BD4680BDF81700206C1B002061
:10533000681A002080B584B000AF03460A46FB71AE
:105340001346BB71BA79FB791146184604F08AF806
:1053500004F05EFF322003F07DFA00F04DF90346C1
:10536000FB8104F0C7F904F065FFFB89184610378C
:10537000BD4680BD80B596B000AF78608E4B1B787F
:10538000042B00F2138101A252F823F0A15300086C
:10539000D1540008BD53000833540008ED540008F0
:1053A00004F0A8F904F046FF844B00221A70844BE5
:1053B00000221A80042007F06FF8F8E0814B1B6888
:1053C00001221A707D4B1B781A467F4B33F812303E
:1053D0001B0A9AB27B4B1B68D2B25A70774B1B7870
:1053E0001A46794B33F81220764B1B68D2B29A706A
:1053F000032000F0A1F9734B1B6803221A70714B54
:105400001B6801225A706F4B1B6800229A700320A0
:1054100000F092F96D4B42F210721A60664B032253
:105420001A70684B1B6810221A70012000F084F972
:10543000BDE0664B1B68002B40F0BA80634B4FF415
:105440007A721A605D4B1B781A465F4B33F8123044
:1054500007EE903AF8EEE77A9FED5D7A67EE877A8D
:10546000C7ED147A554B1B781A46574B33F8123058
:1054700007EE903AF8EEE77A9FED567A67EE877A74
:10548000C7ED137A544B1B8807EE903AF8EEE77A93
:1054900097ED147AB4EEE77AF1EE10FA0CDC4E4B8D
:1054A0001B8807EE903AF8EEE77A97ED137AB4EEA0
:1054B000E77AF1EE10FA07D5424B1B6810221A70FA
:1054C000012000F039F972E03B4B01221A706EE0C6
:1054D000424B1B78414A52781146184603F0C2FFEE
:1054E00004F096FE344B04221A7060E000F084F859
:1054F0000346A7F85630324B1B881A46384B33F810
:105500001230B7F856209A4213D92C4B1B78032B34
:105510000FD82A4B1B780133DAB2284B1A70284B6C
:105520001B8801339AB2264B1A80234B02221A7031
:105530003FE0224B1B78032B0ED9294B1B89B7F870
:1055400056209A4208D9B7F8562007F10C0325498E
:10555000184608F0D5F807E0B7F8562007F10C0315
:105560002149184608F0CCF807F10C0319461F48EA
:1055700007F04EFF134B1B6804221A70114B1B6877
:1055800001225A700F4B1B6800229A70032000F012
:10559000D3F8094B00221A70154B00221A70074BE2
:1055A00000221A70064B00221A8002E000BF00E0C1
:1055B00000BF5837BD4680BDF91B0020FE1B0020F0
:1055C000001C0020200100202C01002028010020C8
:1055D0006666663FCDCC8C3FFA1B0020FC1B00208A
:1055E0003801002080FE0008ACFE0008880B002077
:1055F000F81B00200000000090B597B000AF07F145
:10560000280328220021184608F0B6F83B46282235
:105610000021184608F0B0F84FF000037B65002326
:10562000A7F85030002387F8533042E0404803F099
:10563000D3FB53EC102B97F8534010461946FBF759
:10564000CDFA0246A30058333B44303B1A60384839
:1056500003F09AFB51EC100B33A3D3E90023FAF7C4
:10566000DBFF02460B4697F8534010461946FBF7FE
:10567000B5FA0246A30058333B44583B1A6097F8EA
:1056800053309B0058333B44303BD3ED007AF5EE6A
:10569000C07AF1EE10FA07D897F853309B005833D0
:1056A0003B44303B234A1A6097F85330013387F864
:1056B000533097F85330092BB8D9002387F852306C
:1056C0001CE097F852309B0058333B44583BD3EDD5
:1056D000006A97F852309B0058333B44303B93EDBF
:1056E000007AC6EE877A97ED157A77EE277AC7EDBE
:1056F000157A97F85230013387F8523097F85230C4
:10570000092BDED997ED157AF2EE046AC7EE267AF8
:10571000FCEEE77A17EE903AA7F85030B7F8503021
:1057200018465C37BD4690BD2682A3AAAAAA40406F
:10573000700000206F12833A80B58AB000AF034634
:10574000FB711F4BCA221A701E4B1A781C4B5A70E1
:105750001B4B01229A701A4AFB79D370184B07220F
:105760001A71174BEF2283F80021154BDB780433B5
:10577000DBB21A461449002006F000FB03461A4625
:105780000F4BA3F8FE2007F10C0300221A605A60A9
:105790009A60DA601A615A611A7607F10B0207F112
:1057A0000C031946064806F035FBFA7A07F10C039C
:1057B0001946064807F044FE00BF2837BD4680BDA5
:1057C00064190020DC84002065190020F8170020EF
:1057D00080B485B000AF78607B6803F00703FB609E
:1057E0000C4BDB68BB60BA684FF6FF031340BB602D
:1057F000FB681A02BB68134343F0BF6343F40033F2
:10580000BB60044ABB68D36000BF1437BD465DF877
:10581000047B704700ED00E080B400AF044BDB6810
:105820001B0A03F007031846BD465DF8047B70476A
:1058300000ED00E080B483B000AF0346FB7197F940
:105840000730002B0BDBFB7903F01F02074997F9A8
:1058500007305B09012000FA02F241F8232000BF63
:105860000C37BD465DF8047B704700BF00E100E0E7
:1058700080B483B000AF03463960FB7197F90730FD
:10588000002B0ADB3B68DAB20C4997F907301201AA
:10589000D2B20B4483F800230AE03B68DAB208492D
:1058A000FB7903F00F03043B1201D2B20B441A76CA
:1058B00000BF0C37BD465DF8047B704700E100E097
:1058C00000ED00E080B489B000AFF860B9607A60A4
:1058D000FB6803F00703FB61FB69C3F10703042BBB
:1058E00028BF0423BB61FB690433062B02D9FB6983
:1058F000033B00E000237B614FF0FF32BB6902FAFB
:1059000003F3DA43BB681A407B699A404FF0FF31DA
:105910007B6901FA03F3D9437B680B4013431846B4
:105920002437BD465DF8047B7047000080B485B025
:1059300000AFF860B9607A600D4ABB6813441B7809
:105940001A46FB6813441B6823F0C0020849BB6871
:105950000B441B781946FB680B4419467B681343BC
:105960000B6000BF1437BD465DF8047B704700BF75
:105970001C06010880B485B000AFF860B9607A6099
:105980000D4ABB6813441B781A46FB6813441B6816
:1059900023F490720849BB680B441B781946FB68D6
:1059A0000B4419467B6813430B6000BF1437BD4698
:1059B0005DF8047B704700BF1C06010880B485B009
:1059C00000AFF860B9607A600D4ABB6813441B7879
:1059D0001A46FB6813441B6823F400720849BB682D
:1059E0000B441B781946FB680B4419467B6813432C
:1059F0000B6000BF1437BD465DF8047B704700BFE5
:105A00001C06010880B485B000AFF860B9607A6008
:105A10000D4ABB6813441B781A46FB6813441B6885
:105A200023F480620849BB680B441B781946FB6865
:105A30000B4419467B6813430B6000BF1437BD4607
:105A40005DF8047B704700BF1C06010880B485B078
:105A500000AFF860B9607A600D4ABB6813441B78E8
:105A60001A46FB6813441B6823F4C0520849BB68FC
:105A70000B441B781946FB680B4419467B6813439B
:105A80000B6000BF1437BD465DF8047B704700BF54
:105A90001C06010880B485B000AFF860B9607A6078
:105AA0000D4ABB6813441B781A46FB6813441B68F5
:105AB00023F4C0420849BB680B441B781946FB68B5
:105AC0000B4419467B6813430B6000BF1437BD4677
:105AD0005DF8047B704700BF1C06010880B485B0E8
