:020000040800F2
:10000000000002201D6C00089D6A0008A56A000817
:10001000AD6A0008B56A0008BD6A0008000000006B
:10002000000000000000000000000000C56A000899
:10003000D36A000800000000E16A0008F16A0008C5
:100040006D6C00086D6C00086D6C00086D6C00082C
:100050006D6C00086D6C00081D6B00086D6C00086D
:100060006D6C00086D6C00086D6C00086D6C00080C
:100070006D6C00086D6C00086D6C00086D6C0008FC
:100080006D6C00086D6C00086D6C00086D6C0008EC
:100090006D6C00086D6C00086D6C00086D6C0008DC
:1000A0006D6C00086D6C00086D6C00086D6C0008CC
:1000B0006D6C00086D6C00083B6B00086D6C0008EF
:1000C0006D6C00086D6C00086D6C00086D6C0008AC
:1000D0006D6C00086D6C00086D6C0008496B0008C1
:1000E0006D6C00086D6C00086D6C00086D6C00088C
:1000F0006D6C00086D6C00086D6C00086D6C00087C
:100100006D6C00086D6C00086D6C00086D6C00086B
:100110005D6B00086D6C00086D6C00086D6C00086C
:10012000716B0008519C00086D6C00087D6B000825
:100130009191000800000000000000006D6C0008B4
:100140006D6C00086D6C00086D6C00086D6C00082B
:10015000559100086D6C0008919C00086D6C0008BA
:100160006D6C00086D6C00086D6C00086D6C00080B
:100170006D6C00086D6C00080000000000000000BD
:080180006D6C00086D6C0008B5
:1001900010B5054C237833B9044B13B10448AFF3C1
:1001A00000800123237010BD8001002000000000AA
:1001B00070DF000808B5034B1BB103490348AFF3D8
:1001C000008008BD000000008401002070DF0008EE
:1001D00010F8012B11F8013B012A28BF9A42F7D0F1
:1001E000D01A7047034613F8012B002AFBD1181AC6
:1001F000013870470000000000000000000000000F
:1002000001F0FF01102A2BDB10F0070F08D010F8C7
:10021000013B013A8B422DD010F0070F42B3F6D1CB
:10022000F0B441EA012141EA014122F007047FF0E4
:1002300000070023F0E80256083C85EA010586EA3B
:10024000010685FA47F5A3FA87F586FA47F6A5FA77
:1002500087F68EB9EED1F0BC01F0FF0102F0070283
:1002600032B110F8013B013A83EA010313B1F8D12E
:100270000020704701387047002D06BF354603380F
:10028000073815F0010F07D1013015F4807F02BF48
:10029000013015F4C03F0130F0BC0138704700BF99
:1002A00081F0004102E000BF83F0004330B54FEA27
:1002B00041044FEA430594EA050F08BF90EA020F94
:1002C0001FBF54EA000C55EA020C7FEA645C7FEA27
:1002D000655C00F0E2804FEA5454D4EB5555B8BF4A
:1002E0006D420CDD2C4480EA020281EA030382EABB
:1002F000000083EA010180EA020281EA0303362D4D
:1003000088BF30BD11F0004F4FEA01314FF4801C1F
:100310004CEA113102D0404261EB410113F0004F31
:100320004FEA03334CEA133302D0524263EB4303E8
:1003300094EA050F00F0A780A4F10104D5F1200E86
:100340000DDB02FA0EFC22FA05F2801841F10001E1
:1003500003FA0EF2801843FA05F359410EE0A5F1B5
:1003600020050EF1200E012A03FA0EFC28BF4CF0E6
:10037000020C43FA05F3C01851EBE37101F000459C
:1003800007D54FF0000EDCF1000C7EEB00006EEBA9
:100390000101B1F5801F1BD3B1F5001F0CD3490833
:1003A0005FEA30004FEA3C0C04F101044FEA44528A
:1003B00012F5800F80F09A80BCF1004F08BF5FEA11
:1003C000500C50F1000041EB045141EA050130BDF1
:1003D0005FEA4C0C404141EB0101013C28BFB1F503
:1003E000801FE9D291F0000F04BF01460020B1FA4E
:1003F00081F308BF2033A3F10B03B3F120020CDA21
:100400000C3208DD02F1140CC2F10C0201FA0CF0FE
:1004100021FA02F10CE002F11402D8BFC2F1200C63
:1004200001FA02F120FA0CFCDCBF41EA0C01904019
:10043000E41AA2BF01EB0451294330BD6FEA040462
:100440001F3C1CDA0C340EDC04F11404C4F120024D
:1004500020FA04F001FA02F340EA030021FA04F35F
:1004600045EA030130BDC4F10C04C4F1200220FAB6
:1004700002F001FA04F340EA0300294630BD21FAF4
:1004800004F0294630BD94F0000F83F4801306BFBA
:1004900081F480110134013D4EE77FEA645C18BFAE
:1004A0007FEA655C29D094EA050F08BF90EA020F45
:1004B00005D054EA000C04BF1946104630BD91EA3D
:1004C000030F1EBF0021002030BD5FEA545C05D140
:1004D0004000494128BF41F0004130BD14F580047F
:1004E0003CBF01F5801130BD01F0004545F0FE41F3
:1004F00041F470014FF0000030BD7FEA645C1ABF28
:10050000194610467FEA655C1CBF0B46024650EA5E
:10051000013406BF52EA033591EA030F41F400218A
:1005200030BD00BF90F0000F04BF0021704730B510
:100530004FF4806404F132044FF000054FF00001E5
:1005400050E700BF90F0000F04BF0021704730B5A6
:100550004FF4806404F1320410F0004548BF40427B
:100560004FF000013EE700BF42004FEAE2014FEAD0
:1005700031014FEA02701FBF12F07F4393F07F4FAB
:1005800081F06051704732F07F4208BF704793F0AE
:100590007F4F04BF41F40021704730B54FF46074C1
:1005A00001F0004521F000411CE700BF50EA0102C4
:1005B00008BF704730B54FF000050AE050EA01026D
:1005C00008BF704730B511F0004502D5404261EBDD
:1005D00041014FF4806404F132045FEA915C3FF41E
:1005E000D8AE4FF003025FEADC0C18BF03325FEABB
:1005F000DC0C18BF033202EBDC02C2F1200300FA6C
:1006000003FC20FA02F001FA03FE40EA0E0021FA90
:1006100002F11444BDE600BF70B54FF0FF0C4CF47E
:10062000E06C1CEA11541DBF1CEA135594EA0C0F30
:1006300095EA0C0F00F0DEF82C4481EA030621EA6B
:100640004C5123EA4C5350EA013518BF52EA0335A6
:1006500041F4801143F4801338D0A0FB02CE4FF058
:100660000005E1FB02E506F00042E0FB03E54FF088
:100670000006E1FB03569CF0000F18BF4EF0010E80
:10068000A4F1FF04B6F5007F64F5407404D25FEA7C
:100690004E0E6D4146EB060642EAC62141EA55512F
:1006A0004FEAC52040EA5E504FEACE2EB4F1FD0C71
:1006B00088BFBCF5E06F1ED8BEF1004F08BF5FEAEF
:1006C000500E50F1000041EB045170BD06F00046A1
:1006D00046EA010140EA020081EA0301B4EB5C044E
:1006E000C2BFD4EB0C0541EA045170BD41F4801146
:1006F0004FF0000E013C00F3AB8014F1360FDEBF6B
:10070000002001F0004170BDC4F10004203C35DA46
:100710000C341BDC04F11404C4F1200500FA05F3C9
:1007200020FA04F001FA05F240EA020001F000426A
:1007300021F0004110EBD37021FA04F642EB0601E0
:100740005EEA430E08BF20EAD37070BDC4F10C040A
:10075000C4F1200500FA04F320FA05F001FA04F2CE
:1007600040EA020001F0004110EBD37041F10001BA
:100770005EEA430E08BF20EAD37070BDC4F12005C5
:1007800000FA05F24EEA020E20FA04F301FA05F22D
:1007900043EA020321FA04F001F0004121FA04F2D5
:1007A00020EA020000EBD3705EEA430E08BF20EAA5
:1007B000D37070BD94F0000F0FD101F000464000DF
:1007C00041EB010111F4801F08BF013CF7D041EA61
:1007D000060195F0000F18BF704703F00046520065
:1007E00043EB030313F4801F08BF013DF7D043EA36
:1007F0000603704794EA0C0F0CEA135518BF95EAEC
:100800000C0F0CD050EA410618BF52EA4306D1D172
:1008100081EA030101F000414FF0000070BD50EA91
:10082000410606BF1046194652EA430619D094EA1B
:100830000C0F02D150EA013613D195EA0C0F05D105
:1008400052EA03361CBF104619460AD181EA030159
:1008500001F0004141F0FE4141F470014FF0000011
:1008600070BD41F0FE4141F4780170BD70B54FF0AC
:10087000FF0C4CF4E06C1CEA11541DBF1CEA13552C
:1008800094EA0C0F95EA0C0F00F0A7F8A4EB05040E
:1008900081EA030E52EA03354FEA013100F0888005
:1008A0004FEA03334FF0805545EA131343EA1263CE
:1008B0004FEA022245EA111545EA10654FEA002683
:1008C0000EF000419D4208BF964244F1FD0404F53C
:1008D000407402D25B084FEA3202B61A65EB030598
:1008E0005B084FEA32024FF480104FF4002CB6EB55
:1008F000020E75EB030E22BFB61A754640EA0C00D5
:100900005B084FEA3202B6EB020E75EB030E22BF14
:10091000B61A754640EA5C005B084FEA3202B6EB55
:10092000020E75EB030E22BFB61A754640EA9C0014
:100930005B084FEA3202B6EB020E75EB030E22BFE4
:10094000B61A754640EADC0055EA060E18D04FEAA2
:10095000051545EA16754FEA06164FEAC30343EA42
:1009600052734FEAC2025FEA1C1CC0D111F4801F0F
:100970000BD141EA00014FF000004FF0004CB6E708
:1009800011F4801F04BF01430020B4F1FD0C88BFA7
:10099000BCF5E06F3FF6AFAEB5EB030C04BFB6EBB2
:1009A000020C5FEA500C50F1000041EB045170BDA5
:1009B0000EF0004E4EEA113114EB5C04C2BFD4EBD2
:1009C0000C0541EA045170BD41F480114FF0000E56
:1009D000013C90E645EA060E8DE60CEA135594EAD2
:1009E0000C0F08BF95EA0C0F3FF43BAF94EA0C0FD5
:1009F0000AD150EA01347FF434AF95EA0C0F7FF44A
:100A000025AF104619462CE795EA0C0F06D152EA9D
:100A100003353FF4FDAE1046194622E750EA410681
:100A200018BF52EA43067FF4C5AE50EA41047FF492
:100A30000DAF52EA43057FF4EBAE12E74FF0FF3CF7
:100A400006E000BF4FF0010C02E000BF4FF0010CC8
:100A50004DF804CD4FEA410C7FEA6C5C4FEA430C41
:100A600018BF7FEA6C5C1BD001B050EA410C0CBF90
:100A700052EA430C91EA030F02BF90EA020F0020F2
:100A8000704710F1000F91EA030F58BF994208BF59
:100A900090422CBFD8176FEAE37040F00100704716
:100AA0004FEA410C7FEA6C5C02D150EA013C07D16D
:100AB0004FEA430C7FEA6C5CD6D152EA033CD3D0B8
:100AC0005DF8040B704700BF8446104662468C46B2
:100AD0001946634600E000BF01B5FFF7B7FF0028E5
:100AE00048BF10F1000F01BD4DF808EDFFF7F4FF0E
:100AF0000CBF012000205DF808FB00BF4DF808ED99
:100B0000FFF7EAFF34BF012000205DF808FB00BFBB
:100B10004DF808EDFFF7E0FF94BF012000205DF8DD
:100B200008FB00BF4DF808EDFFF7CEFF94BF012092
:100B300000205DF808FB00BF4DF808EDFFF7C4FF8B
:100B400034BF012000205DF808FB00BF4FEA4102DE
:100B500012F5001215D211D56FF47873B3EB62520F
:100B600012D94FEAC12343F0004343EA505311F036
:100B7000004F23FA02F018BF404270474FF00000C8
:100B8000704750EA013005D111F0004008BF6FF006
:100B9000004070474FF00000704700BF4A0011D27C
:100BA00012F5001211D20DD56FF47873B3EB6252C7
:100BB0000ED44FEAC12343F0004343EA505323FAD3
:100BC00002F070474FF00000704750EA013002D148
:100BD0004FF0FF3070474FF0000070474FEA41027E
:100BE000B2F1E04324BFB3F5001CDCF1FE5C0DD98B
:100BF00001F0004C4FEAC0024CEA5070B2F1004FD5
:100C000040EB830008BF20F00100704711F0804FD7
:100C100021D113F13872BCBF01F00040704741F49C
:100C200080114FEA5252C2F11802C2F1200C10FAA0
:100C30000CF320FA02F018BF40F001004FEAC12384
:100C40004FEAD32303FA0CFC40EA0C0023FA02F328
:100C50004FEA4303CCE77FEA625307D150EA0133FE
:100C60001EBF4FF0FE4040F44000704701F00040CE
:100C700040F0FE4040F40000704700BF53B94AB94D
:100C8000002908BF00281CBF4FF0FF314FF0FF3094
:100C900000F088B9ADF1080C6DE904CE00F006F85B
:100CA000DDF804E0DDE9022304B070472DE9F047E8
:100CB000089D8E4604468846002B4AD18A42174634
:100CC00062D9B2FA82F64EB1C6F1200301FA06F8F3
:100CD00020FA03F3B74043EA0808B4404FEA174E3E
:100CE0001FFA87FCB8FBFEF1230C0EFB118843EAC8
:100CF000084301FB0CF29A4209D9FB1801F1FF30BD
:100D000080F0EA809A4240F2E78002393B449A1A26
:100D1000A3B2B2FBFEF00EFB102243EA024300FB3B
:100D20000CFC9C4509D9FB1800F1FF3280F0D680FD
:100D30009C4540F2D3803B44023840EA0140A3EB9B
:100D40000C0300211DB1F3400022C5E90032BDE8CB
:100D5000F0878B4205D90DB1C5E900010021084695
:100D6000F5E7B3FA83F1002946D1734502D38242F5
:100D700000F20581841A6EEB030201209046002DDB
:100D8000E5D0C5E90048E2E7002A00F09080B2FA19
:100D900082F6002E40F0A4808A1A030C4FEA174E08
:100DA00080B2BCB20121B2FBFEFC0EFB1C2243EA66
:100DB000024304FB0CF29A4207D9FB180CF1FF38EE
:100DC00002D29A4200F2E080C4469B1AB3FBFEF2C4
:100DD0000EFB123340EA034302FB04F49C4207D9A2
:100DE000FB1802F1FF3002D29C4200F2CA80024698
:100DF0001B1B42EA0C40A5E7C1F120068B4022FAFA
:100E000006F71F430EFA01F420FA06F32EFA06FE47
:100E10004FEA1749234300FA01F81FFA87FCBEFB8B
:100E2000F9F01C0C09FB10EE44EA0E4400FB0CFE2A
:100E3000A64502FA01F209D93C1900F1FF3A80F007
:100E40009C80A64540F2998002383C44A4EB0E04F5
:100E50001FFA83FEB4FBF9F309FB13444EEA044482
:100E600003FB0CFCA44508D93C1903F1FF3E80F0BC
:100E70008280A4457FD9023B3C4443EA0040A4EB76
:100E80000C04A0FB02EC64457346E14662D35FD0DC
:100E90005DB1B8EB030264EB090404FA06F622FA2A
:100EA00001F31E43CC40C5E9006400214FE7B1FBCC
:100EB000F2FC010C41EA0E4180B240EA01423B469D
:100EC00038463C46B846BE462026B1FBF7F1A2EBB9
:100ED000080241EA0C4166E7014618E710462CE794
:100EE000C6F120022EFA02F3B740B14020FA02F216
:100EF0004FEA174E0A43B3FBFEF8BCB20EFB1833A1
:100F0000110C41EA034108FB04F9B04089454FEA5E
:100F1000104380B23ED9791808F1FF3C01D28945CF
:100F20001FD8A1EB0901B1FBFEF909FB04F80EFB88
:100F3000191192B242EA0142424529D2BA1809F186
:100F4000FF31C4D24245C2D2A9F102013A44BEE700
:100F5000F0459DD2BEEB02036CEB070C0138E14675
:100F600096E7A7EB09094944A8F1020CB1FBFEF989
:100F700009FB04F8DBE773467FE7504666E708465F
:100F8000FDE63B44023A33E7ACF1020C3B441CE77C
:100F900049469CE7A1EB0901C446B1FBFEF909FBF8
:100FA00004F8C4E7704700BF80B483B000AF786036
:100FB0007B681B6823F001027B681A6000BF0C3756
:100FC000BD465DF8047B7047B0B582B000AF07F056
:100FD000C1FF08F05FFD104B00221A700F4B00227A
:100FE0001A700023FB710FE0FB790D4A5B0113447B
:100FF0000C4A1C4615460FCD0FC495E80F0084E837
:101000000F00FB790133FB71FB79092BECD900BF91
:1010100000BF0837BD46B0BDDC020020DD02002065
:101020009C01002000000020B0B588B002AF7860BD
:10103000AB4B1B78032B00F24A8101A252F823F03C
:10104000511000085F1000088F120008B31200084A
:10105000A44B00221A7001200AF04EFE3CE1A14B85
:101060001B78002B00F035810023FB7508F024FD70
:1010700007F09AFF0023FB75F9E0FB7D9A499B4A34
:101080005B0113440C461D460FCD0FC495E80F00BD
:1010900084E80F0000233B610023FB600123BB6059
:1010A000914B1879904B59798F4B5B881A461346B0
:1010B0009B0013445B00013B1A4607F032FF0246D7
:1010C0003B6913443B61884B1879874B5979864BB0
:1010D0009B891A4613469B0013445B00013B1C4648
:1010E000814BDB891A4613469B0013445B00013B8E
:1010F0001A467D4B1B7A0193012300931346224627
:1011000007F0BEFE02463B6913443B61764B1879FB
:10111000754B5979744B5B891A4613469B001344EF
:101120005B00013B1A4607F0FCFE02463B69134494
:101130003B616D4B58796C4B19796B4B1B8A1A4686
:1011400013469B0013445B00013B1C46664B5B8AC5
:101150001A4613469B0013445B00013B1A46624B40
:101160005B7A0193012300931346224607F088FE21
:1011700002463B6913443B613B69013B3B615A4B6F
:101180001879594B5979584BDB881A4613469B00FE
:1011900013445B00013B1A4607F0C3FE0246FB689E
:1011A0001344FB60504B18794F4B59794E4B1B8BB6
:1011B0001A4613469B0013445B00013B1C464A4BF6
:1011C0005B8B1A4613469B0013445B00013B1A4697
:1011D000454B1B7D0193012300931346224607F0E4
:1011E0004FFE0246FB681344FB603F4B18793E4BB1
:1011F00059793D4BDB8A1A4613469B0013445B002A
:10120000013B1A4607F08DFE0246FB681344FB6063
:10121000354B5879344B1979334B9B8B1A4613460F
:101220009B0013445B00013B1C462F4BDB8B1A4693
:1012300013469B0013445B00013B1A462A4B5B7D1F
:101240000193012300931346224607F019FE02463C
:10125000FB681344FB60FB68013BFB60FB7DBA68E5
:10126000F968386908F0CEFBFB7D0133FB751D4B37
:101270001B78FA7D9A42FFF400AF08F0B5FC07F046
:1012800031FF00F0BDF9164B02221A7024E007F07E
:101290006FFE0346002B1ED01548FFF785FE07F0B2
:1012A00059FE08F0F7FB00F0BBF90D4B00221A7055
:1012B00011E007F093FE08F019FC07F04BFE08F070
:1012C000E9FB00F0ADF9064B00221A7004E000BF04
:1012D00002E000BF00E000BF00BF1837BD46B0BD50
:1012E000DD020020DC020020E00200209C01002042
:1012F0000000014080B483B000AF78607B681B6859
:1013000003F02003202B0CBF01230023DBB218467F
:101310000C37BD465DF8047B704780B483B000AFE6
:1013200078607B6820229A6000BF0C37BD465DF86C
:10133000047B704780B483B000AF78607B681B6823
:1013400043F001027B681A6000BF0C37BD465DF8B0
:10135000047B704780B483B000AF78607B681B6803
:1013600023F001027B681A6000BF0C37BD465DF8B0
:10137000047B704780B483B000AF786039607B68CD
:101380001B6823F070023B681A437B681A6000BF39
:101390000C37BD465DF8047B704780B483B000AF66
:1013A000786039607B683A685A6200BF0C37BD4686
:1013B0005DF8047B704780B483B000AF786039601B
:1013C0007B683A689A6200BF0C37BD465DF8047BC3
:1013D000704780B483B000AF786039607B683A684A
:1013E000DA6200BF0C37BD465DF8047B704780B4FD
:1013F00083B000AF78607B686FF001021A6100BFB4
:101400000C37BD465DF8047B704780B483B000AFF5
:1014100078607B681B6903F00103012B01D1012374
:1014200000E0002318460C37BD465DF8047B70478A
:1014300080B483B000AF78607B68DB6843F0010262
:101440007B68DA6000BF0C37BD465DF8047B7047EF
:1014500080B483B000AF78607B68DB6823F0010262
:101460007B68DA6000BF0C37BD465DF8047B7047CF
:1014700080B500AF264806F0D4FF4FF400420021AB
:10148000234806F040FF4FF430420121204806F087
:101490003AFF48F201020B211D4806F034FF9FED90
:1014A000101B9FED110B1A4806F0CEFF9FED101B8D
:1014B0009FED0D0B164807F007F89FED0F1B9FEDF2
:1014C0000A0B134807F05CF89FED0D0B104807F06E
:1014D000B3F89FED0D0B0E4807F0E2F800BF80BD9A
:1014E00000000000000024400000004008AC8C3FD9
:1014F000000000000000144000000000000014C0C4
:1015000000000000006073400000000000000000C8
:10151000380000200000000080B582B000AF87EDE9
:10152000010A0B4A7B6893637868FFF71DF802464F
:101530000B4643EC112B9FED040B064806F0C4FF4D
:1015400000BF0837BD4680BD0000004008AC8C3F9E
:10155000884100203800002080B582B000AF0C48E0
:1015600007F0D2F853EC102B10461946FFF736FB64
:1015700003467B60D7ED017A9FED067AC7EE876A56
:10158000F0EE667AB0EE670A0837BD4680BD00BF50
:10159000380000204260653C80B400AF034B93F8F4
:1015A0003D301846BD465DF8047B704788410020F9
:1015B00080B500AF044807F01EF9044B002283F801
:1015C0003D2000BF80BD00BF3800002088410020C2
:1015D00080B500AF47210948FFF7EDFE31210748EC
:1015E000FFF7F7FE00210548FFF7C4FE0348FFF7A9
:1015F000B1FE0248FFF72CFF00BF80BD000800408D
:1016000080B500AF00210548FFF7C7FE0348FFF78C
:101610000FFF0248FFF78EFE00BF80BD00080040AC
:1016200080B500AF0548FFF795FE0448FFF710FFAF
:10163000034B00221A8000BF80BD00BF000800409D
:101640008041002080B483B000AF786000BF0C37C9
:10165000BD465DF8047B704780B500AF0E48FFF7CC
:10166000D4FE0346002B15D00B48FFF7C0FE0B4BF2
:101670001B78002B02D0012B06D00BE003220521A2
:10168000074807F0C5F805E003220721044807F0E2
:10169000BFF800BF00BF80BD00080040C841002067
:1016A000380000200000000098B500AF2C48FFF77C
:1016B00021FE0346002B4DD02948FFF72EFE294876
:1016C00006F011FE284B1B78002B02D0012B1CD0FA
:1016D0003CE0244807F0E0F851EC100B1EA3D3E9DE
:1016E0000023FEF799FF02460B46204909880C4665
:1016F00010461946FFF772FA02461D49A3000B4433
:101700001A60194B01221A7024E0164807F0F0F80D
:1017100051EC100B154B1B881C46FFF75FFA024675
:101720001449A3000B441A60104B1B8801339AB272
:101730000E4B1A800D4B1B88B3F5FA6F02D30B4B7F
:1017400000221A80084B00221A7003E0064B002288
:101750001A7000BF00BF98BDBBD6DEA7AAAA404042
:101760000064024038000020C84100208041002071
:10177000402200200003002080B500AF064B03226A
:101780001A70064B012283F83D20054905480BF0ED
:10179000EFF900BF80BD00BFDD02002088410020BE
:1017A00088DF0008D841002080B500AF02F012FBAE
:1017B00003F010FB08F052F8FFF706FCFFF758FEA5
:1017C000FFF706FF42F210700AF0F4F9044B1B68B1
:1017D0000133034A13600AF00FFA00BFF6E700BFB7
:1017E000CC41002080B483B000AF786000BF0C37DC
:1017F000BD465DF8047B704780B400AFBFF34F8FE8
:1018000000BF064BDB6803F4E0620449044B13435A
:10181000CB60BFF34F8F00BF00BFFDE700ED00E0DE
:101820000400FA0580B586B000AFF860B9607A6050
:10183000B86808F04DFD0346FB75FB7D012B04D80D
:101840002D49F86808F040FC52E0FB7D022B04D9DA
:101850002A49F86808F038FC4AE00121B86808F025
:1018600001FD034618460BF03CFA03469BB23B824F
:101870000221B86808F0F6FC034618460BF031FA6E
:1018800003469BB27B823B8AB3F5967F04D91C4901
:10189000F86808F019FC2BE07B8A322B04D9184930
:1018A000F86808F011FC23E0164B1B6800221A7040
:1018B0003B8A1B0A9AB2134B1B68D2B25A703A8AFF
:1018C000104B1B68D2B29A707B8A1B0A9AB20D4BDE
:1018D0001B68D2B2DA707A8A0A4B1B68D2B21A71CC
:1018E000052002F019FA0849F86808F0EDFB00BF7E
:1018F0001837BD4680BD00BF78EB000890EB0008AC
:10190000A8EB0008E4000020C0EB000880B586B01A
:1019100000AFF860B9607A60B86808F0D9FC034697
:10192000FB75FB7D002B04D11D49F86808F0CCFB4A
:1019300032E0FB7D012B04D91A49F86808F0C4FB9A
:101940002AE00121B86808F08DFC034618460BF028
:10195000C8F90346BB82BB8AB3F5967F04D9124906
:10196000F86808F0B1FB17E0104B1B6801221A70F1
:10197000BB8A1B0A9AB20D4B1B68D2B25A700B4B32
:101980001B68BA8AD2B29A70032002F0C5F90849DE
:10199000F86808F099FB00BF1837BD4680BD00BF4E
:1019A00078EB000890EB0008A8EB0008E4000020AA
:1019B000C0EB000880B586B000AFF860B9607A600F
:1019C000B86808F085FC0346FB75FB7D002B04D14D
:1019D0001C49F86808F078FB31E0FB7D012B04D945
:1019E0001949F86808F070FB29E00121B86808F08F
:1019F00039FC034618460BF074F90346BB82BB8AD8
:101A0000322B04D91149F86808F05EFB17E0104B3F
:101A10001B6802221A70BB8A1B0A9AB20C4B1B6805
:101A2000D2B25A700A4B1B68BA8AD2B29A7003209B
:101A300002F072F90749F86808F046FB00BF183752
:101A4000BD4680BD78EB000890EB0008A8EB0008CD
:101A5000E4000020C0EB000880B586B000AFF8605D
:101A6000B9607A60B86808F033FC0346FB75FB7D0B
:101A7000012B04D82449F86808F026FB41E0FB7DDF
:101A8000022B04D92149F86808F01EFB39E0012136
:101A9000B86808F0E7FB034618460BF022F9034646
:101AA000DBB23B750221B86808F0DCFB0346184640
:101AB0000BF017F90346DBB27B753B7D012B04D994
:101AC0001349F86808F000FB1BE07B7D012B04D96B
:101AD0000F49F86808F0F8FA13E00E4B1B68032270
:101AE0001A700C4B1B683A7D5A700A4B1B687A7D42
:101AF0009A70032002F010F90749F86808F0E4FA38
:101B000000BF1837BD4680BD78EB000890EB000899
:101B1000A8EB0008E4000020C0EB000880B586B008
:101B200000AFF860B9607A60B86808F0D1FB03468E
:101B3000FB75FB7D012B04D82449F86808F0C4FA32
:101B400041E0FB7D022B04D92149F86808F0BCFA7A
:101B500039E00121B86808F085FB034618460BF010
:101B6000C0F80346DBB23B750221B86808F07AFB87
:101B7000034618460BF0B5F80346DBB27B753B7D98
:101B8000012B04D91349F86808F09EFA1BE07B7D0D
:101B9000012B04D90F49F86808F096FA13E00E4BB0
:101BA0001B6804221A700C4B1B683A7D5A700A4B52
:101BB0001B687A7D9A70032002F0AEF80749F86836
:101BC00008F082FA00BF1837BD4680BD78EB0008E8
:101BD00090EB0008A8EB0008E4000020C0EB000830
:101BE00080B586B000AFF860B9607A60B86808F078
:101BF0006FFB0346FB75FB7D002B04D00D49F86895
:101C000008F062FA13E00C4B1B6805221A700A4BAD
:101C10001B6800225A70084B1B6801229A7003202F
:101C200002F07AF80549F86808F04EFA00BF183754
:101C3000BD4680BD90EB0008E4000020C0EB00082A
:101C400080B586B000AFF860B9607A60B86808F017
:101C50003FFB0346FB75FB7D002B04D00D49F86864
:101C600008F032FA13E00C4B1B6805221A700A4B7D
:101C70001B6801225A70084B1B6800229A700320CF
:101C800002F04AF80549F86808F01EFA00BF183754
:101C9000BD4680BD90EB0008E4000020C0EB0008CA
:101CA00080B586B000AFF860B9607A60B86808F0B7
:101CB0000FFB03467B617B69002B04D00949F86860
:101CC00008F002FA0BE0084B1B6807221A7001208B
:101CD00002F022F80549F86808F0F6F900BF183755
:101CE000BD4680BD90EB0008E4000020C0EB00087A
:101CF00080B586B000AFF860B9607A60B86808F067
:101D0000E7FA03467B617B69002B04D00949F86838
:101D100008F0DAF90BE0084B1B6809221A70012061
:101D200001F0FAFF0549F86808F0CEF900BF18374E
:101D3000BD4680BD90EB0008E4000020C0EB000829
:101D400080B586B000AFF860B9607A60B86808F016
:101D5000BFFA03467B617B69002B04D00949F86810
:101D600008F0B2F90BE0084B1B6808221A7001203A
:101D700001F0D2FF0549F86808F0A6F900BF18374E
:101D8000BD4680BD90EB0008E4000020C0EB0008D9
:101D900080B586B000AFF860B9607A60B86808F0C6
:101DA00097FA03467B617B69002B04D00949F868E8
:101DB00008F08AF90BE0084B1B680A221A70012010
:101DC00001F0AAFF0549F86808F07EF900BF18374E
:101DD000BD4680BD90EB0008E4000020C0EB000889
:101DE00080B586B000AFF860B9607A60B86808F076
:101DF0006FFA03467B617B69002B04D00949F868C0
:101E000008F062F90BE0084B1B6806221A700120EB
:101E100001F082FF0549F86808F056F900BF18374D
:101E2000BD4680BD90EB0008E4000020C0EB000838
:101E300080B586B000AFF860B9607A60B86808F025
:101E400047FA03467B617B69002B04D00949F86897
:101E500008F03AF90BE0084B1B680B221A700120BE
:101E600001F05AFF0549F86808F02EF900BF18374D
:101E7000BD4680BD90EB0008E4000020C0EB0008E8
:101E800080B586B000AFF860B9607A60B86808F0D5
:101E90001FFA03467B617B69002B04D00949F8686F
:101EA00008F012F90BE0084B1B680C221A70012095
:101EB00001F032FF0549F86808F006F900BF18374D
:101EC000BD4680BD90EB0008E4000020C0EB000898
:101ED00080B596B000AFF860B9607A60334B1B787C
:101EE000002B04D03249F86808F0EEF85BE0B868DF
:101EF00008F0EEF9034687F8573097F85730012B72
:101F000004D82C49F86808F0DFF84CE097F857300F
:101F1000022B04D92849F86808F0D6F843E00121DB
:101F2000B86808F09FF9034618460AF0DAFE03463F
:101F3000DBB287F850300221B86808F093F9034605
:101F400018460AF0CEFE0346DBB287F8513097F808
:101F50005030013B194AD35C87F8563097F851301E
:101F6000013B164AD35C87F8553097F8552097F80F
:101F700056301146184602F0CBFF0346A7F8523000
:101F8000B7F8522007F110030D4918460AF068FF10
:101F900007F110031946F86808F096F80949F8683F
:101FA00008F092F800BF5837BD4680BDDD02002022
:101FB000D0EB000878EB000890EB0008DC00002074
:101FC000F4EB0008C0EB000880B588B000AFF86003
:101FD000B9607A60B86808F07BF90346FB77FB7F4D
:101FE000012B04D83349F86808F06EF85EE0FB7FF7
:101FF000022B04D93049F86808F066F856E0012150
:10200000B86808F02FF9034618460AF06AFE03463E
:10201000DBB23B750221B86808F024F90346184684
:102020000AF05FFE0346DBB27B753B7D0B2B04D9C8
:102030002249F86808F048F838E07B7D092B04D97C
:102040001E49F86808F040F830E03B7D0B2B07D1C3
:102050007B7D072B04D91949F86808F035F825E08D
:102060003B7D002B07D17B7D002B04D11349F86801
:1020700008F02AF81AE03B7D07EE903AB8EE677A4E
:102080007B7D07EE903AF8EE677ADFED0D6A67EE3A
:10209000A67A77EE277AC7ED067A97ED060AFFF75C
:1020A0003BFA0849F86808F00FF800BF2037BD4632
:1020B00080BD00BF78EB000890EB0008A8EB00089B
:1020C000CDCCCC3DC0EB000880B596B000AFF86039
:1020D000B9607A60B86808F0FBF8034687F85730B3
:1020E00097F85730002B04D01449F86807F0ECFF3C
:1020F00020E0FFF731FAF0EE407A9FED117A67EEBB
:10210000877AC7ED147AD7ED147AFDEEE77A07F1F6
:10211000100317EE902A0B4918460AF0A1FE07F1AA
:1021200010031946F86807F0CFFF0749F86807F071
:10213000CBFF00BF5837BD4680BD00BF90EB000805
:1021400000007A440CEC0008C0EB000880B586B0B3
:1021500000AFF860B9607A60B86808F0B9F8034673
:10216000FB75FB7D002B04D00E49F86807F0ACFF2F
:1021700014E0FFF711FA0346BB75BB7D002B04D0BA
:102180000949F86807F0A0FF03E00849F86807F07C
:102190009BFF0749F86807F097FF00BF1837BD4657
:1021A00080BD00BF90EB000834EC000858EC00083C
:1021B000C0EB000880B586B000AFF860B9607A6007
:1021C000B86808F085F80346FB75FB7D002B04D04A
:1021D0000749F86807F078FF06E0FFF7E9F90549D5
:1021E000F86807F071FF00BF1837BD4680BD00BF1B
:1021F00090EB0008C0EB000880B5A6B000AFF86017
:10220000B9607A60B86808F063F80346C7F894309C
:10221000D7F89430002B04DC3349F86807F054FFFA
:102220005FE0D7F89430012B04DD3049F86807F0FF
:102230004BFF56E00121B86808F014F80346184631
:102240000AF04FFD034687F8933097F89330002B40
:1022500003D097F893300A2B04D92549F86807F082
:1022600033FF3EE097F89320224B1B7802339A42CB
:102270001FDD214B1B785A1C97F8933007F1100093
:102280001E490AF0EDFD07F1100319461C480AF03B
:102290006FFC194B1B781A4607F1100319491846B1
:1022A0000AF0DEFD07F11003194615480AF060FC3C
:1022B00017E097F89330013BDAB20E4B1A700D4BD2
:1022C0001B78114A5B01134401221A70094B1B78D9
:1022D0000133DAB2084B1A700C49F86807F0F4FEC3
:1022E00000BF9837BD4680BD78EB000890EB000832
:1022F000A8EB0008D0410020DC0200207CEC0008A4
:10230000D8410020B0EC00089C010020C0EB000880
:1023100080B586B000AFF860B9607A60B86807F041
:10232000D7FF03467B617B69002B03D00D49F8681A
:1023300007F0CAFE0C4B1B780C4A5B0113440022C9
:102340001A70094B1B785A1ED1B2074A1170084AFD
:1023500013700849F86807F0B7FE00BF1837BD468C
:1023600080BD00BFA8EB0008D04100209C010020E8
:10237000DC020020C0EB000880B586B000AFF8603A
:10238000B9607A60B86807F0A3FF03467B617B6998
:10239000002B04D00D49F86807F096FE13E00C4BB3
:1023A0001B780C4A5B01134400221A70084B1B78FF
:1023B000084A5B011344013301221A700649F86888
:1023C00007F082FE00BF1837BD4680BDA8EB0008AD
:1023D000D04100209C010020C0EB000880B586B0F1
:1023E00000AFF860B9607A60B86807F071FF034623
:1023F0007B617B69002B04DC1A49F86807F064FEF6
:102400002CE07B69012B04DD1749F86807F05CFEBE
:1024100024E0164B1B78164A5B0113441B7883F0AB
:102420000103DBB2002B18D10121B86807F01AFFB5
:10243000034618460AF055FC0346FB740B4B1B7809
:10244000FA7C91B20A4A5B01134402330A461A80AD
:102450000849F86807F038FE00E000BF1837BD46AD
:1024600080BD00BF78EB000890EB0008D041002051
:102470009C010020C0EB000880B586B000AFF8607A
:10248000B9607A60B86807F023FF03467B617B6917
:10249000012B04DC2849F86807F016FE48E07B6948
:1024A000022B04DD2549F86807F00EFE40E001210B
:1024B000B86807F0D7FE034618460AF012FC034638
:1024C000DBB23B740221B86807F0CCFE0346184625
:1024D0000AF007FC0346DBB27B74194B1B78194AE0
:1024E0005B0113441B7883F00103DBB2002B1ED188
:1024F0003B7C013B124A12781046134AD15C114AC8
:102500004301134404330A461A707B7C013B0C4A96
:10251000127810460C4AD15C0A4A43011344053331
:102520000A461A700949F86807F0CEFD00E000BFBE
:102530001837BD4680BD00BF78EB000890EB00085F
:10254000D04100209C010020DC000020C0EB0008EE
:1025500080B58AB000AFF860B9607A60B86807F0FB
:10256000B7FE03467B627B6A032B04DC4049F868B4
:1025700007F0AAFD79E07B6A042B04DD3D49F86889
:1025800007F0A2FD71E03C4B1B783C4A5B01134411
:102590001B7883F00103DBB2002B65D10121B86801
:1025A00007F060FE034618460AF09BFB03467B617A
:1025B0000221B86807F056FE034618460AF091FB60
:1025C0000346BB610321B86807F04CFE034618467A
:1025D0000AF087FB0346FB610421B86807F042FE5E
:1025E000034618460AF07DFB03463B627B69142BC9
:1025F00008DCBB69142B05DCFB69142B02DC3B6A8D
:10260000142B04DD1E49F86807F05EFD2DE07A69A1
:10261000194B1B78D1B2194A5B01134408330A469F
:102620001A70BA69144B1B78D1B2144A5B01134477
:1026300009330A461A70FA690F4B1B78D1B20F4A58
:102640005B01134414330A461A703A6A0A4B1B782A
:10265000D1B20A4A5B01134415330A461A7009497C
:10266000F86807F031FD00E000BF2837BD4680BDA7
:1026700078EB000890EB0008D04100209C0100207E
:10268000A8EB0008C0EB000880B588B000AFF86088
:10269000B9607A60B86807F01BFE0346FB61FB690E
:1026A000022B04DC2E49F86807F00EFD54E0FB69AC
:1026B000032B04DD2B49F86807F006FD4CE02A4B9C
:1026C0001B782A4A5B0113441B7883F00103DBB2B9
:1026D000002B40D10121B86807F0C4FD034618461D
:1026E0000AF0FFFA03463B610221B86807F0BAFD21
:1026F000034618460AF0F5FA03467B610321B868E1
:1027000007F0B0FD034618460AF0EBFA0346BB613A
:102710003A69154B1B7891B2144A5B0113440A3392
:102720000A461A807A69104B1B7891B20F4A5B01F6
:10273000134416330A461A80BA690B4B1B7891B2C0
:102740000A4A5B01134406330A461A800849F868AE
:1027500007F0BAFC00E000BF2037BD4680BD00BFD7
:1027600078EB000890EB0008D04100209C0100208D
:10277000C0EB000880B588B000AFF860B9607A603F
:10278000B86807F0A5FD0346FB61FB69012B04DC7B
:102790003049F86807F098FC58E0FB69022B04DD2B
:1027A0002D49F86807F090FC50E02C4B1B782C4A20
:1027B0005B0113441B7883F00103DBB2002B44D18F
:1027C0000121B86807F04EFD034618460AF089FA61
:1027D00003467B610221B86807F044FD03461846B2
:1027E0000AF07FFA0346BB617B69B3F57A7F02DCAE
:1027F0007B69002B04DC1B49F86807F065FC25E0C9
:10280000BB69B3F57A7F02DCBB69002B04DC154998
:10281000F86807F059FC19E07A69104B1B7891B2FF
:102820000F4A5B0113440C330A461A80BA690B4BFA
:102830001B7891B20A4A5B0113440E330A461A8090
:102840000949F86807F040FC00E000BF2037BD46AA
:1028500080BD00BF78EB000890EB0008D04100205D
:102860009C010020A8EB0008C0EB000880B588B0F0
:1028700000AFF860B9607A60B86807F029FD0346D8
:10288000FB61FB69012B04DC3049F86807F01CFC94
:1028900058E0FB69022B04DD2D49F86807F014FCB1
:1028A00050E00121B86807F0DDFC034618460AF045
:1028B00018FA03467B610221B86807F0D3FC03468F
:1028C00018460AF00EFA0346BB617B69B3F57A7FBE
:1028D00002DC7B69002B04DC1E49F86807F0F4FB7E
:1028E00030E0BB69B3F57A7F02DCBB69002B04DC06
:1028F0001849F86807F0E8FB24E0174B1B78174AE3
:102900005B0113441B7883F00103DBB2002B18D169
:102910007A69114B1B7891B2104A5B011344103352
:102920000A461A80BA690C4B1B7891B20B4A5B01BC
:10293000134412330A461A800949F86807F0C4FBA9
:1029400000E000BF2037BD4680BD00BF78EB000827
:1029500090EB0008A8EB0008D04100209C0100206B
:10296000C0EB000880B588B000AFF860B9607A604D
:10297000B86807F0ADFC0346FB61FB69012B04DC82
:102980003049F86807F0A0FB58E0FB69022B04DD32
:102990002D49F86807F098FB50E00121B86807F06E
:1029A00061FC034618460AF09CF903467B6102214C
:1029B000B86807F057FC034618460AF092F9034638
:1029C000BB617B69B3F57A7F02DC7B69002B04DC99
:1029D0001E49F86807F078FB30E0BB69B3F57A7FF1
:1029E00002DCBB69002B04DC1849F86807F06CFBBB
:1029F00024E0174B1B78174A5B0113441B7883F0C4
:102A00000103DBB2002B18D17A69114B1B7891B20C
:102A1000104A5B01134418330A461A80BA690C4BFA
:102A20001B7891B20B4A5B0113441A330A461A8091
:102A30000949F86807F048FB00E000BF2037BD46B1
:102A400080BD00BF78EB000890EB0008A8EB000801
:102A5000D04100209C010020C0EB000880B588B068
:102A600000AFF860B9607A60B86807F031FC0346DF
:102A7000FB61FB69012B04DC3049F86807F024FB9B
:102A800058E0FB69022B04DD2D49F86807F01CFBB8
:102A900050E00121B86807F0E5FB034618460AF04C
:102AA00020F903467B610221B86807F0DBFB03468F
:102AB00018460AF016F90346BB617B69B3F57A7FC5
:102AC00002DC7B69002B04DC1E49F86807F0FCFA85
:102AD00030E0BB69B3F57A7F02DCBB69002B04DC14
:102AE0001849F86807F0F0FA24E0174B1B78174AEA
:102AF0005B0113441B7883F00103DBB2002B18D178
:102B00007A69114B1B7891B2104A5B0113441C3354
:102B10000A461A80BA690C4B1B7891B20B4A5B01CA
:102B200013441E330A461A800949F86807F0CCFAA4
:102B300000E000BF2037BD4680BD00BF78EB000835
:102B400090EB0008A8EB0008D04100209C01002079
:102B5000C0EB000880B586B000AFF860B9607A605D
:102B6000FEF71AFD0346002B04D02649F86807F04B
:102B7000ABFA44E0244B1B78002B04D02349F868BF
:102B800007F0A2FA3BE0B86807F0A2FB0346FB752A
:102B9000FB7D002B04D11E49F86807F095FA2EE062
:102BA000FB7D012B04D91B49F86807F08DFA26E05C
:102BB000194B1B78194A5B01134401331B7883F0CE
:102BC0000103DBB2002B04D01549F86807F07CFA4A
:102BD00015E00121B86807F045FB034618460AF0E6
:102BE00080F80346BB75BB7D012B07D10D4B01223D
:102BF0001A700121012009F039F800E000BF1837F0
:102C0000BD4680BDD0EC00084852002008ED000809
:102C100078EB000890EB0008D04100209C010020D8
:102C200030ED0008DD02002080B5A6B000AFF860EE
:102C3000B9607A60B86807F04BFB0346C7F890307C
:102C4000D7F89030002B04D09349F86807F03CFA8D
:102C50001EE1002387F89730002387F8973010E1B2
:102C60008E49F86807F030FA97F897305A1C07F148
:102C700010038B4918460AF0F3F807F110031946C0
:102C8000F86807F021FA97F89730864A5B011344F9
:102C900004331B785A1C97F8973082495B010B4428
:102CA00005331B78013307F110007F490AF0D8F88B
:102CB00007F110031946F86807F006FA97F89730FD
:102CC000784A5B01134408331B78194697F897300C
:102CD000744A5B01134409331B7807F110000A465C
:102CE00072490AF0BDF807F110031946F86807F0B9
:102CF000EBF997F897306B4A5B01134414331B7858
:102D0000194697F89730674A5B01134414331B78D0
:102D100007F110000A4666490AF0A2F807F110030D
:102D20001946F86807F0D0F997F897305D4A5B01CB
:102D300013440A331B881A4607F110035D491846ED
:102D40000AF08EF807F110031946F86807F0BCF98D
:102D500097F89730534A5B01134416331B881A4681
:102D600007F11003544918460AF07AF807F11003E6
:102D70001946F86807F0A8F997F89730494A5B01B7
:102D8000134406331B881A4607F110034B491846B3
:102D90000AF066F807F110031946F86807F094F98D
:102DA00097F897303F4A5B0113440C331B88194650
:102DB00097F897303B4A5B0113440E331B8807F1A9
:102DC00010000A463E490AF04BF807F11003194675
:102DD000F86807F079F997F89730324A5B011344A5
:102DE00010331B88194697F897302E4A5B0113441D
:102DF00012331B8807F110000A4632490AF030F8F6
:102E000007F110031946F86807F05EF997F8973054
:102E1000244A5B01134418331B88194697F89730EE
:102E2000204A5B0113441A331B8807F110000A463D
:102E300025490AF015F807F110031946F86807F05C
:102E400043F997F89730174A5B0113441C331B88EA
:102E5000194697F89730134A5B0113441E331B88B9
:102E600007F110000A46194909F0FAFF07F11003AB
:102E70001946F86807F028F997F89730013387F872
:102E80009730134B1B7897F897209A427FF6E8AE5D
:102E90009837BD4680BD00BFA8EB000854ED000880
:102EA00094ED00089C010020B4ED0008E0ED00085E
:102EB00014EE000848EE000874EE0008A0EE0008CA
:102EC000CCEE000808EF000844EF000880EF00088F
:102ED000D041002080B596B000AFF860B9607A604C
:102EE000B86807F0F5F903467B657B6D002B04D0CD
:102EF0000D49F86807F0E8F813E00C4B1B785A1CF2
:102F000007F114030A49184609F0AAFF07F1140350
:102F10001946F86807F0D8F80649F86807F0D4F8B9
:102F200000BF5837BD4680BDA8EB0008D041002047
:102F300094ED0008C0EB000880B485B000AFF860E5
:102F4000B9607A6000BF1437BD465DF8047B7047F6
:102F500080B485B000AFF860B9607A6000BF143704
:102F6000BD465DF8047B704780B596B000AFF86051
:102F7000B9607A60B86807F0ABF903467B657B6D92
:102F8000002B04D01049F86807F09EF818E00F4BAA
:102F90001B780F4A5B01134402331B881A4607F162
:102FA00014030C49184609F05BFF07F11403194696
:102FB000F86807F089F80849F86807F085F800BF55
:102FC0005837BD4680BD00BFA8EB0008D0410020A7
:102FD0009C010020BCEF0008C0EB000880B596B053
:102FE00000AFF860B9607A60B86807F071F903461D
:102FF0007B657B6D002B04D01349F86807F064F8FB
:103000001FE0124B1B78124A5B01134404331B78F8
:103010005A1C0E4B1B780E495B010B4405331B7881
:10302000013307F114000B4909F01AFF07F11403EB
:103030001946F86807F048F80749F86807F044F8B7
:1030400000BF5837BD4680BDA8EB0008D041002026
:103050009C010020B4ED0008C0EB000880B596B0DC
:1030600000AFF860B9607A60B86807F031F90346DC
:103070007B657B6D002B04D02149F86807F024F8AC
:103080003AE0204B1B78204A5B01134408331B783D
:1030900019461C4B1B781C4A5B01134409331B78EF
:1030A00007F114000A46194909F0DAFE07F1140382
:1030B0001946F86807F008F8124B1B78124A5B01B2
:1030C000134414331B7819460E4B1B780E4A5B01D0
:1030D000134414331B7807F114000A460C4909F015
:1030E000BFFE07F114031946F86806F0EDFF094921
:1030F000F86806F0E9FF00BF5837BD4680BD00BF45
:10310000A8EB0008D04100209C010020E0ED000861
:1031100014EE0008C0EB000880B596B000AFF86070
:10312000B9607A60B86807F0D3F803467B657B6DB9
:10313000002B04D02449F86806F0C6FF40E0234B7A
:103140001B78234A5B0113440A331B881A4607F194
:1031500014032049184609F083FE07F114031946A9
:10316000F86806F0B1FF194B1B78194A5B0113444C
:1031700016331B881A4607F114031749184609F03D
:103180006FFE07F114031946F86806F09DFF0F4B18
:103190001B780F4A5B01134406331B881A4607F15C
:1031A00014030E49184609F05BFE07F11403194693
:1031B000F86806F089FF0A49F86806F085FF00BF45
:1031C0005837BD4680BD00BFA8EB0008D0410020A5
:1031D0009C01002048EE000874EE0008A0EE0008F4
:1031E000C0EB000880B596B000AFF860B9607A60B7
:1031F000B86807F06DF803467B657B6D002B04D043
:103200002149F86806F060FF3AE0204B1B78204A1D
:103210005B0113440C331B8819461C4B1B781C4A5A
:103220005B0113440E331B8807F114000A46194949
:1032300009F016FE07F114031946F86806F044FF7A
:10324000124B1B78124A5B01134410331B8819463A
:103250000E4B1B780E4A5B01134412331B8807F197
:1032600014000A460C4909F0FBFD07F11403194646
:10327000F86806F029FF0949F86806F025FF00BF45
:103280005837BD4680BD00BFA8EB0008D0410020E4
:103290009C010020CCEE000808EF0008C0EB0008FD
:1032A00080B596B000AFF860B9607A60B86807F092
:1032B0000FF803467B657B6D002B04D01349F8683B
:1032C00006F002FF1FE0124B1B78124A5B01134409
:1032D0000C331B8819460E4B1B780E4A5B011344B6
:1032E0000E331B8807F114000A460B4909F0B8FD9C
:1032F00007F114031946F86806F0E6FE0749F86876
:1033000006F0E2FE00BF5837BD4680BDA8EB0008BE
:10331000D04100209C010020CCEE0008C0EB00084A
:1033200080B596B000AFF860B9607A60B86806F012
:10333000CFFF03467B657B6D002B04D01349F868F3
:1033400006F0C2FE1FE0124B1B78124A5B011344C9
:1033500010331B8819460E4B1B780E4A5B01134431
:1033600012331B8807F114000A460B4909F078FD57
:1033700007F114031946F86806F0A6FE0749F86835
:1033800006F0A2FE00BF5837BD4680BDA8EB00087E
:10339000D04100209C01002008EF0008C0EB00088D
:1033A00080B596B000AFF860B9607A60B86806F092
:1033B0008FFF03467B657B6D002B04D02149F868A5
:1033C00006F082FE3AE0204B1B78204A5B01134452
:1033D00018331B8819461C4B1B781C4A5B0113448D
:1033E0001A331B8807F114000A46194909F038FD01
:1033F00007F114031946F86806F066FE124B1B78B5
:10340000124A5B0113441C331B8819460E4B1B7870
:103410000E4A5B0113441E331B8807F114000A4651
:103420000C4909F01DFD07F114031946F86806F070
:103430004BFE0949F86806F047FE00BF5837BD4605
:1034400080BD00BFA8EB0008D04100209C010020F7
:1034500044EF000880EF0008C0EB000880B596B08C
:1034600000AFF860B9607A60B86806F031FF0346D3
:103470007B657B6D002B04D01349F86806F024FEB1
:103480001FE0124B1B78124A5B01134418331B8850
:1034900019460E4B1B780E4A5B0113441A331B88E6
:1034A00007F114000A460B4909F0DAFC07F114038E
:1034B0001946094809F05CFB0849F86806F004FE63
:1034C00000BF5837BD4680BDA8EB0008D0410020A2
:1034D0009C01002044EF0008D8410020C0EB000808
:1034E00080B596B000AFF860B9607A60B86806F051
:1034F000EFFE03467B657B6D002B04D01349F86813
:1035000006F0E2FD1FE0124B1B78124A5B011344E8
:103510001C331B8819460E4B1B780E4A5B01134463
:103520001E331B8807F114000A460B4909F098FC6A
:1035300007F114031946F86806F0C6FD0749F86854
:1035400006F0C2FD00BF5837BD4680BDA8EB00089D
:10355000D04100209C01002080EF0008C0EB000853
:1035600080B586B000AFF860B9607A60B86806F0E0
:10357000AFFE03467B617B69002B04D00E49F868DF
:1035800006F0A2FD15E00D4B1B78002B04D00C4972
:10359000F86806F099FD07E0084B1B78002B03D173
:1035A0000849F86806F090FD0749F86806F08CFDB8
:1035B00000BF1837BD4680BDA8EB0008DD02002023
:1035C000DCEF0008F4EF0008C0EB000880B5A6B0FF
:1035D00000AFF860B9607A60B86806F079FE03461B
:1035E000C7F89430D7F89430002B04D09249F8688B
:1035F00006F06AFD1DE19149F86806F065FD904B03
:103600001B785A1C07F114038E49184609F028FC50
:1036100007F114031946F86806F056FD884B1B782D
:10362000894A5B01134404331B785A1C844B1B7872
:1036300085495B010B4405331B78013307F1140006
:10364000824909F00DFC07F114031946F86806F0E9
:103650003BFD7B4B1B787C4A5B01134408331B7892
:103660001946774B1B78784A5B01134409331B7862
:1036700007F114000A46764909F0F2FB07F114033A
:103680001946F86806F020FD6D4B1B786E4A5B0109
:10369000134414331B781946694B1B786A4A5B0143
:1036A000134414331B7807F114000A46694909F0E2
:1036B000D7FB07F114031946F86806F005FD604BC7
:1036C0001B78614A5B0113440A331B881A4607F1D1
:1036D00014036149184609F0C3FB07F114031946A6
:1036E000F86806F0F1FC564B1B78574A5B0113440F
:1036F00016331B881A4607F114035849184609F077
:10370000AFFB07F114031946F86806F0DDFC4C4BDB
:103710001B784D4A5B01134406331B881A4607F198
:1037200014034F49184609F09BFB07F1140319468F
:10373000F86806F0C9FC424B1B78434A5B0113440E
:103740000C331B8819463E4B1B783F4A5B011344E0
:103750000E331B8807F114000A46424909F080FB2A
:1037600007F114031946F86806F0AEFC344B1B78D9
:10377000354A5B01134410331B881946304B1B78C4
:10378000314A5B01134412331B8807F114000A46C7
:10379000354909F065FB07F114031946F86806F08E
:1037A00093FC274B1B78284A5B01134418331B8872
:1037B0001946234B1B78244A5B0113441A331B8898
:1037C00007F114000A46294909F04AFB07F11403DE
:1037D0001946F86806F078FC194B1B781A4A5B0109
:1037E00013441C331B881946154B1B78164A5B0182
:1037F00013441E331B8807F114000A461C4909F0C4
:103800002FFB07F114031946F86806F05DFC194B0D
:103810001B78002B04D01849F86806F055FC07E027
:10382000144B1B78002B03D11449F86806F04CFCAC
:1038300000BF9837BD4680BDA8EB000854ED0008D6
:10384000D041002094ED00089C010020B4ED000858
:10385000E0ED000814EE000848EE000874EE0008E1
:10386000A0EE0008CCEE000808EF000844EF0008C6
:1038700080EF0008DD020020DCEF0008F4EF000814
:1038800080B586B000AFF860B9607A60B86806F0BD
:103890001FFD0346FB75FB7D002B04D00949F8682A
:1038A00006F012FC0BE0084B1B680D221A70012079
:1038B00000F032FA0549F86806F006FC00BF183738
:1038C000BD4680BDA8EB0008E4000020C0EB000866
:1038D00080B586B000AFF860B9607A60B86806F06D
:1038E000F7FC0346FB75FB7D002B04D00949F86803
:1038F00006F0EAFB0BE0084B1B680E221A70012051
:1039000000F00AFA0549F86806F0DEFB00BF183738
:10391000BD4680BDA8EB0008E4000020C0EB000815
:1039200080B586B000AFF860B9607A60B86806F01C
:10393000CFFC0346FB75FB7D002B04D00949F868DA
:1039400006F0C2FB0BE0084B1B680F221A70012027
:1039500000F0E2F90549F86806F0B6FB00BF183739
:10396000BD4680BDA8EB0008E4000020C0EB0008C5
:1039700080B586B000AFF860B9607A60B86806F0CC
:10398000A7FC0346FB75FB7D002B04D00949F868B2
:1039900006F09AFB0BE0084B1B6810221A700120FE
:1039A00000F0BAF90549F86806F08EFB00BF183739
:1039B000BD4680BDA8EB0008E4000020C0EB000875
:1039C00080B586B000AFF860B9607A60B86806F07C
:1039D0007FFC0346FB75FB7D002B04D00949F8688A
:1039E00006F072FB0BE0084B1B6811221A700120D5
:1039F00000F092F90549F86806F066FB00BF183739
:103A0000BD4680BDA8EB0008E4000020C0EB000824
:103A100080B586B000AFF860B9607A60B86806F02B
:103A200057FC0346FB75FB7D002B04D00949F86861
:103A300006F04AFB0BE0084B1B6812221A700120AB
:103A400000F06AF90549F86806F03EFB00BF183738
:103A5000BD4680BDA8EB0008E4000020C0EB0008D4
:103A600080B586B000AFF860B9607A60B86806F0DB
:103A70002FFC0346FB75FB7D002B04D00949F86839
:103A800006F022FB0BE0084B1B6813221A70012082
:103A900000F042F90549F86806F016FB00BF183738
:103AA000BD4680BDA8EB0008E4000020C0EB000884
:103AB00080B586B000AFF860B9607A60B86806F08B
:103AC00007FC0346FB75FB7D002B04D00949F86811
:103AD00006F0FAFA0BE0084B1B6814221A7001205A
:103AE00000F01AF90549F86806F0EEFA00BF183739
:103AF000BD4680BDA8EB0008E4000020C0EB000834
:103B000080B586B000AFF860B9607A60B86806F03A
:103B1000DFFB0346FB75FB7D002B04D11F49F868D2
:103B200006F0D2FA36E0FB7D012B04D91C49F86877
:103B300006F0CAFA2EE00121B86806F093FB0346AE
:103B4000184609F0CEF838613B69642B0BD03B690D
:103B5000C82B08D03B69B3F5C87F04D01149F86879
:103B600006F0B2FA16E0104B1B6815221A703B697A
:103B70000E4A82FB03125211DB17D21A0A4B1B6842
:103B8000D2B25A70022000F0C7F80949F86806F06E
:103B90009BFA00BF1837BD4680BD00BF78EB000818
:103BA00090EB0008A8EB0008E40000201F85EB5113
:103BB000C0EB000880B586B000AFF860B9607A60ED
:103BC000B86806F085FB0346FB75FB7D002B04D02F
:103BD0000949F86806F078FA0BE0084B1B681622D2
:103BE0001A70012000F098F80549F86806F06CFAA0
:103BF00000BF1837BD4680BDA8EB0008E4000020D8
:103C0000C0EB000880B586B000AFF860B9607A609C
:103C1000B86806F05DFB0346FB75FB7D002B04D006
:103C20000949F86806F050FA0BE0084B1B681722A8
:103C30001A70012000F070F80549F86806F044FA9F
:103C400000BF1837BD4680BDA8EB0008E400002087
:103C5000C0EB000880B586B000AFF860B9607A604C
:103C6000B86806F035FB0346FB75FB7D002B04D0DE
:103C70000949F86806F028FA0BE0084B1B6818227F
:103C80001A70012000F048F80549F86806F01CFA9F
:103C900000BF1837BD4680BDA8EB0008E400002037
:103CA000C0EB000880B588B000AFF860B9607A60FA
:103CB00007F11403074A0A21184609F09BF807F197
:103CC00014031946F86806F0FFF900BF2037BD4617
:103CD00080BD00BF10F0000880B584B000AFF86070
:103CE000B9607A60FDF788FD80B485B000AFF860F8
:103CF000B9607A6000BF1437BD465DF8047B704739
:103D000080B485B000AFF860B9607A6000BF143746
:103D1000BD465DF8047B704780B58AB000AF0346AE
:103D2000FB711F4BCA221A701E4B1A781C4B5A701B
:103D30001B4B01229A701A4AFB79D370184B072249
:103D40001A71174BEF2283F80021154BDB780433EF
:103D5000DBB21A461449002007F040FC03461A461D
:103D60000F4BA3F8FE2007F10C0300221A605A60E3
:103D70009A60DA601A615A611A7607F10B0207F14C
:103D80000C031946064807F075FCFA7A07F10C0394
:103D90001946064808F004FF00BF2837BD4680BD1D
:103DA000B44F00209CB90020B54F0020484E0020A1
:103DB00080B400AF024B1846BD465DF8047B7047E7
:103DC000B0F5000880B400AF40231846BD465DF84A
:103DD000047B704780B584B004AF4FF40073039345
:103DE0004FF4007302930E4B01930E4B0093272365
:103DF0000D4A0E490E4808F042FE4FF400620D498C
:103E00000B4805F077FF03460B4A13600B4908483F
:103E100008F0AEFE0A4B064A1A6000BFBD4680BDE0
:103E200044440020444200200048004018F00008AC
:103E3000D841002044460020444E002024F00008D1
:103E4000D441002080B584B000AF78600BE00D480D
:103E500008F05AFE0346FB730B4B1B68FA7B1146B6
:103E6000184606F07DF8074808F0B8FE0346002B18
:103E7000EDD1054B1B68184606F095F800BF1037CA
:103E8000BD4680BDD8410020444E002080B5ADF530
:103E9000327D02AFA04B1B681B78182B00F2C08646
:103EA00001A252F823F000BF254C0008254C000861
:103EB000254C0008254C0008254C0008214C000822
:103EC0000D3F0008B53F00085F4000080B400008A8
:103ED000B34000083B420008E5410008B742000833
:103EE000154400084145000873470008DF470008F3
:103EF00069480008D5480008EF490008214C00082F
:103F0000094B0008714B0008C94B0008824B1B6825
:103F10005B78012B04D18149814808F029FE1CE01F
:103F20007D4B1B689B78012B04D17E497C4808F0AF
:103F30001FFE12E0784B1B68DB78012B04D17A4915
:103F4000774808F015FE08E0734B1B681B79012BBE
:103F500003D17649724808F00BFE6F4B1B685B7902
:103F6000012B05D172496E4808F002FE00F05CBEDC
:103F7000694B1B689B79012B05D16E49684808F095
:103F8000F7FD00F051BE644B1B68DB79012B05D1B6
:103F90006949634808F0ECFD00F046BE5E4B1B68C3
:103FA0001B7A012B40F0408664495D4808F0E0FD33
:103FB00000F03ABE584B1B685B781BB21B021AB26A
:103FC000554B1B689B781BB213431BB2A7F80032FA
:103FD000514B1B68DB781BB21B021AB24E4B1B689D
:103FE0001B791BB213431BB2A7F8FE31B7F80022AE
:103FF000B7F8FE313846524908F032FF3B461946C1
:10400000474808F0B5FD00F01ABE434B1B685B78CB
:10401000012B04D14349424808F0AAFD08E03E4B79
:104020001B685B78002B03D146493D4808F0A0FD92
:10403000394B1B689B78012B05D13E49384808F065
:1040400097FD00F0F3BD344B1B689B78002B40F0CC
:10405000ED853D49324808F08BFD00F0E7BD2E4B61
:104060001B685B78012B04D12F492D4808F080FD97
:1040700008E0294B1B685B78002B03D133492848A3
:1040800008F076FD244B1B689B78012B05D12A494B
:10409000234808F06DFD00F0CBBD1F4B1B689B78DB
:1040A000002B40F0C5852A491D4808F061FD00F04D
:1040B000BFBD194B1B685B781BB21B021AB2164BB3
:1040C0001B689B781BB213431BB2A7F80432124B38
:1040D0001B68DB781BB21B021AB20F4B1B681B79E3
:1040E0001BB213431BB2A7F80232B7F80422B7F889
:1040F00002323846174908F0B3FE3B4619460848D5
:1041000008F036FD044B1B685B79012B24D105496F
:10411000034808F02DFD28E0E80000203CF00008EE
:10412000D841002050F0000868F0000884F0000832
:10413000A0F00008B4F00008CCF00008E8F0000897
:1041400004F1000838F1000854F1000870F100088B
:1041500090F10008B0F100089E4B1B685B79002BC2
:1041600003D19D499D4808F003FD9A4B1B689B793C
:10417000012B04D19A49994808F0FAFC08E0954BC4
:104180001B689B79002B03D19649944808F0F0FCFA
:10419000904B1B68DB79012B04D193498F4808F0C1
:1041A000E7FC08E08B4B1B68DB79002B03D18F49C0
:1041B0008A4808F0DDFC874B1B681B7A012B05D170
:1041C0008B49864808F0D4FC00F034BD814B1B6855
:1041D0001B7A002B40F02E858649804808F0C8FCE9
:1041E00000F028BD7B4B1B685B781BB21B021AB228
:1041F000784B1B689B781BB213431BB2A7F80A329B
:10420000744B1B68DB781BB21B021AB2714B1B6824
:104210001B791BB213431BB2A7F80832B7F80A2266
:10422000B7F808323846744908F01AFE3B4619467A
:104230006A4808F09DFC00F002BD664B1B685B7885
:10424000002B14BF0123002387F80732614B1B6842
:104250009B78002B14BF0123002387F8063297F8C0
:104260000732002B04D065495C4808F081FC0AE065
:1042700097F8073283F00103DBB2002B03D06049CB
:10428000564808F075FC97F80632002B05D05D49BA
:10429000524808F06DFC00F0CFBC97F8063283F06E
:1042A0000103DBB2002B00F0C78457494B4808F0EC
:1042B0005FFC00F0C1BC474B1B685B781A46454B5E
:1042C0001B689B781B021A43424B1B68DB781B045C
:1042D0001A43404B1B681B791B061343C7F8203257
:1042E0003C4B1B685B791A463A4B1B689B791B0257
:1042F0001A43384B1B68DB791B041A43354B1B6888
:104300001B7A1B061343C7F81C32324B1B685B7ABF
:104310001A46304B1B689B7A1B021A432D4B1B68B5
:10432000DB7A1B041A432B4B1B681B7B1B061343B6
:10433000C7F81832D7F8203207EE903AB8EEE77A8D
:10434000DFED326AC7EE267AC7ED857AD7F81C32E0
:1043500007EE903AB8EEE77ADFED2C6AC7EE267AE0
:10436000C7ED847AD7F8183207EE903AB8EEE77ABC
:10437000DFED266AC7EE267AC7ED837A07F5F67376
:104380000221184697ED850A00F068FC07F5EE73E8
:104390000221184697ED840A00F060FC07F5E673E9
:1043A0000221184697ED830A00F058FC07F5EE71DC
:1043B00007F5F672384607F5E67300930B46144985
:1043C00008F04EFD3B461946044808F0D1FB00F0CA
:1043D00036BC00BFE800002038F10008D8410020BA
:1043E000B4F0000854F1000868F0000870F100080B
:1043F000CCF0000890F10008E4F1000804F2000895
:1044000030F2000860F200088CF2000800007A44E4
:10441000BCF20008464B1B685B7B1A46444B1B688A
:104420009B7B1B021A43424B1B68DB7B1B041A431A
:104430003F4B1B681B7C1B061343C7F838323C4BB1
:104440001B685B7C1A463A4B1B689B7C1B021A4319
:10445000374B1B68DB7C1B041A43354B1B681B7DE9
:104460001B061343C7F83432314B1B685B7D1A4679
:104470002F4B1B689B7D1B021A432D4B1B68DB7D5A
:104480001B041A432A4B1B681B7E1B061343C7F8E9
:104490003032D7F8383207EE903AB8EEE77ADFEDEF
:1044A000256AC7EE267AC7ED8B7AD7F8343207EE45
:1044B000903AB8EEE77ADFED1F6AC7EE267AC7EDCD
:1044C0008A7AD7F8303207EE903AB8EEE77ADFED25
:1044D000196AC7EE267AC7ED897A07F5DE730221DD
:1044E000184697ED8B0A00F0B9FB07F5D673022149
:1044F000184697ED8A0A00F0B1FB07F5CE7302214A
:10450000184697ED890A00F0A9FB07F5D67107F563
:10451000DE72384607F5CE7300930B46064908F065
:104520009FFC3B461946054808F022FB87E300BF85
:10453000E800002000007A44F0F20008D841002092
:10454000C24B1B685B781A46C04B1B689B781B02EA
:104550001A43BE4B1B68DB781B041A43BB4B1B681A
:104560001B791B061343C7F86832B84B1B685B798D
:104570001A46B64B1B689B791B021A43B34B1B6848
:10458000DB791B041A43B14B1B681B7A1B061343D0
:10459000C7F86432AD4B1B685B7A1A46AB4B1B689D
:1045A0009B7A1B021A43A94B1B68DB7A1B041A4334
:1045B000A64B1B681B7B1B061343C7F86032A34B3B
:1045C0001B685B7B1A46A14B1B689B7B1B021A4333
:1045D0009E4B1B68DB7B1B041A439C4B1B681B7C9C
:1045E0001B061343C7F85C32984B1B685B7C1A466A
:1045F000964B1B689B7C1B021A43944B1B68DB7C0D
:104600001B041A43914B1B681B7D1B061343C7F801
:1046100058328E4B1B685B7D1A468C4B1B689B7D0A
:104620001B021A43894B1B68DB7D1B041A43874B13
:104630001B681B7E1B061343C7F85432D7F8683239
:1046400007EE903AB8EEE77ADFED816AC7EE267A98
:10465000C7ED947AD7F8643207EE903AB8EEE77A6D
:10466000DFED7B6AC7EE267AC7ED937AD7F8603222
:1046700007EE903AB8EEE77ADFED756AC7EE267A74
:10468000C7ED927AD7F85C3207EE903AB8EEE77A47
:10469000DFED6F6AC7EE267AC7ED917AD7F8583208
:1046A00007EE903AB8EEE77ADFED696AC7EE267A50
:1046B000C7ED907AD7F8543207EE903AB8EEE77A21
:1046C000DFED636AC7EE267AC7ED8F7A07F5C6730A
:1046D0000221184697ED940A00F0C0FA07F5BE7360
:1046E0000221184697ED930A00F0B8FA07F5B67361
:1046F0000221184697ED920A00F0B0FA07F5BE7154
:1047000007F5C672384607F5B67300930B46514954
:1047100008F0A6FB3B4619464F4808F029FA07F572
:10472000AE730221184697ED910A00F097FA07F54B
:10473000A6730221184697ED900A00F08FFA07F54C
:104740009E730221184697ED8F0A00F087FA07F54D
:10475000A67107F5AE72384607F59E7300930B46B7
:104760003E4908F07DFB3B4619463B4808F000FAFD
:1047700065E2364B1B685B781A46344B1B689B78A6
:104780001B021A43314B1B68DB781B041A432F4B67
:104790001B681B791B061343C7F87032D7F87032B9
:1047A00007EE903AB8EEE77ADFED296AC7EE267A8F
:1047B000C7ED9B7A07F596730221184697ED9B0A81
:1047C00000F04CFA07F596723B462549184608F06A
:1047D00047FB3B461946204808F0CAF92FE21B4B1D
:1047E0001B685B791A46194B1B689B791B021A439D
:1047F000164B1B68DB791B041A43144B1B681B7A8E
:104800001B061343C7F87832D7F8783207EE903A90
:10481000B8EEE77ADFED0E6AC7EE267AC7ED9D7A2D
:1048200007F58E730221184697ED9D0A00F016FADF
:1048300007F58E723B460B49184608F011FB3B46C4
:104840001946054808F094F9F9E100BFE800002096
:1048500000007A44BCF20008D8410020F0F20008C1
:1048600024F300083CF30008B74B1B685B7A1A4638
:10487000B54B1B689B7A1B021A43B34B1B68DB7A50
:104880001B041A43B04B1B681B7B1B061343C7F862
:104890008032D7F8803207EE903AB8EEE77ADFED53
:1048A000AB6AC7EE267AC7ED9F7A07F586730221B9
:1048B000184697ED9F0A00F0D1F907F586723B463E
:1048C000A349184608F0CCFA3B461946A14808F01F
:1048D0004FF9B4E19C4B1B685B781A469A4B1B68F6
:1048E0009B781B021A43984B1B68DB781B041A4306
:1048F000954B1B681B791B061343C7F89832924BE4
:104900001B685B791A46904B1B689B791B021A4304
:104910008D4B1B68DB791B041A438B4B1B681B7A7E
:104920001B061343C7F89432874B1B685B7A1A4601
:10493000854B1B689B7A1B021A43834B1B68DB7AEF
:104940001B041A43804B1B681B7B1B061343C7F8D1
:104950009032D7F8983207EE903AB8EEE77ADFED6A
:104960007B6AC7EE267AC7EDA37AD7F8943207EEB2
:10497000903AB8EEE77ADFED756AC7EE267AC7EDB2
:10498000A27AD7F8903207EE903AB8EEE77ADFEDE8
:104990006F6AC7EE267AC7EDA17A07F1FC03022100
:1049A000184697EDA30A00F059F907F1EC0302212C
:1049B000184697EDA20A00F051F907F1DC03022135
:1049C000184697EDA10A00F049F907F1EC0107F14B
:1049D000FC02384607F1DC0300930B465E4908F001
:1049E0003FFA3B4619465B4808F0C2F827E1564BB0
:1049F0001B685B781A46544B1B689B781B021A4352
:104A0000514B1B68DB781B041A434F4B1B681B7907
:104A10001B061343C7F8B0324B4B1B685B791A4631
:104A2000494B1B689B791B021A43474B1B68DB7978
:104A30001B041A43444B1B681B7A1B061343C7F81D
:104A4000AC32414B1B685B7A1A463F4B1B689B7A22
:104A50001B021A433C4B1B68DB7A1B041A433A4B7C
:104A60001B681B7B1B061343C7F8A832D7F8B0326C
:104A700007EE903AB8EEE77ADFED386AC7EE267AAD
:104A8000C7EDA97AD7F8AC3207EE903AB8EEE77ADC
:104A9000DFED326AC7EE267AC7EDA87AD7F8A832DA
:104AA00007EE903AB8EEE77ADFED2C6AC7EE267A89
:104AB000C7EDA77A07F1CC030221184697EDA90AA2
:104AC00000F0CCF807F1BC030221184697EDA80AC4
:104AD00000F0C4F807F1AC030221184697EDA70ACD
:104AE00000F0BCF807F1BC0107F1CC02384607F131
:104AF000AC0300930B461A4908F0B2F93B4619463D
:104B0000144808F035F89AE00F4B1B685B7887F87B
:104B1000B73297F8B732012B04D112490D4808F08B
:104B200027F88BE097F8B732022B04D10E490948D9
:104B300008F01EF882E097F8B732042B7ED10B49BB
:104B4000044808F015F879E0E800002000007A44F5
:104B500054F30008D841002068F300080024744989
:104B6000A4F30008D0F30008F0F3000810F40008E4
:104B7000354B1B685B781BB21B021AB2324B1B68A9
:104B80009B781BB213431BB29BB207EE903AB8EE70
:104B9000E77ADFED2E6AC7EE267AC7EDAE7A07F127
:104BA0009C030221184697EDAE0A00F057F807F172
:104BB0009C023B462649184608F052F93B461946E6
:104BC000244807F0D5FF3AE01F4B1B685B781BB207
:104BD0001B021AB21C4B1B689B781BB213431BB2FF
:104BE0009BB207EE903AB8EEE77ADFED186AC7EEAF
:104BF000267AC7EDAF7A07F18C030221184697EDAC
:104C0000AF0A00F02BF807F18C023B461249184618
:104C100008F026F93B4619460E4807F0A9FF0EE0BA
:104C200000230CE000BF0AE000BF08E000BF06E080
:104C300000BF04E000BF02E000BF00E000BF184674
:104C400007F53077BD4680BDE80000200000C8426F
:104C500030F40008D84100204CF4000880B58EB034
:104C600000AF87ED030AB8600B46FB71D7ED037AFE
:104C7000F5EEC07AF1EE10FA0AD5BB685A1CBA609C
:104C80002D221A70D7ED037AF1EE677AC7ED037A19
:104C9000FB7907EE903AF8EE677AF0EE670AB2EE2B
:104CA000040A08F09DFDB0EE407AF6EE006AC6EE0A
:104CB000877A97ED037A77EE277AC7ED037AD7EDF7
:104CC000037AFCEEE77A17EE903A7B637B6B07EE94
:104CD000903AF8EE677A97ED037A77EE677AC7ED48
:104CE0000C7A0023FB627B6B002B22D1FB6A5A1CDF
:104CF000FA6238333B44302203F8242C1CE0796BF1
:104D0000334BA3FB0123DA0813469B0013445B00DB
:104D1000CA1AD2B2FB6A591CF9623032D2B23833A5
:104D20003B4403F8242C7B6B294AA2FB0323DB08BA
:104D30007B637B6B002BE2D1FB6A013BBB620BE028
:104D4000BB685A1CBA6007F11401BA6A0A441278A7
:104D50001A70BB6A013BBB62BB6A002BF0DAFB79BD
:104D6000002B2DD0BB685A1CBA602E221A7024E08A
:104D7000D7ED0C7AB2EE047A67EE877AC7ED0C7A3B
:104D8000D7ED0C7AFCEEE77A17EE903A7B627B6AFD
:104D9000DAB2BB68591CB9603032D2B21A707B6A81
:104DA00007EE903AF8EE677A97ED0C7A77EE677A2D
:104DB000C7ED0C7AFB79013BFB71FB79002BD7D156
:104DC000BB6800221A7000BF3837BD4680BD00BFE7
:104DD000CDCCCCCC80B584B004AF802303938023AA
:104DE0000293124B0193124B00933423114A124940
:104DF000124807F044FE124B124A5A60104B8022B0
:104E00001A800F4B00221A810D4B1B88002B06D0F5
:104E10000B4B5B6804220021184608F05DF8022065
:104E200006F018FC00BFBD4680BD00BF344F002017
:104E3000B44E0020004C004068F40008484E0020AA
:104E4000BC510020C851002080B584B000AF78600C
:104E50000023FB733223FB7347E02A4807F054FE1C
:104E60000346DAB2284B9A72274B9B7ADBB2CA2BE5
:104E700003D1254B00221A8134E0234B9B7ADBB20D
:104E8000EF2B14D1204B5B681F4A128992B2D1B22A
:104E90001E4A184606F024FD0346BB73BB7B012B5C
:104EA00001D1FEF7F3FF184B00221A811AE0164BCE
:104EB0005B68154A128992B21344134A927AD2B2AD
:104EC0001A70114B1B899BB201339AB20E4B1A8197
:104ED0000D4B1B899AB20C4B1B889A4202D90A4B84
:104EE00000221A81FB7B013BFB73064807F076FE2C
:104EF0000346002B02D0FB7B002BAED100BF103746
:104F0000BD4680BD484E0020BC510020B850002056
:104F100080B584B000AF03460A46FB711346BB71EF
:104F2000BA79FB791146184603F0CCFE04F0A0FDD7
:104F3000322003F075F900F04BF90346FB8104F0D1
:104F400009F804F0A7FDFB8918461037BD4680BD5F
:104F500080B596B000AF78608E4B1B78042B00F2C2
:104F6000138101A252F823F07D4F0008AD500008D4
:104F7000994F00080F500008C950000803F0EAFFDD
:104F800004F088FD844B00221A70844B00221A80A2
:104F9000042006F0B1FEF8E0814B1B6801221A7074
:104FA0007D4B1B781A467F4B33F812301B0A9AB29E
:104FB0007B4B1B68D2B25A70774B1B781A46794BE1
:104FC00033F81220764B1B68D2B29A70032000F09F
:104FD0009FF9734B1B6803221A70714B1B680122E7
:104FE0005A706F4B1B6800229A70032000F090F9F2
:104FF0006D4B42F210721A60664B03221A70684BB6
:105000001B680C221A70012000F082F9BDE0664B8B
:105010001B68002B40F0BA80634B4FF47A721A6021
:105020005D4B1B781A465F4B33F8123007EE903A0F
:10503000F8EEE77A9FED5D7A67EE877AC7ED147A2E
:10504000554B1B781A46574B33F8123007EE903AFF
:10505000F8EEE77A9FED567A67EE877AC7ED137A16
:10506000544B1B8807EE903AF8EEE77A97ED147AE6
:10507000B4EEE77AF1EE10FA0CDC4E4B1B8807EE2B
:10508000903AF8EEE77A97ED137AB4EEE77AF1EE1C
:1050900010FA07D5424B1B680C221A70012000F051
:1050A00037F972E03B4B01221A706EE0424B1B78DD
:1050B000414A52781146184603F004FE04F0D8FC29
:1050C000344B04221A7060E000F082F80346A7F81F
:1050D0005630324B1B881A46384B33F81230B7F82B
:1050E00056209A4213D92C4B1B78032B0FD82A4BEE
:1050F0001B780133DAB2284B1A70284B1B88013316
:105100009AB2264B1A80234B02221A703FE0224BA0
:105110001B78032B0ED9294B1B89B7F856209A42CE
:1051200008D9B7F8562007F10C032549184607F0AF
:1051300097FE07E0B7F8562007F10C0321491846FF
:1051400007F08EFE07F10C0319461F4807F010FD0B
:10515000134B1B6804221A70114B1B6801225A70F2
:105160000F4B1B6800229A70032000F0D1F8094B06
:1051700000221A70154B00221A70074B00221A7079
:10518000064B00221A8002E000BF00E000BF583743
:10519000BD4680BD495200204E5200205052002092
:1051A000E4000020F0000020EC0000206666663F6E
:1051B000CDCC8C3F4A5200204C520020FC000020F5
:1051C00074F40008A0F40008D841002048520020E0
:1051D00090B597B000AF07F12803282200211846A8
:1051E00007F07AFE3B4628220021184607F074FE9D
:1051F0004FF000037B650023A7F85030002387F8A9
:10520000533042E0404803F0CFFA53EC102B97F8AC
:10521000534010461946FBF7E1FC0246A300583301
:105220003B44303B1A60384803F096FA51EC100BBF
:1052300033A3D3E90023FBF7EFF902460B4697F8B7
:10524000534010461946FBF7C9FC0246A3005833E9
:105250003B44583B1A6097F853309B0058333B440B
:10526000303BD3ED007AF5EEC07AF1EE10FA07D8B4
:1052700097F853309B0058333B44303B234A1A6025
:1052800097F85330013387F8533097F85330092B90
:10529000B8D9002387F852301CE097F852309B00B1
:1052A00058333B44583BD3ED006A97F852309B008B
:1052B00058333B44303B93ED007AC6EE877A97ED46
:1052C000157A77EE277AC7ED157A97F852300133C1
:1052D00087F8523097F85230092BDED997ED157ABE
:1052E000F2EE046AC7EE267AFCEEE77A17EE903A01
:1052F000A7F85030B7F8503018465C37BD4690BD1F
:105300002682A3AAAAAA4040380000206F12833A3E
:1053100080B58AB000AF0346FB711F4BCA221A70DA
:105320001E4B1A781C4B5A701B4B01229A701A4A5A
:10533000FB79D370184B07221A71174BEF2283F8B1
:105340000021154BDB780433DBB21A4614490020E8
:1053500006F044F903461A460F4BA3F8FE2007F166
:105360000C0300221A605A609A60DA601A615A616E
:105370001A7607F10B0207F10C031946064806F0EE
:1053800079F9FA7A07F10C031946064807F008FC88
:1053900000BF2837BD4680BDB44F00209CB9002017
:1053A000B54F0020484E002080B485B000AF786033
:1053B0007B6803F00703FB600C4BDB68BB60BA68DB
:1053C0004FF6FF031340BB60FB681A02BB68134330
:1053D00043F0BF6343F40033BB60044ABB68D3604F
:1053E00000BF1437BD465DF8047B704700ED00E058
:1053F00080B400AF044BDB681B0A03F007031846B8
:10540000BD465DF8047B704700ED00E080B483B0DA
:1054100000AF0346FB7197F90730002B0BDBFB79DC
:1054200003F01F02074997F907305B09012000FAD2
:1054300002F241F8232000BF0C37BD465DF8047B23
:10544000704700BF00E100E080B483B000AF0346C6
:105450003960FB7197F90730002B0ADB3B68DAB241
:105460000C4997F907301201D2B20B4483F800239C
:105470000AE03B68DAB20849FB7903F00F03043B0A
:105480001201D2B20B441A7600BF0C37BD465DF84C
:10549000047B704700E100E000ED00E080B489B0DB
:1054A00000AFF860B9607A60FB6803F00703FB6146
:1054B000FB69C3F10703042B28BF0423BB61FB690D
:1054C0000433062B02D9FB69033B00E000237B6118
:1054D0004FF0FF32BB6902FA03F3DA43BB681A40AC
:1054E0007B699A404FF0FF317B6901FA03F3D9439E
:1054F0007B680B40134318462437BD465DF8047B98
:105500007047000080B485B000AFF860B9607A6081
:105510000D4ABB6813441B781A46FB6813441B688A
:1055200023F0C0020849BB680B441B781946FB688E
:105530000B4419467B6813430B6000BF1437BD460C
:105540005DF8047B704700BFB0FB000880B485B0F5
:1055500000AFF860B9607A600D4ABB6813441B78ED
:105560001A46FB6813441B6823F490720849BB6811
:105570000B441B781946FB680B4419467B681343A0
:105580000B6000BF1437BD465DF8047B704700BF59
:10559000B0FB000880B485B000AFF860B9607A60F5
:1055A0000D4ABB6813441B781A46FB6813441B68FA
:1055B00023F400720849BB680B441B781946FB684A
:1055C0000B4419467B6813430B6000BF1437BD467C
:1055D0005DF8047B704700BFB0FB000880B485B065
:1055E00000AFF860B9607A600D4ABB6813441B785D
:1055F0001A46FB6813441B6823F480620849BB68A1
:105600000B441B781946FB680B4419467B6813430F
:105610000B6000BF1437BD465DF8047B704700BFC8
:10562000B0FB000880B485B000AFF860B9607A6064
:105630000D4ABB6813441B781A46FB6813441B6869
:1056400023F4C0520849BB680B441B781946FB6819
:105650000B4419467B6813430B6000BF1437BD46EB
:105660005DF8047B704700BFB0FB000880B485B0D4
:1056700000AFF860B9607A600D4ABB6813441B78CC
:105680001A46FB6813441B6823F4C0420849BB68F0
:105690000B441B781946FB680B4419467B6813437F
:1056A0000B6000BF1437BD465DF8047B704700BF38
:1056B000B0FB000880B485B000AFF860B9607A60D4
:1056C0000D4ABB6813441B781A46FB6813441B68D9
:1056D00023F440320849BB680B441B781946FB6829
:1056E0000B4419467B6813430B6000BF1437BD465B
:1056F0005DF8047B704700BFB0FB000880B485B044
:1057000000AFF860B9607A600D4ABB6813441B783B
:105710001A46FB6813441B6823F060620849BB68A3
:105720000B441B781946FB680B4419467B681343EE
:105730000B6000BF1437BD465DF8047B704700BFA7
:10574000B0FB000880B485B000AFF860B9607A6043
:105750000D4ABB6813441B781A46FB6813441B6848
:1057600023F0C0720849BB680B441B781946FB68DC
:105770000B4419467B6813430B6000BF1437BD46CA
:105780005DF8047B704700BFB0FB000880B485B0B3
:1057900000AFF860B9607A600D4ABB6813441B78AB
:1057A0001A46FB6813441B6823F4C0020849BB680F
:1057B0000B441B781946FB680B4419467B6813435E
:1057C0000B6000BF1437BD465DF8047B704700BF17
:1057D000B0FB000880B483B000AF786039600C4A39
:1057E0003B6813441B781A467B6813445B6908497D
:1057F0003A680A44127811467A680A4423F004038E
:10580000536100BF0C37BD465DF8047B704700BF95
:10581000B0FB000880B483B000AF786039600C4AF8
:105820003B6813441B781A467B6813445B6908493C
:105830003A680A44127811467A680A4443F004032D
:10584000536100BF0C37BD465DF8047B704700BF55
:10585000B0FB000880B485B000AFF860B9607A6032
:105860000D4ABB6813441B781A46FB6813445B69F6
:1058700023F003020849BB680B441B781946FB68F8
:105880000B4419467B6813434B6100BF1437BD4678
:105890005DF8047B704700BFB0FB000880B483B0A4
:1058A00000AF786039600C4A3B6813441B781A4695
:1058B0007B6813441B6808493A680A441278114609
:1058C0007A680A4443F01003136000BF0C37BD46EA
:1058D0005DF8047B704700BFB0FB000880B400AFE8
:1058E000054B1B68044A43F48033136000BFBD4678
:1058F0005DF8047B704700BF0038024080B400AF01
:10590000074B1B6803F40033B3F5003F0CBF0123C2
:105910000023DBB21846BD465DF8047B704700BF2C
:105920000038024080B483B000AF7860064B9B68BB
:1059300023F0030204497B6813438B6000BF0C37DC
:10594000BD465DF8047B70470038024080B400AF6C
:10595000044B9B6803F00C031846BD465DF8047BBE
:10596000704700BF0038024080B483B000AF786059
:10597000064B9B6823F0F00204497B6813438B605D
:1059800000BF0C37BD465DF8047B7047003802400D
:1059900080B483B000AF7860064B9B6823F4E0527C
:1059A00004497B6813438B6000BF0C37BD465DF82C
:1059B000047B70470038024080B483B000AF786049
:1059C000064B9B6823F4604204497B6813438B6059
:1059D00000BF0C37BD465DF8047B704700380240BD
:1059E00080B400AF054B1B68044A43F0807313601A
:1059F00000BFBD465DF8047B704700BF0038024021
:105A000080B400AF074B1B6803F00073B3F1007F55
:105A10000CBF01230023DBB21846BD465DF8047BB2
:105A2000704700BF0038024080B485B000AFF86016
:105A3000B9607A603B600D4B5A680D4B1340F968B2
:105A4000BA6811437A6892010A43084913434B60CC
:105A5000064B5B6823F4403204493B6813434B60B8
:105A600000BF1437BD465DF8047B70470038024024
:105A70000080BFFF80B485B000AF7860084B1A6B20
:105A800007497B6813430B63054B1A6B7B68134014
:105A9000FB60FB6800BF1437BD465DF8047B7047B0
:105AA0000038024080B485B000AF7860084B1A6CB3
:105AB00007497B6813430B64054B1A6C7B681340E2
:105AC000FB60FB6800BF1437BD465DF8047B704780
:105AD0000038024080B485B000AF7860084B5A6C43
