:020000040800F2
:1000000000000220E95000089D4F0008A54F00089D
:10001000AD4F0008B54F0008BD4F000800000000BC
:10002000000000000000000000000000C54F0008B4
:10003000D34F000800000000E14F0008F14F000816
:100040003951000839510008395100083951000868
:100050003951000839510008395100083951000858
:100060003951000839510008395100083951000848
:100070003951000839510008395100083951000838
:100080003951000839510008395100083951000828
:100090003951000839510008395100083951000818
:1000A0003951000839510008395100083951000808
:1000B00039510008395100083951000839510008F8
:1000C0003951000839510008395100081D50000805
:1000D00039510008395100083951000831500008E1
:1000E00039510008395100083951000839510008C8
:1000F00039510008395100083951000839510008B8
:1001000039510008395100083951000839510008A7
:10011000455000083951000839510008395100088C
:1001200039510008A97C00083951000839510008EC
:10013000197200080000000000000000395100089A
:100140003951000839510008395100083951000867
:10015000DD71000839510008E97C000839510008B8
:100160003951000839510008395100083951000847
:10017000395100083951000800000000000000005B
:08018000395100083951000853
:1001900010B5054C237833B9044B13B10448AFF3C1
:1001A00000800123237010BD4001002000000000EA
:1001B000ACB3000808B5034B1BB103490348AFF3C8
:1001C000008008BD0000000044010020ACB300081E
:1001D00010F8012B11F8013B012A28BF9A42F7D0F1
:1001E000D01A7047034613F8012B002AFBD1181AC6
:1001F000013870470000000000000000000000000F
:1002000001F0FF01102A2BDB10F0070F08D010F8C7
:10021000013B013A8B422DD010F0070F42B3F6D1CB
:10022000F0B441EA012141EA014122F007047FF0E4
:1002300000070023F0E80256083C85EA010586EA3B
:10024000010685FA47F5A3FA87F586FA47F6A5FA77
:1002500087F68EB9EED1F0BC01F0FF0102F0070283
:1002600032B110F8013B013A83EA010313B1F8D12E
:100270000020704701387047002D06BF354603380F
:10028000073815F0010F07D1013015F4807F02BF48
:10029000013015F4C03F0130F0BC0138704700BF99
:1002A00081F0004102E000BF83F0004330B54FEA27
:1002B00041044FEA430594EA050F08BF90EA020F94
:1002C0001FBF54EA000C55EA020C7FEA645C7FEA27
:1002D000655C00F0E2804FEA5454D4EB5555B8BF4A
:1002E0006D420CDD2C4480EA020281EA030382EABB
:1002F000000083EA010180EA020281EA0303362D4D
:1003000088BF30BD11F0004F4FEA01314FF4801C1F
:100310004CEA113102D0404261EB410113F0004F31
:100320004FEA03334CEA133302D0524263EB4303E8
:1003300094EA050F00F0A780A4F10104D5F1200E86
:100340000DDB02FA0EFC22FA05F2801841F10001E1
:1003500003FA0EF2801843FA05F359410EE0A5F1B5
:1003600020050EF1200E012A03FA0EFC28BF4CF0E6
:10037000020C43FA05F3C01851EBE37101F000459C
:1003800007D54FF0000EDCF1000C7EEB00006EEBA9
:100390000101B1F5801F1BD3B1F5001F0CD3490833
:1003A0005FEA30004FEA3C0C04F101044FEA44528A
:1003B00012F5800F80F09A80BCF1004F08BF5FEA11
:1003C000500C50F1000041EB045141EA050130BDF1
:1003D0005FEA4C0C404141EB0101013C28BFB1F503
:1003E000801FE9D291F0000F04BF01460020B1FA4E
:1003F00081F308BF2033A3F10B03B3F120020CDA21
:100400000C3208DD02F1140CC2F10C0201FA0CF0FE
:1004100021FA02F10CE002F11402D8BFC2F1200C63
:1004200001FA02F120FA0CFCDCBF41EA0C01904019
:10043000E41AA2BF01EB0451294330BD6FEA040462
:100440001F3C1CDA0C340EDC04F11404C4F120024D
:1004500020FA04F001FA02F340EA030021FA04F35F
:1004600045EA030130BDC4F10C04C4F1200220FAB6
:1004700002F001FA04F340EA0300294630BD21FAF4
:1004800004F0294630BD94F0000F83F4801306BFBA
:1004900081F480110134013D4EE77FEA645C18BFAE
:1004A0007FEA655C29D094EA050F08BF90EA020F45
:1004B00005D054EA000C04BF1946104630BD91EA3D
:1004C000030F1EBF0021002030BD5FEA545C05D140
:1004D0004000494128BF41F0004130BD14F580047F
:1004E0003CBF01F5801130BD01F0004545F0FE41F3
:1004F00041F470014FF0000030BD7FEA645C1ABF28
:10050000194610467FEA655C1CBF0B46024650EA5E
:10051000013406BF52EA033591EA030F41F400218A
:1005200030BD00BF90F0000F04BF0021704730B510
:100530004FF4806404F132044FF000054FF00001E5
:1005400050E700BF90F0000F04BF0021704730B5A6
:100550004FF4806404F1320410F0004548BF40427B
:100560004FF000013EE700BF42004FEAE2014FEAD0
:1005700031014FEA02701FBF12F07F4393F07F4FAB
:1005800081F06051704732F07F4208BF704793F0AE
:100590007F4F04BF41F40021704730B54FF46074C1
:1005A00001F0004521F000411CE700BF50EA0102C4
:1005B00008BF704730B54FF000050AE050EA01026D
:1005C00008BF704730B511F0004502D5404261EBDD
:1005D00041014FF4806404F132045FEA915C3FF41E
:1005E000D8AE4FF003025FEADC0C18BF03325FEABB
:1005F000DC0C18BF033202EBDC02C2F1200300FA6C
:1006000003FC20FA02F001FA03FE40EA0E0021FA90
:1006100002F11444BDE600BF70B54FF0FF0C4CF47E
:10062000E06C1CEA11541DBF1CEA135594EA0C0F30
:1006300095EA0C0F00F0DEF82C4481EA030621EA6B
:100640004C5123EA4C5350EA013518BF52EA0335A6
:1006500041F4801143F4801338D0A0FB02CE4FF058
:100660000005E1FB02E506F00042E0FB03E54FF088
:100670000006E1FB03569CF0000F18BF4EF0010E80
:10068000A4F1FF04B6F5007F64F5407404D25FEA7C
:100690004E0E6D4146EB060642EAC62141EA55512F
:1006A0004FEAC52040EA5E504FEACE2EB4F1FD0C71
:1006B00088BFBCF5E06F1ED8BEF1004F08BF5FEAEF
:1006C000500E50F1000041EB045170BD06F00046A1
:1006D00046EA010140EA020081EA0301B4EB5C044E
:1006E000C2BFD4EB0C0541EA045170BD41F4801146
:1006F0004FF0000E013C00F3AB8014F1360FDEBF6B
:10070000002001F0004170BDC4F10004203C35DA46
:100710000C341BDC04F11404C4F1200500FA05F3C9
:1007200020FA04F001FA05F240EA020001F000426A
:1007300021F0004110EBD37021FA04F642EB0601E0
:100740005EEA430E08BF20EAD37070BDC4F10C040A
:10075000C4F1200500FA04F320FA05F001FA04F2CE
:1007600040EA020001F0004110EBD37041F10001BA
:100770005EEA430E08BF20EAD37070BDC4F12005C5
:1007800000FA05F24EEA020E20FA04F301FA05F22D
:1007900043EA020321FA04F001F0004121FA04F2D5
:1007A00020EA020000EBD3705EEA430E08BF20EAA5
:1007B000D37070BD94F0000F0FD101F000464000DF
:1007C00041EB010111F4801F08BF013CF7D041EA61
:1007D000060195F0000F18BF704703F00046520065
:1007E00043EB030313F4801F08BF013DF7D043EA36
:1007F0000603704794EA0C0F0CEA135518BF95EAEC
:100800000C0F0CD050EA410618BF52EA4306D1D172
:1008100081EA030101F000414FF0000070BD50EA91
:10082000410606BF1046194652EA430619D094EA1B
:100830000C0F02D150EA013613D195EA0C0F05D105
:1008400052EA03361CBF104619460AD181EA030159
:1008500001F0004141F0FE4141F470014FF0000011
:1008600070BD41F0FE4141F4780170BD70B54FF0AC
:10087000FF0C4CF4E06C1CEA11541DBF1CEA13552C
:1008800094EA0C0F95EA0C0F00F0A7F8A4EB05040E
:1008900081EA030E52EA03354FEA013100F0888005
:1008A0004FEA03334FF0805545EA131343EA1263CE
:1008B0004FEA022245EA111545EA10654FEA002683
:1008C0000EF000419D4208BF964244F1FD0404F53C
:1008D000407402D25B084FEA3202B61A65EB030598
:1008E0005B084FEA32024FF480104FF4002CB6EB55
:1008F000020E75EB030E22BFB61A754640EA0C00D5
:100900005B084FEA3202B6EB020E75EB030E22BF14
:10091000B61A754640EA5C005B084FEA3202B6EB55
:10092000020E75EB030E22BFB61A754640EA9C0014
:100930005B084FEA3202B6EB020E75EB030E22BFE4
:10094000B61A754640EADC0055EA060E18D04FEAA2
:10095000051545EA16754FEA06164FEAC30343EA42
:1009600052734FEAC2025FEA1C1CC0D111F4801F0F
:100970000BD141EA00014FF000004FF0004CB6E708
:1009800011F4801F04BF01430020B4F1FD0C88BFA7
:10099000BCF5E06F3FF6AFAEB5EB030C04BFB6EBB2
:1009A000020C5FEA500C50F1000041EB045170BDA5
:1009B0000EF0004E4EEA113114EB5C04C2BFD4EBD2
:1009C0000C0541EA045170BD41F480114FF0000E56
:1009D000013C90E645EA060E8DE60CEA135594EAD2
:1009E0000C0F08BF95EA0C0F3FF43BAF94EA0C0FD5
:1009F0000AD150EA01347FF434AF95EA0C0F7FF44A
:100A000025AF104619462CE795EA0C0F06D152EA9D
:100A100003353FF4FDAE1046194622E750EA410681
:100A200018BF52EA43067FF4C5AE50EA41047FF492
:100A30000DAF52EA43057FF4EBAE12E74A0011D244
:100A400012F5001211D20DD56FF47873B3EB625228
:100A50000ED44FEAC12343F0004343EA505323FA34
:100A600002F070474FF00000704750EA013002D1A9
:100A70004FF0FF3070474FF0000070474FEA4102DF
:100A8000B2F1E04324BFB3F5001CDCF1FE5C0DD9EC
:100A900001F0004C4FEAC0024CEA5070B2F1004F36
:100AA00040EB830008BF20F00100704711F0804F39
:100AB00021D113F13872BCBF01F00040704741F4FE
:100AC00080114FEA5252C2F11802C2F1200C10FA02
:100AD0000CF320FA02F018BF40F001004FEAC123E6
:100AE0004FEAD32303FA0CFC40EA0C0023FA02F38A
:100AF0004FEA4303CCE77FEA625307D150EA013360
:100B00001EBF4FF0FE4040F44000704701F000402F
:100B100040F0FE4040F40000704700BF53B94AB9AE
:100B2000002908BF00281CBF4FF0FF314FF0FF30F5
:100B300000F088B9ADF1080C6DE904CE00F006F8BC
:100B4000DDF804E0DDE9022304B070472DE9F04749
:100B5000089D8E4604468846002B4AD18A42174695
:100B600062D9B2FA82F64EB1C6F1200301FA06F854
:100B700020FA03F3B74043EA0808B4404FEA174E9F
:100B80001FFA87FCB8FBFEF1230C0EFB118843EA29
:100B9000084301FB0CF29A4209D9FB1801F1FF301E
:100BA00080F0EA809A4240F2E78002393B449A1A88
:100BB000A3B2B2FBFEF00EFB102243EA024300FB9D
:100BC0000CFC9C4509D9FB1800F1FF3280F0D6805F
:100BD0009C4540F2D3803B44023840EA0140A3EBFD
:100BE0000C0300211DB1F3400022C5E90032BDE82D
:100BF000F0878B4205D90DB1C5E9000100210846F7
:100C0000F5E7B3FA83F1002946D1734502D3824256
:100C100000F20581841A6EEB030201209046002D3C
:100C2000E5D0C5E90048E2E7002A00F09080B2FA7A
:100C300082F6002E40F0A4808A1A030C4FEA174E69
:100C400080B2BCB20121B2FBFEFC0EFB1C2243EAC7
:100C5000024304FB0CF29A4207D9FB180CF1FF384F
:100C600002D29A4200F2E080C4469B1AB3FBFEF225
:100C70000EFB123340EA034302FB04F49C4207D903
:100C8000FB1802F1FF3002D29C4200F2CA800246F9
:100C90001B1B42EA0C40A5E7C1F120068B4022FA5B
:100CA00006F71F430EFA01F420FA06F32EFA06FEA9
:100CB0004FEA1749234300FA01F81FFA87FCBEFBED
:100CC000F9F01C0C09FB10EE44EA0E4400FB0CFE8C
:100CD000A64502FA01F209D93C1900F1FF3A80F069
:100CE0009C80A64540F2998002383C44A4EB0E0457
:100CF0001FFA83FEB4FBF9F309FB13444EEA0444E4
:100D000003FB0CFCA44508D93C1903F1FF3E80F01D
:100D10008280A4457FD9023B3C4443EA0040A4EBD7
:100D20000C04A0FB02EC64457346E14662D35FD03D
:100D30005DB1B8EB030264EB090404FA06F622FA8B
:100D400001F31E43CC40C5E9006400214FE7B1FB2D
:100D5000F2FC010C41EA0E4180B240EA01423B46FE
:100D600038463C46B846BE462026B1FBF7F1A2EB1A
:100D7000080241EA0C4166E7014618E710462CE7F5
:100D8000C6F120022EFA02F3B740B14020FA02F277
:100D90004FEA174E0A43B3FBFEF8BCB20EFB183302
:100DA000110C41EA034108FB04F9B04089454FEAC0
:100DB000104380B23ED9791808F1FF3C01D2894531
:100DC0001FD8A1EB0901B1FBFEF909FB04F80EFBEA
:100DD000191192B242EA0142424529D2BA1809F1E8
:100DE000FF31C4D24245C2D2A9F102013A44BEE762
:100DF000F0459DD2BEEB02036CEB070C0138E146D7
:100E000096E7A7EB09094944A8F1020CB1FBFEF9EA
:100E100009FB04F8DBE773467FE7504666E70846C0
:100E2000FDE63B44023A33E7ACF1020C3B441CE7DD
:100E300049469CE7A1EB0901C446B1FBFEF909FB59
:100E400004F8C4E7704700BF80B483B000AF786097
:100E50007B681B6823F001027B681A6000BF0C37B7
:100E6000BD465DF8047B7047B0B582B000AF124B51
:100E700000221A7006F0D6F806F056FE0F4B01223B
:100E80001A700023FB710FE0FB790D4A5B011344DC
:100E90000C4A1C4615460FCD0FC495E80F0084E898
:100EA0000F00FB790133FB71FB79092BECD900BFF3
:100EB00000BF0837BD46B0BD5C010020A102002084
:100EC0006001002000000020B0B588B002AF78605B
:100ED000AB4B1B7883F00103DBB2002B0DD006F087
:100EE000A1F806F021FEA74B00221A70A64B0122A2
:100EF0001A70012008F02CFF3EE1A34B1B78012B58
:100F000003D0022B00F01F8135E1A04B1B78002B92
:100F100000F02F819B4B00221A7006F077FE06F03E
:100F20000BF9984B00221A70FEE0964B1B789849FB
:100F3000984A5B0113440C461D460FCD0FC495E83B
:100F40000F0084E80F0000237B6100233B61012335
:100F5000FB608F4B18798E4B59798D4B5B881A4605
:100F600013469B0013445B00013B1A4606F041F810
:100F700002467B6913447B61854B1879844B597910
:100F8000834B9B891A4613469B0013445B00013B2D
:100F90001C467F4BDB891A4613469B0013445B00BB
:100FA000013B1A467A4B1B7A0193012300931346A7
:100FB000224605F0CDFF02467B6913447B61744BEA
:100FC0001879734B5979724B5B891A4613469B000B
:100FD00013445B00013B1A4606F00BF802467B699E
:100FE00013447B616A4B5879694B1979684B1B8AAA
:100FF0001A4613469B0013445B00013B1C46644B9E
:101000005B8A1A4613469B0013445B00013B1A4659
:101010005F4B5B7A0193012300931346224605F050
:1010200097FF02467B6913447B617B69013B7B61CF
:10103000574B1879564B5979554BDB881A4613464E
:101040009B0013445B00013B1A4605F0D2FF0246A9
:101050003B6913443B614E4B18794D4B59794C4BCE
:101060001B8B1A4613469B0013445B00013B1C4636
:10107000474B5B8B1A4613469B0013445B00013BB6
:101080001A46434B1B7D01930123009313462246CE
:1010900005F05EFF02463B6913443B613C4B187907
:1010A0003B4B59793A4BDB8A1A4613469B00134453
:1010B0005B00013B1A4605F09CFF02463B69134466
:1010C0003B61334B5879324B1979314B9B8B1A4624
:1010D00013469B0013445B00013B1C462C4BDB8BEF
:1010E0001A4613469B0013445B00013B1A46284BEB
:1010F0005B7D0193012300931346224605F028FFF0
:1011000002463B6913443B613B69013B3B611D4B1C
:101110001B78FA683969786906F0BEFC194B1B78B0
:101120000133DAB2174B1A70164B1A78174B1B782B
:101130009A42FFF4FAAE06F083FD06F017F8124B60
:1011400002221A7018E005F0DBFF0346002B12D0D4
:101150001148FFF779FE05F065FF06F0E5FC0A4B44
:1011600001221A70094B00221A70054B00221A70D6
:1011700002E000BF00E000BF1837BD46B0BD00BFB1
:101180005C010020A2020020A1020020A002002099
:10119000A4020020600100200000014000000000C7
:1011A00080B586B006AF102304932D4B03930A231A
:1011B00002932C4B01930A2300932B4B23222B49A0
:1011C0002B4808F0C9FE2B494FF000024FF00003F6
:1011D000C1E9002327494FF000024FF00003C1E9A5
:1011E000022324494FF000024FF00003C1E9042319
:1011F00020494FF000024FF00003C1E906231D49CA
:101200004FF000024FF00003C1E9082319494FF0E5
:1012100000024FF00003C1E90A2316494FF0000213
:101220004FF00003C1E90C231149134805F080FA7F
:101230004FF400420021104805F0A3F99FED041B74
:101240009FED050B0C4805F08BFA00BFBD4680BD35
:1012500000000000000024400000004008AC8C3F6B
:1012600000000240D0020020C402002000300140F3
:10127000DC020020200300201003002080B582B093
:1012800000AF7860244805F0ABFAB0EE407AF0EE9B
:10129000607A224B83ED007B1F4805F0C5FAB0EE63
:1012A000407AF0EE607A1D4B83ED027B1A4805F020
:1012B000E3FAB0EE407AF0EE607A184B83ED047BEF
:1012C000154805F0F9FAB0EE407AF0EE607A134B6B
:1012D00083ED067B104805F013FBB0EE407AF0EE8C
:1012E000607A0E4B83ED087B0B4805F035FBB0EEC2
:1012F000407AF0EE607A094B83ED0A7B064805F0F0
:1013000069FBB0EE407AF0EE607A044B83ED0C7B23
:1013100000BF0837BD4680BD100300202003002019
:1013200080B500AF01F0C4FF06F0DCFAFFF79CFDCA
:1013300002F050FAFFF734FF42F2107008F066FC3A
:10134000044B1B680133034A136008F081FC00BFA3
:10135000F6E700BF5803002080B483B000AF786088
:1013600000BF0C37BD465DF8047B704780B400AF0A
:10137000BFF34F8F00BF064BDB6803F4E062044904
:10138000044B1343CB60BFF34F8F00BF00BFFDE79B
:1013900000ED00E00400FA0580B586B000AFF8600B
:1013A000B9607A60B86806F0BFFF0346FB75FB7D45
:1013B000012B04D82D49F86806F0B2FE52E0FB7DFF
:1013C000022B04D92A49F86806F0AAFE4AE0012156
:1013D000B86806F073FF0346184609F069FA034639
:1013E0009BB23B820221B86806F068FF03461846AC
:1013F00009F05EFA03469BB27B823B8AB3F5967F87
:1014000004D91C49F86806F08BFE2BE07B8A322B4E
:1014100004D91849F86806F083FE23E0164B1B68D0
:1014200000221A703B8A1B0A9AB2134B1B68D2B275
:101430005A703A8A104B1B68D2B29A707B8A1B0A88
:101440009AB20D4B1B68D2B2DA707A8A0A4B1B68CB
:10145000D2B21A71052001F0BDFE0849F86806F005
:101460005FFE00BF1837BD4680BD00BFBCBB000893
:10147000D4BB0008ECBB0008A400002004BC00089A
:1014800080B586B000AFF860B9607A60B86806F0E1
:101490004BFF0346FB75FB7D002B04D11D49F8680B
:1014A00006F03EFE32E0FB7D012B04D91A49F868B4
:1014B00006F036FE2AE00121B86806F0FFFE03467A
:1014C000184609F0F5F90346BB82BB8AB3F5967F4F
:1014D00004D91249F86806F023FE17E0104B1B6888
:1014E00001221A70BB8A1B0A9AB20D4B1B68D2B23A
:1014F0005A700B4B1B68BA8AD2B29A70032001F063
:1015000069FE0849F86806F00BFE00BF1837BD46B3
:1015100080BD00BFBCBB0008D4BB0008ECBB00080A
:10152000A400002004BC000880B586B000AFF860BD
:10153000B9607A60B86806F0F7FE0346FB75FB7D7C
:10154000002B04D11C49F86806F0EAFD31E0FB7D70
:10155000012B04D91949F86806F0E2FD29E00121C0
:10156000B86806F0ABFE0346184609F0A1F9034639
:10157000BB82BB8A322B04D91149F86806F0D0FD32
:1015800017E0104B1B6802221A70BB8A1B0A9AB222
:101590000C4B1B68D2B25A700A4B1B68BA8AD2B283
:1015A0009A70032001F016FE0749F86806F0B8FDAE
:1015B00000BF1837BD4680BDBCBB0008D4BB0008C7
:1015C000ECBB0008A400002004BC000880B586B075
:1015D00000AFF860B9607A60B86806F0A5FE03460F
:1015E000FB75FB7D012B04D82449F86806F098FDB3
:1015F00041E0FB7D022B04D92149F86806F090FDFB
:1016000039E00121B86806F059FE0346184609F092
:101610004FF90346DBB23B750221B86806F04EFE77
:101620000346184609F044F90346DBB27B753B7D5F
:10163000012B04D91349F86806F072FD1BE07B7D8D
:10164000012B04D90F49F86806F06AFD13E00E4B30
:101650001B6803221A700C4B1B683A7D5A700A4BA8
:101660001B687A7D9A70032001F0B4FD0749F86881
:1016700006F056FD00BF1837BD4680BDBCBB000854
:10168000D4BB0008ECBB0008A400002004BC000888
:1016900080B586B000AFF860B9607A60B86806F0CF
:1016A00043FE0346FB75FB7D012B04D82449F868F3
:1016B00006F036FD41E0FB7D022B04D92149F86894
:1016C00006F02EFD39E00121B86806F0F7FD03466B
:1016D000184609F0EDF80346DBB23B750221B86805
:1016E00006F0ECFD0346184609F0E2F80346DBB2CB
:1016F0007B753B7D012B04D91349F86806F010FD7A
:101700001BE07B7D012B04D90F49F86806F008FD2A
:1017100013E00E4B1B6804221A700C4B1B683A7DB9
:101720005A700A4B1B687A7D9A70032001F052FDB3
:101730000749F86806F0F4FC00BF1837BD4680BDC5
:10174000BCBB0008D4BB0008ECBB0008A400002010
:1017500004BC000880B586B000AFF860B9607A605C
:10176000B86806F0E1FD0346FB75FB7D012B04D84C
:101770001C49F86806F0D4FC31E0FB7D022B04D94B
:101780001949F86806F0CCFC29E00121B86806F098
:1017900095FD0346184609F08BF80346DBB23B750E
:1017A0000221B86806F08AFD0346184609F080F861
:1017B0000346DBB27B750D4B1B6805221A700B4B81
:1017C0001B683A7D5A70094B1B687A7D9A7003201A
:1017D00001F000FD0649F86806F0A2FC00BF1837CA
:1017E000BD4680BDBCBB0008D4BB0008A4000020DF
:1017F00004BC000880B586B000AFF860B9607A60BC
:10180000B86806F091FD03467B617B69002B04D02C
:101810000949F86806F084FC0BE0084B1B680722B6
:101820001A70012001F0D6FC0549F86806F078FC32
:1018300000BF1837BD4680BDD4BB0008A4000020FF
:1018400004BC000880B586B000AFF860B9607A606B
:10185000B86806F069FD03467B617B69002B04D004
:101860000949F86806F05CFC0BE0084B1B6809228C
:101870001A70012001F0AEFC0549F86806F050FC32
:1018800000BF1837BD4680BDD4BB0008A4000020AF
:1018900004BC000880B586B000AFF860B9607A601B
:1018A000B86806F041FD03467B617B69002B04D0DC
:1018B0000949F86806F034FC0BE0084B1B68082265
:1018C0001A70012001F086FC0549F86806F028FC32
:1018D00000BF1837BD4680BDD4BB0008A40000205F
:1018E00004BC000880B586B000AFF860B9607A60CB
:1018F000B86806F019FD03467B617B69002B04D0B4
:101900000949F86806F00CFC0BE0084B1B680A223A
:101910001A70012001F05EFC0549F86806F000FC31
:1019200000BF1837BD4680BDD4BB0008A40000200E
:1019300004BC000880B586B000AFF860B9607A607A
:10194000B86806F0F1FC03467B617B69002B04D08C
:101950000949F86806F0E4FB0BE0084B1B68062217
:101960001A70012001F036FC0549F86806F0D8FB32
:1019700000BF1837BD4680BDD4BB0008A4000020BE
:1019800004BC000880B586B000AFF860B9607A602A
:10199000B86806F0C9FC03467B617B69002B04D064
:1019A0000949F86806F0BCFB0BE0084B1B680B22EA
:1019B0001A70012001F00EFC0549F86806F0B0FB32
:1019C00000BF1837BD4680BDD4BB0008A40000206E
:1019D00004BC000880B586B000AFF860B9607A60DA
:1019E000B86806F0A1FC03467B617B69002B04D03C
:1019F0000B49F86806F094FB0EE00A4B01221A70BE
:101A0000094B1B680C221A70012001F0E3FB074907
:101A1000F86806F085FB00BF1837BD4680BD00BFE3
:101A2000D4BB00085D030020A400002004BC000813
:101A300080B586B000AFF860B9607A60274B1B783C
:101A4000002B04D02649F86806F06AFB42E0B8682B
:101A500006F06AFC03467B617B69012B04DC2149AB
:101A6000F86806F05DFB35E07B69022B04DD1E495A
:101A7000F86806F055FB2DE00121B86806F01EFC61
:101A80000346184608F014FF0346DBB23B740221FC
:101A9000B86806F013FC0346184608F009FF034631
:101AA000DBB27B743B7C013B104AD25C104B1A705A
:101AB0007B7C013B0D4AD25C0D4B5A700D4B0222D0
:101AC0001A700121042008F0FDF80B49F86806F0AF
:101AD00027FB00BF1837BD4680BD00BF5C0100205A
:101AE00014BC0008BCBB0008D4BB00089C0000204C
:101AF000D8130020D513002004BC000880B5A6B080
:101B000000AFF860B9607A60B86806F00DFC034673
:101B1000C7F89430D7F89430002B04DC3349F868C8
:101B200006F0FEFA5FE0D7F89430012B04DD30496F
:101B3000F86806F0F5FA56E00121B86806F0BEFB39
:101B40000346184608F0B4FE034687F8933097F82A
:101B50009330002B03D097F893300A2B04D92549F2
:101B6000F86806F0DDFA3EE097F89320224B1B78E8
:101B700002339A421FDD214B1B785A1C97F8933091
:101B800007F110001E4908F051FF07F11003194634
:101B90001C4808F0D4FD194B1B781A4607F11003B6
:101BA0001949184608F042FF07F110031946154875
:101BB00008F0C5FD17E097F89330013BDAB20E4B01
:101BC0001A700D4B1B78114A5B01134401221A70E5
:101BD000094B1B780133DAB2084B1A700C49F868CC
:101BE00006F09EFA00BF9837BD4680BDBCBB00081A
:101BF000D4BB0008ECBB00085C030020A00200205E
:101C000038BC0008640300206CBC000860010020A0
:101C100004BC000880B586B000AFF860B9607A6097
:101C2000B86806F081FB03467B617B69002B03D01B
:101C30000D49F86806F074FA0C4B1B780C4A5B01EE
:101C4000134400221A70094B1B785A1ED1B2074A5E
:101C50001170084A13700849F86806F061FA00BF6D
:101C60001837BD4680BD00BFECBB00085C030020F8
:101C700060010020A002002004BC000880B586B0EE
:101C800000AFF860B9607A60B86806F04DFB0346B3
:101C90007B617B69002B04D00D49F86806F040FA9F
:101CA00013E00C4B1B780C4A5B01134400221A70A2
:101CB000084B1B78084A5B011344013301221A7058
:101CC0000649F86806F02CFA00BF1837BD4680BDFB
:101CD000ECBB00085C0300206001002004BC00088D
:101CE00080B586B000AFF860B9607A60B86806F079
:101CF0001BFB03467B617B69002B04DC1A49F868F7
:101D000006F00EFA2CE07B69012B04DD1749F86818
:101D100006F006FA24E0164B1B78164A5B011344C2
:101D20001B7883F00103DBB2002B18D10121B868C6
:101D300006F0C4FA0346184608F0BAFD0346FB74E1
:101D40000B4B1B78FA7C91B20A4A5B0113440233B5
:101D50000A461A800849F86806F0E2F900E000BF78
:101D60001837BD4680BD00BFBCBB0008D4BB00080F
:101D70005C0300206001002004BC000880B586B030
:101D800000AFF860B9607A60B86806F0CDFA034633
:101D90007B617B69012B04DC2849F86806F0C0F9F7
:101DA00048E07B69022B04DD2549F86806F0B8F9A4
:101DB00040E00121B86806F081FA0346184608F0B1
:101DC00077FD0346DBB23B740221B86806F076FA71
:101DD0000346184608F06CFD0346DBB27B74194BD2
:101DE0001B78194A5B0113441B7883F00103DBB2B3
:101DF000002B1ED13B7C013B124A12781046134A3D
:101E0000D15C114A4301134404330A461A707B7CA7
:101E1000013B0C4A127810460C4AD15C0A4A430135
:101E2000134405330A461A700949F86806F078F930
:101E300000E000BF1837BD4680BD00BFBCBB000836
:101E4000D4BB00085C030020600100209C0000203F
:101E500004BC000880B58AB000AFF860B9607A6051
:101E6000B86806F061FA03467B627B6A032B04DCE8
:101E70004049F86806F054F979E07B6A042B04DDE8
:101E80003D49F86806F04CF971E03C4B1B783C4A40
:101E90005B0113441B7883F00103DBB2002B65D197
:101EA0000121B86806F00AFA0346184608F000FD5A
:101EB00003467B610221B86806F000FA0346184623
:101EC00008F0F6FC0346BB610321B86806F0F6F99A
:101ED0000346184608F0ECFC0346FB610421B86891
:101EE00006F0ECF90346184608F0E2FC03463B62B4
:101EF0007B69142B08DCBB69142B05DCFB69142BF4
:101F000002DC3B6A142B04DD1E49F86806F008F970
:101F10002DE07A69194B1B78D1B2194A5B01134441
:101F200008330A461A70BA69144B1B78D1B2144AA6
:101F30005B01134409330A461A70FA690F4B1B7888
:101F4000D1B20F4A5B01134414330A461A703A6A3D
:101F50000A4B1B78D1B20A4A5B01134415330A4677
:101F60001A700949F86806F0DBF800E000BF28376E
:101F7000BD4680BDBCBB0008D4BB00085C0300208C
:101F800060010020ECBB000804BC000880B588B0EC
:101F900000AFF860B9607A60B86806F0C5F903462A
:101FA000FB61FB69022B04DC2E49F86806F0B8F8E7
:101FB00054E0FB69032B04DD2B49F86806F0B0F808
:101FC0004CE02A4B1B782A4A5B0113441B7883F0B0
:101FD0000103DBB2002B40D10121B86806F06EF995
:101FE0000346184608F064FC03463B610221B868CA
:101FF00006F064F90346184608F05AFC03467B6174
:102000000321B86806F05AF90346184608F050FC58
:102010000346BB613A69154B1B7891B2144A5B01C8
:1020200013440A330A461A807A69104B1B7891B21E
:102030000F4A5B01134416330A461A80BA690B4BE8
:102040001B7891B20A4A5B01134406330A461A8090
:102050000849F86806F064F800E000BF2037BD4684
:1020600080BD00BFBCBB0008D4BB00085C030020DF
:102070006001002004BC000880B588B000AFF860A3
:10208000B9607A60B86806F04FF90346FB61FB69F6
:10209000012B04DC3049F86806F042F858E0FB698F
:1020A000022B04DD2D49F86806F03AF850E02C4B7D
:1020B0001B782C4A5B0113441B7883F00103DBB2CD
:1020C000002B44D10121B86806F0F8F80346184601
:1020D00008F0EEFB03467B610221B86806F0EEF8DB
:1020E0000346184608F0E4FB0346BB617B69B3F581
:1020F0007A7F02DC7B69002B04DC1B49F86806F060
:102100000FF825E0BB69B3F57A7F02DCBB69002BD1
:1021100004DC1549F86806F003F819E07A69104BF9
:102120001B7891B20F4A5B0113440C330A461A80A4
:10213000BA690B4B1B7891B20A4A5B0113440E3308
:102140000A461A800949F86805F0EAFF00E000BF76
:102150002037BD4680BD00BFBCBB0008D4BB000813
:102160005C03002060010020ECBB000804BC0008F8
:1021700080B588B000AFF860B9607A60B86806F0E2
:10218000D3F80346FB61FB69012B04DC3049F86896
:1021900005F0C6FF58E0FB69022B04DD2D49F86805
:1021A00005F0BEFF50E00121B86806F087F803464D
:1021B000184608F07DFB03467B610221B86806F0F3
:1021C0007DF80346184608F073FB0346BB617B6944
:1021D000B3F57A7F02DC7B69002B04DC1E49F868CA
:1021E00005F09EFF30E0BB69B3F57A7F02DCBB6986
:1021F000002B04DC1849F86805F092FF24E0174B27
:102200001B78174A5B0113441B7883F00103DBB290
:10221000002B18D17A69114B1B7891B2104A5B01DF
:10222000134410330A461A80BA690C4B1B7891B2DA
:102230000B4A5B01134412330A461A800949F868B5
:1022400005F06EFF00E000BF2037BD4680BD00BF37
:10225000BCBB0008D4BB0008ECBB00085C0300203A
:102260006001002004BC000880B588B000AFF860B1
:10227000B9607A60B86806F057F80346FB61FB69FD
:10228000012B04DC3049F86805F04AFF58E0FB698F
:10229000022B04DD2D49F86805F042FF50E00121D2
:1022A000B86806F00BF80346184608F001FB034631
:1022B0007B610221B86806F001F80346184608F071
:1022C000F7FA0346BB617B69B3F57A7F02DC7B6971
:1022D000002B04DC1E49F86805F022FF30E0BB69E2
:1022E000B3F57A7F02DCBB69002B04DC1849F8687F
:1022F00005F016FF24E0174B1B78174A5B011344C7
:102300001B7883F00103DBB2002B18D17A69114BE3
:102310001B7891B2104A5B01134418330A461A80A5
:10232000BA690C4B1B7891B20B4A5B0113441A3308
:102330000A461A800949F86805F0F2FE00E000BF7D
:102340002037BD4680BD00BFBCBB0008D4BB000821
:10235000ECBB00085C0300206001002004BC000806
:1023600080B588B000AFF860B9607A60B86805F0F1
:10237000DBFF0346FB61FB69012B04DC3049F86895
:1023800005F0CEFE58E0FB69022B04DD2D49F8680C
:1023900005F0C6FE50E00121B86805F08FFF034646
:1023A000184608F085FA03467B610221B86805F0FB
:1023B00085FF0346184608F07BFA0346BB617B693C
:1023C000B3F57A7F02DC7B69002B04DC1E49F868D8
:1023D00005F0A6FE30E0BB69B3F57A7F02DCBB698D
:1023E000002B04DC1849F86805F09AFE24E0174B2E
:1023F0001B78174A5B0113441B7883F00103DBB29F
:10240000002B18D17A69114B1B7891B2104A5B01ED
:1024100013441C330A461A80BA690C4B1B7891B2DC
:102420000B4A5B0113441E330A461A800949F868B7
:1024300005F076FE00E000BF2037BD4680BD00BF3E
:10244000BCBB0008D4BB0008ECBB00085C03002048
:102450006001002004BC000880B586B000AFF860C1
:10246000B9607A60264B1B78002B04D02549F868A8
:1024700005F056FE40E0B86805F056FF03467B6164
:102480007B69002B04DC2049F86805F049FE33E045
:102490007B69012B04DD1D49F86805F041FE2BE046
:1024A0000121B86805F00AFF0346184608F000FA53
:1024B0000346FB74FB7C012B1DD1FB7C002B14BF5E
:1024C00001230023DAB2124B1A70124B1B78124A06
:1024D0005B01134401331B7883F00103DBB2002B53
:1024E00004D00E49F86805F01BFE05E0012101202B
:1024F00007F0E8FB00E000BF1837BD4680BD00BF15
:10250000D41300208CBC0008BCBB0008D4BB00085E
:102510005C0100205C03002060010020B4BC0008C6
:1025200080B5A6B000AFF860B9607A60B86805F011
:10253000FBFE0346C7F89030D7F89030002B04D04C
:102540009349F86805F0ECFD1EE1002387F8973009
:10255000002387F8973010E18E49F86805F0E0FD18
:1025600097F897305A1C07F110038B49184608F06A
:102570005DFA07F110031946F86805F0D1FD97F8E8
:102580009730864A5B01134404331B785A1C97F832
:10259000973082495B010B4405331B78013307F107
:1025A00010007F4908F042FA07F110031946F86855
:1025B00005F0B6FD97F89730784A5B01134408336D
:1025C0001B78194697F89730744A5B011344093316
:1025D0001B7807F110000A46724908F027FA07F144
:1025E00010031946F86805F09BFD97F897306B4A81
:1025F0005B01134414331B78194697F89730674AE8
:102600005B01134414331B7807F110000A46664936
:1026100008F00CFA07F110031946F86805F080FD80
:1026200097F897305D4A5B0113440A331B881A46BA
:1026300007F110035D49184608F0F8F907F1100397
:102640001946F86805F06CFD97F89730534A5B011E
:10265000134416331B881A4607F1100354491846D1
:1026600008F0E4F907F110031946F86805F058FD81
:1026700097F89730494A5B01134406331B881A4682
:1026800007F110034B49184608F0D0F907F1100381
:102690001946F86805F044FD97F897303F4A5B010A
:1026A00013440C331B88194697F897303B4A5B015B
:1026B00013440E331B8807F110000A463E4908F008
:1026C000B5F907F110031946F86805F029FD97F8E8
:1026D0009730324A5B01134410331B88194697F830
:1026E00097302E4A5B01134412331B8807F1100008
:1026F0000A46324908F09AF907F110031946F868BA
:1027000005F00EFD97F89730244A5B011344183307
:102710001B88194697F89730204A5B0113441A33F7
:102720001B8807F110000A46254908F07FF907F1D8
:1027300010031946F86805F0F3FC97F89730174A2C
:102740005B0113441C331B88194697F89730134AD2
:102750005B0113441E331B8807F110000A46194918
:1027600008F064F907F110031946F86805F0D8FC81
:1027700097F89730013387F89730134B1B7897F809
:1027800097209A427FF6E8AE9837BD4680BD00BFDD
:10279000ECBB0008D8BC000818BD00086001002090
:1027A00038BD000864BD000898BD0008CCBD000815
:1027B000F8BD000824BE000850BE00088CBE00080A
:1027C000C8BE000804BF00085C03002080B596B0B6
:1027D00000AFF860B9607A60B86805F0A5FD0346FF
:1027E0007B657B6D002B04D00D49F86805F098FCE3
:1027F00013E00C4B1B785A1C07F114030A491846C6
:1028000008F014F907F114031946084807F097FF78
:102810000749F86805F084FC00BF5837BD4680BD05
:10282000ECBB00085C03002018BD00086403002016
:1028300004BC000880B485B000AFF860B9607A606D
:1028400000BF1437BD465DF8047B704780B485B087
:1028500000AFF860B9607A6000BF1437BD465DF81C
:10286000047B704780B596B000AFF860B9607A60BD
:10287000B86805F059FD03467B657B6D002B04D0DD
:102880001049F86805F04CFC18E00F4B1B780F4A14
:102890005B01134402331B881A4607F114030C49E9
:1028A000184608F0C3F807F114031946094807F061
:1028B00046FF0949F86805F033FC00BF5837BD46AC
:1028C00080BD00BFECBB00085C030020600100205D
:1028D00040BF00086403002004BC000880B596B027
:1028E00000AFF860B9607A60B86805F01DFD034676
:1028F0007B657B6D002B04D01349F86805F010FC54
:102900001FE0124B1B78124A5B01134404331B78FF
:102910005A1C0E4B1B780E495B010B4405331B7888
:10292000013307F114000B4908F080F807F1140394
:102930001946F86805F0F4FB0749F86805F0F0FB64
:1029400000BF5837BD4680BDECBB00085C030020CB
:102950006001002038BD000804BC000880B596B0B6
:1029600000AFF860B9607A60B86805F0DDFC034636
:102970007B657B6D002B04D02149F86805F0D0FB06
:102980003AE0204B1B78204A5B01134408331B7844
:1029900019461C4B1B781C4A5B01134409331B78F6
:1029A00007F114000A46194908F040F807F114032A
:1029B0001946F86805F0B4FB124B1B78124A5B010C
:1029C000134414331B7819460E4B1B780E4A5B01D7
:1029D000134414331B7807F114000A460C4908F01D
:1029E00025F807F114031946F86805F099FB094921
:1029F000F86805F095FB00BF5837BD4680BD00BFA5
:102A0000ECBB00085C0300206001002064BD0008EE
:102A100098BD000804BC000880B596B000AFF8600F
:102A2000B9607A60B86805F07FFC03467B657B6D12
:102A3000002B04D02449F86805F072FB40E0234BDA
:102A40001B78234A5B0113440A331B881A4607F19B
:102A500014032049184607F0E9FF07F1140319464B
:102A6000F86805F05DFB194B1B78194A5B011344AC
:102A700016331B881A4607F114031749184607F046
:102A8000D5FF07F114031946F86805F049FB0F4B11
:102A90001B780F4A5B01134406331B881A4607F163
:102AA00014030E49184607F0C1FF07F11403194635
:102AB000F86805F035FB0A49F86805F031FB00BFFE
:102AC0005837BD4680BD00BFECBB00085C0300204A
:102AD00060010020CCBD0008F8BD000824BE00083D
:102AE00004BC000880B596B000AFF860B9607A60A9
:102AF000B86805F019FC03467B657B6D002B04D09C
:102B00002149F86805F00CFB3AE0204B1B78204A7D
:102B10005B0113440C331B8819461C4B1B781C4A61
:102B20005B0113440E331B8807F114000A46194950
:102B300007F07CFF07F114031946F86805F0F0FA76
:102B4000124B1B78124A5B01134410331B88194641
:102B50000E4B1B780E4A5B01134412331B8807F19E
:102B600014000A460C4907F061FF07F114031946E7
:102B7000F86805F0D5FA0949F86805F0D1FA00BF00
:102B80005837BD4680BD00BFECBB00085C03002089
:102B90006001002050BE00088CBE000804BC000884
:102BA00080B596B000AFF860B9607A60B86805F09B
:102BB000BBFB03467B657B6D002B04D01349F86893
:102BC00005F0AEFA1FE0124B1B78124A5B0113446A
:102BD0000C331B8819460E4B1B780E4A5B011344BD
:102BE0000E331B8807F114000A460B4907F01EFF3D
:102BF00007F114031946F86805F092FA0749F868D6
:102C000005F08EFA00BF5837BD4680BDECBB00080A
:102C10005C0300206001002050BE000804BC0008D6
:102C200080B596B000AFF860B9607A60B86805F01A
:102C30007BFB03467B657B6D002B04D01349F86852
:102C400005F06EFA1FE0124B1B78124A5B01134429
:102C500010331B8819460E4B1B780E4A5B01134438
:102C600012331B8807F114000A460B4907F0DEFEF9
:102C700007F114031946F86805F052FA0749F86895
:102C800005F04EFA00BF5837BD4680BDECBB0008CA
:102C90005C030020600100208CBE000804BC00081A
:102CA00080B596B000AFF860B9607A60B86805F09A
:102CB0003BFB03467B657B6D002B04D02149F86804
:102CC00005F02EFA3AE0204B1B78204A5B011344B2
:102CD00018331B8819461C4B1B781C4A5B01134494
:102CE0001A331B8807F114000A46194907F09EFEA3
:102CF00007F114031946F86805F012FA124B1B7815
:102D0000124A5B0113441C331B8819460E4B1B7877
:102D10000E4A5B0113441E331B8807F114000A4658
:102D20000C4907F083FE07F114031946F86805F013
:102D3000F7F90949F86805F0F3F900BF5837BD46BF
:102D400080BD00BFECBB00085C03002060010020D8
:102D5000C8BE000804BF000804BC000880B596B0D7
:102D600000AFF860B9607A60B86805F0DDFA034634
:102D70007B657B6D002B04D01349F86805F0D0F912
:102D80001FE0124B1B78124A5B01134418331B8857
:102D900019460E4B1B780E4A5B0113441A331B88ED
:102DA00007F114000A460B4907F040FE07F114032F
:102DB0001946094807F0C3FC0849F86805F0B0F95E
:102DC00000BF5837BD4680BDECBB00085C03002047
:102DD00060010020C8BE00086403002004BC000895
:102DE00080B596B000AFF860B9607A60B86805F059
:102DF0009BFA03467B657B6D002B04D01349F86872
:102E000005F08EF91FE0124B1B78124A5B01134448
:102E10001C331B8819460E4B1B780E4A5B0113446A
:102E20001E331B8807F114000A460B4907F0FEFD0C
:102E300007F114031946F86805F072F90749F868B4
:102E400005F06EF900BF5837BD4680BDECBB0008E9
:102E50005C0300206001002004BF000804BC0008DF
:102E600080B586B000AFF860B9607A60B86805F0E8
:102E70005BFA03467B617B69002B04D01049F8683C
:102E800005F04EF918E00F4B1B78002B04D00E49CB
:102E9000F86805F045F90AE00A4B1B7883F0010356
:102EA000DBB2002B03D00949F86805F039F908496D
:102EB000F86805F035F900BF1837BD4680BD00BF82
:102EC000ECBB00085C01002060BF000878BF000870
:102ED00004BC000880B5A6B000AFF860B9607A60A5
:102EE000B86805F021FA0346C7F89430D7F8943053
:102EF000002B04D09449F86805F012F920E19349B9
:102F0000F86805F00DF9924B1B785A1C07F1140371
:102F10009049184607F08AFD07F114031946F8682E
:102F200005F0FEF88A4B1B788B4A5B01134404338F
:102F30001B785A1C864B1B7887495B010B44053371
:102F40001B78013307F11400844907F06FFD07F186
:102F500014031946F86805F0E3F87D4B1B787E4AA8
:102F60005B01134408331B781946794B1B787A4A66
:102F70005B01134409331B7807F114000A467849B2
:102F800007F054FD07F114031946F86805F0C8F876
:102F90006F4B1B78704A5B01134414331B7819463E
:102FA0006B4B1B786C4A5B01134414331B7807F19D
:102FB00014000A466B4907F039FD07F1140319465E
:102FC000F86805F0ADF8624B1B78634A5B01134467
:102FD0000A331B881A4607F114036349184607F0A1
:102FE00025FD07F114031946F86805F099F8584BC8
:102FF0001B78594A5B01134416331B881A4607F1A4
:1030000014035A49184607F011FD07F11403194635
:10301000F86805F085F84E4B1B784F4A5B01134466
:1030200006331B881A4607F114035149184607F066
:10303000FDFC07F114031946F86805F071F8444BDC
:103040001B78454A5B0113440C331B881946404BDF
:103050001B78414A5B0113440E331B8807F11400AF
:103060000A46444907F0E2FC07F114031946F868E0
:1030700005F056F8364B1B78374A5B011344103382
:103080001B881946324B1B78334A5B0113441233B9
:103090001B8807F114000A46374907F0C7FC07F1FF
:1030A00014031946F86805F03BF8294B1B782A4AA7
:1030B0005B01134418331B881946254B1B78264A9D
:1030C0005B0113441A331B8807F114000A462B498D
:1030D00007F0ACFC07F114031946F86805F020F876
:1030E0001B4B1B781C4A5B0113441C331B8819467D
:1030F000174B1B78184A5B0113441E331B8807F1DA
:1031000014000A461E4907F091FC07F11403194602
:10311000F86805F005F81B4B1B78002B04D01A4902
:10312000F86804F0FDFF0AE0164B1B7883F00103FA
:10313000DBB2002B03D01549F86804F0F1FF00BFA3
:103140009837BD4680BD00BFECBB0008D8BC000866
:103150005C03002018BD00086001002038BD000895
:1031600064BD000898BD0008CCBD0008F8BD00088B
:1031700024BE000850BE00088CBE0008C8BE00086F
:1031800004BF00085C01002060BF000878BF000891
:1031900080B588B000AFF860B9607A6007F11403B9
:1031A000074A0A21184607F00BFC07F114031946D9
:1031B000F86804F0B5FF00BF2037BD4680BD00BFF2
:1031C00094BF000880B584B000AFF860B9607A6041
:1031D000FEF7CCF880B58AB000AF0346FB711F4BF9
:1031E000CA221A701E4B1A781C4B5A701B4B0122B4
:1031F0009A701A4AFB79D370184B07221A71174B31
:10320000EF2283F80021154BDB7804331A46154969
:10321000002006F00FFA03469AB2104BA3F8FE20E6
:1032200007F10C0300221A605A609A60DA601A6192
:103230005A611A7607F10B0207F10C031946074889
:1032400006F044FAFA7A07F10C031946064807F02B
:103250008EFA00BF2837BD4680BD00BF4011002058
:10326000287B002041110020D40F002080B400AF43
:10327000024B1846BD465DF8047B7047F4C2000857
:1032800080B400AF2E231846BD465DF8047B70471E
:1032900080B483B000AF78600B46FB70FA787B682F
:1032A0005A6000BF0C37BD465DF8047B70470000D4
:1032B00080B584B004AF4FF4007303934FF40073F0
:1032C0000293144B0193144B00932723134A144980
:1032D000144807F0BBF94FF400621349114804F099
:1032E00035FD0346114A136042210C48FFF7D0FF19
:1032F00042210A48FFF7CCFF42210848FFF7C8FFE8
:103300000B49084807F01BFA0A4B064A1A6000BF2F
:10331000BD4680BDD0050020D003002000480040FD
:103320009CBF000864030020D0070020D00F0020BD
:10333000A8BF00086003002080B584B000AF7860AB
:103340000BE00D4807F0C7F90346FB730B4B1B68F6
:10335000FA7B1146184604F02FFE074807F025FABD
:103360000346002BEDD1054B1B68184604F047FEC1
:1033700000BF1037BD4680BD64030020D00F002081
:1033800080B594B000AF994B1B681B780C2B00F2F2
:10339000F08101A252F823F0773700087737000850
:1033A0007737000877370008773700087337000849
:1033B000CD3300086D34000811350008C134000811
:1033C00061350008FD3600088B360008874B1B6806
:1033D0005B78012B04D18649864807F0B0F91CE0E0
:1033E000824B1B689B78012B04D18349814807F0ED
:1033F000A6F912E07D4B1B68DB78012B04D17F49D5
:103400007C4807F09CF908E0784B1B681B79012B7E
:1034100003D17B49774807F092F9744B1B685B79BD
:10342000012B04D17749734807F089F9A5E16F4B67
:103430001B689B79012B04D173496E4807F07FF913
:103440009BE16A4B1B68DB79012B04D16F4969480A
:1034500007F075F991E1654B1B681B7A012B40F071
:103460008C816B49634807F06AF986E15F4B1B6802
:103470005B781BB21B021AB25C4B1B689B781BB2B9
:1034800013431BB2A7F84430584B1B68DB781BB2C0
:103490001B021AB2554B1B681B791BB213431BB29C
:1034A000A7F84230B7F84420B7F8423038465949B7
:1034B00007F0BCFA3B4619464E4807F040F967E171
:1034C0004A4B1B685B78012B04D14B49494807F0F4
:1034D00036F908E0454B1B685B78002B03D14E4959
:1034E000444807F02CF9414B1B689B78012B04D111
:1034F0004549404807F023F941E13C4B1B689B7864
:10350000002B40F03C8145493A4807F018F936E174
:10351000364B1B685B78012B04D13849354807F0DE
:103520000EF908E0314B1B685B78002B03D13C4956
:10353000304807F004F92D4B1B689B78012B04D110
:1035400032492C4807F0FBF81BE1284B1B689B789D
:10355000002B40F016813349264807F0F0F810E1BF
:10356000224B1B685B781BB21B021AB21F4B1B68F5
:103570009B781BB213431BB2A7F848301B4B1B6848
:10358000DB781BB21B021AB2184B1B681B791BB2EB
:1035900013431BB2A7F84630B7F84820B7F84630B7
:1035A00038461C4907F042FA3B461946114807F0D5
:1035B000C6F80E4B1B685B79012B04D10E490D48F0
:1035C00007F0BDF808E0094B1B685B79002B03D1BD
:1035D0001149084807F0B3F8044B1B689B79012B8D
:1035E00022D10949034807F0AAF826E0A8000020E4
:1035F000C0BF000864030020D4BF0008ECBF00086F
:1036000004C0000820C0000834C000084CC00008F6
:1036100064C0000880C00008B4C00008D0C0000822
:10362000ECC0000808C100085B4B1B689B79002BAD
:1036300003D15A495A4807F082F8574B1B68DB7987
:10364000012B04D15749564807F079F808E0524B4E
:103650001B68DB79002B03D15349514807F06FF801
:103660004D4B1B681B7A012B04D150494C4807F085
:1036700066F888E0484B1B681B7A002B40F083807B
:103680004B49474807F05BF87DE0434B1B685B788C
:103690001BB21B021AB2404B1B689B781BB2134330
:1036A0001BB2A7F84E303C4B1B68DB781BB21B02E9
:1036B0001AB2394B1B681B791BB213431BB2A7F814
:1036C0004C303C4B1B78012B0FD1B7F84E20B7F88C
:1036D0004C303846384907F0A9F93B46194630487E
:1036E00007F02DF8334B00221A70344B1B78032B54
:1036F0004BD1334AB7F84E30138046E0264B1B6857
:103700005B78002B14BF0123002387F84B30224B3A
:103710001B689B78002B14BF0123002387F84A30D5
:1037200097F84B30002B04D026491D4807F007F8C6
:103730000AE097F84B3083F00103DBB2002B03D093
:103740002149174806F0FBFF97F84A30002B04D0B8
:103750001E49134806F0F3FF19E097F84A3083F04A
:103760000103DBB2002B12D019490D4806F0E7FF28
:103770000DE000230CE000BF0AE000BF08E000BF3E
:1037800006E000BF04E000BF02E000BF00E000BFB1
:1037900018465037BD4680BDA8000020D0C00008A4
:1037A00064030020ECBF0008ECC000084CC0000817
:1037B00008C100085D03002024C10008D5130020C3
:1037C000D613002044C1000860C1000878C1000879
:1037D00094C1000880B584B004AF80230393802394
:1037E0000293124B0193124B00933423114A124956
:1037F000124806F02BFF124B124A5A60104B8022DF
:103800001A800F4B00221A810D4B1B88002B06D00B
:103810000B4B5B6804220021184607F043F9022095
:1038200005F044FF00BFBD4680BD00BFC0100020B2
:1038300040100020004C0040ACC10008D40F002014
:10384000481300205413002080B584B000AF786086
:103850000023FB733223FB7347E02A4806F03BFF4B
:103860000346DAB2284B9A72274B9B7ADBB2CA2BFB
:1038700003D1254B00221A8134E0234B9B7ADBB223
:10388000EF2B14D1204B5B681F4A128992B2D1B240
:103890001E4A184606F050F80346BB73BB7B012B4B
:1038A00001D1FFF76DFD184B00221A811AE0164B6B
:1038B0005B68154A128992B21344134A927AD2B2C3
:1038C0001A70114B1B899BB201339AB20E4B1A81AD
:1038D0000D4B1B899AB20C4B1B889A4202D90A4B9A
:1038E00000221A81FB7B013BFB73064806F05DFF5B
:1038F0000346002B02D0FB7B002BAED100BF10375C
:10390000BD4680BDD40F0020481300204412002083
:1039100080B596B000AF78608E4B1B78042B00F218
:10392000138101A252F823F03D3900086D3A0008D6
:1039300059390008CF390008893A000803F072FBB2
:1039400004F0F2F8844B00221A70844B00221A8093
:10395000042006F0FDF9F8E0814B1B6801221A7083
:103960007D4B1B781A467F4B33F812301B0A9AB2F4
:103970007B4B1B68D2B25A70774B1B781A46794B37
:1039800033F81220764B1B68D2B29A70032000F0F5
:103990009FF9734B1B6803221A70714B1B6801223D
:1039A0005A706F4B1B6800229A70032000F090F948
:1039B0006D4B42F210721A60664B03221A70684B0C
:1039C0001B680C221A70012000F082F9BDE0664BE2
:1039D0001B68002B40F0BA80634B4FF47A721A6078
:1039E0005D4B1B781A465F4B33F8123007EE903A66
:1039F000F8EEE77A9FED5D7A67EE877AC7ED147A85
:103A0000554B1B781A46574B33F8123007EE903A55
:103A1000F8EEE77A9FED567A67EE877AC7ED137A6C
:103A2000544B1B8807EE903AF8EEE77A97ED147A3C
:103A3000B4EEE77AF1EE10FA0CDC4E4B1B8807EE81
:103A4000903AF8EEE77A97ED137AB4EEE77AF1EE72
:103A500010FA07D5424B1B680C221A70012000F0A7
:103A600037F972E03B4B01221A706EE0424B1B7833
:103A7000414A52781146184603F08CF904F042F896
:103A8000344B04221A7060E000F082F80346A7F875
:103A90005630324B1B881A46384B33F81230B7F881
:103AA00056209A4213D92C4B1B78032B0FD82A4B44
:103AB0001B780133DAB2284B1A70284B1B8801336C
:103AC0009AB2264B1A80234B02221A703FE0224BF7
:103AD0001B78032B0ED9294B1B89B7F856209A4225
:103AE00008D9B7F8562007F10C032549184606F007
:103AF0009DFF07E0B7F8562007F10C03214918464F
:103B000006F094FF07F10C0319461F4806F017FE54
:103B1000134B1B6804221A70114B1B6801225A7048
:103B20000F4B1B6800229A70032000F0D1F8094B5C
:103B300000221A70154B00221A70074B00221A70CF
:103B4000064B00221A8002E000BF00E000BF583799
:103B5000BD4680BDD5130020DA130020DC13002001
:103B6000A4000020B0000020AC0000206666663F84
:103B7000CDCC8C3FD6130020D8130020BC000020F1
:103B8000B8C10008E4C1000864030020D413002079
:103B900090B597B000AF07F12803282200211846FE
:103BA00006F080FF3B4628220021184606F07AFFE7
:103BB0004FF000037B650023A7F85030002387F8FF
:103BC000533042E0404802F077FE53EC102B97F858
:103BD000534010461946FCF751FF0246A3005833E4
:103BE0003B44303B1A60384802F0FAFD51EC100BB0
:103BF00033A3D3E90023FCF70FFD02460B4697F8E9
:103C0000534010461946FCF739FF0246A3005833CB
:103C10003B44583B1A6097F853309B0058333B4461
:103C2000303BD3ED007AF5EEC07AF1EE10FA07D80A
:103C300097F853309B0058333B44303B234A1A607B
:103C400097F85330013387F8533097F85330092BE6
:103C5000B8D9002387F852301CE097F852309B0007
:103C600058333B44583BD3ED006A97F852309B00E1
:103C700058333B44303B93ED007AC6EE877A97ED9C
:103C8000157A77EE277AC7ED157A97F85230013317
:103C900087F8523097F85230092BDED997ED157A14
:103CA000F2EE046AC7EE267AFCEEE77A17EE903A57
:103CB000A7F85030B7F8503018465C37BD4690BD75
:103CC0002682A3AAAAAA4040100300206F12833ABA
:103CD00080B58AB000AF0346FB711F4BCA221A7031
:103CE0001E4B1A781C4B5A701B4B01229A701A4AB1
:103CF000FB79D370184B07221A71174BEF2283F808
:103D00000021154BDB780433DBB21A46144900203E
:103D100005F090FC03461A460F4BA3F8FE2007F16E
:103D20000C0300221A605A609A60DA601A615A61C4
:103D30001A7607F10B0207F10C031946064805F045
:103D4000C5FCFA7A07F10C031946064806F00FFD88
:103D500000BF2837BD4680BD40110020287B0020D1
:103D600041110020D40F002080B485B000AF7860EE
:103D70007B6803F00703FB600C4BDB68BB60BA6831
:103D80004FF6FF031340BB60FB681A02BB68134386
:103D900043F0BF6343F40033BB60044ABB68D360A5
:103DA00000BF1437BD465DF8047B704700ED00E0AE
:103DB00080B400AF044BDB681B0A03F0070318460E
:103DC000BD465DF8047B704700ED00E080B483B031
:103DD00000AF0346FB7197F90730002B0BDBFB7933
:103DE00003F01F02074997F907305B09012000FA29
:103DF00002F241F8232000BF0C37BD465DF8047B7A
:103E0000704700BF00E100E080B483B000AF03461C
:103E10003960FB7197F90730002B0ADB3B68DAB297
:103E20000C4997F907301201D2B20B4483F80023F2
:103E30000AE03B68DAB20849FB7903F00F03043B60
:103E40001201D2B20B441A7600BF0C37BD465DF8A2
:103E5000047B704700E100E000ED00E080B489B031
:103E600000AFF860B9607A60FB6803F00703FB619C
:103E7000FB69C3F10703042B28BF0423BB61FB6963
:103E80000433062B02D9FB69033B00E000237B616E
:103E90004FF0FF32BB6902FA03F3DA43BB681A4002
:103EA0007B699A404FF0FF317B6901FA03F3D943F4
:103EB0007B680B40134318462437BD465DF8047BEE
:103EC0007047000080B400AF054B1B68044A43F400
:103ED0008033136000BFBD465DF8047B704700BFB0
:103EE0000038024080B400AF074B1B6803F4003376
:103EF000B3F5003F0CBF01230023DBB21846BD46DB
:103F00005DF8047B704700BF0038024080B483B086
:103F100000AF7860064B9B6823F0030204497B687E
:103F200013438B6000BF0C37BD465DF8047B7047C0
:103F30000038024080B400AF044B9B6803F00C03D0
:103F40001846BD465DF8047B704700BF003802404C
:103F500080B483B000AF7860064B9B6823F0F0021A
:103F600004497B6813438B6000BF0C37BD465DF886
:103F7000047B70470038024080B483B000AF7860A3
:103F8000064B9B6823F4E05204497B6813438B6023
:103F900000BF0C37BD465DF8047B70470038024017
:103FA00080B483B000AF7860064B9B6823F4604216
:103FB00004497B6813438B6000BF0C37BD465DF836
:103FC000047B70470038024080B400AF054B1B688B
:103FD000044A43F08073136000BFBD465DF8047B64
:103FE000704700BF0038024080B400AF074B1B6829
:103FF00003F00073B3F1007F0CBF01230023DBB299
:104000001846BD465DF8047B704700BF003802408B
:1040100080B485B000AFF860B9607A603B600D4B4A
:104020005A680D4B1340F968BA6811437A689201D7
:104030000A43084913434B60064B5B6823F4403244
:1040400004493B6813434B6000BF1437BD465DF81D
:10405000047B7047003802400080BFFF80B485B009
:1040600000AF7860084B1A6B07497B6813430B63FA
:10407000054B1A6B7B681340FB60FB6800BF14376D
:10408000BD465DF8047B70470038024080B485B0BF
:1040900000AF7860084B1A6C07497B6813430B64C8
:1040A000054B1A6C7B681340FB60FB6800BF14373C
:1040B000BD465DF8047B70470038024080B485B08F
:1040C00000AF7860084B5A6C07497B6813434B6418
:1040D000054B5A6C7B681340FB60FB6800BF1437CC
:1040E000BD465DF8047B70470038024080B483B061
:1040F00000AF7860064B1B6823F0070204497B6819
:1041000013430B6000BF0C37BD465DF8047B70475E
:10411000003C024080B400AF044B1B6803F007036F
:104120001846BD465DF8047B704700BF003C024066
:1041300080B483B000AF7860064B1B6823F48042E4
:1041400004497B6813430B6000BF0C37BD465DF824
:10415000047B70470070004080B400AF074B5B6881
:1041600003F48043B3F5804F0CBF01230023DBB27F
:104170001846BD465DF8047B704700BF00700040E4
:1041800080B485B000AFF860B9607A600D4ABB6852
:1041900013441B781A46FB6813441B6823F0C002C3
:1041A0000849BB680B441B781946FB680B44194649
:1041B0007B6813430B6000BF1437BD465DF8047B7A
:1041C000704700BF44C7000880B485B000AFF860F6
:1041D000B9607A600D4ABB6813441B781A46FB68C5
:1041E00013441B6823F490720849BB680B441B7886
:1041F0001946FB680B4419467B6813430B6000BFEC
:104200001437BD465DF8047B704700BF44C7000803
:1042100080B485B000AFF860B9607A600D4ABB68C1
:1042200013441B781A46FB6813441B6823F400727E
:104230000849BB680B441B781946FB680B441946B8
:104240007B6813430B6000BF1437BD465DF8047BE9
:10425000704700BF44C7000880B485B000AFF86065
:10426000B9607A600D4ABB6813441B781A46FB6834
:1042700013441B6823F480620849BB680B441B7815
:104280001946FB680B4419467B6813430B6000BF5B
:104290001437BD465DF8047B704700BF44C7000873
:1042A00080B485B000AFF860B9607A600D4ABB6831
:1042B00013441B781A46FB6813441B6823F4C0524E
:1042C0000849BB680B441B781946FB680B44194628
:1042D0007B6813430B6000BF1437BD465DF8047B59
:1042E000704700BF44C7000880B485B000AFF860D5
:1042F000B9607A600D4ABB6813441B781A46FB68A4
:1043000013441B6823F4C0420849BB680B441B7864
:104310001946FB680B4419467B6813430B6000BFCA
:104320001437BD465DF8047B704700BF44C70008E2
:1043300080B485B000AFF860B9607A600D4ABB68A0
:1043400013441B781A46FB6813441B6823F440325D
:104350000849BB680B441B781946FB680B44194697
:104360007B6813430B6000BF1437BD465DF8047BC8
:10437000704700BF44C7000880B485B000AFF86044
:10438000B9607A600D4ABB6813441B781A46FB6813
:1043900013441B6823F060620849BB680B441B7818
:1043A0001946FB680B4419467B6813430B6000BF3A
:1043B0001437BD465DF8047B704700BF44C7000852
:1043C00080B483B000AF786039600C4A3B68134416
:1043D0001B781A467B6813445B6908493A680A44AB
:1043E000127811467A680A4423F00403536100BF2F
:1043F0000C37BD465DF8047B704700BF44C700081A
:1044000080B483B000AF786039600C4A3B681344D5
:104410001B781A467B6813441B6808493A680A44AB
:10442000127811467A680A4443F01003136000BF03
:104430000C37BD465DF8047B704700BF44C70008D9
:1044400080B483B000AF786039607B685B6823F02C
:1044500010023B681A437B685A6000BF0C37BD46A8
:104460005DF8047B704780B483B000AF78607B68F0
:104470001B6843F080027B681A6000BF0C37BD46A2
:104480005DF8047B704780B483B000AF78607B68D0
:104490001B6823F080027B681A6000BF0C37BD46A2
:1044A0005DF8047B7047000080B485B000AF786091
:1044B00039603B68012B1CD03B68042B17D03B684C
:1044C000102B12D03B68402B0DD03B68B3F5807F9A
:1044D00007D03B68B3F5806F01D105230AE00623BE
:1044E00008E0042306E0032304E0022302E00123A2
:1044F00000E00023FB737B6818331946FB7B0B4AF3
:10450000D35C0B44BB60BB681A68FB7B0849CB5C7F
:10451000194604238B40DB431A40BB681A6000BF76
:104520001437BD465DF8047B704700BF4CC70008D8
:1045300054C7000880B485B000AF786039603B682C
:10454000012B1CD03B68042B17D03B68102B12D0DA
:104550003B68402B0DD03B68B3F5807F07D03B68AC
:10456000B3F5806F01D105230AE0062308E0042398
:1045700006E0032304E0022302E0012300E000231D
:10458000FB737B6818331946FB7B0A4AD35C0B44E8
:10459000BB60BB681A68FB7B0749CB5C19460823E4
:1045A0008B401A43BB681A6000BF1437BD465DF8E4
:1045B000047B70474CC7000854C7000880B483B020
:1045C00000AF786039607B689B6823F4804323F0F8
:1045D00007033A681A437B689A6000BF0C37BD46F0
:1045E0005DF8047B704780B483B000AF78603960B9
:1045F0007B685B6823F070023B681A437B685A60F3
:1046000000BF0C37BD465DF8047B704780B483B0B3
:1046100000AF78607B689B6823F080027B689A60BB
:1046200000BF0C37BD465DF8047B704780B483B093
:1046300000AF78607B68DB6843F400527B68DA6027
:1046400000BF0C37BD465DF8047B704780B483B073
:1046500000AF78607B681B6923F490427B681A6125
:104660007B685B6923F02A027B685A6100BF0C37C4
:10467000BD465DF8047B704780B483B000AF7860BE
:1046800039603B681A047B689A6100BF0C37BD46ED
:104690005DF8047B704780B500AF4FF48040FFF7B2
:1046A0000DFD4FF08050FFF7F1FC0320FFF75CFB9E
:1046B000FFF77EFB034600220F211846FFF7CEFBD3
:1046C000034619464FF0FF30FFF79EFB00F012F84B
:1046D00000F0F8F900F0BAF800F032F900F054F800
:1046E00000F08EF900F056FA00F056FBFCF718FEC9
:1046F00000BFFDE780B500AF0220FFF7F7FC00BF69
:10470000FFF708FD0346022BFAD14FF48040FFF774
:104710000FFDFFF7D7FB00BFFFF7E4FB0346012BBC
:10472000FAD10023482204214FF48000FFF770FCE7
:10473000FFF74AFC00BFFFF757FC0346012BFAD1F5
:1047400000BFFFF709FD0346002BFAD00020FFF75A
:10475000FFFB4FF48050FFF70FFC0020FFF720FC19
:104760000220FFF7D3FB00BFFFF7E4FB0346082B53
:10477000FAD1044801F094FE024801F09FFE00BF08
:1047800080BD00BF00A24A0480B590B000AF07F121
:10479000180328220021184606F084F93B4600221F
:1047A0001A605A609A60DA601A615A614FF4805058
:1047B000FFF784FC0120FFF751FCE0233B6002235C
:1047C0007B600323BB600023FB6000233B61052368
:1047D0007B613B4619461B4800F0FAFDFFF7E8FAFB
:1047E0000346002206211846FFF738FB0346194608
:1047F0002320FFF709FB2320FFF7E8FA0023BB6122
:104800004FF48273FB6100233B6200237B62012330
:10481000BB624FF40073FB6210233B6300237B6396
:104820000023BB630A23FB6307F1180319460648FC
:1048300000F0ADFF00210448FFF702FE00BF403743
:10484000BD4680BD000002400030014080B594B0FC
:1048500000AF07F13C0300221A605A609A60DA60E8
:104860001A6107F11C0320220021184606F01AF9EC
:104870003B1D00221A605A609A60DA601A615A6120
:104880000220FFF703FC0023BB8700233B644FF6A5
:10489000FF737B640023BB6407F13C031946264881
:1048A00001F03AF82448FFF7EEFD01212248FFF716
:1048B00041FE6023FB6100233B6200237B620023F7
:1048C000BB620023FB6207F11C031A4601211A4850
:1048D00001F0BCF801211848FFF7E6FD1021164849
:1048E000FFF728FE07F11C031A461021124801F0B9
:1048F000ADF810211048FFF7D7FD00210E48FFF753
:1049000072FE0D48FFF782FE0220FFF7A7FB30235F
:104910007B600223BB600023FB6000233B6100231C
:104920007B610223BB613B1D1946044800F050FD2A
:1049300000BF5037BD4680BD000400400004024067
:1049400080B58EB000AF07F11C0300221A605A60D8
:104950009A60DA601A615A619A613B1D00221A60FE
:104960005A609A60DA601A615A614FF40020FFF7CA
:104970008DFB0120FFF772FB03237B600223BB60EA
:104980000323FB6000233B6100237B610823BB61A1
:104990003B1D1946184800F01BFDFFF709FA0346B6
:1049A000002203211846FFF759FA0346194634201E
:1049B000FFF72AFA3420FFF709FA4FF4E133FB61DD
:1049C00000233B6200237B620023BB620C23FB625B
:1049D00000233B6300237B6307F11C031946074850
:1049E00001F0C4FC0548FFF731FE0448FFF71EFE46
:1049F00000BF3837BD4680BD00000240004C00407B
:104A000080B58EB000AF07F11C0300221A605A6017
:104A10009A60DA601A615A619A613B1D00221A603D
:104A20005A609A60DA601A615A614FF48020FFF789
:104A30002DFB0220FFF712FB4FF440637B60022343
:104A4000BB600323FB6000233B6100237B610723E2
:104A5000BB613B1D1946194800F0BAFCFFF7A8F9E5
:104A60000346002205211846FFF7F8F903461946C8
:104A70002720FFF7C9F92720FFF7A8F94FF4E13302
:104A8000FB6100233B6200237B620023BB620C239B
:104A9000FB6200233B6300237B6307F11C03194681
:104AA000074801F063FC0648FFF7D0FD0448FFF714
:104AB000BDFD00BF3837BD4680BD00BF00040240C9
:104AC0000048004080B586B000AF3B4600221A6027
:104AD0005A609A60DA601A615A610420FFF7BEFAE0
:104AE0008020FFF7BBFA0120FFF7B8FA0220FFF79A
:104AF000B5FA4FF6FF712448FFF7BEFD1021234899
:104B0000FFF7BAFDC8212248FFF7B6FD4FF6FF7345
:104B10003B6001237B600023BB600023FB6000231C
:104B20003B613B461946184800F052FC10233B609D
:104B300001237B600023BB600023FB6000233B61FB
:104B40003B461946114800F043FC01233B6000231B
:104B50007B6000233B613B4619460D4800F038FC62
:104B6000C8233B6001237B600023BB600023FB6004
:104B700000233B613B461946054800F029FC00BF75
:104B80001837BD4680BD00BF00080240000002404B
:104B90000004024080B594B000AF4FF48000FFF7EE
:104BA0005DFAFFF705F90346002202211846FFF7D8
:104BB00055F9034619463C20FFF726F93C20FFF73C
:104BC00005F9FFF7F5F80346002202211846FFF722
:104BD00045F9034619464420FFF716F94420FFF72C
:104BE000F5F807F13C0300221A605A609A60DA6017
:104BF0001A6107F11C0320220021184605F052FF1C
:104C00003B1D00221A605A609A60DA601A615A618C
:104C10000120FFF753FA4FF0406205215C48FFF78F
:104C2000ABFB402205215A48FFF7AAFA4FF4403265
:104C300005215748FFF77CFB002205215448FFF768
:104C4000C3FA002205215248FFF7E2FA4FF48062CE
:104C500005214F48FFF700FB4FF4805205214C48D7
:104C6000FFF71EFB4FF4804205214948FFF73CFB4C
:104C700005214748FFF7A4FB4FF040620421444858
:104C8000FFF77AFB402204214148FFF779FA00221E
:104C900004213F48FFF74CFB002204213C48FFF76A
:104CA00093FA002204213A48FFF7B2FA4FF48062E7
:104CB00004213748FFF7D0FA4FF4805204213448DA
:104CC000FFF7EEFA4FF4804204213148FFF70CFB66
:104CD00004212F48FFF774FB41F61F43BB870023D5
:104CE0003B644FF6FF737B640023BB640023FB64CB
:104CF00007F13C031946274800F00EFE2548FFF750
:104D0000B2FB00212348FFF759FC0023FB6100237D
:104D10003B6200237B620023BB620023FB62002313
:104D20007B630023BB6307F11C031A464FF48051D9
:104D3000184800F08BFE4FF480511648FFF7B4FB83
:104D400020211448FFF74FFC1248FFF75FFC0023B7
:104D50007B600023BB600023FB6000233B740023C7
:104D60007B824FF400537B610023BB613B1D1946DE
:104D7000084800F0ACFE04210548FFF741FB05217F
:104D80000348FFF73DFB00BF5037BD4680BD00BF65
:104D9000006402400000014080B594B000AF4FF4C1
:104DA0008000FFF75BF9FFF703F8034600220221BA
:104DB0001846FFF753F8034619464620FFF724F834
:104DC0004620FFF703F8FEF7F3FF03460022022117
:104DD0001846FFF743F8034619463920FFF714F841
:104DE0003920FEF7F3FF07F13C0300221A605A60F6
:104DF0009A60DA601A6107F11C032022002118462C
:104E000005F050FE3B1D00221A605A609A60DA607D
:104E10001A615A610220FFF751F94FF060620121D7
:104E20005C48FFF7A9FA402201215A48FFF7A8F988
:104E30004FF4403201215748FFF77AFA002201214E
:104E40005448FFF7C1F9002201215248FFF7E0F969
:104E50004FF4806201214F48FFF7FEF94FF4805272
:104E600001214C48FFF71CFA4FF4804201214948C8
:104E7000FFF73AFA01214748FFF7A2FA4FF06062C4
:104E800007214448FFF778FA402207214148FFF7FD
:104E900077F9002207213F48FFF74AFA002207214D
:104EA0003C48FFF791F9002207213A48FFF7B0F993
:104EB0004FF4806207213748FFF7CEF94FF4805254
:104EC00007213448FFF7ECF94FF4804207213148BD
:104ED000FFF70AFA07212F48FFF772FA41F61F433E
:104EE000BB8700233B644FF6FF737B640023BB64E6
:104EF0000023FB6407F13C031946274800F00CFD32
:104F00002548FFF7B0FA00212348FFF757FB00239D
:104F1000FB6100233B6200237B620023BB62002312
:104F2000FB6200237B630023BB6307F11C031A466B
:104F30004FF48051184800F089FD4FF48051164815
:104F4000FFF7B2FA20211448FFF74DFB1248FFF794
:104F50005DFB00237B600023BB600023FB6000231C
:104F60003B7400237B824FF400537B610023BB61C1
:104F70003B1D1946084800F0AAFD01210548FFF72E
:104F80003FFA07210348FFF73BFA00BF5037BD4601
:104F900080BD00BF006402400004014080B400AF47
:104FA00000BFFDE780B400AF00BFFDE780B400AFF5
:104FB00000BFFDE780B400AF00BFFDE780B400AFE5
:104FC00000BFFDE780B400AF00BFBD465DF8047BC5
:104FD000704780B400AF00BFBD465DF8047B7047EA
:104FE00080B400AF00BFBD465DF8047B7047000091
:104FF00080B500AF04F0FCFD074B1B68002B05D00B
:10500000054B1B68013B044A136002E0024B00227F
:105010001A6000BF80BD00BFAC00002080B500AFAB
:10502000024805F075F800BF80BD00BFDC0200201B
:1050300080B500AF024805F0C6FB00BF80BD00BFD1
:105040006403002080B500AF024805F0BCFB00BF40
:1050500080BD00BFD40F002080B586B000AF78605F
:10506000144A154BD31A7B617B693B61134B1B6858
:10507000002B02D1114B124A1A60104B1A687B6840
:1050800013443A699A4207D205F034FD03460C22D4
:105090001A604FF0FF3309E0084B1B68FB60074BB9
:1050A0001A687B681344054A1360FB681846183772
:1050B000BD4680BD0000022000040000E013002077
:1050C000787C002080B400AF064BD3F88830054AC6
:1050D00043F47003C2F8883000BFBD465DF8047B1E
:1050E000704700BF00ED00E0DFF834D0FFF7EAFFC3
:1050F0000C480D490D4A002302E0D458C450043333
:10510000C4188C42F9D30A4A0A4C002301E0136008
:105110000432A242FBD305F0F3FCFFF7BCFA704760
:1051200000000220000000203C01002040C90008CF
:1051300040010020787C0020FEE780B48BB000AFF7
:10514000F860B9607A60FB681A68BB687B617B694C
:1051500093FAA3F33B613B69BB61BB69002B01D1AF
:10516000202303E0BB69B3FA83F3DBB25B000321C6
:1051700001FA03F3DB431A40BB683B623B6A93FAD4
:10518000A3F3FB61FB697B627B6A002B01D12023C7
:1051900003E07B6AB3FA83F3DBB25B00796801FA60
:1051A00003F31A43FB681A6000BF2C37BD465DF855
:1051B000047B704780B485B000AFF860B9607A6056
:1051C000FB685A68BB68DB431A40BB68796801FB1F
:1051D00003F31A43FB685A6000BF1437BD465DF8FD
:1051E000047B704780B48BB000AFF860B9607A6020
:1051F000FB689A68BB687B617B6993FAA3F33B61A8
:105200003B69BB61BB69002B01D1202303E0BB6973
:10521000B3FA83F3DBB25B00032101FA03F3DB4350
:105220001A40BB683B623B6A93FAA3F3FB61FB69DC
:105230007B627B6A002B01D1202303E07B6AB3FAF7
:1052400083F3DBB25B00796801FA03F31A43FB686E
:105250009A6000BF2C37BD465DF8047B704780B470
:105260008BB000AFF860B9607A60FB68DA68BB6841
:105270007B617B6993FAA3F33B613B69BB61BB69CB
:10528000002B01D1202303E0BB69B3FA83F3DBB227
:105290005B00032101FA03F3DB431A40BB683B6266
:1052A0003B6A93FAA3F3FB61FB697B627B6A002B89
:1052B00001D1202303E07B6AB3FA83F3DBB25B0006
:1052C000796801FA03F31A43FB68DA6000BF2C37F0
:1052D000BD465DF8047B704780B48BB000AFF860CA
:1052E000B9607A60FB681A6ABB687B617B6993FA74
:1052F000A3F33B613B69BB61BB69002B01D1202358
:1053000003E0BB69B3FA83F3DBB29B000F2101FA20
:1053100003F3DB431A40BB683B623B6A93FAA3F397
:10532000FB61FB697B627B6A002B01D1202303E0D8
:105330007B6AB3FA83F3DBB29B00796801FA03F36B
:105340001A43FB681A6200BF2C37BD465DF8047B28
:10535000704780B48BB000AFF860B9607A60FB68CA
:105360005A6ABB681B0A7B617B6993FAA3F33B61B2
:105370003B69BB61BB69002B01D1202303E0BB6902
:10538000B3FA83F3DBB29B000F2101FA03F3DB4393
:105390001A40BB681B0A3B623B6A93FAA3F3FB61AA
:1053A000FB697B627B6A002B01D1202303E07B6ACF
:1053B000B3FA83F3DBB29B00796801FA03F31A4373
:1053C000FB685A6200BF2C37BD465DF8047B70470E
:1053D00080B58AB000AF7860396000237B6200231B
:1053E0003B623B681B68BB61BB6993FAA3F37B61BB
:1053F0007B69FB61FB69002B01D1202303E0FB6982
:10540000B3FA83F3DBB27B6257E03B681A68012191
:105410007B6A01FA03F313403B623B6A002B49D0DD
:105420003B685B68012B03D03B685B68022B0DD1A6
:105430003B689B681A46396A7868FFF7D3FE3B6879
:10544000DB681A46396A7868FFF7B4FE3B681B6967
:105450001A46396A7868FFF702FF3B685B68022BDF
:1054600021D13B6AFB60FB6893FAA3F3BB60BB6886
:105470003B613B69002B01D1202303E03B69B3FA78
:1054800083F3DBB2072B07D83B685B691A46396A9E
:105490007868FFF721FF06E03B685B691A46396AC6
:1054A0007868FFF756FF3B685B681A46396A786888
:1054B000FFF743FE7B6A01337B623B681A687B6AB5
:1054C00022FA03F3002BA0D1002318462837BD464B
:1054D00080BD000080B400AF044B9B6803F00C0358
:1054E0001846BD465DF8047B704700BF0038024097
:1054F00080B400AF044B9B6803F0F0031846BD4630
:105500005DF8047B704700BF0038024080B400AFF4
:10551000044B9B6803F4E0531846BD465DF8047BDA
:10552000704700BF0038024080B400AF044B9B6856
:1055300003F460431846BD465DF8047B704700BF26
:105540000038024080B400AF044B5B6803F4800372
:105550001846BD465DF8047B704700BF0038024026
:1055600080B400AF044B5B689B09C3F30803184683
:10557000BD465DF8047B70470038024080B400AF40
:10558000044B5B6803F440331846BD465DF8047B6A
:10559000704700BF0038024080B400AF044B5B6826
:1055A00003F03F031846BD465DF8047B704700BF1B
:1055B0000038024080B582B000AF786000F020F87B
:1055C00002467B681A607B681B68184600F040F84A
:1055D00002467B685A607B685B68184600F04EF8AC
:1055E00002467B689A607B685B68184600F05AF850
:1055F00002467B68DA6000BF0837BD4680BD000008
:1056000080B582B000AF00237B60FFF763FF0346E5
:10561000082B0CD0082B0FD8002B02D0042B03D062
:105620000AE0094B7B600AE0084B7B6007E008203A
:1056300000F04CF8786002E0034B7B6000BF7B68B1
:1056400018460837BD4680BD0024F40000127A00D9
:1056500080B582B000AF7860FFF74AFF03461B09B0
:1056600003F00F03044AD35C1A467B68D340184604
:105670000837BD4680BD00BF5CC7000880B582B05A
:1056800000AF7860FFF742FF03469B0A044AD35CF1
:105690001A467B68D34018460837BD4680BD00BF18
:1056A0006CC7000880B582B000AF7860FFF73CFFA0
:1056B00003465B0B044AD35C1A467B68D34018460A
:1056C0000837BD4680BD00BF6CC7000890B587B0E5
:1056D00000AF786000237B610023FB6000233B6107
:1056E000FFF730FFF860FB68002B04D0FB68B3F5D0
:1056F000800F03D005E0124B7B6105E0114B7B610D
:1057000002E00F4B7B6100BF7B68082B13D1FFF7D2
:1057100043FF02467B69B3FBF2F4FFF721FF034628
:1057200003FB04F4FFF72AFF03461B0C01335B0065
:10573000B4FBF3F33B613B6918461C37BD4690BD93
:105740000024F40000127A0080B483B000AF7860C7
:105750007B681B6803F04003402B01D1012300E06C
:10576000002318460C37BD465DF8047B704780B4B3
:1057700083B000AF786039603B689BB21A467B68A3
:105780001A6100BF0C37BD465DF8047B704780B5D9
:1057900084B000AF786039600123FB737868FFF74D
:1057A000D3FF0346002B39D17B681B6823F47F436A
:1057B00023F0BF033A6811683A68526811433A68A7
:1057C000926811433A68D26811433A6812691143EA
:1057D0003A68526911433A68926911433A68D2694A
:1057E00011433A68126A0A431A437B681A607B685D
:1057F0005B6823F004023B685B691B0C1A437B68FF
:105800005A603B681B6AB3F5005F05D13B685B6A71
:1058100019467868FFF7ABFF0023FB737B68DB69F1
:1058200023F400627B68DA61FB7B18461037BD46C3
:1058300080BD80B483B000AF786039607B683A681F
:105840009A6200BF0C37BD465DF8047B704780B498
:1058500083B000AF786039607B683A68DA6200BF75
:105860000C37BD465DF8047B704780B483B000AF51
:10587000786039607B683A681A6300BF0C37BD46B0
:105880005DF8047B704780B483B000AF7860396006
:105890007B683A685A6300BF0C37BD465DF8047BED
:1058A000704780B483B000AF786039607B683A6835
:1058B0009A6300BF0C37BD465DF8047B704780B427
:1058C00083B000AF786039607B683A68DA6300BF04
:1058D0000C37BD465DF8047B704780B483B000AFE1
:1058E000786039607B683A681A6400BF0C37BD463F
:1058F0005DF8047B704780B483B000AF78607B684C
:105900005B6943F001027B685A6100BF0C37BD46FA
:105910005DF8047B7047000080B584B000AF78600C
:1059200039607B681B68FB607B683D4A934213D0FB
:105930007B68B3F1804F0FD07B683A4A93420BD01B
:105940007B68394A934207D07B68384A934203D038
:105950007B68374A934206D1FB6823F070023B68AC
:105960005B681343FB607B682D4A93422BD07B68B6
:10597000B3F1804F27D07B682A4A934223D07B68BB
:10598000294A93421FD07B68284A93421BD07B68E8
:10599000274A934217D07B68264A934213D07B68EC
:1059A000254A93420FD07B68244A93420BD07B68F0
:1059B000234A934207D07B68224A934203D07B68F4
:1059C000214A934206D1FB6823F440723B68DB68AE
:1059D0001343FB607B68FA681A603B689B68194652
:1059E0007868FFF734FF3B681B8819467868FFF733
:1059F00020FF7B680A4A934203D07B680C4A93429B
:105A000005D13B681B6919467868FFF72EFF786857
:105A1000FFF771FF002318461037BD4680BD00BF59
:105A2000000001400004004000080040000C00405D
:105A30000004014000400140004401400048014092
:105A400000180040001C00400020004080B586B0D7
:105A500000AFF860B9607A600123FB75BB68B3F5ED
:105A6000805F27D0BB68B3F5805F2AD8BB68B3F5E9
:105A7000807F18D0BB68B3F5807F22D8BB68012B2C
:105A800003D0BB68102B07D01BE07968F86800F0E2
:105A900061F80346FB7515E07968F86800F0C6F810
:105AA0000346FB750EE07968F86800F02FF90346AD
:105AB000FB7507E07968F86800F098F90346FB7514
:105AC00000E000BFFB7D18461837BD4680BD80B49E
:105AD00085B000AF786039600023FB60FB6823F07D
