:020000040800F2
:1000000000000220A97A0008157900081D7900086F
:10001000257900082D7900083579000800000000D6
:100020000000000000000000000000003D79000812
:100030004B79000800000000597900086979000830
:10004000F97A0008F97A0008F97A0008F97A0008C4
:10005000F97A0008F97A000895790008F97A000819
:10006000F97A0008F97A0008F97A0008F97A0008A4
:10007000F97A0008F97A0008B3790008BF79000816
:10008000F97A0008F97A0008F97A0008F97A000884
:10009000F97A0008F97A0008F97A0008F97A000874
:1000A000F97A0008F97A0008F97A0008F97A000864
:1000B000F97A0008F97A0008CB790008F97A000883
:1000C000F97A0008F97A0008F97A0008F97A000844
:1000D000F97A0008F97A0008F97A0008D979000855
:1000E000F97A0008F97A0008F97A0008F97A000824
:1000F000F97A0008F97A0008F97A0008F97A000814
:10010000F97A0008F97A0008F97A0008F97A000803
:10011000ED790008F97A0008F97A0008F97A000800
:10012000017A0008D1AC0008F97A00080D7A0008BD
:1001300011A200080000000000000000F97A000889
:10014000F97A0008F97A0008F97A0008F97A0008C3
:10015000D5A10008F97A000811AD0008F97A000865
:10016000F97A0008F97A0008F97A0008F97A0008A3
:10017000F97A0008F97A0008000000000000000089
:08018000F97A0008F97A000881
:1001900010B5054C237833B9044B13B10448AFF3C1
:1001A00000800123237010BDB80100200000000072
:1001B000B8F2000808B5034B1BB103490348AFF37D
:1001C000008008BD00000000BC010020B8F200085B
:1001D00010F8012B11F8013B012A28BF9A42F7D0F1
:1001E000D01A7047034613F8012B002AFBD1181AC6
:1001F000013870470000000000000000000000000F
:1002000001F0FF01102A2BDB10F0070F08D010F8C7
:10021000013B013A8B422DD010F0070F42B3F6D1CB
:10022000F0B441EA012141EA014122F007047FF0E4
:1002300000070023F0E80256083C85EA010586EA3B
:10024000010685FA47F5A3FA87F586FA47F6A5FA77
:1002500087F68EB9EED1F0BC01F0FF0102F0070283
:1002600032B110F8013B013A83EA010313B1F8D12E
:100270000020704701387047002D06BF354603380F
:10028000073815F0010F07D1013015F4807F02BF48
:10029000013015F4C03F0130F0BC0138704700BF99
:1002A00081F0004102E000BF83F0004330B54FEA27
:1002B00041044FEA430594EA050F08BF90EA020F94
:1002C0001FBF54EA000C55EA020C7FEA645C7FEA27
:1002D000655C00F0E2804FEA5454D4EB5555B8BF4A
:1002E0006D420CDD2C4480EA020281EA030382EABB
:1002F000000083EA010180EA020281EA0303362D4D
:1003000088BF30BD11F0004F4FEA01314FF4801C1F
:100310004CEA113102D0404261EB410113F0004F31
:100320004FEA03334CEA133302D0524263EB4303E8
:1003300094EA050F00F0A780A4F10104D5F1200E86
:100340000DDB02FA0EFC22FA05F2801841F10001E1
:1003500003FA0EF2801843FA05F359410EE0A5F1B5
:1003600020050EF1200E012A03FA0EFC28BF4CF0E6
:10037000020C43FA05F3C01851EBE37101F000459C
:1003800007D54FF0000EDCF1000C7EEB00006EEBA9
:100390000101B1F5801F1BD3B1F5001F0CD3490833
:1003A0005FEA30004FEA3C0C04F101044FEA44528A
:1003B00012F5800F80F09A80BCF1004F08BF5FEA11
:1003C000500C50F1000041EB045141EA050130BDF1
:1003D0005FEA4C0C404141EB0101013C28BFB1F503
:1003E000801FE9D291F0000F04BF01460020B1FA4E
:1003F00081F308BF2033A3F10B03B3F120020CDA21
:100400000C3208DD02F1140CC2F10C0201FA0CF0FE
:1004100021FA02F10CE002F11402D8BFC2F1200C63
:1004200001FA02F120FA0CFCDCBF41EA0C01904019
:10043000E41AA2BF01EB0451294330BD6FEA040462
:100440001F3C1CDA0C340EDC04F11404C4F120024D
:1004500020FA04F001FA02F340EA030021FA04F35F
:1004600045EA030130BDC4F10C04C4F1200220FAB6
:1004700002F001FA04F340EA0300294630BD21FAF4
:1004800004F0294630BD94F0000F83F4801306BFBA
:1004900081F480110134013D4EE77FEA645C18BFAE
:1004A0007FEA655C29D094EA050F08BF90EA020F45
:1004B00005D054EA000C04BF1946104630BD91EA3D
:1004C000030F1EBF0021002030BD5FEA545C05D140
:1004D0004000494128BF41F0004130BD14F580047F
:1004E0003CBF01F5801130BD01F0004545F0FE41F3
:1004F00041F470014FF0000030BD7FEA645C1ABF28
:10050000194610467FEA655C1CBF0B46024650EA5E
:10051000013406BF52EA033591EA030F41F400218A
:1005200030BD00BF90F0000F04BF0021704730B510
:100530004FF4806404F132044FF000054FF00001E5
:1005400050E700BF90F0000F04BF0021704730B5A6
:100550004FF4806404F1320410F0004548BF40427B
:100560004FF000013EE700BF42004FEAE2014FEAD0
:1005700031014FEA02701FBF12F07F4393F07F4FAB
:1005800081F06051704732F07F4208BF704793F0AE
:100590007F4F04BF41F40021704730B54FF46074C1
:1005A00001F0004521F000411CE700BF50EA0102C4
:1005B00008BF704730B54FF000050AE050EA01026D
:1005C00008BF704730B511F0004502D5404261EBDD
:1005D00041014FF4806404F132045FEA915C3FF41E
:1005E000D8AE4FF003025FEADC0C18BF03325FEABB
:1005F000DC0C18BF033202EBDC02C2F1200300FA6C
:1006000003FC20FA02F001FA03FE40EA0E0021FA90
:1006100002F11444BDE600BF70B54FF0FF0C4CF47E
:10062000E06C1CEA11541DBF1CEA135594EA0C0F30
:1006300095EA0C0F00F0DEF82C4481EA030621EA6B
:100640004C5123EA4C5350EA013518BF52EA0335A6
:1006500041F4801143F4801338D0A0FB02CE4FF058
:100660000005E1FB02E506F00042E0FB03E54FF088
:100670000006E1FB03569CF0000F18BF4EF0010E80
:10068000A4F1FF04B6F5007F64F5407404D25FEA7C
:100690004E0E6D4146EB060642EAC62141EA55512F
:1006A0004FEAC52040EA5E504FEACE2EB4F1FD0C71
:1006B00088BFBCF5E06F1ED8BEF1004F08BF5FEAEF
:1006C000500E50F1000041EB045170BD06F00046A1
:1006D00046EA010140EA020081EA0301B4EB5C044E
:1006E000C2BFD4EB0C0541EA045170BD41F4801146
:1006F0004FF0000E013C00F3AB8014F1360FDEBF6B
:10070000002001F0004170BDC4F10004203C35DA46
:100710000C341BDC04F11404C4F1200500FA05F3C9
:1007200020FA04F001FA05F240EA020001F000426A
:1007300021F0004110EBD37021FA04F642EB0601E0
:100740005EEA430E08BF20EAD37070BDC4F10C040A
:10075000C4F1200500FA04F320FA05F001FA04F2CE
:1007600040EA020001F0004110EBD37041F10001BA
:100770005EEA430E08BF20EAD37070BDC4F12005C5
:1007800000FA05F24EEA020E20FA04F301FA05F22D
:1007900043EA020321FA04F001F0004121FA04F2D5
:1007A00020EA020000EBD3705EEA430E08BF20EAA5
:1007B000D37070BD94F0000F0FD101F000464000DF
:1007C00041EB010111F4801F08BF013CF7D041EA61
:1007D000060195F0000F18BF704703F00046520065
:1007E00043EB030313F4801F08BF013DF7D043EA36
:1007F0000603704794EA0C0F0CEA135518BF95EAEC
:100800000C0F0CD050EA410618BF52EA4306D1D172
:1008100081EA030101F000414FF0000070BD50EA91
:10082000410606BF1046194652EA430619D094EA1B
:100830000C0F02D150EA013613D195EA0C0F05D105
:1008400052EA03361CBF104619460AD181EA030159
:1008500001F0004141F0FE4141F470014FF0000011
:1008600070BD41F0FE4141F4780170BD70B54FF0AC
:10087000FF0C4CF4E06C1CEA11541DBF1CEA13552C
:1008800094EA0C0F95EA0C0F00F0A7F8A4EB05040E
:1008900081EA030E52EA03354FEA013100F0888005
:1008A0004FEA03334FF0805545EA131343EA1263CE
:1008B0004FEA022245EA111545EA10654FEA002683
:1008C0000EF000419D4208BF964244F1FD0404F53C
:1008D000407402D25B084FEA3202B61A65EB030598
:1008E0005B084FEA32024FF480104FF4002CB6EB55
:1008F000020E75EB030E22BFB61A754640EA0C00D5
:100900005B084FEA3202B6EB020E75EB030E22BF14
:10091000B61A754640EA5C005B084FEA3202B6EB55
:10092000020E75EB030E22BFB61A754640EA9C0014
:100930005B084FEA3202B6EB020E75EB030E22BFE4
:10094000B61A754640EADC0055EA060E18D04FEAA2
:10095000051545EA16754FEA06164FEAC30343EA42
:1009600052734FEAC2025FEA1C1CC0D111F4801F0F
:100970000BD141EA00014FF000004FF0004CB6E708
:1009800011F4801F04BF01430020B4F1FD0C88BFA7
:10099000BCF5E06F3FF6AFAEB5EB030C04BFB6EBB2
:1009A000020C5FEA500C50F1000041EB045170BDA5
:1009B0000EF0004E4EEA113114EB5C04C2BFD4EBD2
:1009C0000C0541EA045170BD41F480114FF0000E56
:1009D000013C90E645EA060E8DE60CEA135594EAD2
:1009E0000C0F08BF95EA0C0F3FF43BAF94EA0C0FD5
:1009F0000AD150EA01347FF434AF95EA0C0F7FF44A
:100A000025AF104619462CE795EA0C0F06D152EA9D
:100A100003353FF4FDAE1046194622E750EA410681
:100A200018BF52EA43067FF4C5AE50EA41047FF492
:100A30000DAF52EA43057FF4EBAE12E74FF0FF3CF7
:100A400006E000BF4FF0010C02E000BF4FF0010CC8
:100A50004DF804CD4FEA410C7FEA6C5C4FEA430C41
:100A600018BF7FEA6C5C1BD001B050EA410C0CBF90
:100A700052EA430C91EA030F02BF90EA020F0020F2
:100A8000704710F1000F91EA030F58BF994208BF59
:100A900090422CBFD8176FEAE37040F00100704716
:100AA0004FEA410C7FEA6C5C02D150EA013C07D16D
:100AB0004FEA430C7FEA6C5CD6D152EA033CD3D0B8
:100AC0005DF8040B704700BF8446104662468C46B2
:100AD0001946634600E000BF01B5FFF7B7FF0028E5
:100AE00048BF10F1000F01BD4DF808EDFFF7F4FF0E
:100AF0000CBF012000205DF808FB00BF4DF808ED99
:100B0000FFF7EAFF34BF012000205DF808FB00BFBB
:100B10004DF808EDFFF7E0FF94BF012000205DF8DD
:100B200008FB00BF4DF808EDFFF7CEFF94BF012092
:100B300000205DF808FB00BF4DF808EDFFF7C4FF8B
:100B400034BF012000205DF808FB00BF4FEA4102DE
:100B500012F5001215D211D56FF47873B3EB62520F
:100B600012D94FEAC12343F0004343EA505311F036
:100B7000004F23FA02F018BF404270474FF00000C8
:100B8000704750EA013005D111F0004008BF6FF006
:100B9000004070474FF00000704700BF4A0011D27C
:100BA00012F5001211D20DD56FF47873B3EB6252C7
:100BB0000ED44FEAC12343F0004343EA505323FAD3
:100BC00002F070474FF00000704750EA013002D148
:100BD0004FF0FF3070474FF0000070474FEA41027E
:100BE000B2F1E04324BFB3F5001CDCF1FE5C0DD98B
:100BF00001F0004C4FEAC0024CEA5070B2F1004FD5
:100C000040EB830008BF20F00100704711F0804FD7
:100C100021D113F13872BCBF01F00040704741F49C
:100C200080114FEA5252C2F11802C2F1200C10FAA0
:100C30000CF320FA02F018BF40F001004FEAC12384
:100C40004FEAD32303FA0CFC40EA0C0023FA02F328
:100C50004FEA4303CCE77FEA625307D150EA0133FE
:100C60001EBF4FF0FE4040F44000704701F00040CE
:100C700040F0FE4040F40000704700BF53B94AB94D
:100C8000002908BF00281CBF4FF0FF314FF0FF3094
:100C900000F088B9ADF1080C6DE904CE00F006F85B
:100CA000DDF804E0DDE9022304B070472DE9F047E8
:100CB000089D8E4604468846002B4AD18A42174634
:100CC00062D9B2FA82F64EB1C6F1200301FA06F8F3
:100CD00020FA03F3B74043EA0808B4404FEA174E3E
:100CE0001FFA87FCB8FBFEF1230C0EFB118843EAC8
:100CF000084301FB0CF29A4209D9FB1801F1FF30BD
:100D000080F0EA809A4240F2E78002393B449A1A26
:100D1000A3B2B2FBFEF00EFB102243EA024300FB3B
:100D20000CFC9C4509D9FB1800F1FF3280F0D680FD
:100D30009C4540F2D3803B44023840EA0140A3EB9B
:100D40000C0300211DB1F3400022C5E90032BDE8CB
:100D5000F0878B4205D90DB1C5E900010021084695
:100D6000F5E7B3FA83F1002946D1734502D38242F5
:100D700000F20581841A6EEB030201209046002DDB
:100D8000E5D0C5E90048E2E7002A00F09080B2FA19
:100D900082F6002E40F0A4808A1A030C4FEA174E08
:100DA00080B2BCB20121B2FBFEFC0EFB1C2243EA66
:100DB000024304FB0CF29A4207D9FB180CF1FF38EE
:100DC00002D29A4200F2E080C4469B1AB3FBFEF2C4
:100DD0000EFB123340EA034302FB04F49C4207D9A2
:100DE000FB1802F1FF3002D29C4200F2CA80024698
:100DF0001B1B42EA0C40A5E7C1F120068B4022FAFA
:100E000006F71F430EFA01F420FA06F32EFA06FE47
:100E10004FEA1749234300FA01F81FFA87FCBEFB8B
:100E2000F9F01C0C09FB10EE44EA0E4400FB0CFE2A
:100E3000A64502FA01F209D93C1900F1FF3A80F007
:100E40009C80A64540F2998002383C44A4EB0E04F5
:100E50001FFA83FEB4FBF9F309FB13444EEA044482
:100E600003FB0CFCA44508D93C1903F1FF3E80F0BC
:100E70008280A4457FD9023B3C4443EA0040A4EB76
:100E80000C04A0FB02EC64457346E14662D35FD0DC
:100E90005DB1B8EB030264EB090404FA06F622FA2A
:100EA00001F31E43CC40C5E9006400214FE7B1FBCC
:100EB000F2FC010C41EA0E4180B240EA01423B469D
:100EC00038463C46B846BE462026B1FBF7F1A2EBB9
:100ED000080241EA0C4166E7014618E710462CE794
:100EE000C6F120022EFA02F3B740B14020FA02F216
:100EF0004FEA174E0A43B3FBFEF8BCB20EFB1833A1
:100F0000110C41EA034108FB04F9B04089454FEA5E
:100F1000104380B23ED9791808F1FF3C01D28945CF
:100F20001FD8A1EB0901B1FBFEF909FB04F80EFB88
:100F3000191192B242EA0142424529D2BA1809F186
:100F4000FF31C4D24245C2D2A9F102013A44BEE700
:100F5000F0459DD2BEEB02036CEB070C0138E14675
:100F600096E7A7EB09094944A8F1020CB1FBFEF989
:100F700009FB04F8DBE773467FE7504666E708465F
:100F8000FDE63B44023A33E7ACF1020C3B441CE77C
:100F900049469CE7A1EB0901C446B1FBFEF909FBF8
:100FA00004F8C4E7704700BF80B483B000AF786036
:100FB0007B681B6823F001027B681A6000BF0C3756
:100FC000BD465DF8047B7047B0B582B000AF09F054
:100FD00001F809F09FFD124B00221A70114B0022FC
:100FE0001A70114B00221A700023FB710FE0FB797D
:100FF0000E4A5B0113440E4A1C4615460FCD0FC422
:1010000095E80F0084E80F00FB790133FB71FB7951
:10101000092BECD900BF00BF0837BD46B0BD00BFEB
:10102000140300201503002016030020D401002023
:1010300000000020B0B588B002AF7860B14B1B78DB
:10104000032B00F27F8101A252F823F05D1000080B
:1010500099100008D712000829130008AA4B002293
:101060001A70AA4B1B78012B02D1A84B00221A70D0
:101070000023FB7509E0FB7DA54A5B0113440133A6
:1010800000221A70FB7D0133FB75FB7D0A2BF2D920
:1010900001200BF071FE58E19B4B1B78002B07D110
:1010A0009C499D480CF090FE964B00221A704CE132
:1010B0000023BB7509F040FD08F0B6FF0023BB75A7
:1010C000F9E0BB7D9549924A5B0113440C461D46ED
:1010D0000FCD0FC495E80F0084E80F0000233B619B
:1010E0000023FB600123BB608C4B18798B4B597933
:1010F0008A4B5B881A4613469B0013445B00013BF6
:101100001A4608F04EFF02463B6913443B61834B8D
:101110001879824B5979814B9B891A4613469B005B
:1011200013445B00013B1C467C4BDB891A4613468B
:101130009B0013445B00013B1A46784B1B7A0193DA
:10114000012300931346224608F0DAFE02463B696B
:1011500013443B61714B1879704B59796F4B5B8924
:101160001A4613469B0013445B00013B1A4608F0E5
:1011700018FF02463B6913443B61684B5879674B43
:101180001979664B1B8A1A4613469B0013445B0071
:10119000013B1C46614B5B8A1A4613469B00134475
:1011A0005B00013B1A465D4B5B7A01930123009380
:1011B0001346224608F0A4FE02463B6913443B61F5
:1011C0003B69013B3B61554B1879544B5979534B63
:1011D000DB881A4613469B0013445B00013B1A460A
:1011E00008F0DFFE0246FB681344FB604B4B1879A6
:1011F0004A4B5979494B1B8B1A4613469B001344A3
:101200005B00013B1C46454B5B8B1A4613469B001B
:1012100013445B00013B1A46404B1B7D01930123A5
:1012200000931346224608F06BFE0246FB68134407
:10123000FB603A4B1879394B5979384BDB8A1A469F
:1012400013469B0013445B00013B1A4608F0A9FEBD
:101250000246FB681344FB60304B58792F4B1979D9
:101260002E4B9B8B1A4613469B0013445B00013B9D
:101270001C462A4BDB8B1A4613469B0013445B002B
:10128000013B1A46254B5B7D0193012300931346D6
:10129000224608F035FE0246FB681344FB60FB68FB
:1012A000013BFB60BB7DBA68F968386909F0EAFB6D
:1012B000BB7D0133BB75144B1B78BA7D9A42FFF49A
:1012C00000AF09F0D1FC08F04DFF00F0B7FB0D4B6B
:1012D00002221A7039E008F08BFE0346002B33D04F
:1012E0000F48FFF761FE08F075FE09F013FC00F0EF
:1012F000D5FB0C4908480CF067FD024B00221A7020
:1013000022E000BF15030020140300201603002074
:10131000D4010020D0F20008800F00201803002024
:1013200000000140ECF2000808F098FE09F01EFCF5
:1013300008F050FE09F0EEFB00F0B0FB054B002278
:101340001A7002E000BF00E000BF00BF1837BD46C2
:10135000B0BD00BF1503002080B483B000AF78603B
:101360007B681B6823F001027B681A6000BF0C37A2
:10137000BD465DF8047B704780B483B000AF7860F1
:1013800039607B681B6823F070023B681A437B68F6
:101390001A6000BF0C37BD465DF8047B704780B40F
:1013A00083B000AF786039607B683A689A6200BFAA
:1013B0000C37BD465DF8047B704780B483B000AF46
:1013C000786039607B683A68DA6200BF0C37BD46E6
:1013D0005DF8047B704780B483B000AF78607B68B1
:1013E000DB6823F001027B68DA6000BF0C37BD4682
:1013F0005DF8047B7047000080B500AF044808F03A
:101400006AFA0449024808F077FA00BF80BD00BFBD
:10141000380000204400002080B500AF244807F0C9
:1014200046FF4FF400420021214807F0B2FE4FF47E
:10143000304201211E4807F0ACFE48F201020B21A8
:101440001B4807F0A6FE9FED101B9FED110B1848DF
:1014500007F03EFF9FED0C1B9FED0D0B144807F0AE
:1014600077FF9FED0D1B9FED0A0B114807F0ECFF76
:101470009FED0B0B0E4808F043F89FED0B0B0C484B
:1014800008F072F800BF80BD00000000000024409A
:101490000000004008AC8C3F00000000000024C0A9
:1014A0000000000000607340000000000000000029
:1014B0006800002080B500AF47210948FFF76FFFA3
:1014C00031210748FFF779FF00210548FFF754FF56
:1014D0000348FFF741FF0248FFF77DFF00BF80BDD3
:1014E0000008004080B5A8B002AF0346FB80FB882F
:1014F0009B02C7F89030D7F89030B3F5000F04D3B3
:10150000474948480CF060FC86E04FF48063464A47
:10151000D7F89010454808F01EFA434B9B8807F116
:101520000800434A80210CF009FE07F10803194620
:101530003C480CF049FC3C4B1B6807F108003D4A55
:1015400080210CF0FBFD07F10803194635480CF02B
:101550003BFC354BDB8807F10800374A80210CF053
:10156000EDFD07F1080319462E480CF02DFC334918
:101570002C480CF029FC32492A480CF025FC2F4954
:1015800028480CF021FC284BDB88A7F89630B7F8E8
:101590009630FE2B02D9FE23A7F896300023A7F839
:1015A00094302FE0B7F894301F4A023332F82330DA
:1015B0001A4613469B0013445B00C7F88C30B7F8FB
:1015C0009430194A02339B0013445B88C7F8883073
:1015D000B7F8942007F10800D7F888300193D7F8BE
:1015E0008C3000931346174A80210CF0A7FD07F1B9
:1015F000080319460B480CF0E7FBB7F894300133A9
:10160000A7F89430B7F89420B7F896309A42C9D327
:101610000D4904480CF0D8FB9837BD4680BD00BF8B
:1016200008F30008800F0020780B0020380000200D
:1016300034F3000864F3000880F3000898F300080E
:10164000C8F30008E8F30008F8F3000880B5AEB06E
:1016500002AF786039607B68C7F8AC303B68C7F888
:10166000A8307A683B681344B3F5000F04D94549A4
:1016700045480CF0A9FB82E007F11C003B68009391
:101680007B68424A80210CF059FD07F11C03194682
:101690003D480CF099FB6AE0D7F8A830102B28BF22
:1016A0001023C7F89C30D7F89C309BB207F10C028E
:1016B000D7F8AC10364808F04EF907F11C00D7F8FF
:1016C000AC30344A80210CF039FDC7F8A400002367
:1016D000C7F8A03020E0D7F8A4307F2B17D8D7F870
:1016E000A43007F11C02D018D7F8A430C3F1800150
:1016F00007F10C02D7F8A03013441B78264A0CF0EF
:101700001DFD0246D7F8A4301344C7F8A430D7F81B
:10171000A0300133C7F8A030D7F8A020D7F89C300C
:101720009A42D8D3D7F8A4307F2B0CD8D7F8A4305E
:1017300007F11C02D018D7F8A430C3F18003174A70
:1017400019460CF0FBFC07F11C0319460E480CF07F
:101750003BFBD7F8AC20D7F89C301344C7F8AC302B
:10176000D7F8A820D7F89C30D31AC7F8A830D7F8F4
:10177000A830002B90D10A4903480CF025FBB03764
:10178000BD4680BD28F40008800F002054F40008F6
:101790003800002090F400089CF40008A4F400082D
:1017A000A8F400080000000080B582B000AF87ED0B
:1017B000010A0B4A7B6893637868FEF7D5FE024600
:1017C0000B4643EC112B9FED040B064807F0C0FDC0
:1017D00000BF0837BD4680BD0000004008AC8C3F0C
:1017E000380B00206800002080B582B000AF0C48A4
:1017F00007F0EEFE53EC102B10461946FFF7EEF9FA
:1018000003467B60D7ED017A9FED067AC7EE876AC3
:10181000F0EE667AB0EE670A0837BD4680BD00BFBD
:10182000680000204260653C80B400AF034B93F831
:101830003D301846BD465DF8047B7047380B0020EC
:1018400080B500AF044807F03AFF044B002283F84C
:101850003D2000BF80BD00BF68000020380B002085
:1018600080B483B000AF78607B689B6803F080032E
:10187000802B01D1012300E0002318460C37BD4620
:101880005DF8047B704780B483B000AF78607B68FC
:101890001B6803F02003202B0CBF01230023DBB2C5
:1018A00018460C37BD465DF8047B704780B483B0A2
:1018B00000AF78607B681B6803F00063B3F1006FD2
:1018C0000CBF01230023DBB218460C37BD465DF880
:1018D000047B704780B483B000AF78607B685B683E
:1018E00003F02003202B0CBF01230023DBB218469A
:1018F0000C37BD465DF8047B704780B483B000AF01
:1019000078607B6820229A6000BF0C37BD465DF886
:10191000047B704780B483B000AF78607B684FF081
:1019200000629A6000BF0C37BD465DF8047B7047CB
:1019300080B483B000AF78607B682022DA6000BF9B
:101940000C37BD465DF8047B704780B483B000AFB0
:1019500078607B681B6843F001027B681A6000BFF7
:101960000C37BD465DF8047B704780B483B000AF90
:1019700078607B681B6823F001027B681A6000BFF7
:101980000C37BD465DF8047B704780B483B000AF70
:10199000786039607B683A685A6200BF0C37BD4690
:1019A0005DF8047B704780B483B000AF78607B68DB
:1019B0006FF001021A6100BF0C37BD465DF8047B71
:1019C000704780B483B000AF78607B681B6903F018
:1019D0000103012B01D1012300E0002318460C373D
:1019E000BD465DF8047B704780B483B000AF78607B
:1019F0007B68DB6843F001027B68DA6000BF0C376C
:101A0000BD465DF8047B704780B483B000AF78605A
:101A10007B68DB6823F001027B68DA6000BF0C376B
:101A2000BD465DF8047B704780B500AFFFF7F4FC5E
:101A3000FFF7E2FCFFF73EFD00BF80BD80B500AFC1
:101A4000114B124A5A60104B5B6800229A800E4B71
:101A50005B680022DA800E4B00229A800C4B002239
:101A6000DA80094B00221A600A4B00221A7000210A
:101A70000948FFF78AFF0848FFF7B6FF0648FFF757
:101A800064FF00BF80BD00BF90000020380300202D
:101A900038070020780F00200008004080B500AF14
:101AA0000848FFF762FF0748FFF7AEFF064B1968CB
:101AB000054B5A684FF48063044807F06AFF00BF83
:101AC00080BD00BF000800409000002038000020CA
:101AD00080B483B000AF786000BF0C37BD465DF8BE
:101AE000047B704780B500AF0E48FFF76AFF0346DE
:101AF000002B15D00B48FFF756FF0B4B1B78002B24
:101B000002D0012B06D00BE003220521074807F085
:101B1000E3FD05E003220721044807F0DDFD00BFD7
:101B200000BF80BD00080040780F00206800002042
:101B3000B0B582B000AF4E4B1B685B681846FFF72C
:101B4000A2FE0346002B00F08980494B1B685B68AE
:101B50001846FFF7D2FE464807F00BFB454B1B78B3
:101B6000002B02D0012B28D074E0414807F0F8FD8B
:101B700051EC100B3CA3D3E90023FEF74DFD0246C8
:101B80000B46104619464FF000023B4BFEF744FD52
:101B900002460B4610461946384B5C68374B5B686B
:101BA000DB881D46FEF7FAFF03469AB2AB1C24F809
:101BB0002320304B01221A7050E02D4807F0FCFD25
:101BC00051EC100B4FF000022D4BFEF725FD0246A5
:101BD0000B4610461946294B5C68284B5B68DB882E
:101BE0001D46FEF7DBFF03469AB2AB1C9B00234465
:101BF0005A80224B5B68DA88013292B2DA801F4B3E
:101C00005B68DB88FD2B21D91C4B19681B4B5A687C
:101C10004FF480631B4807F0BCFE184B5B689B8841
:101C20000133FB80154B5B68174A934203D1134B7A
:101C3000164A5A6002E0114B134A5A600F4B5B6818
:101C40000022DA800D4B5B68FA889A80094B0022EB
:101C50001A7003E0074B00221A7000BF00BF08375C
:101C6000BD46B0BDAFF30080BBD6DEA7AAAA4040F8
:101C700068000020780F00200000594090000020EC
:101C800000408F4038000020380300203807002033
:101C900080B500AF084B1B685B681846FFF706FE6F
:101CA0000346002B05D0044B1B685B681846FFF702
:101CB00031FE00BF80BD00BF6800002080B500AFCE
:101CC000154B1B685B681846FFF704FE0346002BA4
:101CD00020D0114B1B685B681846FFF729FE00BF38
:101CE0000D4B1B685B681846FFF7BAFD0346002BD7
:101CF000F6D1094807F0B9FD084B1B6803F580636E
:101D0000064A1360054B1B68B3F5800F02D3034BE3
:101D100000221A6000BF80BD380000209000002023
:101D200080B500AF084B1B685B681846FFF7BEFD27
:101D30000346002B05D0044B1B685B681846FFF771
:101D4000E9FD00BF80BD00BF3800002080B500AFB6
:101D5000084B03221A70084B012283F83D20012111
:101D600001200AF0C3FF054905480CF02DF800BF1B
:101D700080BD00BF15030020380B0020E4F40008EC
:101D8000800F002080B500AF02F026FD03F066FE54
:101D900008F0A4FDFFF718F9FFF746FE42F21070B5
:101DA0000AF048FF0AF068FFFCE780B483B000AF98
:101DB000786000BF0C37BD465DF8047B70470000BB
:101DC00080B400AFBFF34F8F00BF064BDB6803F456
:101DD000E0620449044B1343CB60BFF34F8F00BF55
:101DE00000BFFDE700ED00E00400FA0580B586B015
:101DF00000AFF860B9607A600121B86809F072FA42
:101E0000034618460CF099F80346FB82FB8A1846F5
:101E1000FFF768FB0349F86809F096F900BF183727
:101E2000BD4680BDE402010880B588B000AFF8600F
:101E3000B9607A60B86809F08BFA0346FB77FB7FDC
:101E4000012B04D81F49F86809F07EF936E0FB7FC2
:101E5000022B04D91C49F86809F076F92EE001211B
:101E6000B86809F03FFA07F11003102219460CF088
:101E70005BF9B8613B691B78002B0CD03B691B7880
:101E80000D2B08D03B691B780A2B04D00F49F8684A
:101E900009F05AF912E00221B86809F023FA034662
:101EA00018460CF04AF803467B617969B869FFF778
:101EB000CDFB0749F86809F047F900BF2037BD4658
:101EC00080BD00BFF40201080C03010824030108CF
:101ED000E402010880B485B000AFF860B9607A60B0
:101EE00000BF1437BD465DF8047B704780B485B0F1
:101EF00000AFF860B9607A6000BF1437BD465DF886
:101F0000047B704780B485B000AFF860B9607A6038
:101F100000BF1437BD465DF8047B704780B586B0BE
:101F200000AFF860B9607A60B86809F011FA03464A
:101F3000FB75FB7D012B04D82D49F86809F004F9E5
:101F400052E0FB7D022B04D92A49F86809F0FCF81D
:101F50004AE00121B86809F0C5F9034618460BF0BC
:101F6000ECFF03469BB23B820221B86809F0BAF944
:101F7000034618460BF0E1FF03469BB27B823B8A87
:101F8000B3F5967F04D91C49F86809F0DDF82BE019
:101F90007B8A322B04D91849F86809F0D5F823E078
:101FA000164B1B6800221A703B8A1B0A9AB2134B0D
:101FB0001B68D2B25A703A8A104B1B68D2B29A7020
:101FC0007B8A1B0A9AB20D4B1B68D2B2DA707A8AEE
:101FD0000A4B1B68D2B21A71052002F09FFB084918
:101FE000F86809F0B1F800BF1837BD4680BD00BFE2
:101FF000F40201080C030108240301082001002059
:10200000E402010880B586B000AFF860B9607A607C
:10201000B86809F09DF90346FB75FB7D002B04D1E0
:102020001D49F86809F090F832E0FB7D012B04D9D6
:102030001A49F86809F088F82AE00121B86809F01F
:1020400051F9034618460BF078FF0346BB82BB8A62
:10205000B3F5967F04D91249F86809F075F817E0CE
:10206000104B1B6801221A70BB8A1B0A9AB20D4BD7
:102070001B68D2B25A700B4B1B68BA8AD2B29A70E4
:10208000032002F04BFB0849F86809F05DF800BF37
:102090001837BD4680BD00BFF40201080C030108DB
:1020A0002403010820010020E402010880B586B065
:1020B00000AFF860B9607A60B86809F049F9034682
:1020C000FB75FB7D002B04D11C49F86809F03CF836
:1020D00031E0FB7D012B04D91949F86809F034F887
:1020E00029E00121B86809F0FDF8034618460BF015
:1020F00024FF0346BB82BB8A322B04D91149F868FE
:1021000009F022F817E0104B1B6802221A70BB8AF4
:102110001B0A9AB20C4B1B68D2B25A700A4B1B684E
:10212000BA8AD2B29A70032002F0F8FA0749F86826
:1021300009F00AF800BF1837BD4680BDF402010857
:102140000C0301082403010820010020E402010817
:1021500080B586B000AFF860B9607A60B86809F001
:10216000F7F80346FB75FB7D012B04D82449F8687A
:1021700008F0EAFF41E0FB7D022B04D92149F86811
:1021800008F0E2FF39E00121B86809F0ABF8034636
:1021900018460BF0D2FE0346DBB23B750221B8684D
:1021A00009F0A0F8034618460BF0C7FE0346DBB261
:1021B0007B753B7D012B04D91349F86808F0C4FFF7
:1021C0001BE07B7D012B04D90F49F86808F0BCFFA8
:1021D00013E00E4B1B6803221A700C4B1B683A7DF0
:1021E0005A700A4B1B687A7D9A70032002F096FAA7
:1021F0000749F86808F0A8FF00BF1837BD4680BD42
:10220000F40201080C030108240301082001002046
:10221000E402010880B586B000AFF860B9607A606A
:10222000B86809F095F80346FB75FB7D012B04D8CF
:102230002449F86808F088FF41E0FB7D022B04D9AF
:102240002149F86808F080FF39E00121B86809F0F9
:1022500049F8034618460BF070FE0346DBB23B75A7
:102260000221B86809F03EF8034618460BF065FEF7
:102270000346DBB27B753B7D012B04D91349F8681B
:1022800008F062FF1BE07B7D012B04D90F49F86841
:1022900008F05AFF13E00E4B1B6804221A700C4B17
:1022A0001B683A7D5A700A4B1B687A7D9A7003202E
:1022B00002F034FA0749F86808F046FF00BF183703
:1022C000BD4680BDF40201080C0301082403010887
:1022D00020010020E402010880B586B000AFF8605C
:1022E000B9607A60B86809F033F80346FB75FB7D86
:1022F000002B04D00D49F86808F026FF13E00C4BC2
:102300001B6805221A700A4B1B6800225A70084B82
:102310001B6801229A70032002F000FA0549F86850
:1023200008F012FF00BF1837BD4680BD0C0301083E
:1023300020010020E402010880B586B000AFF860FB
:10234000B9607A60B86809F003F80346FB75FB7D55
:10235000002B04D00D49F86808F0F6FE13E00C4B92
:102360001B6805221A700A4B1B6801225A70084B21
:102370001B6800229A70032002F0D0F90549F86822
:1023800008F0E2FE00BF1837BD4680BD0C0301080F
:1023900020010020E402010880B586B000AFF8609B
:1023A000B9607A60B86808F0D3FF03467B617B6947
:1023B000002B04D00949F86808F0C6FE0BE0084B72
:1023C0001B6807221A70012002F0A8F90549F86875
:1023D00008F0BAFE00BF1837BD4680BD0C030108E7
:1023E00020010020E402010880B586B000AFF8604B
:1023F000B9607A60B86808F0ABFF03467B617B691F
:10240000002B04D00949F86808F09EFE0BE0084B49
:102410001B6809221A70012002F080F90549F8684A
:1024200008F092FE00BF1837BD4680BD0C030108BE
:1024300020010020E402010880B586B000AFF860FA
:10244000B9607A60B86808F083FF03467B617B69F6
:10245000002B04D00949F86808F076FE0BE0084B21
:102460001B6808221A70012002F058F90549F86823
:1024700008F06AFE00BF1837BD4680BD0C03010896
:1024800020010020E402010880B586B000AFF860AA
:10249000B9607A60B86808F05BFF03467B617B69CE
:1024A000002B04D00949F86808F04EFE0BE0084BF9
:1024B0001B680A221A70012002F030F90549F868F9
:1024C00008F042FE00BF1837BD4680BD0C0301086E
:1024D00020010020E402010880B586B000AFF8605A
:1024E000B9607A60B86808F033FF03467B617B69A6
:1024F000002B04D00949F86808F026FE0BE0084BD1
:102500001B6806221A70012002F008F90549F868D4
:1025100008F01AFE00BF1837BD4680BD0C03010845
:1025200020010020E402010880B586B000AFF86009
:10253000B9607A60B86808F00BFF03467B617B697D
:10254000002B04D00949F86808F0FEFD0BE0084BA9
:102550001B680B221A70012002F0E0F80549F868A8
:1025600008F0F2FD00BF1837BD4680BD0C0301081E
:1025700020010020E402010880B586B000AFF860B9
:10258000B9607A60B86808F0E3FE03467B617B6956
:10259000002B04D00949F86808F0D6FD0BE0084B81
:1025A0001B6810221A70012002F0B8F80549F8687B
:1025B00008F0CAFD00BF1837BD4680BD0C030108F6
:1025C00020010020E402010880B596B000AFF86059
:1025D000B9607A60334B1B78002B04D03249F8681D
:1025E00008F0B2FD5BE0B86808F0B2FE034687F879
:1025F000573097F85730012B04D82C49F86808F069
:10260000A3FD4CE097F85730022B04D92849F8680D
:1026100008F09AFD43E00121B86808F063FE034624
:1026200018460BF08AFC0346DBB287F850300221D3
:10263000B86808F057FE034618460BF07EFC0346C8
:10264000DBB287F8513097F85030013B194AD35C20
:1026500087F8563097F85130013B164AD35C87F81B
:10266000553097F8552097F856301146184603F024
:1026700093FA0346A7F85230B7F8522007F1100337
:102680000D4918460BF090FD07F110031946F86844
:1026900008F05AFD0949F86808F056FD00BF5837A0
:1026A000BD4680BD150300203C030108F40201086B
:1026B0000C0301081401002060030108E402010872
:1026C00080B588B000AFF860B9607A60B86808F08B
:1026D0003FFE0346FB77FB7F012B04D83349F868A4
:1026E00008F032FD5EE0FB7F022B04D93049F86828
:1026F00008F02AFD56E00121B86808F0F3FD034612
:1027000018460BF01AFC0346DBB23B750221B86891
:1027100008F0E8FD034618460BF00FFC0346DBB259
:102720007B753B7D0B2B04D92249F86808F00CFD22
:1027300038E07B7D092B04D91E49F86808F004FDB8
:1027400030E03B7D0B2B07D17B7D072B04D919494A
:10275000F86808F0F9FC25E03B7D002B07D17B7D74
:10276000002B04D11349F86808F0EEFC1AE03B7D19
:1027700007EE903AB8EE677A7B7D07EE903AF8EE76
:10278000677ADFED0D6A67EEA67A77EE277AC7EDF6
:10279000067A97ED060AFFF707F80849F86808F087
:1027A000D3FC00BF2037BD4680BD00BFF402010846
:1027B0000C03010824030108CDCCCC3DE402010840
:1027C00080B596B000AFF860B9607A60B86808F07C
:1027D000BFFD034687F8573097F85730002B04D0D9
:1027E0001449F86808F0B0FC20E0FEF7FDFFF0EEB9
:1027F000407A9FED117A67EE877AC7ED147AD7EDAC
:10280000147AFDEEE77A07F1100317EE902A0B49D0
:1028100018460BF0C9FC07F110031946F86808F0D8
:1028200093FC0749F86808F08FFC00BF5837BD4695
:1028300080BD00BF0C03010800007A447803010842
:10284000E402010880B586B000AFF860B9607A6034
:10285000B86808F07DFD0346FB75FB7D002B04D0B6
:102860000E49F86808F070FC14E0FEF7DDFF03463F
:10287000BB75BB7D002B04D00949F86808F064FCE7
:1028800003E00849F86808F05FFC0749F86808F0B9
:102890005BFC00BF1837BD4680BD00BF0C030108BC
:1028A000A0030108C4030108E402010880B586B052
:1028B00000AFF860B9607A60B86808F049FD034677
:1028C000FB75FB7D002B04D00749F86808F03CFC41
:1028D00006E0FEF7B5FF0549F86808F035FC00BFD3
:1028E0001837BD4680BD00BF0C030108E402010893
:1028F00080B5A6B000AFF860B9607A60B86808F03B
:1029000027FD0346C7F89430D7F89430002B04DC39
:102910003349F86808F018FC5FE0D7F89430012BD1
:1029200004DD3049F86808F00FFC56E00121B86872
:1029300008F0D8FC034618460BF0FFFA034687F868
:10294000933097F89330002B03D097F893300A2BED
:1029500004D92549F86808F0F7FB3EE097F8932082
:10296000224B1B7802339A421FDD214B1B785A1CE5
:1029700097F8933007F110001E490BF015FC07F192
:1029800010031946F86808F0DFFB194B1B781A464C
:1029900007F11003184918460BF006FC07F1100365
:1029A0001946F86808F0D0FB17E097F89330013B20
:1029B000DAB20E4B1A700D4B1B78104A5B011344B0
:1029C00001221A70094B1B780133DAB2084B1A70D6
:1029D0000B49F86808F0B8FB00BF9837BD4680BDCA
:1029E000F40201080C03010824030108790F0020F8
:1029F00014030020E803010818040108D401002092
:102A0000E402010880B586B000AFF860B9607A6072
:102A1000B86808F09DFC03467B617B69002B03D0FE
:102A20000D49F86808F090FB0C4B1B780C4A5B01D1
:102A3000134400221A70094B1B785A1ED1B2074A60
:102A40001170084A13700849F86808F07DFB00BF50
:102A50001837BD4680BD00BF24030108790F002050
:102A6000D401002014030020E402010880B586B0E0
:102A700000AFF860B9607A60B86808F069FC034696
:102A80007B617B69002B04D00D49F86808F05CFB82
:102A900013E00C4B1B780C4A5B01134400221A70A4
:102AA000084B1B78084A5B011344013301221A705A
:102AB0000649F86808F048FB00BF1837BD4680BDDE
:102AC00024030108790F0020D4010020E40201084A
:102AD00080B586B000AFF860B9607A60B86808F079
:102AE00037FC03467B617B69002B04DC1A49F868DC
:102AF00008F02AFB2CE07B69012B04DD1749F868FC
:102B000008F022FB24E0164B1B78164A5B011344A5
:102B10001B7883F00103DBB2002B18D10121B868C8
:102B200008F0E0FB034618460BF007FA0346FB7477
:102B30000B4B1B78FA7C91B20A4A5B0113440233B7
:102B40000A461A800849F86808F0FEFA00E000BF5B
:102B50001837BD4680BD00BFF40201080C03010810
:102B6000790F0020D4010020E402010880B586B06E
:102B700000AFF860B9607A60B86808F0E9FB034616
:102B80007B617B69012B04DC2849F86808F0DCFADA
:102B900048E07B69022B04DD2549F86808F0D4FA87
:102BA00040E00121B86808F09DFB034618460BF091
:102BB000C4F90346DBB23B740221B86808F092FB0B
:102BC000034618460BF0B9F90346DBB27B74194B88
:102BD0001B78194A5B0113441B7883F00103DBB2B5
:102BE000002B1ED13B7C013B124A12781046134A3F
:102BF000D15C114A4301134404330A461A707B7CAA
:102C0000013B0C4A127810460C4AD15C0A4A430137
:102C1000134405330A461A700949F86808F094FA13
:102C200000E000BF1837BD4680BD00BFF4020108B8
:102C30000C030108790F0020D401002014010020AA
:102C4000E402010880B58AB000AFF860B9607A602C
:102C5000B86808F07DFB03467B627B6A032B04DCCB
:102C60004049F86808F070FA79E07B6A042B04DDCB
:102C70003D49F86808F068FA71E03C4B1B783C4A23
:102C80005B0113441B7883F00103DBB2002B65D199
:102C90000121B86808F026FB034618460BF04DF9F1
:102CA00003467B610221B86808F01CFB0346184606
:102CB0000BF043F90346BB610321B86808F012FB2F
:102CC000034618460BF039F90346FB610421B86846
:102CD00008F008FB034618460BF02FF903463B6249
:102CE0007B69142B08DCBB69142B05DCFB69142BF6
:102CF00002DC3B6A142B04DD1E49F86808F024FA54
:102D00002DE07A69194B1B78D1B2194A5B01134443
:102D100008330A461A70BA69144B1B78D1B2144AA8
:102D20005B01134409330A461A70FA690F4B1B788A
:102D3000D1B20F4A5B01134414330A461A703A6A3F
:102D40000A4B1B78D1B20A4A5B01134415330A4679
:102D50001A700949F86808F0F7F900E000BF283751
:102D6000BD4680BDF40201080C030108790F002064
:102D7000D401002024030108E402010880B588B0D2
:102D800000AFF860B9607A60B86808F0E1FA03460D
:102D9000FB61FB69022B04DC2E49F86808F0D4F9CA
:102DA00054E0FB69032B04DD2B49F86808F0CCF9EB
:102DB0004CE02A4B1B782A4A5B0113441B7883F0B2
:102DC0000103DBB2002B40D10121B86808F08AFA78
:102DD000034618460BF0B1F803463B610221B86880
:102DE00008F080FA034618460BF0A7F803467B610B
:102DF0000321B86808F076FA034618460BF09DF8F0
:102E00000346BB613A69154B1B7891B2144A5B01CA
:102E100013440A330A461A807A69104B1B7891B220
:102E20000F4A5B01134416330A461A80BA690B4BEA
:102E30001B7891B20A4A5B01134406330A461A8092
:102E40000849F86808F080F900E000BF2037BD4667
:102E500080BD00BFF40201080C030108790F0020B7
:102E6000D4010020E402010880B588B000AFF8600A
:102E7000B9607A60B86808F06BFA0346FB61FB69D9
:102E8000012B04DC3049F86808F05EF958E0FB6972
:102E9000022B04DD2D49F86808F056F950E02C4B60
:102EA0001B782C4A5B0113441B7883F00103DBB2CF
:102EB000002B44D10121B86808F014FA03461846E3
:102EC0000BF03BF803467B610221B86808F00AFA70
:102ED000034618460BF031F80346BB617B69B3F536
:102EE0007A7F02DC7B69002B04DC1B49F86808F060
:102EF0002BF925E0BB69B3F57A7F02DCBB69002BB7
:102F000004DC1549F86808F01FF919E07A69104BDC
:102F10001B7891B20F4A5B0113440C330A461A80A6
:102F2000BA690B4B1B7891B20A4A5B0113440E330A
:102F30000A461A800949F86808F006F900E000BF5F
:102F40002037BD4680BD00BFF40201080C03010814
:102F5000790F0020D401002024030108E4020108B5
:102F600080B588B000AFF860B9607A60B86808F0E2
:102F7000EFF90346FB61FB69012B04DC3049F8687B
:102F800008F0E2F858E0FB69022B04DD2D49F868EF
:102F900008F0DAF850E00121B86808F0A3F9034618
:102FA00018460AF0CAFF03467B610221B86808F0A0
:102FB00099F9034618460AF0C0FF0346BB617B69D6
:102FC000B3F57A7F02DC7B69002B04DC1E49F868CC
:102FD00008F0BAF830E0BB69B3F57A7F02DCBB6970
:102FE000002B04DC1849F86808F0AEF824E0174B11
:102FF0001B78174A5B0113441B7883F00103DBB293
:10300000002B18D17A69114B1B7891B2104A5B01E1
:10301000134410330A461A80BA690C4B1B7891B2DC
:103020000B4A5B01134412330A461A800949F868B7
:1030300008F08AF800E000BF2037BD4680BD00BF21
:10304000F40201080C03010824030108790F002091
:10305000D4010020E402010880B588B000AFF86018
:10306000B9607A60B86808F073F90346FB61FB69E0
:10307000012B04DC3049F86808F066F858E0FB6979
:10308000022B04DD2D49F86808F05EF850E00121BC
:10309000B86808F027F9034618460AF04EFF0346C1
:1030A0007B610221B86808F01DF9034618460AF052
:1030B00044FF0346BB617B69B3F57A7F02DC7B6921
:1030C000002B04DC1E49F86808F03EF830E0BB69CC
:1030D000B3F57A7F02DCBB69002B04DC1849F86881
:1030E00008F032F824E0174B1B78174A5B011344B1
:1030F0001B7883F00103DBB2002B18D17A69114BE6
:103100001B7891B2104A5B01134418330A461A80A7
:10311000BA690C4B1B7891B20B4A5B0113441A330A
:103120000A461A800949F86808F00EF800E000BF66
:103130002037BD4680BD00BFF40201080C03010822
:1031400024030108790F0020D4010020E4020108C3
:1031500080B588B000AFF860B9607A60B86808F0F0
:10316000F7F80346FB61FB69012B04DC3049F86882
:1031700007F0EAFF58E0FB69022B04DD2D49F868EF
:1031800007F0E2FF50E00121B86808F0ABF8034611
:1031900018460AF0D2FE03467B610221B86808F0A7
:1031A000A1F8034618460AF0C8FE0346BB617B69D6
:1031B000B3F57A7F02DC7B69002B04DC1E49F868DA
:1031C00007F0C2FF30E0BB69B3F57A7F02DCBB6970
:1031D000002B04DC1849F86807F0B6FF24E0174B11
:1031E0001B78174A5B0113441B7883F00103DBB2A1
:1031F000002B18D17A69114B1B7891B2104A5B01F0
:1032000013441C330A461A80BA690C4B1B7891B2DE
:103210000B4A5B0113441E330A461A800949F868B9
:1032200007F092FF00E000BF2037BD4680BD00BF21
:10323000F40201080C03010824030108790F00209F
:10324000D4010020E402010880B586B000AFF86028
:10325000B9607A60FEF7E8FA0346002B04D01E49F5
:10326000F86807F071FF33E01C4B1B78012B04D189
:103270001B49F86807F068FF2AE0B86808F068F8AA
:103280000346FB75FB7D002B04D11649F86807F057
:103290005BFF1DE0FB7D012B04D91349F86807F0A3
:1032A00053FF15E00121B86808F01CF803461846E2
:1032B0000AF043FE0346BB75BB7D012B07D10B4BC8
:1032C00001221A700121012009F010FD00E000BF69
:1032D0001837BD4680BD00BF380401081603002022
:1032E00070040108F40201080C0301081503002012
:1032F00080B586B000AFF860B9607A60B86808F051
:1033000027F80346FB74FB7C012B04D84849F86876
:1033100007F01AFF88E0FB7C022B04D94549F868C6
:1033200007F012FF80E00121B86807F0DBFF0346D9
:1033300018460AF002FE78610221B86807F0D2FF51
:1033400003463D491846FCF743FF0346002B06D1D0
:103350007B694FF47A7202FB03F37B6110E0022178
:10336000B86807F0BFFF034634491846FCF730FF42
:103370000346002B04D03249F86807F0E5FE53E01D
:10338000304B1B88B3F5C87F0BD17B692E4A934223
:1033900002DC7B69002B04DA2949F86807F0D4FEC7
:1033A00042E0284B1B88C82B0BD17B69274A9342EC
:1033B00002DC7B69002B04DA2149F86807F0C4FEBF
:1033C00032E0204B1B88642B0BD17B69204A93424F
:1033D00002DC7B69002B04DA1949F86807F0B4FEB7
:1033E00022E01C4B1B680C221A701A4B1B687A696E
:1033F000D2B25A737B691A12164B1B68D2B29A73F7
:103400007B691A14134B1B68D2B2DA737B691A16E4
:10341000104B1B68D2B21A74112001F07FF90E49CB
:10342000F86807F091FE00BF1837BD4680BD00BFA9
:10343000F40201080C030108A0040108A404010817
:10344000240301081C010020801A0600400D03001F
:10345000A086010020010020E402010880B586B0AA
:1034600000AFF860B9607A60B86807F071FF034692
:10347000FB75FB7D002B04D00949F86807F064FE5A
:103480000BE0084B1B680D221A70012001F046F971
:103490000549F86807F058FE00BF1837BD4680BDE3
:1034A0002403010820010020E402010880B586B051
:1034B00000AFF860B9607A60B86807F049FF03466A
:1034C000FB75FB7D002B04D12149F86807F03CFE19
:1034D0003AE0FB7D012B04D91E49F86807F034FE61
:1034E00032E00121B86807F0FDFE034618460AF0F5
:1034F00024FD0346002B14BF01230023BB75BB7DB5
:10350000002B0ED0144B1B680E221A70124B1B6836
:1035100001225A70022001F001F9104B01221A70A9
:103520000DE00D4B1B680E221A700B4B1B6800221E
:103530005A70022001F0F2F8084B00221A70084974
:10354000F86807F001FE00BF1837BD4680BD00BF18
:10355000F40201080C0301082001002016030020DA
:10356000E402010880B586B000AFF860B9607A6007
:10357000B86807F0EDFE0346FB75FB7D002B04D019
:103580000E49F86807F0E0FD15E00D4B1B78012BA4
:1035900004D10C49F86807F0D7FD07E0084B1B7809
:1035A000002B03D10849F86807F0CEFD0749F868F9
:1035B00007F0CAFD00BF1837BD4680BD24030108CF
:1035C00016030020A8040108CC040108E402010845
:1035D00080B5A6B000AFF860B9607A60B86807F04F
:1035E000B7FE0346C7F89030D7F89030002B04D0D0
:1035F0009349F86807F0A8FD1EE1002387F897308B
:10360000002387F8973010E18E49F86807F09CFD99
:1036100097F897305A1C07F110038B4918460AF0A7
:10362000C3FD07F110031946F86807F08DFD97F800
:103630009730864A5B01134404331B785A1C97F871
:10364000973082495B010B4405331B78013307F146
:1036500010007F490AF0A8FD07F110031946F86829
:1036600007F072FD97F89730784A5B0113440833EE
:103670001B78194697F89730744A5B011344093355
:103680001B7807F110000A4672490AF08DFD07F118
:1036900010031946F86807F057FD97F897306B4A02
:1036A0005B01134414331B78194697F89730674A27
:1036B0005B01134414331B7807F110000A46664976
:1036C0000AF072FD07F110031946F86807F03CFD97
:1036D00097F897305D4A5B0113440A331B881A46FA
:1036E00007F110035D4918460AF05EFD07F110036B
:1036F0001946F86807F028FD97F89730534A5B01A0
:10370000134416331B881A4607F110035449184610
:103710000AF04AFD07F110031946F86807F014FD96
:1037200097F89730494A5B01134406331B881A46C1
:1037300007F110034B4918460AF036FD07F1100354
:103740001946F86807F000FD97F897303F4A5B018B
:1037500013440C331B88194697F897303B4A5B019A
:1037600013440E331B8807F110000A463E490AF045
:103770001BFD07F110031946F86807F0E5FC97F800
:103780009730324A5B01134410331B88194697F86F
:1037900097302E4A5B01134412331B8807F1100047
:1037A0000A4632490AF000FD07F110031946F8688D
:1037B00007F0CAFC97F89730244A5B01134418338A
:1037C0001B88194697F89730204A5B0113441A3337
:1037D0001B8807F110000A4625490AF0E5FC07F1AD
:1037E00010031946F86807F0AFFC97F89730174AAE
:1037F0005B0113441C331B88194697F89730134A12
:103800005B0113441E331B8807F110000A46194957
:103810000AF0CAFC07F110031946F86807F094FC97
:1038200097F89730013387F89730134B1B7897F848
:1038300097209A427FF6E8AE9837BD4680BD00BF1C
:1038400024030108EC04010818040108D401002035
:103850002C050108580501088C050108C005010860
:10386000EC05010818060108440601088006010855
:10387000BC060108F8060108790F002080B596B053
:1038800000AFF860B9607A60B86807F061FD034680
:103890007B657B6D002B04D00D49F86807F054FC64
:1038A00013E00C4B1B785A1C07F114030A49184605
:1038B0000AF07AFC07F114031946F86807F044FC93
:1038C0000649F86807F040FC00BF5837BD4680BD88
:1038D00024030108790F002018040108E4020108FC
:1038E00080B485B000AFF860B9607A6000BF14376B
:1038F000BD465DF8047B704780B485B000AFF860CA
:10390000B9607A6000BF1437BD465DF8047B70472C
:1039100080B596B000AFF860B9607A60B86807F01B
:1039200017FD03467B657B6D002B04D01049F868BA
:1039300007F00AFC18E00F4B1B780F4A5B01134499
:1039400002331B881A4607F114030C4918460AF083
:103950002BFC07F114031946F86807F0F5FB08493A
:10396000F86807F0F1FB00BF5837BD4680BD00BFC7
:1039700024030108790F0020D40100203407010836
:10398000E402010880B596B000AFF860B9607A60D3
:10399000B86807F0DDFC03467B657B6D002B04D027
:1039A0001349F86807F0D0FB1FE0124B1B78124A4E
:1039B0005B01134404331B785A1C0E4B1B780E49D1
:1039C0005B010B4405331B78013307F114000B49ED
:1039D0000AF0EAFB07F114031946F86807F0B4FB94
:1039E0000749F86807F0B0FB00BF5837BD4680BDF7
:1039F00024030108790F0020D40100202C050108C0
:103A0000E402010880B596B000AFF860B9607A6052
:103A1000B86807F09DFC03467B657B6D002B04D0E6
:103A20002149F86807F090FB3AE0204B1B78204AC8
:103A30005B01134408331B7819461C4B1B781C4A46
:103A40005B01134409331B7807F114000A46194936
:103A50000AF0AAFB07F114031946F86807F074FB93
:103A6000124B1B78124A5B01134414331B7819461E
:103A70000E4B1B780E4A5B01134414331B7807F17D
:103A800014000A460C490AF08FFB07F1140319468B
:103A9000F86807F059FB0949F86807F055FB00BFC3
:103AA0005837BD4680BD00BF24030108790F0020B0
:103AB000D4010020580501088C050108E402010822
:103AC00080B596B000AFF860B9607A60B86807F06A
:103AD0003FFC03467B657B6D002B04D02449F868CE
:103AE00007F032FB40E0234B1B78234A5B01134471
:103AF0000A331B881A4607F11403204918460AF0B6
:103B000053FB07F114031946F86807F01DFB194B26
:103B10001B78194A5B01134416331B881A4607F1B8
:103B20001403174918460AF03FFB07F1140319461E
:103B3000F86807F009FB0F4B1B780F4A5B01134431
:103B400006331B881A4607F114030E4918460AF07B
:103B50002BFB07F114031946F86807F0F5FA0A4938
:103B6000F86807F0F1FA00BF5837BD4680BD00BFC6
:103B700024030108790F0020D4010020C0050108AA
:103B8000EC05010818060108E402010880B596B0AA
:103B900000AFF860B9607A60B86807F0D9FB0346F7
:103BA0007B657B6D002B04D02149F86807F0CCFAC7
:103BB0003AE0204B1B78204A5B0113440C331B88EE
:103BC00019461C4B1B781C4A5B0113440E331B889F
:103BD00007F114000A4619490AF0E6FA07F114033E
:103BE0001946F86807F0B0FA124B1B78124A5B01CD
:103BF000134410331B8819460E4B1B780E4A5B0189
:103C0000134412331B8807F114000A460C490AF0CA
:103C1000CBFA07F114031946F86807F095FA094939
:103C2000F86807F091FA00BF5837BD4680BD00BF65
:103C300024030108790F0020D40100204406010864
:103C400080060108E402010880B596B000AFF86074
:103C5000B9607A60B86807F07BFB03467B657B6DD3
:103C6000002B04D01349F86807F06EFA1FE0124BDE
:103C70001B78124A5B0113440C331B8819460E4B08
:103C80001B780E4A5B0113440E331B8807F11400A6
:103C90000A460B490AF088FA07F114031946F86836
:103CA00007F052FA0749F86807F04EFA00BF583794
:103CB000BD4680BD24030108790F0020D4010020F7
:103CC00044060108E402010880B596B000AFF86030
:103CD000B9607A60B86807F03BFB03467B657B6D93
:103CE000002B04D01349F86807F02EFA1FE0124B9E
:103CF0001B78124A5B01134410331B8819460E4B84
:103D00001B780E4A5B01134412331B8807F1140021
:103D10000A460B490AF048FA07F114031946F868F5
:103D200007F012FA0749F86807F00EFA00BF583793
:103D3000BD4680BD24030108790F0020D401002076
:103D400080060108E402010880B596B000AFF86073
:103D5000B9607A60B86807F0FBFA03467B657B6D53
:103D6000002B04D02149F86807F0EEF93AE0204B27
:103D70001B78204A5B01134418331B8819461C4BDF
:103D80001B781C4A5B0113441A331B8807F114008B
:103D90000A4619490AF008FA07F114031946F868A7
:103DA00007F0D2F9124B1B78124A5B0113441C3303
:103DB0001B8819460E4B1B780E4A5B0113441E33B9
:103DC0001B8807F114000A460C490AF0EDF907F1C7
:103DD00014031946F86807F0B7F90949F86807F0BD
:103DE000B3F900BF5837BD4680BD00BF24030108AA
:103DF000790F0020D4010020BC060108F806010854
:103E0000E402010880B596B000AFF860B9607A604E
:103E1000B86807F09DFA03467B657B6D002B04D0E4
:103E20001349F86807F090F91FE0124B1B78124A0B
:103E30005B01134418331B8819460E4B1B780E4A3E
:103E40005B0113441A331B8807F114000A460B491F
:103E50000AF0AAF907F114031946094809F0B4FF5A
:103E60000849F86807F070F900BF5837BD4680BDB3
:103E700024030108790F0020D4010020BC060108AA
:103E8000800F0020E402010880B596B000AFF86012
:103E9000B9607A60B86807F05BFA03467B657B6DB2
:103EA000002B04D01349F86807F04EF91FE0124BBD
:103EB0001B78124A5B0113441C331B8819460E4BB6
:103EC0001B780E4A5B0113441E331B8807F1140054
:103ED0000A460B490AF068F907F114031946F86815
:103EE00007F032F90749F86807F02EF900BF583794
:103EF000BD4680BD24030108790F0020D4010020B5
:103F0000F8060108E402010880B586B000AFF86049
:103F1000B9607A60B86807F01BFA03467B617B6979
:103F2000002B04D00E49F86807F00EF915E00D4B90
:103F30001B78002B04D00C49F86807F005F907E05E
:103F4000084B1B78002B03D10849F86807F0FCF8F0
:103F50000749F86807F0F8F800BF1837BD4680BD7C
:103F60002403010815030020540701086C07010809
:103F7000E402010880B5A6B000AFF860B9607A60CD
:103F8000B86807F0E5F90346C7F89430D7F89430DD
:103F9000002B04D09249F86807F0D6F81DE191494A
:103FA000F86807F0D1F8904B1B785A1C07F11403FE
:103FB0008E4918460AF0F8F807F114031946F86814
:103FC00007F0C2F8884B1B78894A5B01134404331D
:103FD0001B785A1C844B1B7885495B010B440533C5
:103FE0001B78013307F1140082490AF0DDF807F16C
:103FF00014031946F86807F0A7F87B4B1B787C4A36
:104000005B01134408331B781946774B1B78784AB9
:104010005B01134409331B7807F114000A46764903
:104020000AF0C2F807F114031946F86807F08CF893
:104030006D4B1B786E4A5B01134414331B78194691
:10404000694B1B786A4A5B01134414331B7807F1F0
:1040500014000A4669490AF0A7F807F11403194643
:10406000F86807F071F8604B1B78614A5B011344F4
:104070000A331B881A4607F11403614918460AF0EF
:1040800093F807F114031946F86807F05DF8564BEA
:104090001B78574A5B01134416331B881A4607F1F5
:1040A0001403584918460AF07FF807F1140319461B
:1040B000F86807F049F84C4B1B784D4A5B011344F4
:1040C00006331B881A4607F114034F4918460AF0B5
:1040D0006BF807F114031946F86807F035F8424BFE
:1040E0001B78434A5B0113440C331B8819463E4B33
:1040F0001B783F4A5B0113440E331B8807F1140001
:104100000A4642490AF050F807F114031946F868C4
:1041100007F01AF8344B1B78354A5B01134410330F
:104120001B881946304B1B78314A5B01134412330C
:104130001B8807F114000A4635490AF035F807F1E3
:1041400014031946F86806F0FFFF274B1B78284A2E
:104150005B01134418331B881946234B1B78244AF0
:104160005B0113441A331B8807F114000A462949DE
:104170000AF01AF807F114031946F86806F0E4FF8C
:10418000194B1B781A4A5B0113441C331B881946D0
:10419000154B1B78164A5B0113441E331B8807F12D
:1041A00014000A461C4909F0FFFF07F114031946E1
:1041B000F86806F0C9FF194B1B78002B04D018498A
:1041C000F86806F0C1FF07E0144B1B78002B03D101
:1041D0001449F86806F0B8FF00BF9837BD4680BDA7
:1041E00024030108EC040108790F002018040108D9
:1041F000D40100202C050108580501088C05010890
:10420000C0050108EC05010818060108440601086C
:1042100080060108BC060108F80601081503002005
:10422000540701086C07010880B586B000AFF8603C
:10423000B9607A60B86807F08BF80346FB75FB7DC0
:10424000002B04D00949F86806F07EFF0BE0084B0C
:104250001B6811221A70012000F060FA0549F86805
:1042600006F072FF00BF1837BD4680BD2403010869
:1042700020010020E402010880B586B000AFF8609C
:10428000B9607A60B86807F063F80346FB75FB7D98
:10429000002B04D00949F86806F056FF0BE0084BE4
:1042A0001B6812221A70012000F038FA0549F868DC
:1042B00006F04AFF00BF1837BD4680BD2403010841
:1042C00020010020E402010880B586B000AFF8604C
:1042D000B9607A60B86807F03BF80346FB75FB7D70
:1042E000002B04D00949F86806F02EFF0BE0084BBC
:1042F0001B6813221A70012000F010FA0549F868B3
:1043000006F022FF00BF1837BD4680BD2403010818
:1043100020010020E402010880B586B000AFF860FB
:10432000B9607A60B86807F013F80346FB75FB7D47
:10433000002B04D00949F86806F006FF0BE0084B93
:104340001B6814221A70012000F0E8F90549F8688A
:1043500006F0FAFE00BF1837BD4680BD24030108F1
:1043600020010020E402010880B586B000AFF860AB
:10437000B9607A60B86806F0EBFF0346FB75FB7D19
:10438000002B04D00949F86806F0DEFE0BE0084B6C
:104390001B6815221A70012000F0C0F90549F86861
:1043A00006F0D2FE00BF1837BD4680BD24030108C9
:1043B00020010020E402010880B586B000AFF8605B
:1043C000B9607A60B86806F0C3FF0346FB75FB7DF1
:1043D000002B04D00949F86806F0B6FE0BE0084B44
:1043E0001B6816221A70012000F098F90549F86838
:1043F00006F0AAFE00BF1837BD4680BD24030108A1
:1044000020010020E402010880B586B000AFF8600A
:10441000B9607A60B86806F09BFF0346FB75FB7DC8
:10442000002B04D00949F86806F08EFE0BE0084B1B
:104430001B6817221A70012000F070F90549F8680E
:1044400006F082FE00BF1837BD4680BD2403010878
:1044500020010020E402010880B586B000AFF860BA
:10446000B9607A60B86806F073FF0346FB75FB7DA0
:10447000002B04D00949F86806F066FE0BE0084BF3
:104480001B6818221A70012000F048F90549F868E5
:1044900006F05AFE00BF1837BD4680BD2403010850
:1044A00020010020E402010880B586B000AFF8606A
:1044B000B9607A60B86806F04BFF0346FB75FB7D78
:1044C000002B04D00949F86806F03EFE0BE0084BCB
:1044D0001B6819221A70012000F020F90549F868BC
:1044E00006F032FE00BF1837BD4680BD2403010828
:1044F00020010020E402010880B586B000AFF8601A
:10450000B9607A60B86806F023FF0346FB75FB7D4F
:10451000002B04D12149F86806F016FE3AE0FB7D35
:10452000012B04D91E49F86806F00EFE32E0012185
:10453000B86806F0D7FE0346184609F0FEFC38615D
:104540003B69642B0BD03B69C82B08D03B69B3F5A2
:10455000C87F04D01349F86806F0F6FD1AE0124B44
:104560001B681A221A703B69104A82FB031252110F
:10457000DB17D21A0C4B1B68D2B25A70022000F023
:10458000CDF83B699AB20A4B1A800A49F86806F0DE
:10459000DBFD00BF1837BD4680BD00BFF402010837
:1045A0000C03010824030108200100201F85EB51A2
:1045B0001C010020E402010880B586B000AFF8605D
:1045C000B9607A60B86806F0C3FE0346FB75FB7DF0
:1045D000002B04D00949F86806F0B6FD0BE0084B43
:1045E0001B681B221A70012000F098F80549F86832
:1045F00006F0AAFD00BF1837BD4680BD24030108A0
:1046000020010020E402010880B586B000AFF86008
:10461000B9607A60B86806F09BFE0346FB75FB7DC7
:10462000002B04D00949F86806F08EFD0BE0084B1A
:104630001B681C221A70012000F070F80549F86808
:1046400006F082FD00BF1837BD4680BD2403010877
:1046500020010020E402010880B586B000AFF860B8
:10466000B9607A60B86806F073FE0346FB75FB7D9F
:10467000002B04D00949F86806F066FD0BE0084BF2
:104680001B681D221A70012000F048F80549F868DF
:1046900006F05AFD00BF1837BD4680BD240301084F
:1046A00020010020E402010880B588B000AFF86066
:1046B000B9607A6007F11403074A0A21184609F025
:1046C0003DFD07F114031946F86806F03DFD00BFF3
:1046D0002037BD4680BD00BF8807010880B584B083
:1046E00000AFF860B9607A60FDF76AFB80B485B00E
:1046F00000AFF860B9607A6000BF1437BD465DF85E
:10470000047B704780B485B000AFF860B9607A6010
:1047100000BF1437BD465DF8047B704780B58AB092
:1047200000AF0346FB711F4BCA221A701E4B1A784A
:104730001C4B5A701B4B01229A701A4AFB79D3709A
:10474000184B07221A71174BEF2283F80021154BE3
:10475000DB780433DBB21A461449002007F07EFFF1
:1047600003461A460F4BA3F8FE2007F10C03002264
:104770001A605A609A60DA601A615A611A7607F113
:104780000B0207F10C031946064807F0B3FFFA7A4B
:1047900007F10C031946064809F02EFB00BF283725
:1047A000BD4680BD5C1D0020D48800205D1D00201A
:1047B000F01B002080B400AF024B1846BD465DF8E8
:1047C000047B70476C0F010880B400AF4A23184681
:1047D000BD465DF8047B704780B584B004AF4FF4EC
:1047E000007303934FF4007302930E4B01930E4B2F
:1047F000009327230D4A0E490E4809F06CFA4FF436
:1048000000620D490B4806F0B5FA03460B4A1360E7
:104810000B49084809F0D8FA0A4B064A1A6000BF4B
:10482000BD4680BDEC110020EC0F00200048004088
:1048300090070108800F0020EC130020EC1B0020E3
:104840009C0701087C0F002080B584B000AF786021
:104850000BE00D4809F084FA0346FB730B4B1B6811
:10486000FA7B1146184606F0BBFB074809F0E2FA4E
:104870000346002BEDD1054B1B68184606F0D3FB11
:1048800000BF1037BD4680BD800F0020EC1B00200C
:1048900080B5ADF5367D02AFA54B1B681B781D2B8F
:1048A00000F2D48701A252F823F000BF4D5800084F
:1048B0004D5800084D5800084D5800084D58000844
:1048C0004D58000825490008CD490008774A0008DE
:1048D000234A0008CB4A0008614C00089F56000894
:1048E000CF5600082F5700085F570008FD4B0008FF
:1048F0006F570008DD4C0008394E0008654F00086E
:1049000097510008035200088D520008F952000820
:10491000135400082D5500085D550008EF55000898
:1049200047560008824B1B685B78012B04D18149F4
:10493000814809F049FA1CE07D4B1B689B78012BEC
:1049400004D17E497C4809F03FFA12E0784B1B689D
:10495000DB78012B04D17A49774809F035FA08E071
:10496000734B1B681B79012B03D17649724809F000
:104970002BFA6F4B1B685B79012B05D172496E488E
:1049800009F022FA00F064BF694B1B689B79012B88
:1049900005D16E49684809F017FA00F059BF644B19
:1049A0001B68DB79012B05D16949634809F00CFAD2
:1049B00000F04EBF5E4B1B681B7A012B40F048870E
:1049C00064495D4809F000FA00F042BF584B1B688B
:1049D0005B781BB21B021AB2554B1B689B781BB24B
:1049E00013431BB2A7F8FE31514B1B68DB781BB297
:1049F0001B021AB24E4B1B681B791BB213431BB22E
:104A0000A7F8FC31B7F8FE21B7F8FC313846524917
:104A100009F0CAFB3B461946474809F0D5F900F0B2
:104A20005ABF434B1B685B78012B04D14349424872
:104A300009F0CAF908E03E4B1B685B78002B03D1F4
:104A400046493D4809F0C0F9394B1B689B78012B5A
:104A500005D13E49384809F0B7F900F0FBBE344BA8
:104A60001B689B78002B40F0F5863D49324809F0E1
:104A7000ABF900F0EFBE2E4B1B685B78012B04D125
:104A80002F492D4809F0A0F908E0294B1B685B78F5
:104A9000002B03D13349284809F096F9244B1B68B1
:104AA0009B78012B05D12A49234809F08DF900F0A4
:104AB000D3BE1F4B1B689B78002B40F0CD862A4944
:104AC0001D4809F081F900F0C7BE194B1B685B78DF
:104AD0001BB21B021AB2164B1B689B781BB2134306
:104AE0001BB2A7F80232124B1B68DB781BB21B0209
:104AF0001AB20F4B1B681B791BB213431BB2A7F8EA
:104B00000032B7F80222B7F800323846174909F0E8
:104B10004BFB3B461946084809F056F9044B1B6805
:104B20005B79012B24D10549034809F04DF928E0B0
:104B300024010020D0070108800F0020E4070108AD
:104B4000FC07010818080108340801084808010892
:104B5000600801087C08010898080108CC080108D1
:104B6000E8080108040901082409010844090108AA
:104B7000A14B1B685B79002B03D1A049A04809F029
:104B800023F99D4B1B689B79012B04D19D499C48BF
:104B900009F01AF908E0984B1B689B79002B03D1A8
:104BA0009949974809F010F9934B1B68DB79012B61
:104BB00004D19649924809F007F908E08E4B1B682A
:104BC000DB79002B03D192498D4809F0FDF88A4B1F
:104BD0001B681B7A012B05D18E49894809F0F4F82E
:104BE00000F03CBE844B1B681B7A002B40F03686DD
:104BF0008949834809F0E8F800F030BE7E4B1B6815
:104C00005B781A467C4B1B689B781B021A437A4BD5
:104C10001B68DB781B041A43774B1B681B791B0648
:104C20001343C7F81032744B1B685B791AB2724B8E
:104C30001B689B791BB21B021BB213431BB2A7F864
:104C40000E32B7F80E323846D7F81022734909F001
:104C5000ABFA3B4619466A4809F0B6F800F03BBE8D
:104C6000654B1B685B78002B14BF0123002387F87A
:104C70000632614B1B689B78002B14BF0123002375
:104C800087F8053297F80632002B04D064495C4857
:104C900009F09AF80AE097F8063283F00103DBB2D4
:104CA000002B03D05F49564809F08EF897F805327B
:104CB000002B05D05C49524809F086F800F0D0BDC1
:104CC00097F8053283F00103DBB2002B00F0C885B2
:104CD00056494B4809F078F800F0C2BD464B1B68B6
:104CE0005B781A46444B1B689B781B021A43424B65
:104CF0001B68DB781B041A433F4B1B681B791B06A0
:104D00001343C7F830323C4B1B685B791A463A4B69
:104D10001B689B791B021A43374B1B68DB791B040A
:104D20001A43354B1B681B7A1B061343C7F82C32FA
:104D3000314B1B685B7A1A462F4B1B689B7A1B0210
:104D40001A432D4B1B68DB7A1B041A432A4B1B6842
:104D50001B7B1B061343C7F82832D7F8303207EE07
:104D6000903AB8EEE77ADFED326AC7EE267AC7ED01
:104D7000897AD7F82C3207EE903AB8EEE77ADFED71
:104D80002C6AC7EE267AC7ED887AD7F8283207EE64
:104D9000903AB8EEE77ADFED266AC7EE267AC7EDDD
:104DA000877A07F5F6730221184697ED890A00F015
:104DB00099FD07F5EE730221184697ED880A00F079
:104DC00091FD07F5E6730221184697ED870A00F07A
:104DD00089FD07F5EE7107F5F672384607F5E673BB
:104DE00000930B46134909F0DFF93B461946044886
:104DF00008F0EAFF00F06FBD24010020CC08010894
:104E0000800F002048080108E8080108FC07010895
:104E1000040901086008010824090108780901084B
:104E200098090108C4090108F4090108200A0108C9
:104E300000007A44500A0108464B1B685B7B1A4607
:104E4000444B1B689B7B1B021A43424B1B68DB7B5A
:104E50001B041A433F4B1B681B7C1B061343C7F8FC
:104E600048323C4B1B685B7C1A463A4B1B689B7C68
:104E70001B021A43374B1B68DB7C1B041A43354B60
:104E80001B681B7D1B061343C7F84432314B1B685C
:104E90005B7D1A462F4B1B689B7D1B021A432D4BD3
:104EA0001B68DB7D1B041A432A4B1B681B7E1B06F9
:104EB0001343C7F84032D7F8483207EE903AB8EEBD
:104EC000E77ADFED256AC7EE267AC7ED8F7AD7F845
:104ED000443207EE903AB8EEE77ADFED1F6AC7EE8C
:104EE000267AC7ED8E7AD7F8403207EE903AB8EEC0
:104EF000E77ADFED196AC7EE267AC7ED8D7A07F5F6
:104F0000DE730221184697ED8F0A00F0EBFC07F5DF
:104F1000D6730221184697ED8E0A00F0E3FC07F5E0
:104F2000CE730221184697ED8D0A00F0DBFC07F5E1
:104F3000D67107F5DE72384607F5CE7300930B463F
:104F4000064909F031F93B461946054808F03CFF8F
:104F500000F0C1BC2401002000007A44840A01084A
:104F6000800F0020C24B1B685B781A46C04B1B6841
:104F70009B781B021A43BE4B1B68DB781B041A4349
:104F8000BB4B1B681B791B061343C7F87832B84B21
:104F90001B685B791A46B64B1B689B791B021A4348
:104FA000B34B1B68DB791B041A43B14B1B681B7A9C
:104FB0001B061343C7F87432AD4B1B685B7A1A4665
:104FC000AB4B1B689B7A1B021A43A94B1B68DB7A0D
:104FD0001B041A43A64B1B681B7B1B061343C7F815
:104FE0007032A34B1B685B7B1A46A14B1B689B7BF3
:104FF0001B021A439E4B1B68DB7B1B041A439C4B12
:105000001B681B7C1B061343C7F86C32984B1B684C
:105010005B7C1A46964B1B689B7C1B021A43944B85
:105020001B68DB7C1B041A43914B1B681B7D1B0612
:105030001343C7F868328E4B1B685B7D1A468C4B56
:105040001B689B7D1B021A43894B1B68DB7D1B047D
:105050001A43874B1B681B7E1B061343C7F8643239
:10506000D7F8783207EE903AB8EEE77ADFED816A4A
:10507000C7EE267AC7ED987AD7F8743207EE903AE1
:10508000B8EEE77ADFED7B6AC7EE267AC7ED977A4E
:10509000D7F8703207EE903AB8EEE77ADFED756A2E
:1050A000C7EE267AC7ED967AD7F86C3207EE903ABB
:1050B000B8EEE77ADFED6F6AC7EE267AC7ED957A2C
:1050C000D7F8683207EE903AB8EEE77ADFED696A12
:1050D000C7EE267AC7ED947AD7F8643207EE903A95
:1050E000B8EEE77ADFED636AC7EE267AC7ED937A0A
:1050F00007F5C6730221184697ED980A00F0F2FBF7
:1051000007F5BE730221184697ED970A00F0EAFBF7
:1051100007F5B6730221184697ED960A00F0E2FBF8
:1051200007F5BE7107F5C672384607F5B6730093EA
:105130000B46514909F038F83B4619464F4808F0EC
:1051400043FE07F5AE730221184697ED950A00F06D
:10515000C9FB07F5A6730221184697ED940A00F0E3
:10516000C1FB07F59E730221184697ED930A00F0E4
:10517000B9FB07F5A67107F5AE72384607F59E73C1
:1051800000930B463E4909F00FF83B4619463B4851
:1051900008F01AFE9FE3364B1B685B781A46344BC7
:1051A0001B689B781B021A43314B1B68DB781B047E
:1051B0001A432F4B1B681B791B061343C7F8803219
:1051C000D7F8803207EE903AB8EEE77ADFED296A39
:1051D000C7EE267AC7ED9F7A07F596730221184627
:1051E00097ED9F0A00F07EFB07F596723B46254936
:1051F000184608F0D9FF3B461946204808F0E4FD60
:1052000069E31B4B1B685B791A46194B1B689B793A
:105210001B021A43164B1B68DB791B041A43144B01
:105220001B681B7A1B061343C7F88832D7F88832ED
:1052300007EE903AB8EEE77ADFED0E6AC7EE267A0F
:10524000C7EDA17A07F58E730221184697EDA10AE2
:1052500000F048FB07F58E723B460B49184608F0F4
:10526000A3FF3B461946054808F0AEFD33E300BFF7
:105270002401002000007A44500A0108800F002019
:10528000840A0108B80A0108D00A0108BF4B1B684C
:105290005B7A1A46BD4B1B689B7A1B021A43BB4BB9
:1052A0001B68DB7A1B041A43B84B1B681B7B1B066D
:1052B0001343C7F89032D7F8903207EE903AB8EE21
:1052C000E77ADFEDB36AC7EE267AC7EDA37A07F572
:1052D00086730221184697EDA30A00F003FB07F539
:1052E00086723B46AB49184608F05EFF3B461946BE
:1052F000A94808F069FDEEE2A44B1B685B781A46EA
:10530000A24B1B689B781B021A43A04B1B68DB78DF
:105310001B041A439D4B1B681B791B061343C7F8DC
:10532000A8329A4B1B685B791A46984B1B689B798D
:105330001B021A43954B1B68DB791B041A43934BE2
:105340001B681B7A1B061343C7F8A4328F4B1B68DC
:105350005B7A1A468D4B1B689B7A1B021A438B4B58
:105360001B68DB7A1B041A43884B1B681B7B1B06DC
:105370001343C7F8A032D7F8A83207EE903AB8EE38
:10538000E77ADFED836AC7EE267AC7EDA77AD7F80A
:10539000A43207EE903AB8EEE77ADFED7D6AC7EE09
:1053A000267AC7EDA67AD7F8A03207EE903AB8EE83
:1053B000E77ADFED776AC7EE267AC7EDA57A07F1BF
:1053C000FC030221184697EDA70A00F08BFA07F1BB
:1053D000EC030221184697EDA60A00F083FA07F1C4
:1053E000DC030221184697EDA50A00F07BFA07F1CD
:1053F000EC0107F1FC02384607F1DC0300930B4691
:10540000664908F0D1FE3B461946634808F0DCFCCB
:1054100061E25E4B1B685B781A465C4B1B689B78AD
:105420001B021A43594B1B68DB781B041A43574B6A
:105430001B681B791B061343C7F8C032534B1B680C
:105440005B791A46514B1B689B791B021A434F4BE1
:105450001B68DB791B041A434C4B1B681B7A1B0629
:105460001343C7F8BC32494B1B685B7A1A46474B5B
:105470001B689B7A1B021A43444B1B68DB7A1B0494
:105480001A43424B1B681B7B1B061343C7F8B832F9
:10549000D7F8C03207EE903AB8EEE77ADFED406A0F
:1054A000C7EE267AC7EDAD7AD7F8BC3207EE903A50
:1054B000B8EEE77ADFED3A6AC7EE267AC7EDAC7A46
:1054C000D7F8B83207EE903AB8EEE77ADFED346AF3
:1054D000C7EE267AC7EDAB7A07F1CC030221184656
:1054E00097EDAD0A00F0FEF907F1BC030221184662
:1054F00097EDAC0A00F0F6F907F1AC03022118466B
:1055000097EDAB0A00F0EEF907F1BC0107F1CC0210
:10551000384607F1AC0300930B46224908F044FEDD
:105520003B4619461C4808F04FFCD4E1174B1B685A
:105530009B7887F8C53297F8C532002B04D11A49F9
:10554000154808F041FC8DE197F8C532012B40F079
:1055500089811649104808F037FC83E10B4B1B6822
:105560009B7887F8C73297F8C732012B35D1074BA4
:105570001B685B7887F8C63297F8C632012B19D1C1
:105580000B49054808F020FC6EE100BF2401002013
:1055900000007A44E80A0108800F0020FC0A010894
:1055A00000247449380B0108640B0108880B0108BA
:1055B000B40B010897F8C632022B04D1AC49AD48B0
:1055C00008F002FC50E197F8C632042B40F04C8101
:1055D000A949A84808F0F8FB46E197F8C732002B24
:1055E00040F04281A549A34808F0EEFB3CE1A44B02
:1055F0001B685B781BB21B021AB2A14B1B689B781D
:105600001BB213431BB29BB207EE903AB8EEE77A97
:10561000DFED9C6AC7EE267AC7EDB27A07F19C03EC
:105620000221184697EDB20A00F05CF907F19C02DE
:105630003B469549184608F0B7FD3B4619468D484C
:1056400008F0C2FB47E18E4B1B685B781BB21B0264
:105650001AB28B4B1B689B781BB213431BB29BB2D5
:1056600007EE903AB8EEE77ADFED866AC7EE267A63
:10567000C7EDB37A07F18C030221184697EDB30A00
:1056800000F030F907F18C023B468049184608F0DB
:105690008BFD3B461946774808F096FB1BE1784B9B
:1056A0001B685B7C87F8073297F80732002B04D120
:1056B0007749704808F088FBD8E097F80732012B4B
:1056C00040F0D48073496B4808F07EFBCEE06C4B11
:1056D0001B685B7887F80C3297F80C32012B21D1CC
:1056E000674B1B689B7B1A46654B1B68DB7B1B0269
:1056F0001A43634B1B681B7C1B041A43604B1B68DB
:105700005B7C1B061343C7F808323B46D7F80822D8
:105710006149184608F048FD3B461946554808F0CF
:1057200053FBD8E05D49534808F04EFBD3E0544B9F
:105730001B689B7887F80D3297F80D32002B04D147
:1057400057494C4808F040FBC4E097F80D32012B54
:1057500040F0C0805349474808F036FBBAE0524B4E
:1057600001221A700121012007F0C0FAB3E0444B76
:105770001B685B78002B14BF0123002387F81B32C2
:105780003F4B1B689B78002B14BF0123002387F835
:105790001A323B4B1B68DB78002B14BF012300231C
:1057A00087F81932364B1B681B79002B14BF012375
:1057B000002387F81832324B1B685B79002B14BF2B
:1057C0000123002387F8173297F81B32002B04D0EF
:1057D0003649284808F0F8FA03E03549254808F02A
:1057E000F3FA97F81A32002B04D03249214808F016
:1057F000EBFA03E030491F4808F0E6FA97F819324F
:10580000002B04D02D491B4808F0DEFA03E02C4998
:10581000184808F0D9FA97F81832002B04D0294913
:10582000144808F0D1FA03E02749124808F0CCFAEE
:1058300097F81732002B04D024490E4808F0C4FA18
:1058400049E023490B4808F0BFFA44E000BF42E0BA
:1058500000BF40E000BF3EE000BF3CE000BF3AE0D8
:1058600000BF38E000BF36E000BF34E000BF32E0E8
:10587000D40B0108800F0020F40B0108140C010860
:10588000240100200000C842380C0108540C010813
:10589000700C0108880C0108A80C0108C40C010850
:1058A000DC0C0108FC0C010815030020200D010888
:1058B000380D0108500D0108680D0108840D01081C
:1058C000A00D0108BC0D0108D40D0108F00D010860
:1058D000080E010800BF00BF00BF184607F5347767
:1058E000BD4680BD80B58EB000AF87ED030AB860BD
:1058F0000B46FB71D7ED037AF5EEC07AF1EE10FAA4
:105900000AD5BB685A1CBA602D221A70D7ED037AEB
:10591000F1EE677AC7ED037AFB7907EE903AF8EE7D
:10592000677AF0EE670AB2EE040A09F0FDF8B0EE0D
:10593000407AF6EE006AC6EE877A97ED037A77EE44
:10594000277AC7ED037AD7ED037AFCEEE77A17EEF4
:10595000903A7B637B6B07EE903AF8EE677A97EDAF
:10596000037A77EE677AC7ED0C7A0023FB627B6BD4
:10597000002B22D1FB6A5A1CFA6238333B44302296
:1059800003F8242C1CE0796B334BA3FB0123DA08CA
:1059900013469B0013445B00CA1AD2B2FB6A591C1F
:1059A000F9623032D2B238333B4403F8242C7B6B9B
:1059B000294AA2FB0323DB087B637B6B002BE2D12C
:1059C000FB6A013BBB620BE0BB685A1CBA6007F183
:1059D0001401BA6A0A4412781A70BB6A013BBB62AE
:1059E000BB6A002BF0DAFB79002B2DD0BB685A1C68
:1059F000BA602E221A7024E0D7ED0C7AB2EE047A47
:105A000067EE877AC7ED0C7AD7ED0C7AFCEEE77A71
:105A100017EE903A7B627B6ADAB2BB68591CB960B8
:105A20003032D2B21A707B6A07EE903AF8EE677A9B
:105A300097ED0C7A77EE677AC7ED0C7AFB79013B2C
:105A4000FB71FB79002BD7D1BB6800221A7000BF15
:105A50003837BD4680BD00BFCDCCCCCC80B584B03E
:105A600004AF8023039380230293124B0193124BC4
:105A700000933423114A1249124808F02CF9124BB2
:105A8000124A5A60104B80221A800F4B00221A8152
:105A90000D4B1B88002B06D00B4B5B6804220021AA
:105AA000184608F0BDFB022006F014FE00BFBD46FC
:105AB00080BD00BFDC1C00205C1C0020004C0040AE
:105AC000240E0108F01B0020641F0020701F00201E
:105AD00080B584B000AF78600023FB733223FB7382
