:020000040800F2
:10000000000002209D6F00081D6E0008256E00088C
:100010002D6E0008356E00083D6E000800000000DF
:10002000000000000000000000000000456E000815
:10003000536E000800000000616E0008716E000839
:10004000ED6F0008ED6F0008ED6F0008ED6F000820
:10005000ED6F0008ED6F00089D6E0008ED6F000861
:10006000ED6F0008ED6F0008ED6F0008ED6F000800
:10007000ED6F0008ED6F0008ED6F0008ED6F0008F0
:10008000ED6F0008ED6F0008ED6F0008ED6F0008E0
:10009000ED6F0008ED6F0008ED6F0008ED6F0008D0
:1000A000ED6F0008ED6F0008ED6F0008ED6F0008C0
:1000B000ED6F0008ED6F0008BB6E0008ED6F0008E3
:1000C000ED6F0008ED6F0008ED6F0008ED6F0008A0
:1000D000ED6F0008ED6F0008ED6F0008C96E0008B5
:1000E000ED6F0008ED6F0008ED6F0008ED6F000880
:1000F000ED6F0008ED6F0008ED6F0008ED6F000870
:10010000ED6F0008ED6F0008ED6F0008ED6F00085F
:10011000DD6E0008ED6F0008ED6F0008ED6F000860
:10012000F16E0008D19F0008ED6F0008FD6E000819
:10013000119500080000000000000000ED6F0008AD
:10014000ED6F0008ED6F0008ED6F0008ED6F00081F
:10015000D5940008ED6F000811A00008ED6F0008AD
:10016000ED6F0008ED6F0008ED6F0008ED6F0008FF
:10017000ED6F0008ED6F00080000000000000000B7
:08018000ED6F0008ED6F0008AF
:1001900010B5054C237833B9044B13B10448AFF3C1
:1001A00000800123237010BD8001002000000000AA
:1001B000F0E2000808B5034B1BB103490348AFF355
:1001C000008008BD0000000084010020F0E200086B
:1001D00010F8012B11F8013B012A28BF9A42F7D0F1
:1001E000D01A7047034613F8012B002AFBD1181AC6
:1001F000013870470000000000000000000000000F
:1002000001F0FF01102A2BDB10F0070F08D010F8C7
:10021000013B013A8B422DD010F0070F42B3F6D1CB
:10022000F0B441EA012141EA014122F007047FF0E4
:1002300000070023F0E80256083C85EA010586EA3B
:10024000010685FA47F5A3FA87F586FA47F6A5FA77
:1002500087F68EB9EED1F0BC01F0FF0102F0070283
:1002600032B110F8013B013A83EA010313B1F8D12E
:100270000020704701387047002D06BF354603380F
:10028000073815F0010F07D1013015F4807F02BF48
:10029000013015F4C03F0130F0BC0138704700BF99
:1002A00081F0004102E000BF83F0004330B54FEA27
:1002B00041044FEA430594EA050F08BF90EA020F94
:1002C0001FBF54EA000C55EA020C7FEA645C7FEA27
:1002D000655C00F0E2804FEA5454D4EB5555B8BF4A
:1002E0006D420CDD2C4480EA020281EA030382EABB
:1002F000000083EA010180EA020281EA0303362D4D
:1003000088BF30BD11F0004F4FEA01314FF4801C1F
:100310004CEA113102D0404261EB410113F0004F31
:100320004FEA03334CEA133302D0524263EB4303E8
:1003300094EA050F00F0A780A4F10104D5F1200E86
:100340000DDB02FA0EFC22FA05F2801841F10001E1
:1003500003FA0EF2801843FA05F359410EE0A5F1B5
:1003600020050EF1200E012A03FA0EFC28BF4CF0E6
:10037000020C43FA05F3C01851EBE37101F000459C
:1003800007D54FF0000EDCF1000C7EEB00006EEBA9
:100390000101B1F5801F1BD3B1F5001F0CD3490833
:1003A0005FEA30004FEA3C0C04F101044FEA44528A
:1003B00012F5800F80F09A80BCF1004F08BF5FEA11
:1003C000500C50F1000041EB045141EA050130BDF1
:1003D0005FEA4C0C404141EB0101013C28BFB1F503
:1003E000801FE9D291F0000F04BF01460020B1FA4E
:1003F00081F308BF2033A3F10B03B3F120020CDA21
:100400000C3208DD02F1140CC2F10C0201FA0CF0FE
:1004100021FA02F10CE002F11402D8BFC2F1200C63
:1004200001FA02F120FA0CFCDCBF41EA0C01904019
:10043000E41AA2BF01EB0451294330BD6FEA040462
:100440001F3C1CDA0C340EDC04F11404C4F120024D
:1004500020FA04F001FA02F340EA030021FA04F35F
:1004600045EA030130BDC4F10C04C4F1200220FAB6
:1004700002F001FA04F340EA0300294630BD21FAF4
:1004800004F0294630BD94F0000F83F4801306BFBA
:1004900081F480110134013D4EE77FEA645C18BFAE
:1004A0007FEA655C29D094EA050F08BF90EA020F45
:1004B00005D054EA000C04BF1946104630BD91EA3D
:1004C000030F1EBF0021002030BD5FEA545C05D140
:1004D0004000494128BF41F0004130BD14F580047F
:1004E0003CBF01F5801130BD01F0004545F0FE41F3
:1004F00041F470014FF0000030BD7FEA645C1ABF28
:10050000194610467FEA655C1CBF0B46024650EA5E
:10051000013406BF52EA033591EA030F41F400218A
:1005200030BD00BF90F0000F04BF0021704730B510
:100530004FF4806404F132044FF000054FF00001E5
:1005400050E700BF90F0000F04BF0021704730B5A6
:100550004FF4806404F1320410F0004548BF40427B
:100560004FF000013EE700BF42004FEAE2014FEAD0
:1005700031014FEA02701FBF12F07F4393F07F4FAB
:1005800081F06051704732F07F4208BF704793F0AE
:100590007F4F04BF41F40021704730B54FF46074C1
:1005A00001F0004521F000411CE700BF50EA0102C4
:1005B00008BF704730B54FF000050AE050EA01026D
:1005C00008BF704730B511F0004502D5404261EBDD
:1005D00041014FF4806404F132045FEA915C3FF41E
:1005E000D8AE4FF003025FEADC0C18BF03325FEABB
:1005F000DC0C18BF033202EBDC02C2F1200300FA6C
:1006000003FC20FA02F001FA03FE40EA0E0021FA90
:1006100002F11444BDE600BF70B54FF0FF0C4CF47E
:10062000E06C1CEA11541DBF1CEA135594EA0C0F30
:1006300095EA0C0F00F0DEF82C4481EA030621EA6B
:100640004C5123EA4C5350EA013518BF52EA0335A6
:1006500041F4801143F4801338D0A0FB02CE4FF058
:100660000005E1FB02E506F00042E0FB03E54FF088
:100670000006E1FB03569CF0000F18BF4EF0010E80
:10068000A4F1FF04B6F5007F64F5407404D25FEA7C
:100690004E0E6D4146EB060642EAC62141EA55512F
:1006A0004FEAC52040EA5E504FEACE2EB4F1FD0C71
:1006B00088BFBCF5E06F1ED8BEF1004F08BF5FEAEF
:1006C000500E50F1000041EB045170BD06F00046A1
:1006D00046EA010140EA020081EA0301B4EB5C044E
:1006E000C2BFD4EB0C0541EA045170BD41F4801146
:1006F0004FF0000E013C00F3AB8014F1360FDEBF6B
:10070000002001F0004170BDC4F10004203C35DA46
:100710000C341BDC04F11404C4F1200500FA05F3C9
:1007200020FA04F001FA05F240EA020001F000426A
:1007300021F0004110EBD37021FA04F642EB0601E0
:100740005EEA430E08BF20EAD37070BDC4F10C040A
:10075000C4F1200500FA04F320FA05F001FA04F2CE
:1007600040EA020001F0004110EBD37041F10001BA
:100770005EEA430E08BF20EAD37070BDC4F12005C5
:1007800000FA05F24EEA020E20FA04F301FA05F22D
:1007900043EA020321FA04F001F0004121FA04F2D5
:1007A00020EA020000EBD3705EEA430E08BF20EAA5
:1007B000D37070BD94F0000F0FD101F000464000DF
:1007C00041EB010111F4801F08BF013CF7D041EA61
:1007D000060195F0000F18BF704703F00046520065
:1007E00043EB030313F4801F08BF013DF7D043EA36
:1007F0000603704794EA0C0F0CEA135518BF95EAEC
:100800000C0F0CD050EA410618BF52EA4306D1D172
:1008100081EA030101F000414FF0000070BD50EA91
:10082000410606BF1046194652EA430619D094EA1B
:100830000C0F02D150EA013613D195EA0C0F05D105
:1008400052EA03361CBF104619460AD181EA030159
:1008500001F0004141F0FE4141F470014FF0000011
:1008600070BD41F0FE4141F4780170BD70B54FF0AC
:10087000FF0C4CF4E06C1CEA11541DBF1CEA13552C
:1008800094EA0C0F95EA0C0F00F0A7F8A4EB05040E
:1008900081EA030E52EA03354FEA013100F0888005
:1008A0004FEA03334FF0805545EA131343EA1263CE
:1008B0004FEA022245EA111545EA10654FEA002683
:1008C0000EF000419D4208BF964244F1FD0404F53C
:1008D000407402D25B084FEA3202B61A65EB030598
:1008E0005B084FEA32024FF480104FF4002CB6EB55
:1008F000020E75EB030E22BFB61A754640EA0C00D5
:100900005B084FEA3202B6EB020E75EB030E22BF14
:10091000B61A754640EA5C005B084FEA3202B6EB55
:10092000020E75EB030E22BFB61A754640EA9C0014
:100930005B084FEA3202B6EB020E75EB030E22BFE4
:10094000B61A754640EADC0055EA060E18D04FEAA2
:10095000051545EA16754FEA06164FEAC30343EA42
:1009600052734FEAC2025FEA1C1CC0D111F4801F0F
:100970000BD141EA00014FF000004FF0004CB6E708
:1009800011F4801F04BF01430020B4F1FD0C88BFA7
:10099000BCF5E06F3FF6AFAEB5EB030C04BFB6EBB2
:1009A000020C5FEA500C50F1000041EB045170BDA5
:1009B0000EF0004E4EEA113114EB5C04C2BFD4EBD2
:1009C0000C0541EA045170BD41F480114FF0000E56
:1009D000013C90E645EA060E8DE60CEA135594EAD2
:1009E0000C0F08BF95EA0C0F3FF43BAF94EA0C0FD5
:1009F0000AD150EA01347FF434AF95EA0C0F7FF44A
:100A000025AF104619462CE795EA0C0F06D152EA9D
:100A100003353FF4FDAE1046194622E750EA410681
:100A200018BF52EA43067FF4C5AE50EA41047FF492
:100A30000DAF52EA43057FF4EBAE12E74FF0FF3CF7
:100A400006E000BF4FF0010C02E000BF4FF0010CC8
:100A50004DF804CD4FEA410C7FEA6C5C4FEA430C41
:100A600018BF7FEA6C5C1BD001B050EA410C0CBF90
:100A700052EA430C91EA030F02BF90EA020F0020F2
:100A8000704710F1000F91EA030F58BF994208BF59
:100A900090422CBFD8176FEAE37040F00100704716
:100AA0004FEA410C7FEA6C5C02D150EA013C07D16D
:100AB0004FEA430C7FEA6C5CD6D152EA033CD3D0B8
:100AC0005DF8040B704700BF8446104662468C46B2
:100AD0001946634600E000BF01B5FFF7B7FF0028E5
:100AE00048BF10F1000F01BD4DF808EDFFF7F4FF0E
:100AF0000CBF012000205DF808FB00BF4DF808ED99
:100B0000FFF7EAFF34BF012000205DF808FB00BFBB
:100B10004DF808EDFFF7E0FF94BF012000205DF8DD
:100B200008FB00BF4DF808EDFFF7CEFF94BF012092
:100B300000205DF808FB00BF4DF808EDFFF7C4FF8B
:100B400034BF012000205DF808FB00BF4FEA4102DE
:100B500012F5001215D211D56FF47873B3EB62520F
:100B600012D94FEAC12343F0004343EA505311F036
:100B7000004F23FA02F018BF404270474FF00000C8
:100B8000704750EA013005D111F0004008BF6FF006
:100B9000004070474FF00000704700BF4A0011D27C
:100BA00012F5001211D20DD56FF47873B3EB6252C7
:100BB0000ED44FEAC12343F0004343EA505323FAD3
:100BC00002F070474FF00000704750EA013002D148
:100BD0004FF0FF3070474FF0000070474FEA41027E
:100BE000B2F1E04324BFB3F5001CDCF1FE5C0DD98B
:100BF00001F0004C4FEAC0024CEA5070B2F1004FD5
:100C000040EB830008BF20F00100704711F0804FD7
:100C100021D113F13872BCBF01F00040704741F49C
:100C200080114FEA5252C2F11802C2F1200C10FAA0
:100C30000CF320FA02F018BF40F001004FEAC12384
:100C40004FEAD32303FA0CFC40EA0C0023FA02F328
:100C50004FEA4303CCE77FEA625307D150EA0133FE
:100C60001EBF4FF0FE4040F44000704701F00040CE
:100C700040F0FE4040F40000704700BF53B94AB94D
:100C8000002908BF00281CBF4FF0FF314FF0FF3094
:100C900000F088B9ADF1080C6DE904CE00F006F85B
:100CA000DDF804E0DDE9022304B070472DE9F047E8
:100CB000089D8E4604468846002B4AD18A42174634
:100CC00062D9B2FA82F64EB1C6F1200301FA06F8F3
:100CD00020FA03F3B74043EA0808B4404FEA174E3E
:100CE0001FFA87FCB8FBFEF1230C0EFB118843EAC8
:100CF000084301FB0CF29A4209D9FB1801F1FF30BD
:100D000080F0EA809A4240F2E78002393B449A1A26
:100D1000A3B2B2FBFEF00EFB102243EA024300FB3B
:100D20000CFC9C4509D9FB1800F1FF3280F0D680FD
:100D30009C4540F2D3803B44023840EA0140A3EB9B
:100D40000C0300211DB1F3400022C5E90032BDE8CB
:100D5000F0878B4205D90DB1C5E900010021084695
:100D6000F5E7B3FA83F1002946D1734502D38242F5
:100D700000F20581841A6EEB030201209046002DDB
:100D8000E5D0C5E90048E2E7002A00F09080B2FA19
:100D900082F6002E40F0A4808A1A030C4FEA174E08
:100DA00080B2BCB20121B2FBFEFC0EFB1C2243EA66
:100DB000024304FB0CF29A4207D9FB180CF1FF38EE
:100DC00002D29A4200F2E080C4469B1AB3FBFEF2C4
:100DD0000EFB123340EA034302FB04F49C4207D9A2
:100DE000FB1802F1FF3002D29C4200F2CA80024698
:100DF0001B1B42EA0C40A5E7C1F120068B4022FAFA
:100E000006F71F430EFA01F420FA06F32EFA06FE47
:100E10004FEA1749234300FA01F81FFA87FCBEFB8B
:100E2000F9F01C0C09FB10EE44EA0E4400FB0CFE2A
:100E3000A64502FA01F209D93C1900F1FF3A80F007
:100E40009C80A64540F2998002383C44A4EB0E04F5
:100E50001FFA83FEB4FBF9F309FB13444EEA044482
:100E600003FB0CFCA44508D93C1903F1FF3E80F0BC
:100E70008280A4457FD9023B3C4443EA0040A4EB76
:100E80000C04A0FB02EC64457346E14662D35FD0DC
:100E90005DB1B8EB030264EB090404FA06F622FA2A
:100EA00001F31E43CC40C5E9006400214FE7B1FBCC
:100EB000F2FC010C41EA0E4180B240EA01423B469D
:100EC00038463C46B846BE462026B1FBF7F1A2EBB9
:100ED000080241EA0C4166E7014618E710462CE794
:100EE000C6F120022EFA02F3B740B14020FA02F216
:100EF0004FEA174E0A43B3FBFEF8BCB20EFB1833A1
:100F0000110C41EA034108FB04F9B04089454FEA5E
:100F1000104380B23ED9791808F1FF3C01D28945CF
:100F20001FD8A1EB0901B1FBFEF909FB04F80EFB88
:100F3000191192B242EA0142424529D2BA1809F186
:100F4000FF31C4D24245C2D2A9F102013A44BEE700
:100F5000F0459DD2BEEB02036CEB070C0138E14675
:100F600096E7A7EB09094944A8F1020CB1FBFEF989
:100F700009FB04F8DBE773467FE7504666E708465F
:100F8000FDE63B44023A33E7ACF1020C3B441CE77C
:100F900049469CE7A1EB0901C446B1FBFEF909FBF8
:100FA00004F8C4E7704700BF80B483B000AF786036
:100FB0007B681B6823F001027B681A6000BF0C3756
:100FC000BD465DF8047B7047B0B582B000AF08F055
:100FD00081F908F01FFF124B00221A70114B0022FA
:100FE0001A70114B00221A700023FB710FE0FB797D
:100FF0000E4A5B0113440E4A1C4615460FCD0FC422
:1010000095E80F0084E80F00FB790133FB71FB7951
:10101000092BECD900BF00BF0837BD46B0BD00BFEB
:10102000DC020020DD020020DE0200209C01002006
:1010300000000020B0B588B002AF7860B14B1B78DB
:10104000032B00F2558101A252F823F05D10000835
:1010500079100008A9120008D5120008AA4B002236
:101060001A70AA4B1B78012B02D1A84B00221A70D0
:1010700001200BF001F840E1A34B1B78002B00F09E
:1010800039810023FB7508F0D7FE08F04DF90023E5
:10109000FB75F9E0FB7D9E499E4A5B0113440C46BB
:1010A0001D460FCD0FC495E80F0084E80F00002304
:1010B0003B610023FB600123BB60954B1879944B87
:1010C0005979934B5B881A4613469B0013445B0087
:1010D000013B1A4608F0E5F802463B6913443B61C0
:1010E0008B4B18798A4B5979894B9B891A46134641
:1010F0009B0013445B00013B1C46854BDB891A4671
:1011000013469B0013445B00013B1A46804B1B7A3D
:101110000193012300931346224608F071F802461A
:101120003B6913443B617A4B1879794B5979784B79
:101130005B891A4613469B0013445B00013B1A4629
:1011400008F0AFF802463B6913443B61704B587995
:101150006F4B19796E4B1B8A1A4613469B0013443A
:101160005B00013B1C466A4B5B8A1A4613469B0098
:1011700013445B00013B1A46654B5B7A01930123E4
:1011800000931346224608F03BF802463B6913449D
:101190003B613B69013B3B615D4B18795C4B597985
:1011A0005B4BDB881A4613469B0013445B00013BF4
:1011B0001A4608F076F80246FB681344FB60544B6D
:1011C0001879534B5979524B1B8B1A4613469B0087
:1011D00013445B00013B1C464D4B5B8B1A46134688
:1011E0009B0013445B00013B1A46494B1B7D019356
:1011F000012300931346224608F002F80246FB68DA
:101200001344FB60424B1879414B5979404BDB8AC0
:101210001A4613469B0013445B00013B1A4608F034
:1012200040F80246FB681344FB60394B5879384B51
:101230001979374B9B8B1A4613469B0013445B006E
:10124000013B1C46324BDB8B1A4613469B00134472
:101250005B00013B1A462E4B5B7D019301230093FB
:101260001346224607F0CCFF0246FB681344FB609E
:10127000FB68013BFB60FB7DBA68F968386908F0E0
:1012800081FDFB7D0133FB751F4B1B78FA7D9A4274
:10129000FFF400AF08F068FE08F0E4F800F0C8F9C9
:1012A000184B02221A7028E008F022F80346002B9F
:1012B00022D01948FFF778FE08F00CF808F0AAFDD4
:1012C00000F0C6F9154916480BF012FE0D4B00222E
:1012D0001A7011E008F042F808F0C8FD07F0FAFFB4
:1012E00008F098FD00F0B4F9064B00221A7004E0F3
:1012F00000BF02E000BF00E000BF00BF1837BD46DE
:10130000B0BD00BFDD020020DC020020DE020020B4
:10131000E00200209C0100200000014008E30008DA
:10132000D041002080B483B000AF78607B681B6838
:1013300003F02003202B0CBF01230023DBB218464F
:101340000C37BD465DF8047B704780B483B000AFB6
:1013500078607B6820229A6000BF0C37BD465DF83C
:10136000047B704780B483B000AF78607B681B68F3
:1013700043F001027B681A6000BF0C37BD465DF880
:10138000047B704780B483B000AF78607B681B68D3
:1013900023F001027B681A6000BF0C37BD465DF880
:1013A000047B704780B483B000AF786039607B689D
:1013B0001B6823F070023B681A437B681A6000BF09
:1013C0000C37BD465DF8047B704780B483B000AF36
:1013D000786039607B683A685A6200BF0C37BD4656
:1013E0005DF8047B704780B483B000AF78603960EB
:1013F0007B683A689A6200BF0C37BD465DF8047B93
:10140000704780B483B000AF786039607B683A6819
:10141000DA6200BF0C37BD465DF8047B704780B4CC
:1014200083B000AF78607B686FF001021A6100BF83
:101430000C37BD465DF8047B704780B483B000AFC5
:1014400078607B681B6903F00103012B01D1012344
:1014500000E0002318460C37BD465DF8047B70475A
:1014600080B483B000AF78607B68DB6843F0010232
:101470007B68DA6000BF0C37BD465DF8047B7047BF
:1014800080B483B000AF78607B68DB6823F0010232
:101490007B68DA6000BF0C37BD465DF8047B70479F
:1014A00080B500AF264807F07CF94FF400420021D8
:1014B000234807F0E8F84FF430420121204807F0B4
:1014C000E2F848F201020B211D4807F0DCF89FED1D
:1014D000101B9FED110B1A4807F076F99FED101BBA
:1014E0009FED0D0B164807F0AFF99FED0F1B9FED19
:1014F0000A0B134807F004FA9FED0D0B104807F094
:101500005BFA9FED0D0B0E4807F08AFA00BF80BD15
:1015100000000000000024400000004008AC8C3FA8
:10152000000000000000144000000000000014C093
:101530000000000000607340000000000000000098
:10154000380000200000000080B582B000AF87EDB9
:10155000010A0B4A7B6893637868FFF705F8024637
:101560000B4643EC112B9FED040B064807F06CF97A
:1015700000BF0837BD4680BD0000004008AC8C3F6E
:10158000884100203800002080B582B000AF0C48B0
:1015900007F07AFA53EC102B10461946FFF71EFBA2
:1015A00003467B60D7ED017A9FED067AC7EE876A26
:1015B000F0EE667AB0EE670A0837BD4680BD00BF20
:1015C000380000204260653C80B400AF034B93F8C4
:1015D0003D301846BD465DF8047B704788410020C9
:1015E00080B500AF044807F0C6FA044B002283F828
:1015F0003D2000BF80BD00BF380000208841002092
:1016000080B500AF47210948FFF7EDFE31210748BB
:10161000FFF7F7FE00210548FFF7C4FE0348FFF778
:10162000B1FE0248FFF72CFF00BF80BD000800405C
:1016300080B500AF00210548FFF7C7FE0348FFF75C
:101640000FFF0248FFF78EFE00BF80BD000800407C
:1016500080B500AF0548FFF795FE0448FFF710FF7F
:10166000034B00221A8000BF80BD00BF000800406D
:101670008041002080B483B000AF786000BF0C3799
:10168000BD465DF8047B704780B500AF0E48FFF79C
:10169000D4FE0346002B15D00B48FFF7C0FE0B4BC2
:1016A0001B78002B02D0012B06D00BE00322052172
:1016B000074807F06DFA05E003220721044807F008
:1016C00067FA00BF00BF80BD00080040C84100208D
:1016D000380000200000000098B500AF2C48FFF74C
:1016E00021FE0346002B4DD02948FFF72EFE294846
:1016F00006F0B9FF284B1B78002B02D0012B1CD021
:101700003CE0244807F088FA51EC100B1EA3D3E903
:101710000023FEF781FF02460B46204909880C464C
:1017200010461946FFF75AFA02461D49A3000B441A
:101730001A60194B01221A7024E0164807F098FA33
:1017400051EC100B154B1B881C46FFF747FA02465D
:101750001449A3000B441A60104B1B8801339AB242
:101760000E4B1A800D4B1B88B3F5FA6F02D30B4B4F
:1017700000221A80084B00221A7003E0064B002258
:101780001A7000BF00BF98BDBBD6DEA7AAAA404012
:101790000064024038000020C84100208041002041
:1017A000402200200003002080B500AF064B03223A
:1017B0001A70064B012283F83D20054905480BF0BD
:1017C00097FB00BF80BD00BFDD02002088410020E4
:1017D00024E30008D041002080B500AF02F080FC77
:1017E00003F0B6FC08F0FAF9FFF7EEFBFFF758FE3E
:1017F000FFF706FF42F210700AF09CFB0AF0BCFBF8
:10180000FCE780B483B000AF786000BF0C37BD4602
:101810005DF8047B7047000080B400AFBFF34F8FCA
:1018200000BF064BDB6803F4E0620449044B13433A
:10183000CB60BFF34F8F00BF00BFFDE700ED00E0BE
:101840000400FA0580B586B000AFF860B9607A6030
:10185000B86808F0FDFE0346FB75FB7D012B04D83C
:101860002D49F86808F0F0FD52E0FB7D022B04D909
:101870002A49F86808F0E8FD4AE00121B86808F054
:10188000B1FE034618460BF0ECFB03469BB23B82CD
:101890000221B86808F0A6FE034618460BF0E1FBEB
:1018A00003469BB27B823B8AB3F5967F04D91C49E1
:1018B000F86808F0C9FD2BE07B8A322B04D918495F
:1018C000F86808F0C1FD23E0164B1B6800221A706F
:1018D0003B8A1B0A9AB2134B1B68D2B25A703A8ADF
:1018E000104B1B68D2B29A707B8A1B0A9AB20D4BBE
:1018F0001B68D2B2DA707A8A0A4B1B68D2B21A71AC
:10190000052002F08FFB0849F86808F09DFD00BF34
:101910001837BD4680BD00BFD8EF0008F0EF0008C3
:1019200008F00008E800002020F0000880B586B02C
:1019300000AFF860B9607A60B86808F089FE0346C5
:10194000FB75FB7D002B04D11D49F86808F07CFD78
:1019500032E0FB7D012B04D91A49F86808F074FDC8
:101960002AE00121B86808F03DFE034618460BF056
:1019700078FB0346BB82BB8AB3F5967F04D9124934
:10198000F86808F061FD17E0104B1B6801221A701F
:10199000BB8A1B0A9AB20D4B1B68D2B25A700B4B12
:1019A0001B68BA8AD2B29A70032002F03BFB084946
:1019B000F86808F049FD00BF1837BD4680BD00BF7C
:1019C000D8EF0008F0EF000808F00008E800002059
:1019D00020F0000880B586B000AFF860B9607A608A
:1019E000B86808F035FE0346FB75FB7D002B04D17B
:1019F0001C49F86808F028FD31E0FB7D012B04D973
:101A00001949F86808F020FD29E00121B86808F0BC
:101A1000E9FD034618460BF024FB0346BB82BB8A54
:101A2000322B04D91149F86808F00EFD17E0104B6D
:101A30001B6802221A70BB8A1B0A9AB20C4B1B68E5
:101A4000D2B25A700A4B1B68BA8AD2B29A7003207B
:101A500002F0E8FA0749F86808F0F6FC00BF18370A
:101A6000BD4680BDD8EF0008F0EF000808F0000880
:101A7000E800002020F0000880B586B000AFF860D4
:101A8000B9607A60B86808F0E3FD0346FB75FB7D3A
:101A9000012B04D82449F86808F0D6FC41E0FB7D0E
:101AA000022B04D92149F86808F0CEFC39E0012165
:101AB000B86808F097FD034618460BF0D2FA0346C3
:101AC000DBB23B750221B86808F08CFD034618466E
:101AD0000BF0C7FA0346DBB27B753B7D012B04D9C3
:101AE0001349F86808F0B0FC1BE07B7D012B04D99A
:101AF0000F49F86808F0A8FC13E00E4B1B6803229E
:101B00001A700C4B1B683A7D5A700A4B1B687A7D21
:101B10009A70032002F086FA0749F86808F094FCEE
:101B200000BF1837BD4680BDD8EF0008F0EF0008B1
:101B300008F00008E800002020F0000880B586B01A
:101B400000AFF860B9607A60B86808F081FD0346BC
:101B5000FB75FB7D012B04D82449F86808F074FC60
:101B600041E0FB7D022B04D92149F86808F06CFCA8
:101B700039E00121B86808F035FD034618460BF03E
:101B800070FA0346DBB23B750221B86808F02AFD03
:101B9000034618460BF065FA0346DBB27B753B7DC6
:101BA000012B04D91349F86808F04EFC1BE07B7D3B
:101BB000012B04D90F49F86808F046FC13E00E4BDE
:101BC0001B6804221A700C4B1B683A7D5A700A4B32
:101BD0001B687A7D9A70032002F024FA0749F8689E
:101BE00008F032FC00BF1837BD4680BDD8EF0008B2
:101BF000F0EF000808F00008E800002020F00008DE
:101C000080B586B000AFF860B9607A60B86808F057
:101C10001FFD0346FB75FB7D002B04D00D49F868C2
:101C200008F012FC13E00C4B1B6805221A700A4BDB
:101C30001B6800225A70084B1B6801229A7003200F
:101C400002F0F0F90549F86808F0FEFB00BF18370C
:101C5000BD4680BDF0EF0008E800002020F000083D
:101C600080B586B000AFF860B9607A60B86808F0F7
:101C7000EFFC0346FB75FB7D002B04D00D49F86893
:101C800008F0E2FB13E00C4B1B6805221A700A4BAC
:101C90001B6801225A70084B1B6800229A700320AF
:101CA00002F0C0F90549F86808F0CEFB00BF18370C
:101CB000BD4680BDF0EF0008E800002020F00008DD
:101CC00080B586B000AFF860B9607A60B86808F097
:101CD000BFFC03467B617B69002B04D00949F8688F
:101CE00008F0B2FB0BE0084B1B6807221A700120BA
:101CF00002F098F90549F86808F0A6FB00BF18370C
:101D0000BD4680BDF0EF0008E800002020F000088C
:101D100080B586B000AFF860B9607A60B86808F046
:101D200097FC03467B617B69002B04D00949F86866
:101D300008F08AFB0BE0084B1B6809221A7001208F
:101D400002F070F90549F86808F07EFB00BF18370B
:101D5000BD4680BDF0EF0008E800002020F000083C
:101D600080B586B000AFF860B9607A60B86808F0F6
:101D70006FFC03467B617B69002B04D00949F8683E
:101D800008F062FB0BE0084B1B6808221A70012068
:101D900002F048F90549F86808F056FB00BF18370B
:101DA000BD4680BDF0EF0008E800002020F00008EC
:101DB00080B586B000AFF860B9607A60B86808F0A6
:101DC00047FC03467B617B69002B04D00949F86816
:101DD00008F03AFB0BE0084B1B680A221A7001203E
:101DE00002F020F90549F86808F02EFB00BF18370B
:101DF000BD4680BDF0EF0008E800002020F000089C
:101E000080B586B000AFF860B9607A60B86808F055
:101E10001FFC03467B617B69002B04D00949F868ED
:101E200008F012FB0BE0084B1B6806221A70012019
:101E300002F0F8F80549F86808F006FB00BF18370B
:101E4000BD4680BDF0EF0008E800002020F000084B
:101E500080B586B000AFF860B9607A60B86808F005
:101E6000F7FB03467B617B69002B04D00949F868C6
:101E700008F0EAFA0BE0084B1B680B221A700120ED
:101E800002F0D0F80549F86808F0DEFA00BF18370C
:101E9000BD4680BDF0EF0008E800002020F00008FB
:101EA00080B586B000AFF860B9607A60B86808F0B5
:101EB000CFFB03467B617B69002B04D00949F8689E
:101EC00008F0C2FA0BE0084B1B6810221A700120C0
:101ED00002F0A8F80549F86808F0B6FA00BF18370C
:101EE000BD4680BDF0EF0008E800002020F00008AB
:101EF00080B596B000AFF860B9607A60334B1B785C
:101F0000002B04D03249F86808F09EFA5BE0B8680C
:101F100008F09EFB034687F8573097F85730012B9F
:101F200004D82C49F86808F08FFA4CE097F857303D
:101F3000022B04D92849F86808F086FA43E0012109
:101F4000B86808F04FFB034618460BF08AF80346C2
:101F5000DBB287F850300221B86808F043FB034633
:101F600018460BF07EF80346DBB287F8513097F83D
:101F70005030013B194AD35C87F8563097F85130FE
:101F8000013B164AD35C87F8553097F8552097F8EF
:101F900056301146184603F079F90346A7F8523037
:101FA000B7F8522007F110030D4918460BF018F945
:101FB00007F110031946F86808F046FA0949F8686D
:101FC00008F042FA00BF5837BD4680BDDD02002050
:101FD00030F00008D8EF0008F0EF0008DC00002027
:101FE00054F0000820F0000880B588B000AFF86019
:101FF000B9607A60B86808F02BFB0346FB77FB7F7B
:10200000012B04D83349F86808F01EFA5EE0FB7F24
:10201000022B04D93049F86808F016FA56E001217D
:10202000B86808F0DFFA034618460BF01AF80346C2
:10203000DBB23B750221B86808F0D4FA03461846B3
:102040000BF00FF80346DBB27B753B7D0B2B04D9FD
:102050002249F86808F0F8F938E07B7D092B04D9AB
:102060001E49F86808F0F0F930E03B7D0B2B07D1F2
:102070007B7D072B04D91949F86808F0E5F925E0BC
:102080003B7D002B07D17B7D002B04D11349F868E1
:1020900008F0DAF91AE03B7D07EE903AB8EE677A7D
:1020A0007B7D07EE903AF8EE677ADFED0D6A67EE1A
:1020B000A67A77EE277AC7ED067A97ED060AFFF73C
:1020C00043FA0849F86808F0BFF900BF2037BD4659
:1020D00080BD00BFD8EF0008F0EF000808F000084E
:1020E000CDCCCC3D20F0000880B596B000AFF860B4
:1020F000B9607A60B86808F0ABFA034687F85730E1
:1021000097F85730002B04D01449F86808F09CF970
:1021100020E0FFF739FAF0EE407A9FED117A67EE92
:10212000877AC7ED147AD7ED147AFDEEE77A07F1D6
:10213000100317EE902A0B4918460BF051F807F1DF
:1021400010031946F86808F07FF90749F86808F0A5
:102150007BF900BF5837BD4680BD00BFF0EF0008D7
:1021600000007A446CF0000820F0000880B586B0CA
:1021700000AFF860B9607A60B86808F069FA0346A1
:10218000FB75FB7D002B04D00E49F86808F05CF964
:1021900014E0FFF719FA0346BB75BB7D002B04D092
:1021A0000949F86808F050F903E00849F86808F0B0
:1021B0004BF90749F86808F047F900BF1837BD46E2
:1021C00080BD00BFF0EF000894F00008B8F00008F0
:1021D00020F0000880B586B000AFF860B9607A6082
:1021E000B86808F035FA0346FB75FB7D002B04D078
:1021F0000749F86808F028F906E0FFF7F1F9054902
:10220000F86808F021F900BF1837BD4680BD00BF4F
:10221000F0EF000820F0000880B5A6B000AFF8602D
:10222000B9607A60B86808F013FA0346C7F89430CA
:10223000D7F89430002B04DC3349F86808F004F92F
:102240005FE0D7F89430012B04DD3049F86808F0DE
:10225000FBF856E00121B86808F0C4F903461846B7
:102260000AF0FFFE034687F8933097F89330002B6F
:1022700003D097F893300A2B04D92549F86808F061
:10228000E3F83EE097F89320224B1B7802339A4202
:102290001FDD214B1B785A1C97F8933007F1100073
:1022A0001E490AF09DFF07F1100319461C480AF069
:1022B0001FFE194B1B781A4607F1100319491846DF
:1022C0000AF08EFF07F11003194615480AF010FEB8
:1022D00017E097F89330013BDAB20E4B1A700D4BB2
:1022E0001B78114A5B01134401221A70094B1B78B9
:1022F0000133DAB2084B1A700C49F86808F0A4F8F8
:1023000000BF9837BD4680BDD8EF0008F0EF000849
:1023100008F00008C9410020DC020020DCF00008C1
:10232000D041002010F100089C01002020F000089E
:1023300080B586B000AFF860B9607A60B86808F020
:1023400087F903467B617B69002B03D00D49F86850
:1023500008F07AF80C4B1B780C4A5B0113440022FE
:102360001A70094B1B785A1ED1B2074A1170084ADD
:1023700013700849F86808F067F800BF1837BD46C1
:1023800080BD00BF08F00008C94100209C0100206A
:10239000DC02002020F0000880B586B000AFF860B5
:1023A000B9607A60B86808F053F903467B617B69CD
:1023B000002B04D00D49F86808F046F813E00C4BE8
:1023C0001B780C4A5B01134400221A70084B1B78DF
:1023D000084A5B011344013301221A700649F86868
:1023E00008F032F800BF1837BD4680BD08F000087D
:1023F000C94100209C01002020F0000880B586B073
:1024000000AFF860B9607A60B86808F021F9034657
:102410007B617B69002B04DC1A49F86808F014F82A
:102420002CE07B69012B04DD1749F86808F00CF8F3
:1024300024E0164B1B78164A5B0113441B7883F08B
:102440000103DBB2002B18D10121B86808F0CAF8EB
:10245000034618460AF005FE0346FB740B4B1B7837
:10246000FA7C91B20A4A5B01134402330A461A808D
:102470000849F86807F0E8FF00E000BF1837BD46DC
:1024800080BD00BFD8EF0008F0EF0008C941002070
:102490009C01002020F0000880B586B000AFF860F5
:1024A000B9607A60B86808F0D3F803467B617B694D
:1024B000012B04DC2849F86807F0C6FF48E07B6977
:1024C000022B04DD2549F86807F0BEFF40E001213A
:1024D000B86808F087F8034618460AF0C2FD0346BC
:1024E000DBB23B740221B86808F07CF8034618465A
:1024F0000AF0B7FD0346DBB27B74194B1B78194A0F
:102500005B0113441B7883F00103DBB2002B1ED167
:102510003B7C013B124A12781046134AD15C114AA7
:102520004301134404330A461A707B7C013B0C4A76
:10253000127810460C4AD15C0A4A43011344053311
:102540000A461A700949F86807F07EFF00E000BFEC
:102550001837BD4680BD00BFD8EF0008F0EF000877
:10256000C94100209C010020DC00002020F0000870
:1025700080B58AB000AFF860B9607A60B86808F0DA
:1025800067F803467B627B6A032B04DC4049F868EA
:1025900007F05AFF79E07B6A042B04DD3D49F868B7
:1025A00007F052FF71E03C4B1B783C4A5B0113443F
:1025B0001B7883F00103DBB2002B65D10121B868E1
:1025C00008F010F8034618460AF04BFD03467B61FD
:1025D0000221B86808F006F8034618460AF041FDE3
:1025E0000346BB610321B86807F0FCFF03461846A9
:1025F0000AF037FD0346FB610421B86807F0F2FFDB
:10260000034618460AF02DFD03463B627B69142BF6
:1026100008DCBB69142B05DCFB69142B02DC3B6A6C
:10262000142B04DD1E49F86807F00EFF2DE07A69CF
:10263000194B1B78D1B2194A5B01134408330A467F
:102640001A70BA69144B1B78D1B2144A5B01134457
:1026500009330A461A70FA690F4B1B78D1B20F4A38
:102660005B01134414330A461A703A6A0A4B1B780A
:10267000D1B20A4A5B01134415330A461A7009495C
:10268000F86807F0E1FE00E000BF2837BD4680BDD6
:10269000D8EF0008F0EF0008C94100209C0100209D
:1026A00008F0000820F0000880B588B000AFF8609E
:1026B000B9607A60B86807F0CBFF0346FB61FB693D
:1026C000022B04DC2E49F86807F0BEFE54E0FB69DB
:1026D000032B04DD2B49F86807F0B6FE4CE02A4BCB
:1026E0001B782A4A5B0113441B7883F00103DBB299
:1026F000002B40D10121B86807F074FF034618464B
:102700000AF0AFFC03463B610221B86807F06AFF9C
:10271000034618460AF0A5FC03467B610321B8680E
:1027200007F060FF034618460AF09BFC0346BB61B6
:102730003A69154B1B7891B2144A5B0113440A3372
:102740000A461A807A69104B1B7891B20F4A5B01D6
:10275000134416330A461A80BA690B4B1B7891B2A0
:102760000A4A5B01134406330A461A800849F8688E
:1027700007F06AFE00E000BF2037BD4680BD00BF05
:10278000D8EF0008F0EF0008C94100209C010020AC
:1027900020F0000880B588B000AFF860B9607A60BA
:1027A000B86807F055FF0346FB61FB69012B04DCA9
:1027B0003049F86807F048FE58E0FB69022B04DD59
:1027C0002D49F86807F040FE50E02C4B1B782C4A4E
:1027D0005B0113441B7883F00103DBB2002B44D16F
:1027E0000121B86807F0FEFE034618460AF039FCDE
:1027F00003467B610221B86807F0F4FE03461846E1
:102800000AF02FFC0346BB617B69B3F57A7F02DCDB
:102810007B69002B04DC1B49F86807F015FE25E0F6
:10282000BB69B3F57A7F02DCBB69002B04DC154978
:10283000F86807F009FE19E07A69104B1B7891B22D
:102840000F4A5B0113440C330A461A80BA690B4BDA
:102850001B7891B20A4A5B0113440E330A461A8070
:102860000949F86807F0F0FD00E000BF2037BD46D9
:1028700080BD00BFD8EF0008F0EF0008C94100207C
:102880009C01002008F0000820F0000880B588B006
:1028900000AFF860B9607A60B86807F0D9FE034607
:1028A000FB61FB69012B04DC3049F86807F0CCFDC3
:1028B00058E0FB69022B04DD2D49F86807F0C4FDE0
:1028C00050E00121B86807F08DFE034618460AF073
:1028D000C8FB03467B610221B86807F083FE03460C
:1028E00018460AF0BEFB0346BB617B69B3F57A7FED
:1028F00002DC7B69002B04DC1E49F86807F0A4FDAC
:1029000030E0BB69B3F57A7F02DCBB69002B04DCE5
:102910001849F86807F098FD24E0174B1B78174A10
:102920005B0113441B7883F00103DBB2002B18D149
:102930007A69114B1B7891B2104A5B011344103332
:102940000A461A80BA690C4B1B7891B20B4A5B019C
:10295000134412330A461A800949F86807F074FDD7
:1029600000E000BF2037BD4680BD00BFD8EF0008A3
:10297000F0EF000808F00008C94100209C01002089
:1029800020F0000880B588B000AFF860B9607A60C8
:10299000B86807F05DFE0346FB61FB69012B04DCB0
:1029A0003049F86807F050FD58E0FB69022B04DD60
:1029B0002D49F86807F048FD50E00121B86807F09C
:1029C00011FE034618460AF04CFB03467B610221C8
:1029D000B86807F007FE034618460AF042FB0346B4
:1029E000BB617B69B3F57A7F02DC7B69002B04DC79
:1029F0001E49F86807F028FD30E0BB69B3F57A7F1F
:102A000002DCBB69002B04DC1849F86807F01CFDE8
:102A100024E0174B1B78174A5B0113441B7883F0A3
:102A20000103DBB2002B18D17A69114B1B7891B2EC
:102A3000104A5B01134418330A461A80BA690C4BDA
:102A40001B7891B20B4A5B0113441A330A461A8071
:102A50000949F86807F0F8FC00E000BF2037BD46E0
:102A600080BD00BFD8EF0008F0EF000808F00008B4
:102A7000C94100209C01002020F0000880B588B0EA
:102A800000AFF860B9607A60B86807F0E1FD03460E
:102A9000FB61FB69012B04DC3049F86807F0D4FCCA
:102AA00058E0FB69022B04DD2D49F86807F0CCFCE7
:102AB00050E00121B86807F095FD034618460AF07A
:102AC000D0FA03467B610221B86807F08BFD03460C
:102AD00018460AF0C6FA0346BB617B69B3F57A7FF4
:102AE00002DC7B69002B04DC1E49F86807F0ACFCB3
:102AF00030E0BB69B3F57A7F02DCBB69002B04DCF4
:102B00001849F86807F0A0FC24E0174B1B78174A17
:102B10005B0113441B7883F00103DBB2002B18D157
:102B20007A69114B1B7891B2104A5B0113441C3334
:102B30000A461A80BA690C4B1B7891B20B4A5B01AA
:102B400013441E330A461A800949F86807F07CFCD2
:102B500000E000BF2037BD4680BD00BFD8EF0008B1
:102B6000F0EF000808F00008C94100209C01002097
:102B700020F0000880B586B000AFF860B9607A60D8
:102B8000FEF722FD0346002B04D02649F86807F023
:102B90005BFC44E0244B1B78012B04D12349F868EB
:102BA00007F052FC3BE0B86807F052FD0346FB75A6
:102BB000FB7D002B04D11E49F86807F045FC2EE090
:102BC000FB7D012B04D91B49F86807F03DFC26E08A
:102BD000194B1B78194A5B01134401331B7883F0AE
:102BE0000103DBB2002B04D01549F86807F02CFC78
:102BF00015E00121B86807F0F5FC034618460AF015
:102C000030FA0346BB75BB7D012B07D10D4B01226A
:102C10001A700121012009F0E9F900E000BF18371E
:102C2000BD4680BD30F10008DE02002068F10008DA
:102C3000D8EF0008F0EF0008C94100209C010020F7
:102C400098F10008DD02002080B586B000AFF86082
:102C5000B9607A60B86807F0FBFC0346FB74FB7C44
:102C6000012B04D84849F86807F0EEFB88E0FB7CAC
:102C7000022B04D94549F86807F0E6FB80E0012102
:102C8000B86807F0AFFC034618460AF0EAF9786125
:102C90000221B86807F0A6FC03463D491846FDF737
:102CA00097FA0346002B06D17B694FF47A7202FB38
:102CB00003F37B6110E00221B86807F093FC034640
:102CC00034491846FDF784FA0346002B04D03249F4
:102CD000F86807F0B9FB53E0304B1B88B3F5C87FA9
:102CE0000BD17B692E4A934202DC7B69002B04DA0C
:102CF0002949F86807F0A8FB42E0284B1B88C82B3D
:102D00000BD17B69274A934202DC7B69002B04DAF2
:102D10002149F86807F098FB32E0204B1B88642BB0
:102D20000BD17B69204A934202DC7B69002B04DAD9
:102D30001949F86807F088FB22E01C4B1B680C223D
:102D40001A701A4B1B687A69D2B25A737B691A12CD
:102D5000164B1B68D2B29A737B691A14134B1B680B
:102D6000D2B2DA737B691A16104B1B68D2B21A748E
:102D7000112001F057F90E49F86807F065FB00BF14
:102D80001837BD4680BD00BFD8EF0008F0EF00083F
:102D9000BCF10008C0F1000808F00008E4000020C1
:102DA000801A0600400D0300A0860100E800002004
:102DB00020F0000880B586B000AFF860B9607A6096
:102DC000B86807F045FC0346FB75FB7D002B04D07B
:102DD0000949F86807F038FB0BE0084B1B680D2227
:102DE0001A70012001F01EF90549F86807F02CFB64
:102DF00000BF1837BD4680BD08F00008E80000207D
:102E000020F0000880B586B000AFF860B9607A6045
:102E1000B86807F01DFC0346FB75FB7D002B04D151
:102E20002149F86807F010FB3AE0FB7D012B04D93B
:102E30001E49F86807F008FB32E00121B86807F086
:102E4000D1FB034618460AF00CF90346002B14BFC9
:102E500001230023BB75BB7D002B0ED0144B1B68D8
:102E60000E221A70124B1B6801225A70022001F0C8
:102E7000D9F8104B01221A700DE00D4B1B680E2281
:102E80001A700B4B1B6800225A70022001F0CAF81E
:102E9000084B00221A700849F86807F0D5FA00BFFD
:102EA0001837BD4680BD00BFD8EF0008F0EF00081E
:102EB000E8000020DE02002020F0000880B586B087
:102EC00000AFF860B9607A60B86807F0C1FB0346EC
:102ED000FB75FB7D002B04D00E49F86807F0B4FAAF
:102EE00015E00D4B1B78012B04D10C49F86807F055
:102EF000ABFA07E0084B1B78002B03D10849F868B0
:102F000007F0A2FA0749F86807F09EFA00BF1837E1
:102F1000BD4680BD08F00008DE020020C4F10008B4
:102F2000E8F1000820F0000880B5A6B000AFF86016
:102F3000B9607A60B86807F08BFB0346C7F8903039
:102F4000D7F89030002B04D09349F86807F07CFA4A
:102F50001EE1002387F89730002387F8973010E1AF
:102F60008E49F86807F070FA97F897305A1C07F105
:102F700010038B4918460AF033F907F1100319467C
:102F8000F86807F061FA97F89730864A5B011344B6
:102F900004331B785A1C97F8973082495B010B4425
:102FA00005331B78013307F110007F490AF018F947
:102FB00007F110031946F86807F046FA97F89730BA
:102FC000784A5B01134408331B78194697F8973009
:102FD000744A5B01134409331B7807F110000A4659
:102FE00072490AF0FDF807F110031946F86807F076
:102FF0002BFA97F897306B4A5B01134414331B7814
:10300000194697F89730674A5B01134414331B78CD
:1030100007F110000A4666490AF0E2F807F11003CA
:103020001946F86807F010FA97F897305D4A5B0187
:1030300013440A331B881A4607F110035D491846EA
:103040000AF0CEF807F110031946F86807F0FCF90A
:1030500097F89730534A5B01134416331B881A467E
:1030600007F11003544918460AF0BAF807F11003A3
:103070001946F86807F0E8F997F89730494A5B0174
:10308000134406331B881A4607F110034B491846B0
:103090000AF0A6F807F110031946F86807F0D4F90A
:1030A00097F897303F4A5B0113440C331B8819464D
:1030B00097F897303B4A5B0113440E331B8807F1A6
:1030C00010000A463E490AF08BF807F11003194632
:1030D000F86807F0B9F997F89730324A5B01134462
:1030E00010331B88194697F897302E4A5B0113441A
:1030F00012331B8807F110000A4632490AF070F8B3
:1031000007F110031946F86807F09EF997F8973011
:10311000244A5B01134418331B88194697F89730EB
:10312000204A5B0113441A331B8807F110000A463A
:1031300025490AF055F807F110031946F86807F019
:1031400083F997F89730174A5B0113441C331B88A7
:10315000194697F89730134A5B0113441E331B88B6
:1031600007F110000A4619490AF03AF807F110036E
:103170001946F86807F068F997F89730013387F82F
:103180009730134B1B7897F897209A427FF6E8AE5A
:103190009837BD4680BD00BF08F0000808F200085F
:1031A00048F200089C01002068F2000894F2000830
:1031B000C8F20008FCF2000828F3000854F30008E5
:1031C00080F30008BCF30008F8F3000834F40008AA
:1031D000C941002080B596B000AFF860B9607A6050
:1031E000B86807F035FA03467B657B6D002B04D089
:1031F0000D49F86807F028F913E00C4B1B785A1CAE
:1032000007F114030A49184609F0EAFF07F114030D
:103210001946F86807F018F90649F86807F014F934
:1032200000BF5837BD4680BD08F00008C9410020E6
:1032300048F2000820F0000880B485B000AFF860C4
:10324000B9607A6000BF1437BD465DF8047B7047F3
:1032500080B485B000AFF860B9607A6000BF143701
:10326000BD465DF8047B704780B596B000AFF8604E
:10327000B9607A60B86807F0EBF903467B657B6D4F
:10328000002B04D01049F86807F0DEF818E00F4B67
:103290001B780F4A5B01134402331B881A4607F15F
:1032A00014030C49184609F09BFF07F11403194653
:1032B000F86807F0C9F80849F86807F0C5F800BFD2
:1032C0005837BD4680BD00BF08F00008C941002046
:1032D0009C01002070F4000820F0000880B596B032
:1032E00000AFF860B9607A60B86807F0B1F90346DA
:1032F0007B657B6D002B04D01349F86807F0A4F8B8
:103300001FE0124B1B78124A5B01134404331B78F5
:103310005A1C0E4B1B780E495B010B4405331B787E
:10332000013307F114000B4909F05AFF07F11403A8
:103330001946F86807F088F80749F86807F084F834
:1033400000BF5837BD4680BD08F00008C9410020C5
:103350009C01002068F2000820F0000880B596B0BB
:1033600000AFF860B9607A60B86807F071F9034699
:103370007B657B6D002B04D02149F86807F064F869
:103380003AE0204B1B78204A5B01134408331B783A
:1033900019461C4B1B781C4A5B01134409331B78EC
:1033A00007F114000A46194909F01AFF07F114033E
:1033B0001946F86807F048F8124B1B78124A5B016F
:1033C000134414331B7819460E4B1B780E4A5B01CD
:1033D000134414331B7807F114000A460C4909F012
:1033E000FFFE07F114031946F86807F02DF80949A4
:1033F000F86807F029F800BF5837BD4680BD00BF08
:1034000008F00008C94100209C01002094F2000847
:10341000C8F2000820F0000880B596B000AFF86050
:10342000B9607A60B86807F013F903467B657B6D75
:10343000002B04D02449F86807F006F840E0234B3D
:103440001B78234A5B0113440A331B881A4607F191
:1034500014032049184609F0C3FE07F11403194666
:10346000F86806F0F1FF194B1B78194A5B01134409
:1034700016331B881A4607F114031749184609F03A
:10348000AFFE07F114031946F86806F0DDFF0F4B95
:103490001B780F4A5B01134406331B881A4607F159
:1034A00014030E49184609F09BFE07F11403194650
:1034B000F86806F0C9FF0A49F86806F0C5FF00BFC2
:1034C0005837BD4680BD00BF08F00008C941002044
:1034D0009C010020FCF2000828F3000854F30008C7
:1034E00020F0000880B596B000AFF860B9607A604F
:1034F000B86807F0ADF803467B657B6D002B04D000
:103500002149F86806F0A0FF3AE0204B1B78204ADA
:103510005B0113440C331B8819461C4B1B781C4A57
:103520005B0113440E331B8807F114000A46194946
:1035300009F056FE07F114031946F86806F084FFF7
:10354000124B1B78124A5B01134410331B88194637
:103550000E4B1B780E4A5B01134412331B8807F194
:1035600014000A460C4909F03BFE07F11403194602
:10357000F86806F069FF0949F86806F065FF00BFC2
:103580005837BD4680BD00BF08F00008C941002083
:103590009C01002080F30008BCF3000820F0000824
:1035A00080B596B000AFF860B9607A60B86807F08F
:1035B0004FF803467B657B6D002B04D01349F868F8
:1035C00006F042FF1FE0124B1B78124A5B011344C6
:1035D0000C331B8819460E4B1B780E4A5B011344B3
:1035E0000E331B8807F114000A460B4909F0F8FD59
:1035F00007F114031946F86806F026FF0749F86832
:1036000006F022FF00BF5837BD4680BD08F0000815
:10361000C94100209C01002080F3000820F0000830
:1036200080B596B000AFF860B9607A60B86807F00E
:103630000FF803467B657B6D002B04D01349F868B7
:1036400006F002FF1FE0124B1B78124A5B01134485
:1036500010331B8819460E4B1B780E4A5B0113442E
:1036600012331B8807F114000A460B4909F0B8FD14
:1036700007F114031946F86806F0E6FE0749F868F2
:1036800006F0E2FE00BF5837BD4680BD08F00008D6
:10369000C94100209C010020BCF3000820F0000874
:1036A00080B596B000AFF860B9607A60B86806F08F
:1036B000CFFF03467B657B6D002B04D02149F86862
:1036C00006F0C2FE3AE0204B1B78204A5B0113440F
:1036D00018331B8819461C4B1B781C4A5B0113448A
:1036E0001A331B8807F114000A46194909F078FDBE
:1036F00007F114031946F86806F0A6FE124B1B7872
:10370000124A5B0113441C331B8819460E4B1B786D
:103710000E4A5B0113441E331B8807F114000A464E
:103720000C4909F05DFD07F114031946F86806F02D
:103730008BFE0949F86806F087FE00BF5837BD4682
:1037400080BD00BF08F00008C94100209C01002096
:10375000F8F3000834F4000820F0000880B596B0B3
:1037600000AFF860B9607A60B86806F071FF034690
:103770007B657B6D002B04D01349F86806F064FE6E
:103780001FE0124B1B78124A5B01134418331B884D
:1037900019460E4B1B780E4A5B0113441A331B88E3
:1037A00007F114000A460B4909F01AFD07F114034A
:1037B0001946094809F09CFB0849F86806F044FEE0
:1037C00000BF5837BD4680BD08F00008C941002041
:1037D0009C010020F8F30008D041002020F00008F0
:1037E00080B596B000AFF860B9607A60B86806F04E
:1037F0002FFF03467B657B6D002B04D01349F868CF
:1038000006F022FE1FE0124B1B78124A5B011344A4
:103810001C331B8819460E4B1B780E4A5B01134460
:103820001E331B8807F114000A460B4909F0D8FC27
:1038300007F114031946F86806F006FE0749F86810
:1038400006F002FE00BF5837BD4680BD08F00008F4
:10385000C94100209C01002034F4000820F0000839
:1038600080B586B000AFF860B9607A60B86806F0DD
:10387000EFFE03467B617B69002B04D00E49F8689C
:1038800006F0E2FD15E00D4B1B78002B04D00C492F
:10389000F86806F0D9FD07E0084B1B78002B03D130
:1038A0000849F86806F0D0FD0749F86806F0CCFD35
:1038B00000BF1837BD4680BD08F00008DD020020BB
:1038C00090F40008A8F4000820F0000880B5A6B025
:1038D00000AFF860B9607A60B86806F0B9FE0346D8
:1038E000C7F89430D7F89430002B04D09249F86888
:1038F00006F0AAFD1DE19149F86806F0A5FD904B80
:103900001B785A1C07F114038E49184609F068FC0D
:1039100007F114031946F86806F096FD884B1B78EA
:10392000894A5B01134404331B785A1C844B1B786F
:1039300085495B010B4405331B78013307F1140003
:10394000824909F04DFC07F114031946F86806F0A6
:103950007BFD7B4B1B787C4A5B01134408331B784F
:103960001946774B1B78784A5B01134409331B785F
:1039700007F114000A46764909F032FC07F11403F6
:103980001946F86806F060FD6D4B1B786E4A5B01C6
:10399000134414331B781946694B1B786A4A5B0140
:1039A000134414331B7807F114000A46694909F0DF
:1039B00017FC07F114031946F86806F045FD604B43
:1039C0001B78614A5B0113440A331B881A4607F1CE
:1039D00014036149184609F003FC07F11403194662
:1039E000F86806F031FD564B1B78574A5B011344CB
:1039F00016331B881A4607F114035849184609F074
:103A0000EFFB07F114031946F86806F01DFD4C4B57
:103A10001B784D4A5B01134406331B881A4607F195
:103A200014034F49184609F0DBFB07F1140319464C
:103A3000F86806F009FD424B1B78434A5B011344CA
:103A40000C331B8819463E4B1B783F4A5B011344DD
:103A50000E331B8807F114000A46424909F0C0FBE7
:103A600007F114031946F86806F0EEFC344B1B7896
:103A7000354A5B01134410331B881946304B1B78C1
:103A8000314A5B01134412331B8807F114000A46C4
:103A9000354909F0A5FB07F114031946F86806F04B
:103AA000D3FC274B1B78284A5B01134418331B882F
:103AB0001946234B1B78244A5B0113441A331B8895
:103AC00007F114000A46294909F08AFB07F114039B
:103AD0001946F86806F0B8FC194B1B781A4A5B01C6
:103AE00013441C331B881946154B1B78164A5B017F
:103AF00013441E331B8807F114000A461C4909F0C1
:103B00006FFB07F114031946F86806F09DFC194B8A
:103B10001B78002B04D01849F86806F095FC07E0E4
:103B2000144B1B78002B03D11449F86806F08CFC69
:103B300000BF9837BD4680BD08F0000808F20008B5
:103B4000C941002048F200089C01002068F20008EA
:103B500094F20008C8F20008FCF2000828F30008FC
:103B600054F3000880F30008BCF30008F8F30008E1
:103B700034F40008DD02002090F40008A8F40008E6
:103B800080B586B000AFF860B9607A60B86806F0BA
:103B90005FFD0346FB75FB7D002B04D00949F868E7
:103BA00006F052FC0BE0084B1B6811221A70012032
:103BB00000F038FA0549F86806F046FC00BF1837EF
:103BC000BD4680BD08F00008E800002020F0000895
:103BD00080B586B000AFF860B9607A60B86806F06A
:103BE00037FD0346FB75FB7D002B04D00949F868BF
:103BF00006F02AFC0BE0084B1B6812221A70012009
:103C000000F010FA0549F86806F01EFC00BF1837EE
:103C1000BD4680BD08F00008E800002020F0000844
:103C200080B586B000AFF860B9607A60B86806F019
:103C30000FFD0346FB75FB7D002B04D00949F86896
:103C400006F002FC0BE0084B1B6813221A700120DF
:103C500000F0E8F90549F86806F0F6FB00BF1837F0
:103C6000BD4680BD08F00008E800002020F00008F4
:103C700080B586B000AFF860B9607A60B86806F0C9
:103C8000E7FC0346FB75FB7D002B04D00949F8686F
:103C900006F0DAFB0BE0084B1B6814221A700120B7
:103CA00000F0C0F90549F86806F0CEFB00BF1837F0
:103CB000BD4680BD08F00008E800002020F00008A4
:103CC00080B586B000AFF860B9607A60B86806F079
:103CD000BFFC0346FB75FB7D002B04D00949F86847
:103CE00006F0B2FB0BE0084B1B6815221A7001208E
:103CF00000F098F90549F86806F0A6FB00BF1837F0
:103D0000BD4680BD08F00008E800002020F0000853
:103D100080B586B000AFF860B9607A60B86806F028
:103D200097FC0346FB75FB7D002B04D00949F8681E
:103D300006F08AFB0BE0084B1B6816221A70012064
:103D400000F070F90549F86806F07EFB00BF1837EF
:103D5000BD4680BD08F00008E800002020F0000803
:103D600080B586B000AFF860B9607A60B86806F0D8
:103D70006FFC0346FB75FB7D002B04D00949F868F6
:103D800006F062FB0BE0084B1B6817221A7001203B
:103D900000F048F90549F86806F056FB00BF1837EF
:103DA000BD4680BD08F00008E800002020F00008B3
:103DB00080B586B000AFF860B9607A60B86806F088
:103DC00047FC0346FB75FB7D002B04D00949F868CE
:103DD00006F03AFB0BE0084B1B6818221A70012012
:103DE00000F020F90549F86806F02EFB00BF1837EF
:103DF000BD4680BD08F00008E800002020F0000863
:103E000080B586B000AFF860B9607A60B86806F037
:103E10001FFC0346FB75FB7D002B04D12149F8688C
:103E200006F012FB3AE0FB7D012B04D91E49F8682D
:103E300006F00AFB32E00121B86806F0D3FB034626
:103E4000184609F00EF938613B69642B0BD03B69C9
:103E5000C82B08D03B69B3F5C87F04D01349F86874
:103E600006F0F2FA1AE0124B1B6819221A703B692D
:103E7000104A82FB03125211DB17D21A0C4B1B683B
:103E8000D2B25A70022000F0CDF83B699AB20A4BC8
:103E90001A800A49F86806F0D7FA00BF1837BD46FD
:103EA00080BD00BFD8EF0008F0EF000808F0000860
:103EB000E80000201F85EB51E400002020F00008FE
:103EC00080B586B000AFF860B9607A60B86806F077
:103ED000BFFB0346FB75FB7D002B04D00949F86846
:103EE00006F0B2FA0BE0084B1B681A221A70012088
:103EF00000F098F80549F86806F0A6FA00BF1837F0
:103F0000BD4680BD08F00008E800002020F0000851
:103F100080B586B000AFF860B9607A60B86806F026
:103F200097FB0346FB75FB7D002B04D00949F8681D
:103F300006F08AFA0BE0084B1B681B221A7001205E
:103F400000F070F80549F86806F07EFA00BF1837EF
:103F5000BD4680BD08F00008E800002020F0000801
:103F600080B586B000AFF860B9607A60B86806F0D6
:103F70006FFB0346FB75FB7D002B04D00949F868F5
:103F800006F062FA0BE0084B1B681C221A70012035
:103F900000F048F80549F86806F056FA00BF1837EF
:103FA000BD4680BD08F00008E800002020F00008B1
:103FB00080B588B000AFF860B9607A6007F114038B
:103FC000074A0A21184609F0D5F807F114031946E3
:103FD000F86806F039FA00BF2037BD4680BD00BF43
:103FE000C4F4000880B584B000AFF860B9607A60AE
:103FF000FDF712FC80B485B000AFF860B9607A605C
:1040000000BF1437BD465DF8047B704780B485B0AF
:1040100000AFF860B9607A6000BF1437BD465DF844
:10402000047B704780B58AB000AF0346FB711F4B1D
:10403000CA221A701E4B1A781C4B5A701B4B012255
:104040009A701A4AFB79D370184B07221A71174BD2
:10405000EF2283F80021154BDB780433DBB21A46DC
:104060001449002007F07AFC03461A460F4BA3F8C8
:10407000FE2007F10C0300221A605A609A60DA6091
:104080001A615A611A7607F10B0207F10C031946FF
:10409000064807F0AFFCFA7A07F10C031946064808
:1040A00008F03EFF00BF2837BD4680BDAC4F002062
:1040B00024BB0020AD4F0020404E002080B400AF54
:1040C000024B1846BD465DF8047B704780FA000835
:1040D00080B400AF44231846BD465DF8047B7047AA
:1040E00080B584B004AF4FF4007303934FF40073B2
:1040F00002930E4B01930E4B009327230D4A0E495A
:104100000E4808F07CFE4FF400620D490B4805F0A4
:10411000B1FF03460B4A13600B49084808F0E8FE5C
:104120000A4B064A1A6000BFBD4680BD3C440020D1
:104130003C42002000480040CCF40008D041002060
:104140003C4600203C4E0020D8F40008CC41002022
:1041500080B584B000AF78600BE00D4808F094FEA5
:104160000346FB730B4B1B68FA7B1146184606F09F
:10417000B7F8074808F0F2FE0346002BEDD1054BD7
:104180001B68184606F0CFF800BF1037BD4680BD4B
:10419000D04100203C4E002080B5ADF5347D02AF0B
:1041A000A44B1B681B781C2B00F2F48601A252F86A
:1041B00023F000BF994F0008994F0008994F00085D
:1041C000994F0008994F0008954F000829420008B0
:1041D000D14200087B43000827430008CF43000872
:1041E00057450008954F0008414F0008954F0008BB
:1041F000854F000801450008D345000831470008F5
:104200005D4800088F4A0008FB4A0008854B0008FB
:10421000F14B00080B4D0008954F0008254E000893
:10422000914E0008E94E0008824B1B685B78012B19
:1042300004D18149814808F05BFE1CE07D4B1B687E
:104240009B78012B04D17E497C4808F051FE12E096
:10425000784B1B68DB78012B04D17A49774808F04A
:1042600047FE08E0734B1B681B79012B03D176498D
:10427000724808F03DFE6F4B1B685B79012B05D13E
:1042800072496E4808F034FE00F088BE694B1B6826
:104290009B79012B05D16E49684808F029FE00F092
:1042A0007DBE644B1B68DB79012B05D169496348EE
:1042B00008F01EFE00F072BE5E4B1B681B7A012BDD
:1042C00040F06C8664495D4808F012FE00F066BE5E
:1042D000584B1B685B781BB21B021AB2554B1B680C
:1042E0009B781BB213431BB2A7F80432514B1B68D7
:1042F000DB781BB21B021AB24E4B1B681B791BB238
:1043000013431BB2A7F80232B7F80422B7F80232FF
:10431000381D524908F064FF3B1D1946474808F014
:10432000E7FD00F046BE434B1B685B78012B04D1D0
:104330004349424808F0DCFD08E03E4B1B685B78CF
:10434000002B03D146493D4808F0D2FD394B1B688C
:104350009B78012B05D13E49384808F0C9FD00F093
:104360001FBE344B1B689B78002B40F019863D49DB
:10437000324808F0BDFD00F013BE2E4B1B685B7881
:10438000012B04D12F492D4808F0B2FD08E0294B3C
:104390001B685B78002B03D13349284808F0A8FD3F
:1043A000244B1B689B78012B05D12A49234808F030
:1043B0009FFD00F0F7BD1F4B1B689B78002B40F062
:1043C000F1852A491D4808F093FD00F0EBBD194B1B
:1043D0001B685B781BB21B021AB2164B1B689B78DA
:1043E0001BB213431BB2A7F80832124B1B68DB78D1
:1043F0001BB21B021AB20F4B1B681B791BB2134373
:104400001BB2A7F80632B7F80822B7F80632381DF3
:10441000174908F0E5FE3B1D1946084808F068FDFD
:10442000044B1B685B79012B24D10549034808F034
:104430005FFD28E0EC000020F0F40008D0410020EF
:1044400004F500081CF5000838F5000854F50008CC
:1044500068F5000880F500089CF50008B8F500082C
:10446000ECF5000808F6000824F6000844F60008F9
:1044700064F600089E4B1B685B79002B03D19D49B5
:104480009D4808F035FD9A4B1B689B79012B04D1A0
:104490009A49994808F02CFD08E0954B1B689B79D8
:1044A000002B03D19649944808F022FD904B1B68DD
:1044B000DB79012B04D193498F4808F019FD08E0FE
:1044C0008B4B1B68DB79002B03D18F498A4808F09E
:1044D0000FFD874B1B681B7A012B05D18B49864842
:1044E00008F006FD00F060BD814B1B681B7A002BB5
:1044F00040F05A858649804808F0FAFC00F054BD27
:104500007B4B1B685B781BB21B021AB2784B1B6893
:104510009B781BB213431BB2A7F81232744B1B6873
:10452000DB781BB21B021AB2714B1B681B791BB2E2
:1045300013431BB2A7F81032B7F81222B7F81032A3
:10454000381D744908F04CFE3B1D19466A4808F0B6
:10455000CFFC00F02EBD664B1B685B78002B14BFB0
:104560000123002387F80B32614B1B689B78002BDB
:1045700014BF0123002387F80A3297F80B32002B6F
:1045800004D065495C4808F0B3FC0AE097F80B32A8
:1045900083F00103DBB2002B03D06049564808F0DA
:1045A000A7FC97F80A32002B05D05D49524808F065
:1045B0009FFC00F0FBBC97F80A3283F00103DBB2EA
:1045C000002B00F0F38457494B4808F091FC00F0B1
:1045D000EDBC474B1B685B781A46454B1B689B78C4
:1045E0001B021A43424B1B68DB781B041A43404BE7
:1045F0001B681B791B061343C7F828323C4B1B680A
:104600005B791A463A4B1B689B791B021A43384B5D
:104610001B68DB791B041A43354B1B681B7A1B068E
:104620001343C7F82432324B1B685B7A1A46304B6F
:104630001B689B7A1B021A432D4B1B68DB7A1B04F9
:104640001A432B4B1B681B7B1B061343C7F82032F6
:10465000D7F8283207EE903AB8EEE77ADFED326A03
:10466000C7EE267AC7ED877AD7F8243207EE903A5C
:10467000B8EEE77ADFED2C6AC7EE267AC7ED867AC8
:10468000D7F8203207EE903AB8EEE77ADFED266AE7
:10469000C7EE267AC7ED857A07F5F873022118462A
:1046A00097ED870A00F098FC07F5F0730221184691
:1046B00097ED860A00F090FC07F5E8730221184692
:1046C00097ED850A00F088FC07F5F07107F5F872A0
:1046D000381D07F5E87300930B46144908F080FD78
:1046E0003B1D1946044808F003FC00F062BC00BF03
:1046F000EC000020ECF50008D041002068F500082F
:1047000008F600081CF5000824F6000880F50008EB
:1047100044F6000898F60008B8F60008E4F6000829
:1047200014F7000840F7000800007A4470F700080A
:10473000464B1B685B7B1A46444B1B689B7B1B02EA
:104740001A43424B1B68DB7B1B041A433F4B1B681D
:104750001B7C1B061343C7F840323C4B1B685B7C39
:104760001A463A4B1B689B7C1B021A43374B1B684B
:10477000DB7C1B041A43354B1B681B7D1B06134354
:10478000C7F83C32314B1B685B7D1A462F4B1B68C8
:104790009B7D1B021A432D4B1B68DB7D1B041A43B8
:1047A0002A4B1B681B7E1B061343C7F83832D7F809
:1047B000403207EE903AB8EEE77ADFED256AC7EEB1
:1047C000267AC7ED8D7AD7F83C3207EE903AB8EEEC
:1047D000E77ADFED1F6AC7EE267AC7ED8C7AD7F845
:1047E000383207EE903AB8EEE77ADFED196AC7EE95
:1047F000267AC7ED8B7A07F5E0730221184697ED0C
:104800008D0A00F0E9FB07F5D8730221184697EDF1
:104810008C0A00F0E1FB07F5D0730221184697EDF2
:104820008B0A00F0D9FB07F5D87107F5E072381D47
:1048300007F5D07300930B46064908F0D1FC3B1DE9
:104840001946054808F054FBB3E300BFEC00002014
:1048500000007A44A4F70008D0410020C24B1B6836
:104860005B781A46C04B1B689B781B021A43BE4BF1
:104870001B68DB781B041A43BB4B1B681B791B06A8
:104880001343C7F87032B84B1B685B791A46B64BB6
:104890001B689B791B021A43B34B1B68DB791B0413
:1048A0001A43B14B1B681B7A1B061343C7F86C32C3
:1048B000AD4B1B685B7A1A46AB4B1B689B7A1B029D
:1048C0001A43A94B1B68DB7A1B041A43A64B1B68CF
:1048D0001B7B1B061343C7F86832A34B1B685B7B2B
:1048E0001A46A14B1B689B7B1B021A439E4B1B68FD
:1048F000DB7B1B041A439C4B1B681B7C1B0613436E
:10490000C7F86432984B1B685B7C1A46964B1B6851
:104910009B7C1B021A43944B1B68DB7C1B041A43D1
:10492000914B1B681B7D1B061343C7F860328E4BEF
:104930001B685B7D1A468C4B1B689B7D1B021A43D0
:10494000894B1B68DB7D1B041A43874B1B681B7E4E
:104950001B061343C7F85C32D7F8703207EE903A63
:10496000B8EEE77ADFED816AC7EE267AC7ED967A70
:10497000D7F86C3207EE903AB8EEE77ADFED7B6A53
:10498000C7EE267AC7ED957AD7F8683207EE903AE7
:10499000B8EEE77ADFED756AC7EE267AC7ED947A4E
:1049A000D7F8643207EE903AB8EEE77ADFED6F6A37
:1049B000C7EE267AC7ED937AD7F8603207EE903AC1
:1049C000B8EEE77ADFED696AC7EE267AC7ED927A2C
:1049D000D7F85C3207EE903AB8EEE77ADFED636A1B
:1049E000C7EE267AC7ED917A07F5C87302211846FB
:1049F00097ED960A00F0F0FA07F5C0730221184609
:104A000097ED950A00F0E8FA07F5B8730221184609
:104A100097ED940A00F0E0FA07F5C07107F5C87247
:104A2000381D07F5B87300930B46514908F0D8FBC1
:104A30003B1D19464F4808F05BFA07F5B073022199
:104A4000184697ED930A00F0C7FA07F5A8730221FC
:104A5000184697ED920A00F0BFFA07F5A0730221FD
:104A6000184697ED910A00F0B7FA07F5A87107F517
:104A7000B072381D07F5A07300930B463E4908F04D
:104A8000AFFB3B1D19463B4808F032FA91E2364B2A
:104A90001B685B781A46344B1B689B781B021A43D1
:104AA000314B1B68DB781B041A432F4B1B681B79A7
:104AB0001B061343C7F87832D7F8783207EE903ADE
:104AC000B8EEE77ADFED296AC7EE267AC7ED9D7A60
:104AD00007F598730221184697ED9D0A00F07CFABD
:104AE00007F598723B1D2549184608F079FB3B1DD8
:104AF0001946204808F0FCF95BE21B4B1B685B7908
:104B00001A46194B1B689B791B021A43164B1B68EC
:104B1000DB791B041A43144B1B681B7A1B061343D7
:104B2000C7F88032D7F8803207EE903AB8EEE77ACD
:104B3000DFED0E6AC7EE267AC7ED9F7A07F5907310
:104B40000221184697ED9F0A00F046FA07F5907289
:104B50003B1D0B49184608F043FB3B1D1946054811
:104B600008F0C6F925E200BFEC00002000007A44FE
:104B700070F70008D0410020A4F70008D8F700081B
:104B8000F0F70008B84B1B685B7A1A46B64B1B68F7
:104B90009B7A1B021A43B44B1B68DB7A1B041A4333
:104BA000B14B1B681B7B1B061343C7F88832D7F831
:104BB000883207EE903AB8EEE77ADFEDAC6AC7EEDE
:104BC000267AC7EDA17A07F588730221184697ED7A
:104BD000A10A00F001FA07F588723B1DA4491846A6
:104BE00008F0FEFA3B1D1946A24808F081F9E0E101
:104BF0009D4B1B685B781A469B4B1B689B781B027E
:104C00001A43994B1B68DB781B041A43964B1B68AD
:104C10001B791B061343C7F8A032934B1B685B79C3
:104C20001A46914B1B689B791B021A438E4B1B68DB
:104C3000DB791B041A438C4B1B681B7A1B0613433E
:104C4000C7F89C32884B1B685B7A1A46864B1B68F8
:104C50009B7A1B021A43844B1B68DB7A1B041A43A2
:104C6000814B1B681B7B1B061343C7F89832D7F890
:104C7000A03207EE903AB8EEE77ADFED7C6AC7EE35
:104C8000267AC7EDA57AD7F89C3207EE903AB8EEAF
:104C9000E77ADFED766AC7EE267AC7EDA47AD7F811
:104CA000983207EE903AB8EEE77ADFED706AC7EE19
:104CB000267AC7EDA37A07F580730221184697ED8F
:104CC000A50A00F089F907F1F0030221184697EDD3
:104CD000A40A00F081F907F1E0030221184697EDDC
:104CE000A30A00F079F907F1F00107F58072381D89
:104CF00007F1E00300930B465F4908F071FA3B1D92
:104D000019465C4808F0F4F853E1574B1B685B7890
:104D10001A46554B1B689B781B021A43524B1B6863
:104D2000DB781B041A43504B1B681B791B0613438B
:104D3000C7F8B8324C4B1B685B791A464A4B1B6864
:104D40009B791B021A43484B1B68DB791B041A43EF
:104D5000454B1B681B7A1B061343C7F8B432424B02
:104D60001B685B7A1A46404B1B689B7A1B021A43EE
:104D70003D4B1B68DB7A1B041A433B4B1B681B7BB8
:104D80001B061343C7F8B032D7F8B83207EE903A93
:104D9000B8EEE77ADFED396AC7EE267AC7EDAB7A6F
:104DA000D7F8B43207EE903AB8EEE77ADFED336A1F
:104DB000C7EE267AC7EDAA7AD7F8B03207EE903A56
:104DC000B8EEE77ADFED2D6AC7EE267AC7EDA97A4D
:104DD00007F1D0030221184697EDAB0A00F0FCF86A
:104DE00007F1C0030221184697EDAA0A00F0F4F873
:104DF00007F1B0030221184697EDA90A00F0ECF87C
:104E000007F1C00107F1D002381D07F1B00300938C
:104E10000B461B4908F0E4F93B1D1946154808F0FC
:104E200067F8C6E0104B1B685B7887F8BF3297F8CD
:104E3000BF32012B04D113490E4808F059F8B7E0EE
:104E400097F8BF32022B04D10F490A4808F050F8F6
:104E5000AEE097F8BF32042B40F0AA800B4905481A
:104E600008F046F8A4E000BFEC00002000007A44FF
:104E700008F80008D04100201CF8000800247449FC
:104E800058F8000884F80008A4F80008C4F80008DE
:104E90004A4B1B685B781BB21B021AB2474B1B685C
:104EA0009B781BB213431BB29BB207EE903AB8EE4D
:104EB000E77ADFED436AC7EE267AC7EDB07A07F1ED
:104EC000A0030221184697EDB00A00F085F807F11B
:104ED000A0023B1D3B49184608F082F93B1D1946CC
:104EE000394808F005F864E0344B1B685B781BB266
:104EF0001B021AB2314B1B689B781BB213431BB2C7
:104F00009BB207EE903AB8EEE77ADFED2D6AC7EE76
:104F1000267AC7EDB17A07F190030221184697ED82
:104F2000B10A00F059F807F190023B1D27491846D5
:104F300008F056F93B1D1946234807F0D9FF38E021
:104F40001E4B1B685B7B1A461C4B1B689B7B1B0222
:104F50001A431A4B1B68DB7B1B041A43174B1B6855
:104F60001B7C1B061343C7F80C323B1DD7F80C22E1
:104F70001749184608F034F93B1D1946124807F046
:104F8000B7FF16E0134B01221A700121012007F030
:104F90002DF80EE000230CE000BF0AE000BF08E09F
:104FA00000BF06E000BF04E000BF02E000BF00E079
:104FB00000BF184607F53277BD4680BDEC000020E3
:104FC0000000C842E4F80008D041002000F90008C1
:104FD0001CF90008DD02002080B58EB000AF87ED1F
:104FE000030AB8600B46FB71D7ED037AF5EEC07A81
:104FF000F1EE10FA0AD5BB685A1CBA602D221A705D
:10500000D7ED037AF1EE677AC7ED037AFB7907EE05
:10501000903AF8EE677AF0EE670AB2EE040A08F00A
:105020009FFDB0EE407AF6EE006AC6EE877A97ED05
:10503000037A77EE277AC7ED037AD7ED037AFCEE91
:10504000E77A17EE903A7B637B6B07EE903AF8EEC7
:10505000677A97ED037A77EE677AC7ED0C7A0023CB
:10506000FB627B6B002B22D1FB6A5A1CFA6238333D
:105070003B44302203F8242C1CE0796B334BA3FB18
:105080000123DA0813469B0013445B00CA1AD2B20C
:10509000FB6A591CF9623032D2B238333B4403F810
:1050A000242C7B6B294AA2FB0323DB087B637B6BED
:1050B000002BE2D1FB6A013BBB620BE0BB685A1CD0
:1050C000BA6007F11401BA6A0A4412781A70BB6A0E
:1050D000013BBB62BB6A002BF0DAFB79002B2DD0C1
:1050E000BB685A1CBA602E221A7024E0D7ED0C7AE5
:1050F000B2EE047A67EE877AC7ED0C7AD7ED0C7AB8
:10510000FCEEE77A17EE903A7B627B6ADAB2BB6814
:10511000591CB9603032D2B21A707B6A07EE903AED
:10512000F8EE677A97ED0C7A77EE677AC7ED0C7A2E
:10513000FB79013BFB71FB79002BD7D1BB680022C7
:105140001A7000BF3837BD4680BD00BFCDCCCCCC77
:1051500080B584B004AF8023039380230293124B65
:105160000193124B00933423114A1249124807F05D
:1051700046FE124B124A5A60104B80221A800F4B87
:1051800000221A810D4B1B88002B06D00B4B5B684D
:1051900004220021184608F05FF8022006F01AFCED
:1051A00000BFBD4680BD00BF2C4F0020AC4E00208C
:1051B000004C004038F90008404E0020B451002057
:1051C000C051002080B584B000AF78600023FB732D
:1051D0003223FB7347E02A4807F056FE0346DAB253
:1051E000284B9A72274B9B7ADBB2CA2B03D1254BF3
:1051F00000221A8134E0234B9B7ADBB2EF2B14D1CF
:10520000204B5B681F4A128992B2D1B21E4A1846DF
:1052100006F026FD0346BB73BB7B012B01D1FEF7D5
:10522000BBFF184B00221A811AE0164B5B68154A27
:10523000128992B21344134A927AD2B21A70114B65
:105240001B899BB201339AB20E4B1A810D4B1B89FD
:105250009AB20C4B1B889A4202D90A4B00221A813F
:10526000FB7B013BFB73064807F078FE0346002BEF
:1052700002D0FB7B002BAED100BF1037BD4680BDF6
:10528000404E0020B4510020B050002080B584B0C2
:1052900000AF03460A46FB711346BB71BA79FB792E
:1052A0001146184603F0CEFE04F0A2FD322003F0B2
:1052B00077F900F04DF90346FB8104F00BF804F098
:1052C000A9FDFB8918461037BD4680BD80B596B054
:1052D00000AF78608E4B1B78042B00F2138101A283
:1052E00052F823F0F9520008295400081553000819
:1052F0008B5300084554000803F0ECFF04F08AFDCE
:10530000844B00221A70844B00221A80042006F07D
:10531000B3FEF8E0814B1B6801221A707D4B1B78AD
:105320001A467F4B33F812301B0A9AB27B4B1B682C
:10533000D2B25A70774B1B781A46794B33F8122049
:10534000764B1B68D2B29A70032000F0A1F9734B20
:105350001B6803221A70714B1B6801225A706F4B35
:105360001B6800229A70032000F092F96D4B42F204
:1053700010721A60664B03221A70684B1B68102269
:105380001A70012000F084F9BDE0664B1B68002B09
:1053900040F0BA80634B4FF47A721A605D4B1B7811
:1053A0001A465F4B33F8123007EE903AF8EEE77A80
:1053B0009FED5D7A67EE877AC7ED147A554B1B78BF
:1053C0001A46574B33F8123007EE903AF8EEE77A68
:1053D0009FED567A67EE877AC7ED137A544B1B8898
:1053E00007EE903AF8EEE77A97ED147AB4EEE77AA2
:1053F000F1EE10FA0CDC4E4B1B8807EE903AF8EEFB
:10540000E77A97ED137AB4EEE77AF1EE10FA07D562
:10541000424B1B6810221A70012000F039F972E02B
:105420003B4B01221A706EE0424B1B78414A527886
:105430001146184603F006FE04F0DAFC344B042251
:105440001A7060E000F084F80346A7F85630324B3B
:105450001B881A46384B33F81230B7F856209A4258
:1054600013D92C4B1B78032B0FD82A4B1B780133F5
:10547000DAB2284B1A70284B1B8801339AB2264B9C
:105480001A80234B02221A703FE0224B1B78032B19
:105490000ED9294B1B89B7F856209A4208D9B7F87C
:1054A000562007F10C032549184607F099FE07E03E
:1054B000B7F8562007F10C032149184607F090FE73
:1054C00007F10C0319461F4807F012FD134B1B6828
:1054D00004221A70114B1B6801225A700F4B1B6873
:1054E00000229A70032000F0D3F8094B00221A70B2
:1054F000154B00221A70074B00221A70064B00222F
:105500001A8002E000BF00E000BF5837BD4680BDF2
:10551000415200204652002048520020E80000205E
:10552000F4000020F00000206666663FCDCC8C3F82
:1055300042520020445200200001002044F900089B
:1055400070F90008D0410020405200200000000007
:1055500090B597B000AF07F1280328220021184624
:1055600007F07AFE3B4628220021184607F074FE19
:105570004FF000037B650023A7F85030002387F825
:10558000533042E0404803F0CFFA53EC102B97F829
:10559000534010461946FBF721FB0246A30058333F
:1055A0003B44303B1A60384803F096FA51EC100B3C
:1055B00033A3D3E90023FBF72FF802460B4697F8F5
:1055C000534010461946FBF709FB0246A300583327
:1055D0003B44583B1A6097F853309B0058333B4488
:1055E000303BD3ED007AF5EEC07AF1EE10FA07D831
:1055F00097F853309B0058333B44303B234A1A60A2
:1056000097F85330013387F8533097F85330092B0C
:10561000B8D9002387F852301CE097F852309B002D
:1056200058333B44583BD3ED006A97F852309B0007
:1056300058333B44303B93ED007AC6EE877A97EDC2
:10564000157A77EE277AC7ED157A97F8523001333D
:1056500087F8523097F85230092BDED997ED157A3A
:10566000F2EE046AC7EE267AFCEEE77A17EE903A7D
:10567000A7F85030B7F8503018465C37BD4690BD9B
:105680002682A3AAAAAA4040380000206F12833ABB
:1056900080B58AB000AF0346FB711F4BCA221A7057
:1056A0001E4B1A781C4B5A701B4B01229A701A4AD7
:1056B000FB79D370184B07221A71174BEF2283F82E
:1056C0000021154BDB780433DBB21A461449002065
:1056D00006F044F903461A460F4BA3F8FE2007F1E3
:1056E0000C0300221A605A609A60DA601A615A61EB
:1056F0001A7607F10B0207F10C031946064806F06B
:1057000079F9FA7A07F10C031946064807F008FC04
:1057100000BF2837BD4680BDAC4F002024BB002011
:10572000AD4F0020404E002080B485B000AF7860BF
:105730007B6803F00703FB600C4BDB68BB60BA6857
:105740004FF6FF031340BB60FB681A02BB681343AC
:1057500043F0BF6343F40033BB60044ABB68D360CB
:1057600000BF1437BD465DF8047B704700ED00E0D4
:1057700080B400AF044BDB681B0A03F00703184634
:10578000BD465DF8047B704700ED00E080B483B057
:1057900000AF0346FB7197F90730002B0BDBFB7959
:1057A00003F01F02074997F907305B09012000FA4F
:1057B00002F241F8232000BF0C37BD465DF8047BA0
:1057C000704700BF00E100E080B483B000AF034643
:1057D0003960FB7197F90730002B0ADB3B68DAB2BE
:1057E0000C4997F907301201D2B20B4483F8002319
:1057F0000AE03B68DAB20849FB7903F00F03043B87
:105800001201D2B20B441A7600BF0C37BD465DF8C8
:10581000047B704700E100E000ED00E080B489B057
:1058200000AFF860B9607A60FB6803F00703FB61C2
:10583000FB69C3F10703042B28BF0423BB61FB6989
:105840000433062B02D9FB69033B00E000237B6194
:105850004FF0FF32BB6902FA03F3DA43BB681A4028
:105860007B699A404FF0FF317B6901FA03F3D9431A
:105870007B680B40134318462437BD465DF8047B14
:105880007047000080B485B000AFF860B9607A60FE
:105890000D4ABB6813441B781A46FB6813441B6807
:1058A00023F0C0020849BB680B441B781946FB680B
:1058B0000B4419467B6813430B6000BF1437BD4689
:1058C0005DF8047B704700BFE000010880B485B03C
:1058D00000AFF860B9607A600D4ABB6813441B786A
:1058E0001A46FB6813441B6823F490720849BB688E
:1058F0000B441B781946FB680B4419467B6813431D
:105900000B6000BF1437BD465DF8047B704700BFD5
:10591000E000010880B485B000AFF860B9607A603B
:105920000D4ABB6813441B781A46FB6813441B6876
:1059300023F400720849BB680B441B781946FB68C6
:105940000B4419467B6813430B6000BF1437BD46F8
:105950005DF8047B704700BFE000010880B485B0AB
:1059600000AFF860B9607A600D4ABB6813441B78D9
:105970001A46FB6813441B6823F480620849BB681D
:105980000B441B781946FB680B4419467B6813438C
:105990000B6000BF1437BD465DF8047B704700BF45
:1059A000E000010880B485B000AFF860B9607A60AB
:1059B0000D4ABB6813441B781A46FB6813441B68E6
:1059C00023F4C0520849BB680B441B781946FB6896
:1059D0000B4419467B6813430B6000BF1437BD4668
:1059E0005DF8047B704700BFE000010880B485B01B
:1059F00000AFF860B9607A600D4ABB6813441B7849
:105A00001A46FB6813441B6823F4C0420849BB686C
:105A10000B441B781946FB680B4419467B681343FB
:105A20000B6000BF1437BD465DF8047B704700BFB4
:105A3000E000010880B485B000AFF860B9607A601A
:105A40000D4ABB6813441B781A46FB6813441B6855
:105A500023F440320849BB680B441B781946FB68A5
:105A60000B4419467B6813430B6000BF1437BD46D7
:105A70005DF8047B704700BFE000010880B485B08A
:105A800000AFF860B9607A600D4ABB6813441B78B8
:105A90001A46FB6813441B6823F060620849BB6820
:105AA0000B441B781946FB680B4419467B6813436B
:105AB0000B6000BF1437BD465DF8047B704700BF24
:105AC000E000010880B485B000AFF860B9607A608A
:105AD0000D4ABB6813441B781A46FB6813441B68C5
