:020000040800F2
:100000000000022041720008A5700008AD700008D1
:10001000B5700008BD700008C57000080000000041
:10002000000000000000000000000000CD7000088B
:10003000DB70000800000000E9700008F97000089B
:100040009172000891720008917200089172000884
:1000500091720008917200082571000891720008E1
:100060009172000891720008917200089172000864
:1000700091720008917200084371000851710008E4
:100080009172000891720008917200089172000844
:100090009172000891720008917200089172000834
:1000A0009172000891720008917200089172000824
:1000B00091720008917200085F7100089172000847
:1000C0009172000891720008917200089172000804
:1000D0009172000891720008917200086D71000819
:1000E00091720008917200089172000891720008E4
:1000F00091720008917200089172000891720008D4
:1001000091720008917200089172000891720008C3
:1001100081710008917200089172000891720008C4
:1001200095710008E1A3000891720008A171000810
:1001300021990008000000000000000091720008F2
:100140009172000891720008917200089172000883
:10015000E59800089172000821A400089172000837
:100160009172000891720008917200089172000863
:100170009172000891720008000000000000000069
:08018000917200089172000861
:1001900010B5054C237833B9044B13B10448AFF3C1
:1001A00000800123237010BDB80100200000000072
:1001B00000E8000808B5034B1BB103490348AFF33F
:1001C000008008BD00000000BC01002000E800081D
:1001D00010F8012B11F8013B012A28BF9A42F7D0F1
:1001E000D01A7047034613F8012B002AFBD1181AC6
:1001F000013870470000000000000000000000000F
:1002000001F0FF01102A2BDB10F0070F08D010F8C7
:10021000013B013A8B422DD010F0070F42B3F6D1CB
:10022000F0B441EA012141EA014122F007047FF0E4
:1002300000070023F0E80256083C85EA010586EA3B
:10024000010685FA47F5A3FA87F586FA47F6A5FA77
:1002500087F68EB9EED1F0BC01F0FF0102F0070283
:1002600032B110F8013B013A83EA010313B1F8D12E
:100270000020704701387047002D06BF354603380F
:10028000073815F0010F07D1013015F4807F02BF48
:10029000013015F4C03F0130F0BC0138704700BF99
:1002A00081F0004102E000BF83F0004330B54FEA27
:1002B00041044FEA430594EA050F08BF90EA020F94
:1002C0001FBF54EA000C55EA020C7FEA645C7FEA27
:1002D000655C00F0E2804FEA5454D4EB5555B8BF4A
:1002E0006D420CDD2C4480EA020281EA030382EABB
:1002F000000083EA010180EA020281EA0303362D4D
:1003000088BF30BD11F0004F4FEA01314FF4801C1F
:100310004CEA113102D0404261EB410113F0004F31
:100320004FEA03334CEA133302D0524263EB4303E8
:1003300094EA050F00F0A780A4F10104D5F1200E86
:100340000DDB02FA0EFC22FA05F2801841F10001E1
:1003500003FA0EF2801843FA05F359410EE0A5F1B5
:1003600020050EF1200E012A03FA0EFC28BF4CF0E6
:10037000020C43FA05F3C01851EBE37101F000459C
:1003800007D54FF0000EDCF1000C7EEB00006EEBA9
:100390000101B1F5801F1BD3B1F5001F0CD3490833
:1003A0005FEA30004FEA3C0C04F101044FEA44528A
:1003B00012F5800F80F09A80BCF1004F08BF5FEA11
:1003C000500C50F1000041EB045141EA050130BDF1
:1003D0005FEA4C0C404141EB0101013C28BFB1F503
:1003E000801FE9D291F0000F04BF01460020B1FA4E
:1003F00081F308BF2033A3F10B03B3F120020CDA21
:100400000C3208DD02F1140CC2F10C0201FA0CF0FE
:1004100021FA02F10CE002F11402D8BFC2F1200C63
:1004200001FA02F120FA0CFCDCBF41EA0C01904019
:10043000E41AA2BF01EB0451294330BD6FEA040462
:100440001F3C1CDA0C340EDC04F11404C4F120024D
:1004500020FA04F001FA02F340EA030021FA04F35F
:1004600045EA030130BDC4F10C04C4F1200220FAB6
:1004700002F001FA04F340EA0300294630BD21FAF4
:1004800004F0294630BD94F0000F83F4801306BFBA
:1004900081F480110134013D4EE77FEA645C18BFAE
:1004A0007FEA655C29D094EA050F08BF90EA020F45
:1004B00005D054EA000C04BF1946104630BD91EA3D
:1004C000030F1EBF0021002030BD5FEA545C05D140
:1004D0004000494128BF41F0004130BD14F580047F
:1004E0003CBF01F5801130BD01F0004545F0FE41F3
:1004F00041F470014FF0000030BD7FEA645C1ABF28
:10050000194610467FEA655C1CBF0B46024650EA5E
:10051000013406BF52EA033591EA030F41F400218A
:1005200030BD00BF90F0000F04BF0021704730B510
:100530004FF4806404F132044FF000054FF00001E5
:1005400050E700BF90F0000F04BF0021704730B5A6
:100550004FF4806404F1320410F0004548BF40427B
:100560004FF000013EE700BF42004FEAE2014FEAD0
:1005700031014FEA02701FBF12F07F4393F07F4FAB
:1005800081F06051704732F07F4208BF704793F0AE
:100590007F4F04BF41F40021704730B54FF46074C1
:1005A00001F0004521F000411CE700BF50EA0102C4
:1005B00008BF704730B54FF000050AE050EA01026D
:1005C00008BF704730B511F0004502D5404261EBDD
:1005D00041014FF4806404F132045FEA915C3FF41E
:1005E000D8AE4FF003025FEADC0C18BF03325FEABB
:1005F000DC0C18BF033202EBDC02C2F1200300FA6C
:1006000003FC20FA02F001FA03FE40EA0E0021FA90
:1006100002F11444BDE600BF70B54FF0FF0C4CF47E
:10062000E06C1CEA11541DBF1CEA135594EA0C0F30
:1006300095EA0C0F00F0DEF82C4481EA030621EA6B
:100640004C5123EA4C5350EA013518BF52EA0335A6
:1006500041F4801143F4801338D0A0FB02CE4FF058
:100660000005E1FB02E506F00042E0FB03E54FF088
:100670000006E1FB03569CF0000F18BF4EF0010E80
:10068000A4F1FF04B6F5007F64F5407404D25FEA7C
:100690004E0E6D4146EB060642EAC62141EA55512F
:1006A0004FEAC52040EA5E504FEACE2EB4F1FD0C71
:1006B00088BFBCF5E06F1ED8BEF1004F08BF5FEAEF
:1006C000500E50F1000041EB045170BD06F00046A1
:1006D00046EA010140EA020081EA0301B4EB5C044E
:1006E000C2BFD4EB0C0541EA045170BD41F4801146
:1006F0004FF0000E013C00F3AB8014F1360FDEBF6B
:10070000002001F0004170BDC4F10004203C35DA46
:100710000C341BDC04F11404C4F1200500FA05F3C9
:1007200020FA04F001FA05F240EA020001F000426A
:1007300021F0004110EBD37021FA04F642EB0601E0
:100740005EEA430E08BF20EAD37070BDC4F10C040A
:10075000C4F1200500FA04F320FA05F001FA04F2CE
:1007600040EA020001F0004110EBD37041F10001BA
:100770005EEA430E08BF20EAD37070BDC4F12005C5
:1007800000FA05F24EEA020E20FA04F301FA05F22D
:1007900043EA020321FA04F001F0004121FA04F2D5
:1007A00020EA020000EBD3705EEA430E08BF20EAA5
:1007B000D37070BD94F0000F0FD101F000464000DF
:1007C00041EB010111F4801F08BF013CF7D041EA61
:1007D000060195F0000F18BF704703F00046520065
:1007E00043EB030313F4801F08BF013DF7D043EA36
:1007F0000603704794EA0C0F0CEA135518BF95EAEC
:100800000C0F0CD050EA410618BF52EA4306D1D172
:1008100081EA030101F000414FF0000070BD50EA91
:10082000410606BF1046194652EA430619D094EA1B
:100830000C0F02D150EA013613D195EA0C0F05D105
:1008400052EA03361CBF104619460AD181EA030159
:1008500001F0004141F0FE4141F470014FF0000011
:1008600070BD41F0FE4141F4780170BD70B54FF0AC
:10087000FF0C4CF4E06C1CEA11541DBF1CEA13552C
:1008800094EA0C0F95EA0C0F00F0A7F8A4EB05040E
:1008900081EA030E52EA03354FEA013100F0888005
:1008A0004FEA03334FF0805545EA131343EA1263CE
:1008B0004FEA022245EA111545EA10654FEA002683
:1008C0000EF000419D4208BF964244F1FD0404F53C
:1008D000407402D25B084FEA3202B61A65EB030598
:1008E0005B084FEA32024FF480104FF4002CB6EB55
:1008F000020E75EB030E22BFB61A754640EA0C00D5
:100900005B084FEA3202B6EB020E75EB030E22BF14
:10091000B61A754640EA5C005B084FEA3202B6EB55
:10092000020E75EB030E22BFB61A754640EA9C0014
:100930005B084FEA3202B6EB020E75EB030E22BFE4
:10094000B61A754640EADC0055EA060E18D04FEAA2
:10095000051545EA16754FEA06164FEAC30343EA42
:1009600052734FEAC2025FEA1C1CC0D111F4801F0F
:100970000BD141EA00014FF000004FF0004CB6E708
:1009800011F4801F04BF01430020B4F1FD0C88BFA7
:10099000BCF5E06F3FF6AFAEB5EB030C04BFB6EBB2
:1009A000020C5FEA500C50F1000041EB045170BDA5
:1009B0000EF0004E4EEA113114EB5C04C2BFD4EBD2
:1009C0000C0541EA045170BD41F480114FF0000E56
:1009D000013C90E645EA060E8DE60CEA135594EAD2
:1009E0000C0F08BF95EA0C0F3FF43BAF94EA0C0FD5
:1009F0000AD150EA01347FF434AF95EA0C0F7FF44A
:100A000025AF104619462CE795EA0C0F06D152EA9D
:100A100003353FF4FDAE1046194622E750EA410681
:100A200018BF52EA43067FF4C5AE50EA41047FF492
:100A30000DAF52EA43057FF4EBAE12E74FF0FF3CF7
:100A400006E000BF4FF0010C02E000BF4FF0010CC8
:100A50004DF804CD4FEA410C7FEA6C5C4FEA430C41
:100A600018BF7FEA6C5C1BD001B050EA410C0CBF90
:100A700052EA430C91EA030F02BF90EA020F0020F2
:100A8000704710F1000F91EA030F58BF994208BF59
:100A900090422CBFD8176FEAE37040F00100704716
:100AA0004FEA410C7FEA6C5C02D150EA013C07D16D
:100AB0004FEA430C7FEA6C5CD6D152EA033CD3D0B8
:100AC0005DF8040B704700BF8446104662468C46B2
:100AD0001946634600E000BF01B5FFF7B7FF0028E5
:100AE00048BF10F1000F01BD4DF808EDFFF7F4FF0E
:100AF0000CBF012000205DF808FB00BF4DF808ED99
:100B0000FFF7EAFF34BF012000205DF808FB00BFBB
:100B10004DF808EDFFF7E0FF94BF012000205DF8DD
:100B200008FB00BF4DF808EDFFF7CEFF94BF012092
:100B300000205DF808FB00BF4DF808EDFFF7C4FF8B
:100B400034BF012000205DF808FB00BF4FEA4102DE
:100B500012F5001215D211D56FF47873B3EB62520F
:100B600012D94FEAC12343F0004343EA505311F036
:100B7000004F23FA02F018BF404270474FF00000C8
:100B8000704750EA013005D111F0004008BF6FF006
:100B9000004070474FF00000704700BF4A0011D27C
:100BA00012F5001211D20DD56FF47873B3EB6252C7
:100BB0000ED44FEAC12343F0004343EA505323FAD3
:100BC00002F070474FF00000704750EA013002D148
:100BD0004FF0FF3070474FF0000070474FEA41027E
:100BE000B2F1E04324BFB3F5001CDCF1FE5C0DD98B
:100BF00001F0004C4FEAC0024CEA5070B2F1004FD5
:100C000040EB830008BF20F00100704711F0804FD7
:100C100021D113F13872BCBF01F00040704741F49C
:100C200080114FEA5252C2F11802C2F1200C10FAA0
:100C30000CF320FA02F018BF40F001004FEAC12384
:100C40004FEAD32303FA0CFC40EA0C0023FA02F328
:100C50004FEA4303CCE77FEA625307D150EA0133FE
:100C60001EBF4FF0FE4040F44000704701F00040CE
:100C700040F0FE4040F40000704700BF53B94AB94D
:100C8000002908BF00281CBF4FF0FF314FF0FF3094
:100C900000F088B9ADF1080C6DE904CE00F006F85B
:100CA000DDF804E0DDE9022304B070472DE9F047E8
:100CB000089D8E4604468846002B4AD18A42174634
:100CC00062D9B2FA82F64EB1C6F1200301FA06F8F3
:100CD00020FA03F3B74043EA0808B4404FEA174E3E
:100CE0001FFA87FCB8FBFEF1230C0EFB118843EAC8
:100CF000084301FB0CF29A4209D9FB1801F1FF30BD
:100D000080F0EA809A4240F2E78002393B449A1A26
:100D1000A3B2B2FBFEF00EFB102243EA024300FB3B
:100D20000CFC9C4509D9FB1800F1FF3280F0D680FD
:100D30009C4540F2D3803B44023840EA0140A3EB9B
:100D40000C0300211DB1F3400022C5E90032BDE8CB
:100D5000F0878B4205D90DB1C5E900010021084695
:100D6000F5E7B3FA83F1002946D1734502D38242F5
:100D700000F20581841A6EEB030201209046002DDB
:100D8000E5D0C5E90048E2E7002A00F09080B2FA19
:100D900082F6002E40F0A4808A1A030C4FEA174E08
:100DA00080B2BCB20121B2FBFEFC0EFB1C2243EA66
:100DB000024304FB0CF29A4207D9FB180CF1FF38EE
:100DC00002D29A4200F2E080C4469B1AB3FBFEF2C4
:100DD0000EFB123340EA034302FB04F49C4207D9A2
:100DE000FB1802F1FF3002D29C4200F2CA80024698
:100DF0001B1B42EA0C40A5E7C1F120068B4022FAFA
:100E000006F71F430EFA01F420FA06F32EFA06FE47
:100E10004FEA1749234300FA01F81FFA87FCBEFB8B
:100E2000F9F01C0C09FB10EE44EA0E4400FB0CFE2A
:100E3000A64502FA01F209D93C1900F1FF3A80F007
:100E40009C80A64540F2998002383C44A4EB0E04F5
:100E50001FFA83FEB4FBF9F309FB13444EEA044482
:100E600003FB0CFCA44508D93C1903F1FF3E80F0BC
:100E70008280A4457FD9023B3C4443EA0040A4EB76
:100E80000C04A0FB02EC64457346E14662D35FD0DC
:100E90005DB1B8EB030264EB090404FA06F622FA2A
:100EA00001F31E43CC40C5E9006400214FE7B1FBCC
:100EB000F2FC010C41EA0E4180B240EA01423B469D
:100EC00038463C46B846BE462026B1FBF7F1A2EBB9
:100ED000080241EA0C4166E7014618E710462CE794
:100EE000C6F120022EFA02F3B740B14020FA02F216
:100EF0004FEA174E0A43B3FBFEF8BCB20EFB1833A1
:100F0000110C41EA034108FB04F9B04089454FEA5E
:100F1000104380B23ED9791808F1FF3C01D28945CF
:100F20001FD8A1EB0901B1FBFEF909FB04F80EFB88
:100F3000191192B242EA0142424529D2BA1809F186
:100F4000FF31C4D24245C2D2A9F102013A44BEE700
:100F5000F0459DD2BEEB02036CEB070C0138E14675
:100F600096E7A7EB09094944A8F1020CB1FBFEF989
:100F700009FB04F8DBE773467FE7504666E708465F
:100F8000FDE63B44023A33E7ACF1020C3B441CE77C
:100F900049469CE7A1EB0901C446B1FBFEF909FBF8
:100FA00004F8C4E7704700BF80B483B000AF786036
:100FB0007B681B6823F001027B681A6000BF0C3756
:100FC000BD465DF8047B7047B0B582B000AF08F055
:100FD00089FB09F027F9124B00221A70114B0022ED
:100FE0001A70114B00221A700023FB710FE0FB797D
:100FF0000E4A5B0113440E4A1C4615460FCD0FC422
:1010000095E80F0084E80F00FB790133FB71FB7951
:10101000092BECD900BF00BF0837BD46B0BD00BFEB
:10102000140300201503002016030020D401002023
:1010300000000020B0B588B002AF7860B14B1B78DB
:10104000032B00F27F8101A252F823F05D1000080B
:1010500099100008D712000829130008AA4B002293
:101060001A70AA4B1B78012B02D1A84B00221A70D0
:101070000023FB7509E0FB7DA54A5B0113440133A6
:1010800000221A70FB7D0133FB75FB7D0A2BF2D920
:1010900001200BF0F9F958E19B4B1B78002B07D18D
:1010A0009C499D480CF0ACF9964B00221A704CE11B
:1010B0000023BB7509F0C8F808F03EFB0023BB75A0
:1010C000F9E0BB7D9549924A5B0113440C461D46ED
:1010D0000FCD0FC495E80F0084E80F0000233B619B
:1010E0000023FB600123BB608C4B18798B4B597933
:1010F0008A4B5B881A4613469B0013445B00013BF6
:101100001A4608F0D6FA02463B6913443B61834B0A
:101110001879824B5979814B9B891A4613469B005B
:1011200013445B00013B1C467C4BDB891A4613468B
:101130009B0013445B00013B1A46784B1B7A0193DA
:10114000012300931346224608F062FA02463B69E7
:1011500013443B61714B1879704B59796F4B5B8924
:101160001A4613469B0013445B00013B1A4608F0E5
:10117000A0FA02463B6913443B61684B5879674BC0
:101180001979664B1B8A1A4613469B0013445B0071
:10119000013B1C46614B5B8A1A4613469B00134475
:1011A0005B00013B1A465D4B5B7A01930123009380
:1011B0001346224608F02CFA02463B6913443B6171
:1011C0003B69013B3B61554B1879544B5979534B63
:1011D000DB881A4613469B0013445B00013B1A460A
:1011E00008F067FA0246FB681344FB604B4B187922
:1011F0004A4B5979494B1B8B1A4613469B001344A3
:101200005B00013B1C46454B5B8B1A4613469B001B
:1012100013445B00013B1A46404B1B7D01930123A5
:1012200000931346224608F0F3F90246FB68134484
:10123000FB603A4B1879394B5979384BDB8A1A469F
:1012400013469B0013445B00013B1A4608F031FA39
:101250000246FB681344FB60304B58792F4B1979D9
:101260002E4B9B8B1A4613469B0013445B00013B9D
:101270001C462A4BDB8B1A4613469B0013445B002B
:10128000013B1A46254B5B7D0193012300931346D6
:10129000224608F0BDF90246FB681344FB60FB6878
:1012A000013BFB60BB7DBA68F968386908F072FFE2
:1012B000BB7D0133BB75144B1B78BA7D9A42FFF49A
:1012C00000AF09F059F808F0D5FA00F0E1F90D4B3C
:1012D00002221A7039E008F013FA0346002B33D0CB
:1012E0000F48FFF761FE08F0FDF908F09BFF00F0E2
:1012F000DFF90C4908480CF083F8024B00221A7001
:1013000022E000BF15030020140300201603002074
:10131000D401002018E80008880B002018030020E2
:101320000000014034E8000808F020FA08F0A6FFA9
:1013300008F0D8F908F076FF00F0BAF9054B002262
:101340001A7002E000BF00E000BF00BF1837BD46C2
:10135000B0BD00BF1503002080B500AF054807F001
:1013600061FE0549034807F06EFE044B044A5A60CB
:1013700000BF80BD38000020440000204C00002049
:101380003803002080B483B000AF78607B681B68AE
:1013900003F02003202B0CBF01230023DBB21846EF
:1013A0000C37BD465DF8047B704780B483B000AF56
:1013B00078607B6820229A6000BF0C37BD465DF8DC
:1013C000047B704780B483B000AF78607B681B6893
:1013D00043F001027B681A6000BF0C37BD465DF820
:1013E000047B704780B483B000AF78607B681B6873
:1013F00023F001027B681A6000BF0C37BD465DF820
:10140000047B704780B483B000AF786039607B683C
:101410001B6823F070023B681A437B681A6000BFA8
:101420000C37BD465DF8047B704780B483B000AFD5
:10143000786039607B683A685A6200BF0C37BD46F5
:101440005DF8047B704780B483B000AF786039608A
:101450007B683A689A6200BF0C37BD465DF8047B32
:10146000704780B483B000AF786039607B683A68B9
:10147000DA6200BF0C37BD465DF8047B704780B46C
:1014800083B000AF78607B686FF001021A6100BF23
:101490000C37BD465DF8047B704780B483B000AF65
:1014A00078607B681B6903F00103012B01D10123E4
:1014B00000E0002318460C37BD465DF8047B7047FA
:1014C00080B483B000AF78607B68DB6843F00102D2
:1014D0007B68DA6000BF0C37BD465DF8047B70475F
:1014E00080B483B000AF78607B68DB6823F00102D2
:1014F0007B68DA6000BF0C37BD465DF8047B70473F
:1015000080B500AF264807F09EFA4FF40042002154
:10151000234807F00AFA4FF430420121204807F02F
:1015200004FA48F201020B211D4807F0FEF99FED75
:10153000101B9FED110B1A4807F096FA9FED101B38
:101540009FED0D0B164807F0CFFA9FED0F1B9FED97
:101550000A0B134807F024FB9FED0D0B104807F012
:101560007BFB9FED0D0B0E4807F0AAFB00BF80BD73
:1015700000000000000024400000004008AC8C3F48
:10158000000000000000144000000000000014C033
:101590000000000000607340000000000000000038
:1015A000700000200000000080B582B000AF87ED21
:1015B000010A0B4A7B6893637868FEF7D5FF024601
:1015C0000B4643EC112B9FED040B064807F08CFAF9
:1015D00000BF0837BD4680BD0000004008AC8C3F0E
:1015E000400B00207000002080B582B000AF0C4896
:1015F00007F09AFB53EC102B10461946FFF7EEFA52
:1016000003467B60D7ED017A9FED067AC7EE876AC5
:10161000F0EE667AB0EE670A0837BD4680BD00BFBF
:10162000700000204260653C80B400AF034B93F82B
:101630003D301846BD465DF8047B7047400B0020E6
:1016400080B500AF044807F0E6FB044B002283F8A6
:101650003D2000BF80BD00BF70000020400B002077
:1016600080B500AF47210948FFF7EDFE312107485B
:10167000FFF7F7FE00210548FFF7C4FE0348FFF718
:10168000B1FE0248FFF72CFF00BF80BD00080040FC
:1016900080B500AF00210548FFF7C7FE0348FFF7FC
:1016A0000FFF0248FFF78EFE00BF80BD000800401C
:1016B00080B500AF0548FFF795FE0448FFF710FF1F
:1016C000034B00221A8000BF80BD00BF000800400D
:1016D000380B002080B483B000AF786000BF0C37B7
:1016E000BD465DF8047B704780B500AF0E48FFF73C
:1016F000D4FE0346002B15D00B48FFF7C0FE0B4B62
:101700001B78002B02D0012B06D00BE00322052111
:10171000074807F08DFB05E003220721044807F086
:1017200087FB00BF00BF80BD00080040800B002089
:101730007000002000000000B0B582B000AF424849
:10174000FFF720FE0346002B73D03F48FFF72DFE26
:101750003E4807F0DAF83E4B1B78002B02D0012BF5
:101760001FD062E0394807F0A7FB51EC100B34A3FF
:10177000D3E90023FEF750FF02460B4610461946F8
:10178000344B5C68334B5B68DB881D46FFF706FA19
:1017900003469AB2AB1C24F823202D4B01221A7069
:1017A00047E02A4807F0B4FB51EC100B294B5C686A
:1017B000284B5B68DB881D46FFF7F0F903469AB2B9
:1017C000AB1C9B0023445A80224B5B68DA880132B1
:1017D00092B2DA801F4B5B68DB88FD2B21D91D4B51
:1017E00019681C4B5A684FF480631B4807F05AFC79
:1017F000184B5B689B880133FB80164B5B68174A6C
:10180000934203D1134B164A5A6002E0114B134A1C
:101810005A60104B5B680022DA800E4B5B68FA88D6
:101820009A800B4B00221A7003E0094B00221A70B9
:1018300000BF00BF0837BD46B0BD00BFAFF300809A
:10184000BBD6DEA7AAAA4040006402407000002078
:10185000800B00204C0000203800002038030020BE
:101860003807002080B500AF064B03221A70064BE4
:10187000012283F83D20054905480BF0C1FD00BF5A
:1018800080BD00BF15030020400B002050E8000879
:10189000880B002080B500AF02F06AFC03F0A6FCC4
:1018A00008F0A4FBFFF790FBFFF72AFEFFF7D8FE36
:1018B000FFF752FD42F210700AF044FD0AF064FD99
:1018C000FCE780B483B000AF786000BF0C37BD4642
:1018D0005DF8047B7047000080B400AFBFF34F8F0A
:1018E00000BF064BDB6803F4E0620449044B13437A
:1018F000CB60BFF34F8F00BF00BFFDE700ED00E0FE
:101900000400FA0580B586B000AFF860B9607A606F
:10191000B86809F0A5F80346FB75FB7D012B04D8D8
:101920002D49F86808F098FF52E0FB7D022B04D99E
:101930002A49F86808F090FF4AE00121B86809F0E8
:1019400059F8034618460BF014FE03469BB23B823F
:101950000221B86809F04EF8034618460BF009FE5C
:1019600003469BB27B823B8AB3F5967F04D91C4920
:10197000F86808F071FF2BE07B8A322B04D91849F4
:10198000F86808F069FF23E0164B1B6800221A7004
:101990003B8A1B0A9AB2134B1B68D2B25A703A8A1E
:1019A000104B1B68D2B29A707B8A1B0A9AB20D4BFD
:1019B0001B68D2B2DA707A8A0A4B1B68D2B21A71EB
:1019C000052002F077FB0849F86808F045FF00BFE2
:1019D0001837BD4680BD00BF04F500081CF500089F
:1019E00034F50008200100204CF5000880B586B0D1
:1019F00000AFF860B9607A60B86809F031F8034662
:101A0000FB75FB7D002B04D11D49F86808F024FF0D
:101A100032E0FB7D012B04D91A49F86808F01CFF5D
:101A20002AE00121B86808F0E5FF034618460BF0EC
:101A3000A0FD0346BB82BB8AB3F5967F04D9124949
:101A4000F86808F009FF17E0104B1B6801221A70B4
:101A5000BB8A1B0A9AB20D4B1B68D2B25A700B4B51
:101A60001B68BA8AD2B29A70032002F023FB08499D
:101A7000F86808F0F1FE00BF1837BD4680BD00BF12
:101A800004F500081CF5000834F5000820010020CA
:101A90004CF5000880B586B000AFF860B9607A6098
:101AA000B86808F0DDFF0346FB75FB7D002B04D111
:101AB0001C49F86808F0D0FE31E0FB7D012B04D909
:101AC0001949F86808F0C8FE29E00121B86808F053
:101AD00091FF034618460BF04CFD0346BB82BB8AC0
:101AE000322B04D91149F86808F0B6FE17E0104B04
:101AF0001B6802221A70BB8A1B0A9AB20C4B1B6825
:101B0000D2B25A700A4B1B68BA8AD2B29A700320BA
:101B100002F0D0FA0749F86808F09EFE00BF1837B7
:101B2000BD4680BD04F500081CF5000834F500082A
:101B3000200100204CF5000880B586B000AFF860A9
:101B4000B9607A60B86808F08BFF0346FB75FB7DCF
:101B5000012B04D82449F86808F07EFE41E0FB7DA3
:101B6000022B04D92149F86808F076FE39E00121FA
:101B7000B86808F03FFF034618460BF0FAFC03462E
:101B8000DBB23B750221B86808F034FF0346184603
:101B90000BF0EFFC0346DBB27B753B7D012B04D9D8
:101BA0001349F86808F058FE1BE07B7D012B04D92F
:101BB0000F49F86808F050FE13E00E4B1B68032233
:101BC0001A700C4B1B683A7D5A700A4B1B687A7D61
:101BD0009A70032002F06EFA0749F86808F03CFE9C
:101BE00000BF1837BD4680BD04F500081CF500088D
:101BF00034F50008200100204CF5000880B586B0BF
:101C000000AFF860B9607A60B86808F029FF034651
:101C1000FB75FB7D012B04D82449F86808F01CFEF5
:101C200041E0FB7D022B04D92149F86808F014FE3D
:101C300039E00121B86808F0DDFE034618460BF0D4
:101C400098FC0346DBB23B750221B86808F0D2FE6F
:101C5000034618460BF08DFC0346DBB27B753B7DDB
:101C6000012B04D91349F86808F0F6FD1BE07B7DD1
:101C7000012B04D90F49F86808F0EEFD13E00E4B74
:101C80001B6804221A700C4B1B683A7D5A700A4B71
:101C90001B687A7D9A70032002F00CFA0749F868F5
:101CA00008F0DAFD00BF1837BD4680BD04F5000816
:101CB0001CF5000834F50008200100204CF5000850
:101CC00080B586B000AFF860B9607A60B86808F097
:101CD000C7FE0346FB75FB7D002B04D00D49F86859
:101CE00008F0BAFD13E00C4B1B6805221A700A4B72
:101CF0001B6800225A70084B1B6801229A7003204F
:101D000002F0D8F90549F86808F0A6FD00BF1837B9
:101D1000BD4680BD1CF50008200100204CF50008E0
:101D200080B586B000AFF860B9607A60B86808F036
:101D300097FE0346FB75FB7D002B04D00D49F86828
:101D400008F08AFD13E00C4B1B6805221A700A4B41
:101D50001B6801225A70084B1B6800229A700320EE
:101D600002F0A8F90549F86808F076FD00BF1837B9
:101D7000BD4680BD1CF50008200100204CF5000880
:101D800080B586B000AFF860B9607A60B86808F0D6
:101D900067FE03467B617B69002B04D00949F86824
:101DA00008F05AFD0BE0084B1B6807221A7001204F
:101DB00002F080F90549F86808F04EFD00BF1837B9
:101DC000BD4680BD1CF50008200100204CF5000830
:101DD00080B586B000AFF860B9607A60B86808F086
:101DE0003FFE03467B617B69002B04D00949F868FC
:101DF00008F032FD0BE0084B1B6809221A70012025
:101E000002F058F90549F86808F026FD00BF1837B8
:101E1000BD4680BD1CF50008200100204CF50008DF
:101E200080B586B000AFF860B9607A60B86808F035
:101E300017FE03467B617B69002B04D00949F868D3
:101E400008F00AFD0BE0084B1B6808221A700120FD
:101E500002F030F90549F86808F0FEFC00BF1837B9
:101E6000BD4680BD1CF50008200100204CF500088F
:101E700080B586B000AFF860B9607A60B86808F0E5
:101E8000EFFD03467B617B69002B04D00949F868AC
:101E900008F0E2FC0BE0084B1B680A221A700120D4
:101EA00002F008F90549F86808F0D6FC00BF1837B9
:101EB000BD4680BD1CF50008200100204CF500083F
:101EC00080B586B000AFF860B9607A60B86808F095
:101ED000C7FD03467B617B69002B04D00949F86884
:101EE00008F0BAFC0BE0084B1B6806221A700120B0
:101EF00002F0E0F80549F86808F0AEFC00BF1837BA
:101F0000BD4680BD1CF50008200100204CF50008EE
:101F100080B586B000AFF860B9607A60B86808F044
:101F20009FFD03467B617B69002B04D00949F8685B
:101F300008F092FC0BE0084B1B680B221A70012082
:101F400002F0B8F80549F86808F086FC00BF1837B9
:101F5000BD4680BD1CF50008200100204CF500089E
:101F600080B586B000AFF860B9607A60B86808F0F4
:101F700077FD03467B617B69002B04D00949F86833
:101F800008F06AFC0BE0084B1B6810221A70012055
:101F900002F090F80549F86808F05EFC00BF1837B9
:101FA000BD4680BD1CF50008200100204CF500084E
:101FB00080B596B000AFF860B9607A60334B1B789B
:101FC000002B04D03249F86808F046FC5BE0B868A2
:101FD00008F046FD034687F8573097F85730012B35
:101FE00004D82C49F86808F037FC4CE097F85730D3
:101FF000022B04D92849F86808F02EFC43E001219F
:10200000B86808F0F7FC034618460BF0B2FA03462E
:10201000DBB287F850300221B86808F0EBFC0346C9
:1020200018460BF0A6FA0346DBB287F8513097F852
:102030005030013B194AD35C87F8563097F851303D
:10204000013B164AD35C87F8553097F8552097F82E
:1020500056301146184603F067F90346A7F8523088
:10206000B7F8522007F110030D4918460BF040FB5A
:1020700007F110031946F86808F0EEFB0949F86803
:1020800008F0EAFB00BF5837BD4680BD15030020AD
:102090005CF5000804F500081CF500081401002098
:1020A00080F500084CF5000880B588B000AFF860F6
:1020B000B9607A60B86808F0D3FC0346FB77FB7F11
:1020C000012B04D83349F86808F0C6FB5EE0FB7FBB
:1020D000022B04D93049F86808F0BEFB56E0012114
:1020E000B86808F087FC034618460BF042FA03462E
:1020F000DBB23B750221B86808F07CFC0346184649
:102100000BF037FA0346DBB27B753B7D0B2B04D912
:102110002249F86808F0A0FB38E07B7D092B04D940
:102120001E49F86808F098FB30E03B7D0B2B07D187
:102130007B7D072B04D91949F86808F08DFB25E051
:102140003B7D002B07D17B7D002B04D11349F86820
:1021500008F082FB1AE03B7D07EE903AB8EE677A12
:102160007B7D07EE903AF8EE677ADFED0D6A67EE59
:10217000A67A77EE277AC7ED067A97ED060AFFF77B
:1021800013FA0849F86808F067FB00BF2037BD461E
:1021900080BD00BF04F500081CF5000834F50008F8
:1021A000CDCCCC3D4CF5000880B596B000AFF860C2
:1021B000B9607A60B86808F053FC034687F8573076
:1021C00097F85730002B04D01449F86808F044FB06
:1021D00020E0FFF709FAF0EE407A9FED117A67EE02
:1021E000877AC7ED147AD7ED147AFDEEE77A07F116
:1021F000100317EE902A0B4918460BF079FA07F1F5
:1022000010031946F86808F027FB0749F86808F03A
:1022100023FB00BF5837BD4680BD00BF1CF500083A
:1022200000007A4498F500084CF5000880B586B0A7
:1022300000AFF860B9607A60B86808F011FC034636
:10224000FB75FB7D002B04D00E49F86808F004FBF9
:1022500014E0FFF7E9F90346BB75BB7D002B04D002
:102260000949F86808F0F8FA03E00849F86808F046
:10227000F3FA0749F86808F0EFFA00BF1837BD46CF
:1022800080BD00BF1CF50008C0F50008E4F500089B
:102290004CF5000880B586B000AFF860B9607A6090
:1022A000B86808F0DDFB0346FB75FB7D002B04D00E
:1022B0000749F86808F0D0FA06E0FFF7C1F90549C8
:1022C000F86808F0C9FA00BF1837BD4680BD00BFE6
:1022D0001CF500084CF5000880B5A6B000AFF8600A
:1022E000B9607A60B86808F0BBFB0346C7F8943061
:1022F000D7F89430002B04DC3349F86808F0ACFAC6
:102300005FE0D7F89430012B04DD3049F86808F01D
:10231000A3FA56E00121B86808F06CFB03461846A2
:102320000BF027F9034687F8933097F89330002B8A
:1023300003D097F893300A2B04D92549F86808F0A0
:102340008BFA3EE097F89320224B1B7802339A4297
:102350001FDD214B1B785A1C97F8933007F11000B2
:102360001E490BF0C5F907F110031946F86808F08B
:1023700073FA194B1B781A4607F1100318491846CF
:102380000BF0B6F907F110031946F86808F064FA83
:1023900017E097F89330013BDAB20E4B1A700D4BF1
:1023A0001B78104A5B01134401221A70094B1B78F9
:1023B0000133DAB2084B1A700B49F86808F04CFA8E
:1023C00000BF9837BD4680BD04F500081CF5000825
:1023D00034F50008810B00201403002008F60008E3
:1023E00038F60008D40100204CF5000880B586B00E
:1023F00000AFF860B9607A60B86808F031FB034656
:102400007B617B69002B03D00D49F86808F024FA42
:102410000C4B1B780C4A5B01134400221A70094BC9
:102420001B785A1ED1B2074A1170084A1370084926
:10243000F86808F011FA00BF1837BD4680BD00BF2C
:1024400034F50008810B0020D40100201403002083
:102450004CF5000880B586B000AFF860B9607A60CE
:10246000B86808F0FDFA03467B617B69002B04D055
:102470000D49F86808F0F0F913E00C4B1B780C4A92
:102480005B01134400221A70084B1B78084A5B0159
:102490001344013301221A700649F86808F0DCF988
:1024A00000BF1837BD4680BD34F50008810B002001
:1024B000D40100204CF5000880B586B000AFF8606C
:1024C000B9607A60B86808F0CBFA03467B617B6933
:1024D000002B04DC1A49F86808F0BEF92CE07B698F
:1024E000012B04DD1749F86808F0B6F924E0164B13
:1024F0001B78164A5B0113441B7883F00103DBB29F
:10250000002B18D10121B86808F074FA0346184668
:102510000BF02FF80346FB740B4B1B78FA7C91B23F
:102520000A4A5B01134402330A461A800849F868D4
:1025300008F092F900E000BF1837BD4680BD00BF2B
:1025400004F500081CF50008810B0020D4010020D0
:102550004CF5000880B586B000AFF860B9607A60CD
:10256000B86808F07DFA03467B617B69012B04DCC7
:102570002849F86808F070F948E07B69022B04DD0F
:102580002549F86808F068F940E00121B86808F0CA
:1025900031FA034618460AF0ECFF0346DBB23B74FF
:1025A0000221B86808F026FA034618460AF0E1FF4F
:1025B0000346DBB27B74194B1B78194A5B01134449
:1025C0001B7883F00103DBB2002B1ED13B7C013B67
:1025D000124A12781046134AD15C114A430113443F
:1025E00004330A461A707B7C013B0C4A1278104671
:1025F0000C4AD15C0A4A4301134405330A461A7057
:102600000949F86808F028F900E000BF1837BD460E
:1026100080BD00BF04F500081CF50008810B0020F8
:10262000D4010020140100204CF5000880B58AB0C8
:1026300000AFF860B9607A60B86808F011FA034634
:102640007B627B6A032B04DC4049F86808F004F9DC
:1026500079E07B6A042B04DD3D49F86808F0FCF85A
:1026600071E03C4B1B783C4A5B0113441B7883F0C0
:102670000103DBB2002B65D10121B86808F0BAF97B
:10268000034618460AF075FF03467B610221B868CD
:1026900008F0B0F9034618460AF06BFF0346BB6129
:1026A0000321B86808F0A6F9034618460AF061FF4E
:1026B0000346FB610421B86808F09CF903461846FC
:1026C0000AF057FF03463B627B69142B08DCBB69A9
:1026D000142B05DCFB69142B02DC3B6A142B04DD94
:1026E0001E49F86808F0B8F82DE07A69194B1B7894
:1026F000D1B2194A5B01134408330A461A70BA6909
:10270000144B1B78D1B2144A5B01134409330A46B7
:102710001A70FA690F4B1B78D1B20F4A5B01134450
:1027200014330A461A703A6A0A4B1B78D1B20A4A25
:102730005B01134415330A461A700949F86808F01A
:102740008BF800E000BF2837BD4680BD04F50008C7
:102750001CF50008810B0020D401002034F500088E
:102760004CF5000880B588B000AFF860B9607A60B9
:10277000B86808F075F90346FB61FB69022B04DCBD
:102780002E49F86808F068F854E0FB69032B04DD73
:102790002B49F86808F060F84CE02A4B1B782A4A6D
:1027A0005B0113441B7883F00103DBB2002B40D1A3
:1027B0000121B86808F01EF9034618460AF0D9FE50
:1027C00003463B610221B86808F014F90346184635
:1027D0000AF0CFFE03467B610321B86808F00AF9CE
:1027E000034618460AF0C5FE0346BB613A69154B1D
:1027F0001B7891B2144A5B0113440A330A461A80CB
:102800007A69104B1B7891B20F4A5B01134416335F
:102810000A461A80BA690B4B1B7891B20A4A5B01CF
:10282000134406330A461A800849F86808F014F879
:1028300000E000BF2037BD4680BD00BF04F50008A2
:102840001CF50008810B0020D40100204CF5000885
:1028500080B588B000AFF860B9607A60B86808F0F9
:10286000FFF80346FB61FB69012B04DC3049F86883
:1028700007F0F2FF58E0FB69022B04DD2D49F868F0
:1028800007F0EAFF50E02C4B1B782C4A5B01134405
:102890001B7883F00103DBB2002B44D10121B8681F
:1028A00008F0A8F8034618460AF063FE03467B6169
:1028B0000221B86808F09EF8034618460AF059FE4F
:1028C0000346BB617B69B3F57A7F02DC7B69002B31
:1028D00004DC1B49F86807F0BFFF25E0BB69B3F5CE
:1028E0007A7F02DCBB69002B04DC1549F86807F02D
:1028F000B3FF19E07A69104B1B7891B20F4A5B0164
:1029000013440C330A461A80BA690B4B1B7891B2F8
:102910000A4A5B0113440E330A461A800949F868D3
:1029200007F09AFF00E000BF2037BD4680BD00BF22
:1029300004F500081CF50008810B0020D4010020DC
:1029400034F500084CF5000880B588B000AFF86099
:10295000B9607A60B86808F083F80346FB61FB69E8
:10296000012B04DC3049F86807F076FF58E0FB697A
:10297000022B04DD2D49F86807F06EFF50E00121BD
:10298000B86808F037F8034618460AF0F2FD034627
:102990007B610221B86808F02DF8034618460AF05A
:1029A000E8FD0346BB617B69B3F57A7F02DC7B6996
:1029B000002B04DC1E49F86807F04EFF30E0BB69CD
:1029C000B3F57A7F02DCBB69002B04DC1849F86898
:1029D00007F042FF24E0174B1B78174A5B011344B2
:1029E0001B7883F00103DBB2002B18D17A69114BFD
:1029F0001B7891B2104A5B01134410330A461A80C7
:102A0000BA690C4B1B7891B20B4A5B011344123329
:102A10000A461A800949F86807F01EFF00E000BF67
:102A20002037BD4680BD00BF04F500081CF5000836
:102A300034F50008810B0020D40100204CF500087B
:102A400080B588B000AFF860B9607A60B86808F007
:102A500007F80346FB61FB69012B04DC3049F86889
:102A600007F0FAFE58E0FB69022B04DD2D49F868F7
:102A700007F0F2FE50E00121B86807F0BBFF034603
:102A800018460AF076FD03467B610221B86807F01C
:102A9000B1FF034618460AF06CFD0346BB617B6933
:102AA000B3F57A7F02DC7B69002B04DC1E49F868F1
:102AB00007F0D2FE30E0BB69B3F57A7F02DCBB6978
:102AC000002B04DC1849F86807F0C6FE24E0174B19
:102AD0001B78174A5B0113441B7883F00103DBB2B8
:102AE000002B18D17A69114B1B7891B2104A5B0107
:102AF000134418330A461A80BA690C4B1B7891B2FA
:102B00000B4A5B0113441A330A461A800949F868D4
:102B100007F0A2FE00E000BF2037BD4680BD00BF29
:102B200004F500081CF5000834F50008810B0020AE
:102B3000D40100204CF5000880B588B000AFF860E3
:102B4000B9607A60B86807F08BFF0346FB61FB69E8
:102B5000012B04DC3049F86807F07EFE58E0FB6981
:102B6000022B04DD2D49F86807F076FE50E00121C4
:102B7000B86807F03FFF034618460AF0FAFC034620
:102B80007B610221B86807F035FF034618460AF05A
:102B9000F0FC0346BB617B69B3F57A7F02DC7B699D
:102BA000002B04DC1E49F86807F056FE30E0BB69D4
:102BB000B3F57A7F02DCBB69002B04DC1849F868A6
:102BC00007F04AFE24E0174B1B78174A5B011344B9
:102BD0001B7883F00103DBB2002B18D17A69114B0B
:102BE0001B7891B2104A5B0113441C330A461A80C9
:102BF000BA690C4B1B7891B20B4A5B0113441E332C
:102C00000A461A800949F86807F026FE00E000BF6E
:102C10002037BD4680BD00BF04F500081CF5000844
:102C200034F50008810B0020D40100204CF5000889
:102C300080B586B000AFF860B9607A60FEF7F4FC4A
:102C40000346002B04D01E49F86807F005FE33E068
:102C50001C4B1B78012B04D11B49F86807F0FCFDC5
:102C60002AE0B86807F0FCFE0346FB75FB7D002BED
:102C700004D11649F86807F0EFFD1DE0FB7D012B3C
:102C800004D91349F86807F0E7FD15E00121B86899
:102C900007F0B0FE034618460AF06BFC0346BB750E
:102CA000BB7D012B07D10B4B01221A7001210120A2
:102CB00009F0A4FB00E000BF1837BD4680BD00BF8F
:102CC00058F600081603002090F6000804F50008E6
:102CD0001CF500081503002080B586B000AFF86031
:102CE000B9607A60B86807F0BBFE0346FB74FB7CF2
:102CF000012B04D84849F86807F0AEFD88E0FB7C5A
:102D0000022B04D94549F86807F0A6FD80E00121AF
:102D1000B86807F06FFE034618460AF02AFC78618F
:102D20000221B86807F066FE03463D491846FDF7E4
:102D30004FFA0346002B06D17B694FF47A7202FBEF
:102D400003F37B6110E00221B86807F053FE0346ED
:102D500034491846FDF73CFA0346002B04D03249AB
:102D6000F86807F079FD53E0304B1B88B3F5C87F56
:102D70000BD17B692E4A934202DC7B69002B04DA7B
:102D80002949F86807F068FD42E0284B1B88C82BEA
:102D90000BD17B69274A934202DC7B69002B04DA62
:102DA0002149F86807F058FD32E0204B1B88642B5E
:102DB0000BD17B69204A934202DC7B69002B04DA49
:102DC0001949F86807F048FD22E01C4B1B680C22EB
:102DD0001A701A4B1B687A69D2B25A737B691A123D
:102DE000164B1B68D2B29A737B691A14134B1B687B
:102DF000D2B2DA737B691A16104B1B68D2B21A74FE
:102E0000112001F057F90E49F86807F025FD00BFC1
:102E10001837BD4680BD00BF04F500081CF500084A
:102E2000C0F60008C4F6000834F500081C010020B4
:102E3000801A0600400D0300A0860100200100203A
:102E40004CF5000880B586B000AFF860B9607A60D4
:102E5000B86807F005FE0346FB75FB7D002B04D028
:102E60000949F86807F0F8FC0BE0084B1B680D22D5
:102E70001A70012001F01EF90549F86807F0ECFC12
:102E800000BF1837BD4680BD34F500082001002082
:102E90004CF5000880B586B000AFF860B9607A6084
:102EA000B86807F0DDFD0346FB75FB7D002B04D100
:102EB0002149F86807F0D0FC3AE0FB7D012B04D9EA
:102EC0001E49F86807F0C8FC32E00121B86807F035
:102ED00091FD034618460AF04CFB0346002B14BF35
:102EE00001230023BB75BB7D002B0ED0144B1B6848
:102EF0000E221A70124B1B6801225A70022001F038
:102F0000D9F8104B01221A700DE00D4B1B680E22F0
:102F10001A700B4B1B6800225A70022001F0CAF88D
:102F2000084B00221A700849F86807F095FC00BFAA
:102F30001837BD4680BD00BF04F500081CF5000829
:102F400020010020160300204CF5000880B586B053
:102F500000AFF860B9607A60B86807F081FD034699
:102F6000FB75FB7D002B04D00E49F86807F074FC5C
:102F700015E00D4B1B78012B04D10C49F86807F0C4
:102F80006BFC07E0084B1B78002B03D10849F8685D
:102F900007F062FC0749F86807F05EFC00BF1837CD
:102FA000BD4680BD34F5000816030020C8F60008B1
:102FB000ECF600084CF5000880B5A6B000AFF8604C
:102FC000B9607A60B86807F04BFD0346C7F89030E7
:102FD000D7F89030002B04D09349F86807F03CFCF8
:102FE0001EE1002387F89730002387F8973010E11F
:102FF0008E49F86807F030FC97F897305A1C07F1B3
:1030000010038B4918460AF073FB07F110031946A9
:10301000F86807F021FC97F89730864A5B01134463
:1030200004331B785A1C97F8973082495B010B4494
:1030300005331B78013307F110007F490AF058FB74
:1030400007F110031946F86807F006FC97F8973067
:10305000784A5B01134408331B78194697F8973078
:10306000744A5B01134409331B7807F110000A46C8
:1030700072490AF03DFB07F110031946F86807F0A2
:10308000EBFB97F897306B4A5B01134414331B78C2
:10309000194697F89730674A5B01134414331B783D
:1030A00007F110000A4666490AF022FB07F11003F7
:1030B0001946F86807F0D0FB97F897305D4A5B0136
:1030C00013440A331B881A4607F110035D4918465A
:1030D0000AF00EFB07F110031946F86807F0BCFB75
:1030E00097F89730534A5B01134416331B881A46EE
:1030F00007F11003544918460AF0FAFA07F11003D1
:103100001946F86807F0A8FB97F89730494A5B0121
:10311000134406331B881A4607F110034B4918461F
:103120000AF0E6FA07F110031946F86807F094FB75
:1031300097F897303F4A5B0113440C331B881946BC
:1031400097F897303B4A5B0113440E331B8807F115
:1031500010000A463E490AF0CBFA07F1100319465F
:10316000F86807F079FB97F89730324A5B0113440F
:1031700010331B88194697F897302E4A5B01134489
:1031800012331B8807F110000A4632490AF0B0FAE0
:1031900007F110031946F86807F05EFB97F89730BF
:1031A000244A5B01134418331B88194697F897305B
:1031B000204A5B0113441A331B8807F110000A46AA
:1031C00025490AF095FA07F110031946F86807F047
:1031D00043FB97F89730174A5B0113441C331B8855
:1031E000194697F89730134A5B0113441E331B8826
:1031F00007F110000A4619490AF07AFA07F110039C
:103200001946F86807F028FB97F89730013387F8DC
:103210009730134B1B7897F897209A427FF6E8AEC9
:103220009837BD4680BD00BF34F500080CF7000894
:1032300038F60008D40100204CF7000878F70008A1
:10324000ACF70008E0F700080CF8000838F80008B0
:1032500064F80008A0F80008DCF8000818F9000875
:10326000810B002080B596B000AFF860B9607A603D
:10327000B86807F0F5FB03467B657B6D002B04D037
:103280000D49F86807F0E8FA13E00C4B1B785A1C5C
:1032900007F114030A4918460AF02AFA07F1140341
:1032A0001946F86807F0D8FA0649F86807F0D4FA22
:1032B00000BF5837BD4680BD34F50008810B0020A3
:1032C00038F600084CF5000880B485B000AFF8600F
:1032D000B9607A6000BF1437BD465DF8047B704763
:1032E00080B485B000AFF860B9607A6000BF143771
:1032F000BD465DF8047B704780B596B000AFF860BE
:10330000B9607A60B86807F0ABFB03467B657B6DFC
:10331000002B04D01049F86807F09EFA18E00F4B14
:103320001B780F4A5B01134402331B881A4607F1CE
:1033300014030C4918460AF0DBF907F11403194687
:10334000F86807F089FA0849F86807F085FA00BFBD
:103350005837BD4680BD00BF34F50008810B002002
:10336000D401002054F900084CF5000880B596B04F
:1033700000AFF860B9607A60B86807F071FB034687
:103380007B657B6D002B04D01349F86807F064FA65
:103390001FE0124B1B78124A5B01134404331B7865
:1033A0005A1C0E4B1B780E495B010B4405331B78EE
:1033B000013307F114000B490AF09AF907F11403DD
:1033C0001946F86807F048FA0749F86807F044FA20
:1033D00000BF5837BD4680BD34F50008810B002082
:1033E000D40100204CF700084CF5000880B596B0D9
:1033F00000AFF860B9607A60B86807F031FB034647
:103400007B657B6D002B04D02149F86807F024FA16
:103410003AE0204B1B78204A5B01134408331B78A9
:1034200019461C4B1B781C4A5B01134409331B785B
:1034300007F114000A4619490AF05AF907F1140372
:103440001946F86807F008FA124B1B78124A5B011C
:10345000134414331B7819460E4B1B780E4A5B013C
:10346000134414331B7807F114000A460C490AF080
:103470003FF907F114031946F86807F0EDF9094917
:10348000F86807F0E9F900BF5837BD4680BD00BFB6
:1034900034F50008810B0020D401002078F70008E3
:1034A000ACF700084CF5000880B596B000AFF860A6
:1034B000B9607A60B86807F0D3FA03467B657B6D24
:1034C000002B04D02449F86807F0C6F940E0234BEC
:1034D0001B78234A5B0113440A331B881A4607F101
:1034E0001403204918460AF003F907F1140319469A
:1034F000F86807F0B1F9194B1B78194A5B011344BE
:1035000016331B881A4607F11403174918460AF0A8
:10351000EFF807F114031946F86807F09DF90F4B0F
:103520001B780F4A5B01134406331B881A4607F1C8
:1035300014030E4918460AF0DBF807F11403194684
:10354000F86807F089F90A49F86807F085F900BFBB
:103550005837BD4680BD00BF34F50008810B002000
:10356000D4010020E0F700080CF8000838F8000843
:103570004CF5000880B596B000AFF860B9607A608D
:10358000B86807F06DFA03467B657B6D002B04D0AD
:103590002149F86807F060F93AE0204B1B78204A8F
:1035A0005B0113440C331B8819461C4B1B781C4AC7
:1035B0005B0113440E331B8807F114000A461949B6
:1035C0000AF096F807F114031946F86807F044F971
:1035D000124B1B78124A5B01134410331B881946A7
:1035E0000E4B1B780E4A5B01134412331B8807F104
:1035F00014000A460C490AF07BF807F11403194637
:10360000F86807F029F90949F86807F025F900BFBB
:103610005837BD4680BD00BF34F50008810B00203F
:10362000D401002064F80008A0F800084CF5000858
:1036300080B596B000AFF860B9607A60B86807F0FE
:103640000FFA03467B657B6D002B04D01349F868A5
:1036500007F002F91FE0124B1B78124A5B0113447A
:103660000C331B8819460E4B1B780E4A5B01134422
:103670000E331B8807F114000A460B490AF038F88C
:1036800007F114031946F86807F0E6F80749F868E7
:1036900007F0E2F800BF5837BD4680BD34F500089A
:1036A000810B0020D401002064F800084CF50008CC
:1036B00080B596B000AFF860B9607A60B86807F07E
:1036C000CFF903467B657B6D002B04D01349F86866
:1036D00007F0C2F81FE0124B1B78124A5B0113443B
:1036E00010331B8819460E4B1B780E4A5B0113449E
:1036F00012331B8807F114000A460B4909F0F8FF42
:1037000007F114031946F86807F0A6F80749F868A6
:1037100007F0A2F800BF5837BD4680BD34F5000859
:10372000810B0020D4010020A0F800084CF500080F
:1037300080B596B000AFF860B9607A60B86807F0FD
:103740008FF903467B657B6D002B04D02149F86817
:1037500007F082F83AE0204B1B78204A5B011344C3
:1037600018331B8819461C4B1B781C4A5B011344F9
:103770001A331B8807F114000A46194909F0B8FFEB
:1037800007F114031946F86807F066F8124B1B7826
:10379000124A5B0113441C331B8819460E4B1B78DD
:1037A0000E4A5B0113441E331B8807F114000A46BE
:1037B0000C4909F09DFF07F114031946F86807F05A
:1037C0004BF80949F86807F047F800BF5837BD467D
:1037D00080BD00BF34F50008810B0020D40100201B
:1037E000DCF8000818F900084CF5000880B596B020
:1037F00000AFF860B9607A60B86807F031F9034645
:103800007B657B6D002B04D01349F86807F024F822
:103810001FE0124B1B78124A5B01134418331B88BC
:1038200019460E4B1B780E4A5B0113441A331B8852
:1038300007F114000A460B4909F05AFF07F1140377
:103840001946094809F0DCFD0849F86807F004F852
:1038500000BF5837BD4680BD34F50008810B0020FD
:10386000D4010020DCF80008880B00204CF500088B
:1038700080B596B000AFF860B9607A60B86807F0BC
:10388000EFF803467B657B6D002B04D01349F86885
:1038900006F0E2FF1FE0124B1B78124A5B01134453
:1038A0001C331B8819460E4B1B780E4A5B011344D0
:1038B0001E331B8807F114000A460B4909F018FF54
:1038C00007F114031946F86806F0C6FF0749F868BF
:1038D00006F0C2FF00BF5837BD4680BD34F5000872
:1038E000810B0020D401002018F900084CF50008D5
:1038F00080B586B000AFF860B9607A60B86807F04C
:10390000AFF803467B617B69002B04D00E49F86851
:1039100006F0A2FF15E00D4B1B78002B04D00C49DC
:10392000F86806F099FF07E0084B1B78002B03D1DD
:103930000849F86806F090FF0749F86806F08CFF20
:1039400000BF1837BD4680BD34F5000815030020C0
:1039500074F900088CF900084CF5000880B5A6B091
:1039600000AFF860B9607A60B86807F079F803468C
:10397000C7F89430D7F89430002B04D09249F868F7
:1039800006F06AFF1DE19149F86806F065FF904B6B
:103990001B785A1C07F114038E49184609F0A8FE3B
:1039A00007F114031946F86806F056FF884B1B7898
:1039B000894A5B01134404331B785A1C844B1B78DF
:1039C00085495B010B4405331B78013307F1140073
:1039D000824909F08DFE07F114031946F86806F0D4
:1039E0003BFF7B4B1B787C4A5B01134408331B78FD
:1039F0001946774B1B78784A5B01134409331B78CF
:103A000007F114000A46764909F072FE07F1140323
:103A10001946F86806F020FF6D4B1B786E4A5B0173
:103A2000134414331B781946694B1B786A4A5B01AF
:103A3000134414331B7807F114000A46694909F04E
:103A400057FE07F114031946F86806F005FF604BAE
:103A50001B78614A5B0113440A331B881A4607F13D
:103A600014036149184609F043FE07F1140319468F
:103A7000F86806F0F1FE564B1B78574A5B01134479
:103A800016331B881A4607F114035849184609F0E3
:103A90002FFE07F114031946F86806F0DDFE4C4BC3
:103AA0001B784D4A5B01134406331B881A4607F105
:103AB00014034F49184609F01BFE07F11403194679
:103AC000F86806F0C9FE424B1B78434A5B01134479
:103AD0000C331B8819463E4B1B783F4A5B0113444D
:103AE0000E331B8807F114000A46424909F000FE14
:103AF00007F114031946F86806F0AEFE344B1B7844
:103B0000354A5B01134410331B881946304B1B7830
:103B1000314A5B01134412331B8807F114000A4633
:103B2000354909F0E5FD07F114031946F86806F078
:103B300093FE274B1B78284A5B01134418331B88DC
:103B40001946234B1B78244A5B0113441A331B8804
:103B500007F114000A46294909F0CAFD07F11403C8
:103B60001946F86806F078FE194B1B781A4A5B0173
:103B700013441C331B881946154B1B78164A5B01EE
:103B800013441E331B8807F114000A461C4909F030
:103B9000AFFD07F114031946F86806F05DFE194BF6
:103BA0001B78002B04D01849F86806F055FE07E092
:103BB000144B1B78002B03D11449F86806F04CFE17
:103BC00000BF9837BD4680BD34F500080CF70008EB
:103BD000810B002038F60008D40100204CF70008C3
:103BE00078F70008ACF70008E0F700080CF80008C8
:103BF00038F8000864F80008A0F80008DCF80008AD
:103C000018F900081503002074F900088CF9000861
:103C100080B586B000AFF860B9607A60B86806F029
:103C20001FFF0346FB75FB7D002B04D00949F86894
:103C300006F012FE0BE0084B1B6811221A700120DF
:103C400000F038FA0549F86806F006FE00BF18379C
:103C5000BD4680BD34F50008200100204CF5000869
:103C600080B586B000AFF860B9607A60B86806F0D9
:103C7000F7FE0346FB75FB7D002B04D00949F8686D
:103C800006F0EAFD0BE0084B1B6812221A700120B7
:103C900000F010FA0549F86806F0DEFD00BF18379D
:103CA000BD4680BD34F50008200100204CF5000819
:103CB00080B586B000AFF860B9607A60B86806F089
:103CC000CFFE0346FB75FB7D002B04D00949F86845
:103CD00006F0C2FD0BE0084B1B6813221A7001208E
:103CE00000F0E8F90549F86806F0B6FD00BF18379E
:103CF000BD4680BD34F50008200100204CF50008C9
:103D000080B586B000AFF860B9607A60B86806F038
:103D1000A7FE0346FB75FB7D002B04D00949F8681C
:103D200006F09AFD0BE0084B1B6814221A70012064
:103D300000F0C0F90549F86806F08EFD00BF18379D
:103D4000BD4680BD34F50008200100204CF5000878
:103D500080B586B000AFF860B9607A60B86806F0E8
:103D60007FFE0346FB75FB7D002B04D00949F868F4
:103D700006F072FD0BE0084B1B6815221A7001203B
:103D800000F098F90549F86806F066FD00BF18379D
:103D9000BD4680BD34F50008200100204CF5000828
:103DA00080B586B000AFF860B9607A60B86806F098
:103DB00057FE0346FB75FB7D002B04D00949F868CC
:103DC00006F04AFD0BE0084B1B6816221A70012012
:103DD00000F070F90549F86806F03EFD00BF18379D
:103DE000BD4680BD34F50008200100204CF50008D8
:103DF00080B586B000AFF860B9607A60B86806F048
:103E00002FFE0346FB75FB7D002B04D00949F868A3
:103E100006F022FD0BE0084B1B6817221A700120E8
:103E200000F048F90549F86806F016FD00BF18379C
:103E3000BD4680BD34F50008200100204CF5000887
:103E400080B586B000AFF860B9607A60B86806F0F7
:103E500007FE0346FB75FB7D002B04D00949F8687B
:103E600006F0FAFC0BE0084B1B6818221A700120C0
:103E700000F020F90549F86806F0EEFC00BF18379D
:103E8000BD4680BD34F50008200100204CF5000837
:103E900080B586B000AFF860B9607A60B86806F0A7
:103EA000DFFD0346FB75FB7D002B04D12149F8683B
:103EB00006F0D2FC3AE0FB7D012B04D91E49F868DC
:103EC00006F0CAFC32E00121B86806F093FD034613
:103ED000184609F04EFB38613B69642B0BD03B69F7
:103EE000C82B08D03B69B3F5C87F04D01349F868E4
:103EF00006F0B2FC1AE0124B1B6819221A703B69DB
:103F0000104A82FB03125211DB17D21A0C4B1B68AA
:103F1000D2B25A70022000F0CDF83B699AB20A4B37
:103F20001A800A49F86806F097FC00BF1837BD46AA
:103F300080BD00BF04F500081CF5000834F500083A
:103F4000200100201F85EB511C0100204CF50008CA
:103F500080B586B000AFF860B9607A60B86806F0E6
:103F60007FFD0346FB75FB7D002B04D00949F868F3
:103F700006F072FC0BE0084B1B681A221A70012035
:103F800000F098F80549F86806F066FC00BF18379D
:103F9000BD4680BD34F50008200100204CF5000826
:103FA00080B586B000AFF860B9607A60B86806F096
:103FB00057FD0346FB75FB7D002B04D00949F868CB
:103FC00006F04AFC0BE0084B1B681B221A7001200C
:103FD00000F070F80549F86806F03EFC00BF18379D
:103FE000BD4680BD34F50008200100204CF50008D6
:103FF00080B586B000AFF860B9607A60B86806F046
:104000002FFD0346FB75FB7D002B04D00949F868A2
:1040100006F022FC0BE0084B1B681C221A700120E2
:1040200000F048F80549F86806F016FC00BF18379C
:10403000BD4680BD34F50008200100204CF5000885
:1040400080B588B000AFF860B9607A6007F11403FA
:10405000074A0A21184609F015FB07F1140319460F
:10406000F86806F0F9FB00BF2037BD4680BD00BFF1
:10407000A8F9000880B584B000AFF860B9607A6034
:10408000FDF72AFC80B485B000AFF860B9607A60B3
:1040900000BF1437BD465DF8047B704780B485B01F
:1040A00000AFF860B9607A6000BF1437BD465DF8B4
:1040B000047B704780B58AB000AF0346FB711F4B8D
:1040C000CA221A701E4B1A781C4B5A701B4B0122C5
:1040D0009A701A4AFB79D370184B07221A71174B42
:1040E000EF2283F80021154BDB780433DBB21A464C
:1040F0001449002007F03AFE03461A460F4BA3F876
:10410000FE2007F10C0300221A605A609A60DA6000
:104110001A615A611A7607F10B0207F10C0319466E
:10412000064807F06FFEFA7A07F10C0319460648B5
:1041300009F07EF900BF2837BD4680BD6419002014
:10414000DC84002065190020F817002080B400AF3F
:10415000024B1846BD465DF8047B704764FF0008BB
:1041600080B400AF44231846BD465DF8047B704719
:1041700080B584B004AF4FF4007303934FF4007321
:1041800002930E4B01930E4B009327230D4A0E49C9
:104190000E4809F0BCF84FF400620D490B4806F0D8
:1041A00071F903460B4A13600B49084809F028F9D6
:1041B0000A4B064A1A6000BFBD4680BDF40D0020C0
:1041C000F40B002000480040B0F90008880B0020E4
:1041D000F40F0020F4170020BCF90008840B002025
:1041E00080B584B000AF78600BE00D4809F0D4F8DA
:1041F0000346FB730B4B1B68FA7B1146184606F00F
:1042000077FA074809F032F90346002BEDD1054B48
:104210001B68184606F08FFA00BF1037BD4680BDF8
:10422000880B0020F417002080B5ADF5347D02AF77
:10423000A44B1B681B781C2B00F2FA8601A252F8D3
:1042400023F000BF355000083550000835500008F5
:10425000355000083550000831500008B9420008B8
:10426000614300080B440008B74300085F4400089E
:10427000F545000831500008DD4F000831500008B6
:10428000215000089145000871460008CD470008FC
:10429000F94800082B4B0008974B0008214C0008F8
:1042A0008D4C0008A74D000831500008C14E000891
:1042B0002D4F0008854F0008824B1B685B78012B4F
:1042C00004D18149814809F09BF81CE07D4B1B68B3
:1042D0009B78012B04D17E497C4809F091F812E0CB
:1042E000784B1B68DB78012B04D17A49774809F0B9
:1042F00087F808E0734B1B681B79012B03D17649C3
:10430000724809F07DF86F4B1B685B79012B05D172
:1043100072496E4809F074F800F08EBE694B1B6854
:104320009B79012B05D16E49684809F069F800F0C6
:1043300083BE644B1B68DB79012B05D16949634857
:1043400009F05EF800F078BE5E4B1B681B7A012B0B
:1043500040F0728664495D4809F052F800F06CBE86
:10436000584B1B685B781BB21B021AB2554B1B687B
:104370009B781BB213431BB2A7F80032514B1B684A
:10438000DB781BB21B021AB24E4B1B681B791BB2A7
:1043900013431BB2A7F8FE31B7F80022B7F8FE317D
:1043A0003846524909F0A4F93B461946474809F0F6
:1043B00027F800F04CBE434B1B685B78012B04D1FF
:1043C0004349424809F01CF808E03E4B1B685B7803
:1043D000002B03D146493D4809F012F8394B1B68C0
:1043E0009B78012B05D13E49384809F009F800F0C7
:1043F00025BE344B1B689B78002B40F01F863D493F
:10440000324808F0FDFF00F019BE2E4B1B685B78A8
:10441000012B04D12F492D4808F0F2FF08E0294B69
:104420001B685B78002B03D13349284808F0E8FF6C
:10443000244B1B689B78012B05D12A49234808F09F
:10444000DFFF00F0FDBD1F4B1B689B78002B40F089
:10445000F7852A491D4808F0D3FF00F0F1BD194B3C
:104460001B685B781BB21B021AB2164B1B689B7849
:104470001BB213431BB2A7F80432124B1B68DB7844
:104480001BB21B021AB20F4B1B681B791BB21343E2
:104490001BB2A7F80232B7F80422B7F80232384646
:1044A000174909F025F93B461946084808F0A8FFC6
:1044B000044B1B685B79012B24D10549034808F0A4
:1044C0009FFF28E024010020D4F90008880B002079
:1044D000E8F9000800FA00081CFA000838FA000899
:1044E0004CFA000864FA000880FA00089CFA0008F8
:1044F000D0FA0008ECFA000808FB000828FB0008C6
:1045000048FB0008A14B1B685B79002B03D1A04935
:10451000A04808F075FF9D4B1B689B79012B04D1C7
:104520009D499C4808F06CFF08E0984B1B689B79FC
:10453000002B03D19949974808F062FF934B1B6801
:10454000DB79012B04D19649924808F059FF08E025
:104550008E4B1B68DB79002B03D192498D4808F004
:104560004FFF8A4B1B681B7A012B05D18E49894866
:1045700008F046FF00F066BD844B1B681B7A002BD9
:1045800040F060858949834808F03AFF00F05ABD41
:104590007E4B1B685B781A467C4B1B689B781B0222
:1045A0001A437A4B1B68DB781B041A43774B1B6852
:1045B0001B791B061343C7F81032744B1B685B79D9
:1045C0001AB2724B1B689B791BB21B021BB21343BE
:1045D0001BB2A7F80E32B7F80E323846D7F81022C1
:1045E000734909F085F83B4619466A4808F008FF08
:1045F00000F02DBD654B1B685B78002B14BF0123B9
:10460000002387F80732614B1B689B78002B14BF8F
:104610000123002387F8063297F80732002B04D0D5
:1046200064495C4808F0ECFE0AE097F8073283F032
:104630000103DBB2002B03D05F49564808F0E0FECF
:1046400097F80632002B05D05C49524808F0D8FE96
:1046500000F0FABC97F8063283F00103DBB2002BBE
:1046600000F0F28456494B4808F0CAFE00F0ECBC5A
:10467000464B1B685B781A46444B1B689B781B02B1
:104680001A43424B1B68DB781B041A433F4B1B68E1
:104690001B791B061343C7F828323C4B1B685B7918
:1046A0001A463A4B1B689B791B021A43374B1B680F
:1046B000DB791B041A43354B1B681B7A1B0613431B
:1046C000C7F82432314B1B685B7A1A462F4B1B68A4
:1046D0009B7A1B021A432D4B1B68DB7A1B041A437F
:1046E0002A4B1B681B7B1B061343C7F82032D7F8E5
:1046F000283207EE903AB8EEE77ADFED326AC7EE7D
:10470000267AC7ED877AD7F8243207EE903AB8EECA
:10471000E77ADFED2C6AC7EE267AC7ED867AD7F8FE
:10472000203207EE903AB8EEE77ADFED266AC7EE60
:10473000267AC7ED857A07F5F6730221184697EDBC
:10474000870A00F097FC07F5EE730221184697EDF3
:10475000860A00F08FFC07F5E6730221184697EDF4
:10476000850A00F087FC07F5EE7107F5F67238460A
:1047700007F5E67300930B46134908F0B9FF3B4673
:104780001946044808F03CFE00F061BC24010020FA
:10479000D0FA0008880B00204CFA0008ECFA000858
:1047A00000FA000808FB000864FA000828FB00086B
:1047B0007CFB00089CFB0008C8FB0008F8FB000815
:1047C00024FC000800007A4454FC0008464B1B6897
:1047D0005B7B1A46444B1B689B7B1B021A43424B74
:1047E0001B68DB7B1B041A433F4B1B681B7C1B06AF
:1047F0001343C7F840323C4B1B685B7C1A463A4B6C
:104800001B689B7C1B021A43374B1B68DB7C1B0419
:104810001A43354B1B681B7D1B061343C7F83C32FC
:10482000314B1B685B7D1A462F4B1B689B7D1B021F
:104830001A432D4B1B68DB7D1B041A432A4B1B6854
:104840001B7E1B061343C7F83832D7F8403207EEF9
:10485000903AB8EEE77ADFED256AC7EE267AC7ED23
:104860008D7AD7F83C3207EE903AB8EEE77ADFED72
:104870001F6AC7EE267AC7ED8C7AD7F8383207EE72
:10488000903AB8EEE77ADFED196AC7EE267AC7EDFF
:104890008B7A07F5DE730221184697ED8D0A00F03A
:1048A000E9FB07F5D6730221184697ED8C0A00F054
:1048B000E1FB07F5CE730221184697ED8B0A00F055
:1048C000D9FB07F5D67107F5DE72384607F5CE73CA
:1048D00000930B46064908F00BFF3B461946054876
:1048E00008F08EFDB3E300BF2401002000007A44ED
:1048F00088FC0008880B0020C24B1B685B781A46B6
:10490000C04B1B689B781B021A43BE4B1B68DB78AD
:104910001B041A43BB4B1B681B791B061343C7F8C8
:104920007032B84B1B685B791A46B64B1B689B7993
:104930001B021A43B34B1B68DB791B041A43B14BB0
:104940001B681B7A1B061343C7F86C32AD4B1B6800
:104950005B7A1A46AB4B1B689B7A1B021A43A94B26
:104960001B68DB7A1B041A43A64B1B681B7B1B06C8
:104970001343C7F86832A34B1B685B7B1A46A14BF5
:104980001B689B7B1B021A439E4B1B68DB7B1B0433
:104990001A439C4B1B681B7C1B061343C7F86432ED
:1049A000984B1B685B7C1A46964B1B689B7C1B02D2
:1049B0001A43944B1B68DB7C1B041A43914B1B6806
:1049C0001B7D1B061343C7F860328E4B1B685B7D53
:1049D0001A468C4B1B689B7D1B021A43894B1B6834
:1049E000DB7D1B041A43874B1B681B7E1B0613438E
:1049F000C7F85C32D7F8703207EE903AB8EEE77A33
:104A0000DFED816AC7EE267AC7ED967AD7F86C3269
:104A100007EE903AB8EEE77ADFED7B6AC7EE267ACA
:104A2000C7ED957AD7F8683207EE903AB8EEE77A94
:104A3000DFED756AC7EE267AC7ED947AD7F864324F
:104A400007EE903AB8EEE77ADFED6F6AC7EE267AA6
:104A5000C7ED937AD7F8603207EE903AB8EEE77A6E
:104A6000DFED696AC7EE267AC7ED927AD7F85C3235
:104A700007EE903AB8EEE77ADFED636AC7EE267A82
:104A8000C7ED917A07F5C6730221184697ED960A8D
:104A900000F0F0FA07F5BE730221184697ED950A6B
:104AA00000F0E8FA07F5B6730221184697ED940A6C
:104AB00000F0E0FA07F5BE7107F5C672384607F553
:104AC000B67300930B46514908F012FE3B46194657
:104AD0004F4808F095FC07F5AE730221184697ED94
:104AE000930A00F0C7FA07F5A6730221184697ED5E
:104AF000920A00F0BFFA07F59E730221184697ED5F
:104B0000910A00F0B7FA07F5A67107F5AE723846BC
:104B100007F59E7300930B463E4908F0E9FD3B46BE
:104B200019463B4808F06CFC91E2364B1B685B78F9
:104B30001A46344B1B689B781B021A43314B1B6887
:104B4000DB781B041A432F4B1B681B791B0613438E
:104B5000C7F87832D7F8783207EE903AB8EEE77AAD
:104B6000DFED296AC7EE267AC7ED9D7A07F59673C1
:104B70000221184697ED9D0A00F07CFA07F596721F
:104B80003B462549184608F0B3FD3B4619462048E8
:104B900008F036FC5BE21B4B1B685B791A46194B2D
:104BA0001B689B791B021A43164B1B68DB791B049D
:104BB0001A43144B1B681B7A1B061343C7F8803239
:104BC000D7F8803207EE903AB8EEE77ADFED0E6A5A
:104BD000C7EE267AC7ED9F7A07F58E730221184635
:104BE00097ED9F0A00F046FA07F58E723B460B4997
:104BF000184608F07DFD3B461946054808F000FCC4
:104C000025E200BF2401002000007A4454FC000883
:104C1000880B002088FC0008BCFC0008D4FC0008BD
:104C2000B84B1B685B7A1A46B64B1B689B7A1B0213
:104C30001A43B44B1B68DB7A1B041A43B14B1B6845
:104C40001B7B1B061343C7F88832D7F8883207EE60
:104C5000903AB8EEE77ADFEDAC6AC7EE267AC7ED98
:104C6000A17A07F586730221184697EDA10A00F094
:104C700001FA07F586723B46A449184608F038FD4C
:104C80003B461946A24808F0BBFBE0E19D4B1B6880
:104C90005B781A469B4B1B689B781B021A43994B07
:104CA0001B68DB781B041A43964B1B681B791B0699
:104CB0001343C7F8A032934B1B685B791A46914B9C
:104CC0001B689B791B021A438E4B1B68DB791B0404
:104CD0001A438C4B1B681B7A1B061343C7F89C3284
:104CE000884B1B685B7A1A46864B1B689B7A1B02B3
:104CF0001A43844B1B68DB7A1B041A43814B1B68E5
:104D00001B7B1B061343C7F89832D7F8A03207EE77
:104D1000903AB8EEE77ADFED7C6AC7EE267AC7ED07
:104D2000A57AD7F89C3207EE903AB8EEE77ADFED35
:104D3000766AC7EE267AC7EDA47AD7F8983207EEDE
:104D4000903AB8EEE77ADFED706AC7EE267AC7EDE3
:104D5000A37A07F1FC030221184697EDA50A00F09B
:104D600089F907F1EC030221184697EDA40A00F037
:104D700081F907F1DC030221184697EDA30A00F040
:104D800079F907F1EC0107F1FC02384607F1DC0381
:104D900000930B465F4908F0ABFC3B4619465C4864
:104DA00008F02EFB53E1574B1B685B781A46554BB6
:104DB0001B689B781B021A43524B1B68DB781B0451
:104DC0001A43504B1B681B791B061343C7F8B832B4
:104DD0004C4B1B685B791A464A4B1B689B791B023C
:104DE0001A43484B1B68DB791B041A43454B1B686D
:104DF0001B7A1B061343C7F8B432424B1B685B7A1D
:104E00001A46404B1B689B7A1B021A433D4B1B689A
:104E1000DB7A1B041A433B4B1B681B7B1B061343AB
:104E2000C7F8B032D7F8B83207EE903AB8EEE77A62
:104E3000DFED396AC7EE267AC7EDAB7AD7F8B43220
:104E400007EE903AB8EEE77ADFED336AC7EE267ADE
:104E5000C7EDAA7AD7F8B03207EE903AB8EEE77A03
:104E6000DFED2D6AC7EE267AC7EDA97A07F1CC03EC
:104E70000221184697EDAB0A00F0FCF807F1BC03DD
:104E80000221184697EDAA0A00F0F4F807F1AC03E6
:104E90000221184697EDA90A00F0ECF807F1BC01D1
:104EA00007F1CC02384607F1AC0300930B461B49CF
:104EB00008F01EFC3B461946154808F0A1FAC6E06A
:104EC000104B1B685B7887F8BF3297F8BF32012B15
:104ED00004D113490E4808F093FAB7E097F8BF32AF
:104EE000022B04D10F490A4808F08AFAAEE097F87D
:104EF000BF32042B40F0AA800B49054808F080FA25
:104F0000A4E000BF2401002000007A44ECFC00086B
:104F1000880B002000FD0008002474493CFD0008B7
:104F200068FD000888FD0008A8FD00084A4B1B68C2
:104F30005B781BB21B021AB2474B1B689B781BB2F3
:104F400013431BB29BB207EE903AB8EEE77ADFED5F
:104F5000436AC7EE267AC7EDB07A07F19C030221B7
:104F6000184697EDB00A00F085F807F19C023B4621
:104F70003B49184608F0BCFB3B461946394808F047
:104F80003FFA64E0344B1B685B781BB21B021AB219
:104F9000314B1B689B781BB213431BB29BB207EECD
:104FA000903AB8EEE77ADFED2D6AC7EE267AC7EDC4
:104FB000B17A07F18C030221184697EDB10A00F08F
:104FC00059F807F18C023B462749184608F090FB38
:104FD0003B461946234808F013FA38E01E4B1B687D
:104FE0005B7B1A461C4B1B689B7B1B021A431A4BAC
:104FF0001B68DB7B1B041A43174B1B681B7C1B06BF
:105000001343C7F808323B46D7F808221749184619
:1050100008F06EFB3B461946124808F0F1F916E01D
:10502000134B01221A700121012007F0E7F90EE06D
:1050300000230CE000BF0AE000BF08E000BF06E06C
:1050400000BF04E000BF02E000BF00E000BF184660
:1050500007F53277BD4680BD240100200000C8421C
:10506000C8FD0008880B0020E4FD000800FE0008D1
:105070001503002080B58EB000AF87ED030AB8603D
:105080000B46FB71D7ED037AF5EEC07AF1EE10FA1C
:105090000AD5BB685A1CBA602D221A70D7ED037A64
:1050A000F1EE677AC7ED037AFB7907EE903AF8EEF6
:1050B000677AF0EE670AB2EE040A08F0D9FFB0EEA4
:1050C000407AF6EE006AC6EE877A97ED037A77EEBD
:1050D000277AC7ED037AD7ED037AFCEEE77A17EE6D
:1050E000903A7B637B6B07EE903AF8EE677A97ED28
:1050F000037A77EE677AC7ED0C7A0023FB627B6B4D
:10510000002B22D1FB6A5A1CFA6238333B4430220E
:1051100003F8242C1CE0796B334BA3FB0123DA0842
:1051200013469B0013445B00CA1AD2B2FB6A591C97
:10513000F9623032D2B238333B4403F8242C7B6B13
:10514000294AA2FB0323DB087B637B6B002BE2D1A4
:10515000FB6A013BBB620BE0BB685A1CBA6007F1FB
:105160001401BA6A0A4412781A70BB6A013BBB6226
:10517000BB6A002BF0DAFB79002B2DD0BB685A1CE0
:10518000BA602E221A7024E0D7ED0C7AB2EE047ABF
:1051900067EE877AC7ED0C7AD7ED0C7AFCEEE77AEA
:1051A00017EE903A7B627B6ADAB2BB68591CB96031
:1051B0003032D2B21A707B6A07EE903AF8EE677A14
:1051C00097ED0C7A77EE677AC7ED0C7AFB79013BA5
:1051D000FB71FB79002BD7D1BB6800221A7000BF8E
:1051E0003837BD4680BD00BFCDCCCCCC80B584B0B7
:1051F00004AF8023039380230293124B0193124B3D
:1052000000933423114A1249124808F080F8124BD7
:10521000124A5A60104B80221A800F4B00221A81CA
:105220000D4B1B88002B06D00B4B5B680422002122
:10523000184608F099FA022006F0D4FD00BFBD46DA
:1052400080BD00BFE418002064180020004C00401E
:105250001CFE0008F81700206C1B0020781B0020A3
:1052600080B584B000AF78600023FB733223FB73FA
:1052700047E02A4808F090F80346DAB2284B9A72C1
:10528000274B9B7ADBB2CA2B03D1254B00221A8114
:1052900034E0234B9B7ADBB2EF2B14D1204B5B68BD
:1052A0001F4A128992B2D1B21E4A184606F0E0FE99
:1052B0000346BB73BB7B012B01D1FEF7B5FF184B37
:1052C00000221A811AE0164B5B68154A128992B2C5
:1052D0001344134A927AD2B21A70114B1B899BB2B3
:1052E00001339AB20E4B1A810D4B1B899AB20C4BAB
:1052F0001B889A4202D90A4B00221A81FB7B013B90
:10530000FB73064808F0B2F80346002B02D0FB7B83
:10531000002BAED100BF1037BD4680BDF81700206E
:105320006C1B0020681A002080B584B000AF0346D3
:105330000A46FB711346BB71BA79FB7911461846D0
:1053400004F088F804F05CFF322003F07BFA00F0F0
:105350004BF90346FB8104F0C5F904F063FFFB89B8
:1053600018461037BD4680BD80B596B000AF786056
:105370008E4B1B78042B00F2138101A252F823F00C
:1053800095530008C5540008B1530008275400087D
:10539000E154000804F0A6F904F044FF844B002215
:1053A0001A70844B00221A80042007F06DF8F8E090
:1053B000814B1B6801221A707D4B1B781A467F4B6C
:1053C00033F812301B0A9AB27B4B1B68D2B25A7068
:1053D000774B1B781A46794B33F81220764B1B68B3
:1053E000D2B29A70032000F09FF9734B1B6803221E
:1053F0001A70714B1B6801225A706F4B1B68002298
:105400009A70032000F090F96D4B42F210721A600E
:10541000664B03221A70684B1B6810221A70012019
:1054200000F082F9BDE0664B1B68002B40F0BA80AB
:10543000634B4FF47A721A605D4B1B781A465F4BD0
:1054400033F8123007EE903AF8EEE77A9FED5D7A86
:1054500067EE877AC7ED147A554B1B781A46574B7F
:1054600033F8123007EE903AF8EEE77A9FED567A6D
:1054700067EE877AC7ED137A544B1B8807EE903A94
:10548000F8EEE77A97ED147AB4EEE77AF1EE10FAD7
:105490000CDC4E4B1B8807EE903AF8EEE77A97ED5E
:1054A000137AB4EEE77AF1EE10FA07D5424B1B6897
:1054B00010221A70012000F037F972E03B4B0122F4
:1054C0001A706EE0424B1B78414A527811461846DA
:1054D00003F0C0FF04F094FE344B04221A7060E025
:1054E00000F082F80346A7F85630324B1B881A4664
:1054F000384B33F81230B7F856209A4213D92C4B58
:105500001B78032B0FD82A4B1B780133DAB2284BB8
:105510001A70284B1B8801339AB2264B1A80234BF2
:1055200002221A703FE0224B1B78032B0ED9294B25
:105530001B89B7F856209A4208D9B7F8562007F1C8
:105540000C032549184608F0D3F807E0B7F85620B1
:1055500007F10C032149184608F0CAF807F10C03BB
:1055600019461F4807F04CFF134B1B6804221A70A2
:10557000114B1B6801225A700F4B1B6800229A7056
:10558000032000F0D1F8094B00221A70154B0022BD
:105590001A70074B00221A70064B00221A8002E094
:1055A00000BF00E000BF5837BD4680BDF91B00209A
:1055B000FE1B0020001C0020200100202C010020E8
:1055C000280100206666663FCDCC8C3FFA1B002088
:1055D000FC1B00203801002028FE000854FE0008B3
:1055E000880B0020F81B002090B597B000AF07F1A2
:1055F000280328220021184608F0B6F83B46282246
:105600000021184608F0B0F84FF000037B65002336
:10561000A7F85030002387F8533042E0404803F0A9
:10562000D3FB53EC102B97F8534010461946FBF769
:10563000D5FA0246A30058333B44303B1A60384841
:1056400003F09AFB51EC100B33A3D3E90023FAF7D4
:10565000E3FF02460B4697F8534010461946FBF706
:10566000BDFA0246A30058333B44583B1A6097F8F2
:1056700053309B0058333B44303BD3ED007AF5EE7A
:10568000C07AF1EE10FA07D897F853309B005833E0
:105690003B44303B234A1A6097F85330013387F874
:1056A000533097F85330092BB8D9002387F852307C
:1056B0001CE097F852309B0058333B44583BD3EDE5
:1056C000006A97F852309B0058333B44303B93EDCF
:1056D000007AC6EE877A97ED157A77EE277AC7EDCE
:1056E000157A97F85230013387F8523097F85230D4
:1056F000092BDED997ED157AF2EE046AC7EE267A09
:10570000FCEEE77A17EE903AA7F85030B7F8503031
:1057100018465C37BD4690BD2682A3AAAAAA40407F
:10572000700000206F12833A80B58AB000AF034644
:10573000FB711F4BCA221A701E4B1A781C4B5A70F1
:105740001B4B01229A701A4AFB79D370184B07221F
:105750001A71174BEF2283F80021154BDB780433C5
:10576000DBB21A461449002006F000FB03461A4635
:105770000F4BA3F8FE2007F10C0300221A605A60B9
:105780009A60DA601A615A611A7607F10B0207F122
:105790000C031946064806F035FBFA7A07F10C03AC
:1057A0001946064807F044FE00BF2837BD4680BDB5
:1057B00064190020DC84002065190020F8170020FF
:1057C00080B485B000AF78607B6803F00703FB60AE
:1057D0000C4BDB68BB60BA684FF6FF031340BB603D
:1057E000FB681A02BB68134343F0BF6343F4003302
:1057F000BB60044ABB68D36000BF1437BD465DF888
:10580000047B704700ED00E080B400AF044BDB6820
:105810001B0A03F007031846BD465DF8047B70477A
:1058200000ED00E080B483B000AF0346FB7197F950
:105830000730002B0BDBFB7903F01F02074997F9B8
:1058400007305B09012000FA02F241F8232000BF73
:105850000C37BD465DF8047B704700BF00E100E0F7
:1058600080B483B000AF03463960FB7197F907300D
:10587000002B0ADB3B68DAB20C4997F907301201BA
:10588000D2B20B4483F800230AE03B68DAB208493D
:10589000FB7903F00F03043B1201D2B20B441A76DA
:1058A00000BF0C37BD465DF8047B704700E100E0A7
:1058B00000ED00E080B489B000AFF860B9607A60B4
:1058C000FB6803F00703FB61FB69C3F10703042BCB
:1058D00028BF0423BB61FB690433062B02D9FB6993
:1058E000033B00E000237B614FF0FF32BB6902FA0B
:1058F00003F3DA43BB681A407B699A404FF0FF31EB
:105900007B6901FA03F3D9437B680B4013431846C4
:105910002437BD465DF8047B7047000080B485B035
:1059200000AFF860B9607A600D4ABB6813441B7819
:105930001A46FB6813441B6823F0C0020849BB6881
:105940000B441B781946FB680B4419467B681343CC
:105950000B6000BF1437BD465DF8047B704700BF85
:10596000C405010880B485B000AFF860B9607A6002
:105970000D4ABB6813441B781A46FB6813441B6826
:1059800023F490720849BB680B441B781946FB68E6
:105990000B4419467B6813430B6000BF1437BD46A8
:1059A0005DF8047B704700BFC405010880B485B072
:1059B00000AFF860B9607A600D4ABB6813441B7889
:1059C0001A46FB6813441B6823F400720849BB683D
:1059D0000B441B781946FB680B4419467B6813433C
:1059E0000B6000BF1437BD465DF8047B704700BFF5
:1059F000C405010880B485B000AFF860B9607A6072
:105A00000D4ABB6813441B781A46FB6813441B6895
:105A100023F480620849BB680B441B781946FB6875
:105A20000B4419467B6813430B6000BF1437BD4617
:105A30005DF8047B704700BFC405010880B485B0E1
:105A400000AFF860B9607A600D4ABB6813441B78F8
:105A50001A46FB6813441B6823F4C0520849BB680C
:105A60000B441B781946FB680B4419467B681343AB
:105A70000B6000BF1437BD465DF8047B704700BF64
:105A8000C405010880B485B000AFF860B9607A60E1
:105A90000D4ABB6813441B781A46FB6813441B6805
:105AA00023F4C0420849BB680B441B781946FB68C5
:105AB0000B4419467B6813430B6000BF1437BD4687
:105AC0005DF8047B704700BFC405010880B485B051
:105AD00000AFF860B9607A600D4ABB6813441B7868
